:020000040800F2
:1000000000020020DD04000879040008350400081F
:100010008904000899040008A904000800000000F1
:1000200000000000000000000000000011040008B3
:10003000B904000800000000ED030008C90400082E
:100040009501000895010008950100089501000838
:1000500095010008950100081D0C00081D0C000802
:100060001D0C00081D0C00081D0C0008950100085F
:100070009501000895010008950100089501000808
:100080009501000895010008950100080000000096
:100090000000000000000000000000001D0C00082F
:1000A00095010008950100089501000895010008D8
:1000B00095010008950100089501000895010008C8
:1000C00095010008950100089501000895010008B8
:1000D000950100081B0B0008150B0008000000002C
:1000E0001D0C0008950100089501000800000000A3
:1000F0000000000000000000000000009501000862
:100100000000000095010008CD14000895010008CA
:1001100000000000000000000000000000000000DF
:100120009501000895010008950100089501000857
:100130009501000800000000000000000000000021
:100140000000000000000000000000009501000811
:10015000950100089501000895010008210B000891
:100160009501000895010008000000000000000053
:10017000000000000000000000000000000000007F
:1001800000000000950100080000000000000000D1
:100190009501000800F098B900F0B8BA7047000067
:1001A00070B50C46064600F0A1FA094B094A1D68D5
:1001B0002C44944202D8084A944207D20C2333605C
:1001C0004FF0FF3500F09AFA284670BD1C60F9E741
:1001D0000002002000800120F41100201946104682
:1001E00000F0A0BA1946104600F0A4BA1323036029
:1001F0004FF0FF307047132303604FF0FF3070471C
:10020000132303604FF0FF30704702294FF00003C3
:1002100003608CBF0020012070470000134A144B7C
:10022000144910B514680020844294FAA4F2B2FA7A
:1002300082F2114C186008BF4FF0FF320B6854F87F
:1002400022201268A2F108049C420ED023B1187932
:100250000A2804BF0B2018710A2302F8043C074B3C
:1002600032F9022C1A800C60012010BD900200208F
:100270009C02002098020020A4020020940200208A
:10028000092930B503791AD9092B14D842791A4BA8
:1002900053F8225000F108047DB12D68856053F8B1
:1002A00022502C6043F82240144A44790123A34091
:1002B000146823431360017130BD8460F2E7092B99
:1002C000F9D945790C4C54F825303BB11A68934262
:1002D0000BBF0023126844F825301A60427954F8A5
:1002E0002230002BE7D1054C012303FA02F22368E8
:1002F00023EA02032360DEE7A4020020900200202C
:1003000008B5094B1B681A79092A02D95B7983421F
:1003100005D900F0F6F918B1044B01221A6008BDA6
:10032000BDE8084000F05AB8980200209C02002066
:1003300008B500F0DBF9094B094A1B88094C1BB2D0
:10034000002142F82310084A20681368013B13601B
:10035000FFF796FF216000F03DF800BF94020020F7
:10036000E402002098020020A00200201A4422F09B
:10037000030210B54FF0773442F8044C540758BFCD
:100380004FF08834A2F104035CBF42F8084CA2F19C
:1003900008034FF0807243E902020D4A43F80C2C27
:1003A0000020032243E9052018460122022443E9E4
:1003B000072440F8201D0B2240F8042D013A032A9F
:1003C000FAD118466FF0020340F8443D10BD00BF5B
:1003D0003103000800F08EF901DFFEE7024A53689E
:1003E00043F080535360704700ED00E0EFF3098065
:1003F0001EF0100F08BF20ED108A20E9F00F40F822
:1004000004ED02490968086000F002F89802002033
:10041000FFF704FF06480068016801C9B1E8F00F62
:1004200010F0100F08BFB1EC108A81F30988004763
:10043000980200200D4B0E4A0E496846904203D8A0
:10044000984201D9002102E009468D46012104208D
:100450007246024202D1EFF3088001E0EFF3098017
:100460002DE9F00F6B4600F06FF800BF5801002037
:10047000008001200002002008B50249042000F09D
:10048000CBFC00BF9826000808B50249062000F002
:10049000C3FC00BFA426000808B50249072000F0ED
:1004A000BBFC00BFB726000808B50249082000F0D1
:1004B000B3FC00BFC926000808B50249092000F0B6
:1004C000ABFC00BFDD26000808B502490A2000F099
:1004D000A3FC00BFEF2600087047704708B5FFF780
:1004E000FBFF6A46114B1249934213D3114B124A38
:1004F00012498B4211D3124B124A0021934211D35D
:10050000FFF7EBFF00F084FC01F0BEF8BDE8084007
:1005100000F0B4BC43F8041BE6E752F8040B43F8C0
:10052000040BE6E743F8041BE8E700BF00000020E7
:10053000FEE7FEE7000200205C2B0008900200208E
:1005400090020020F41100202DE9F04F2DED068BD4
:1005500089B0914604934F4B9A6B08EE102A5A6B60
:10056000D3F828A008EE902ADA6A09EE102A1A6B4E
:10057000DB6B0AEE103A484B09EE902A1A68474B9B
:100580009A420446884602D0454801F027F9B8F15E
:10059000000F56D0434801F021F900252E4642486D
:1005A00001F01CF95146414801F092F819EE101A79
:1005B0003F4801F08DF819EE901A3E4801F088F896
:1005C0001AEE101A3C4801F083F81AF4004F04D0D8
:1005D00018EE101A394801F07BF81AF0800F04D099
:1005E00018EE901A364801F073F8364801F0F6F824
:1005F0003548494601F06CF8B8F1000F1CD133487A
:1006000001F0ECF83146324801F062F86946314BAE
:10061000C91A03D53048494201F05AF8049E2046D1
:100620008268C36801698C4641698E46AD46314691
:1006300091E8F00F4168006801BE2849052000F0EC
:10064000EBFBD4E90230D4E90012E769039020699A
:100650000591D4E905B60AEE900AB8052048CDE91F
:10066000062354BF04F1200504F1240501F0B6F877
:10067000039B059900931B48DDE9062301F028F848
:100680001AEE901A009733465A46174801F020F8A0
:1006900085E700BF00ED00E000000020FEE7FEE778
:1006A000FD26000813270008D8270008E1270008C6
:1006B000F127000801280008112800082128000857
:1006C000312800084128000846280008582800085A
:1006D0008928000858010020B1280008DE280008F9
:1006E000422700085D2700089A270008EFF31080D2
:1006F00072B6704762B6EFF31080704780F31088CF
:100700007047EFF30580C0B270470000034B044A06
:100710004FF4E131002000F09BB900BF040200203B
:100720009D1000080A460146014800F0C2BC00BF07
:100730000402002010B50A460C460146002000F0D5
:1007400051F9204610BD00002DE9F84F614B0128FA
:10075000187005D002281BD04FF0FF30BDE8F88F8D
:100760005D4B1A6842F00E021A605A6842F48072B9
:100770005A605A4A136943F004031361FFF7B6FF46
:10078000BFF34F8F30BFFFF7B9FF00F0C5FCE3E7C1
:10079000514A534F1368DFF86891DFF86881514C74
:1007A00023F003031360136843F4007343F0010361
:1007B00013604A4A136943F004031361FFF796FF7D
:1007C00045460646CA46BB46204600F015FC464B49
:1007D00000285AD1454CDFF830B10025A246DBF89D
:1007E0000010CB6813F400535DD0CB6823F40053A2
:1007F000CB60DBF80C00042100F095F90122227097
:100800000135032D0BF1180B04F10104E7D1384C2D
:10081000A169207F00F0DCFD012810D12368E06889
:100820001B689B074CBF0421082100F07CF90821BC
:10083000606800F078F9A068032100F074F9013DC8
:1008400004F12004E4D1BFF34F8F30BF00F064FC0B
:10085000244C254D204600F0CFFB30BB9AF80030E9
:1008600023B1244AD36843F40053D3609AF801308B
:1008700023B1214AD36843F40053D3609AF802307D
:100880000BBB3046FFF73AFF66E722684BF8042BB4
:10089000E2684AF8042B626825F8022B04F58064AC
:1008A0009C4291D196E72370AAE759F8043BE36094
:1008B00038F8023B636057F8043B236004F580641A
:1008C000AC42C7D1CAE70D4AD36843F40053D360A2
:1008D000D7E700BFFB0300200070004000ED00E000
:1008E000A80300200000024000200240F80300207E
:1008F000F4280008004400400010014000140140AA
:10090000D8030020C80300205429000808B5FFF7C9
:10091000EDFE024B00221A7008BD00BFFB03002051
:1009200018230E4A434370B5D4582568AA0609D542
:100930000B4A61680C235843131812581E7A5868E2
:10094000314090472B0748BF6368064B1B681BB1BB
:10095000BDE87040FFF742BD70BD00BF9C29000894
:10096000FC0300209C0200202DE9F0411C4E1824BD
:10097000444306EB04080D4698F81470384600F01E
:10098000C5FCB0FBF5F0072808D83846D8F80410A5
:1009900000F0F6FC6FF00100BDE8F0813259D36839
:1009A00023F40053D3600F28D168C3B20DD8083B9D
:1009B00041F4004143F01003D160DBB29360D3688F
:1009C00043F40053D3600020E6E720F00F0000045A
:1009D00021F4004103F00F03000CD1600343EDE765
:1009E0009C290008022810B503D90C49032000F007
:1009F00013FA182358430A4B1B58D868000705D52B
:100A00000A44914203D11A685206FCD510BD11F870
:100A1000010B1C682406FCD55860F2E7122A000876
:100A20009C290008022808B503D90749032000F0D3
:100A3000F3F9064B182202FB0030BDE8084041687C
:100A4000007D00F079BC00BF122A00089C29000834
:100A500002282DE9F84304460F46164603D92949D2
:100A6000032000F0D9F9DFF8A88027480C221825C8
:100A7000624305FB04858118D5F80C904B60FF2379
:100A800086500B724846697C00F04DF8484600F0ED
:100A9000AEF8E97C484600F07FF84EB1D5F80890F2
:100AA000297C484600F03FF8A97C484600F074F8DD
:100AB0002046FFF7B7FF1823634308EB030958F8F4
:100AC00003500023EB6039462B6120466B61FFF732
:100AD0004BFF9EB199F9153099F81520002B07DBD3
:100AE00002F01F0101228A405B09084941F82320D6
:100AF00042F22C03EB600020BDE8F88342F20803C9
:100B0000F8E700BF122A0008FC03002000E100E023
:100B10009C2900080020FFF703BF0120FFF700BF5A
:100B20000220FFF7FDBEF8B5431C0C4633D020F081
:100B30000F0500F00F060127C0F3832007FA00F12C
:100B4000022000F0F9FBFFF7D1FD2A6806FA07FC46
:100B5000032303FA0CF304F0030122EA030201FA6F
:100B60000CF111432960E968C4F3810221EA030111
:100B700002FA0CF20A43EA606A68B740C4F3001450
:100B800022EA0707B4403C436C60AA681343AB6099
:100B9000FFF7B4FD0020F8BDF8B5431C04460D4630
:100BA00024D020F00F0600F00F07FFF79FFD3268FA
:100BB000790003238B4022EA030202238B40134374
:100BC000072F33608CBF042300231E4404F0070466
:100BD000316AA4000F23A34021EA030105FA04F4BB
:100BE0000C433462BDE8F840FFF788BDF8BD431CF4
:100BF00007D020F00F02012300F00F0003FA00F0ED
:100C000090617047431C08D020F00F0200F00F00E5
:100C10001030012303FA00F0906170472DE9F04194
:100C20000E4F0F4D7E693B6800241E404FF00108B7
:100C300008FA04F3334203D07B61D5E900309847CA
:100C40000134102C05F10805F2D1064B1B681BB1CD
:100C5000BDE8F041FFF7C2BBBDE8F081003C0140B8
:100C6000200400209C020020002000F0F1BB0000C6
:100C7000034B1968024611B9084600F0C9BB70471A
:100C8000A0040020F0B5204F204E3B68DFF884C060
:100C900001333B601E4B00201A6818603368CCF8A3
:100CA00000201946054621B1D7F800E08C6874454C
:100CB00014D900B1316085B10021296002B38BB134
:100CC000556859688D4294BF10461846014612680F
:100CD0001B684AB90B60CCF80000F0BD0D4601203E
:100CE0000968E0E71046F1E70BB90A60F3E75768D7
:100CF0005E68B74294BF15461D460D602946E6E77B
:100D0000CCF80030E9E700BFA4040020A8040020CC
:100D1000AC040020B00400202DE9F04100295FD18F
:100D2000304F314D01233B602B68BBB9FFF7AAFF61
:100D3000FFF79AFF0130FBD000244FF000082B682A
:100D400083B9FFF791FF1430844226D9FFF79AFF49
:100D5000FFF78AFF8442FBD30024F0E7FFF784FF0C
:100D60000446EAE75E68FFF77FFF844204D88642C4
:100D700002D9301A1328E4D82B685E68FFF774FF95
:100D8000844201D88642F7D82B681A682A60C3E9E2
:100D90000188D3E903209047D1E72B686BB15E68E7
:100DA000FFF762FF063E14308642C8D300233B6043
:100DB0003046BDE8F041FFF75BBFFFF755FF8442C7
:100DC000064602D9FFF75EFFC6E710F1150F04D9FA
:100DD000FFF74AFF8642FBD9F4E74FF0FF36E5E71D
:100DE000BDE8F081A0040020B004002008B5002375
:100DF0001846054A054900F03DFBBDE808404FF0A4
:100E0000FF30FFF735BF00BF190D000840420F004B
:100E100000F046BA7047000008B50C4B1A680C4643
:100E200072B9012203281A6003D17146084800F004
:100E30004FFC0848214600F04BFC074800F048FCF6
:100E4000FFF754FCFFF7E6FFFFF760FDB404002056
:100E5000E4290008E8290008042A000808B500F081
:100E6000BBFB034800F034FC00F09CFB002008BDF5
:100E7000242A000808B500F02FF9FCE71FB5FFF79A
:100E800035FC0E4B0E481B68029300240D4B00935B
:100E90000F220C234FF48071019400F033F80A4BB9
:100EA0000A481B68CDE90143094B009307220C2334
:100EB0004FF4406100F026F8FFF78CFA180200208A
:100EC000B8040020750E00081C020020B8050020A0
:100ED0005D0E000838B50B79092B03D908490320AA
:100EE000FFF79AFF4C7901F108020346006818B138
:100EF00010F8035CA542F8D988601A6038BD00BFBD
:100F0000122A00080F2A2DE9F74F05468A46904617
:100F1000994637D810F003031DBFC3F10402043B08
:100F20005B180B46A3F1300318BFAD1823F0030381
:100F300019F0080F05EB03041AD12D6003E01260CD
:100F40000432A242FBD30193FFF7D0FB2849019B57
:100F50000746012251F822600FFA82FBAEB101323E
:100F6000212AF7D13846FFF7C9FB6FF08A0B3BE027
:100F70002A46E6E701212046FFF782F93846FFF7C7
:100F8000BDFB31E06FF0150B2EE041F822402A4600
:100F9000DDE90C01A4F806B0FFF7E8F90E9B154A4D
:100FA000A3624FF0FF33C4E90736136820600133B2
:100FB00019F0010FC4E90266C4E904666562C4F869
:100FC0002CA084F805802671A6611360D2D10B2174
:100FD0002046FFF755F919F0040FCFD13846FFF737
:100FE0008DFB4046FFF78CF9584603B0BDE8F08F03
:100FF000E4020020A00200200C4B9A6A42F4004256
:101000009A62EFF3138171B65A6942F480725A61A1
:101010000278986A5A6922F480725A6181F31388BF
:1010200080F40040C0F3C030704700BF00ED00E026
:10103000F8B505460F46164604463C442046FFF7E1
:10104000DBFF631B08B19E42F7D81846F8BD0000CD
:101050000F4BD3F8882042F4700210B51021C3F86A
:1010600088200C4C0C4A9A6083F822100022D97711
:10107000A0180132552A80F80013F9D11A6942F0FC
:1010800010021A615A6942F400725A6110BD00BF21
:1010900000ED00E000E100E00000000838B5054682
:1010A00000F064FA044605F1100000F0C7FA20468B
:1010B00038BDF8B504460D46164600F11007324615
:1010C0002946204600F03FFA00B1F8BD012138461C
:1010D00000F084FAF3E7000073B50E4E3368019315
:1010E00004230DEB03021D46013B995C11B9002B53
:1010F000F9D11D46FFF7FAFA3368019A9A4204467D
:1011000002D168B2FFF720FB204602B0BDE8704074
:10111000FFF7F4BA2002002038B5FFF7E7FA1C4CBD
:101120000023E360054600F03DF84FF48053A360D0
:10113000A36813F00C0FFBD1164B40F202721A6039
:1011400081232360236843F480332360104B1A68A3
:101150009103FCD5104A5A601A6842F080721A60F6
:101160001A689201FCD59A6842F002029A60084A15
:10117000936803F00C03082BFAD100F01FF8074B1B
:10118000074A1A622846BDE83840FFF7B7BA00BFE1
:1011900000380240003C0240042A4107B8110020F8
:1011A00000BD0105044B1A6842F001021A601A687A
:1011B0009207FCD5704700BF00380240044B9A6884
:1011C00012F00C0F1EBF1A6822F001021A6070475D
:1011D0000038024010B54FF4C0224FF480614FF048
:1011E0000050FFF725FF2B4C042320604FF4001222
:1011F0004FF480614FF000602371FFF719FF264B19
:10120000A0601B6840F24142C3F30B03934238D8FD
:1012100040F22242934207D8A3F213430E2B28D95F
:101220000023C4E9033310E00122A3F2234302FAAE
:1012300003F302F1402202F540321A40002AEFD0B7
:101240004FF48043800B2361E06004232375042363
:101250002377114B1B68C3F30B03A3F21343002244
:10126000502BA26196BF0D4A1346D35C84F82430FC
:1012700010BD012202FA03F344F241021342CFD01F
:10128000DEE7B3F58B6FDBD040F263429342C7D108
:10129000D6E700BFB8110020002004E05E2A000855
:1012A00010B5FFF7D5FE4FF08051002000F044F854
:1012B000FFF732FF124B4FF6FF7102201C6B00F05C
:1012C0003BF8104B6FF0A8421A606FF4A072C3F89D
:1012D00000240D4A4FF0FF331360C2F80034C2F807
:1012E000003802F50062A1B2C2F8003C022000F012
:1012F00023F800F04EF9BDE81040FFF76BBF00BFC8
:10130000003802400000024000080240044A002861
:1013100008BF0223106A18BF0123B0FBF3F0704727
:10132000B811002008B50146FFF7F0FF014B5B5CE8
:10133000584308BDAF2A0008042808D8DFE800F0A9
:10134000030A0F1419000D4A136C19431164BFF3FB
:101350004F8F7047094A536C19435164F7E7074AA6
:10136000136B19431163F2E7044A536B194351633A
:10137000EDE7024A936B19439163E8E700380240B6
:10138000042821D8DFE800F003090F151B000F4ADD
:10139000136C23EA0101116470470C4A536C23EA71
:1013A000010151647047094A136B23EA010111637B
:1013B0007047064A536B23EA010151637047034AA1
:1013C000936B23EA01019163704700BF003802402C
:1013D000042817D8DFE800F0030A0D1013000B4BA8
:1013E0001B6C0B4214BF012000207047074B5B6C45
:1013F000F7E7064B1B6BF4E7044B5B6BF1E7034B22
:101400009B6BEEE74FF0FF30704700BF00380240A3
:10141000032910B517DC0D4B040103EB00101C5918
:1014200043681A4001F10C0304EB830300205A6067
:101430002269022303FA01F122EA01022261E36830
:101440001943E16010BD4FF0FF30FBE7B42A0008FC
:101450000001024B1B58586A704700BFB42A0008AD
:10146000034B00011A58136843F0010313607047DF
:10147000B42A000870B50E460446E8B91049114D6B
:10148000C1E900230821FFF757FF4FF0FF332C601D
:1014900020466C60EB62FFF745FF0123B0FBF6F0DE
:1014A0000138A8626B61084B4FF4802220465A60D5
:1014B000FFF7D6FF204670BD4FF0FF30FBE700BFBF
:1014C000E0110020000C004000E100E02DE9F041B7
:1014D000154D164F2E69EB6800241E404FF0020890
:1014E00008FA04F2164207D0EB68786823EA020390
:1014F000EB6021463B6898470123A340334207D065
:101500002B69786823F001032B6121463B689847DB
:101510000134042CE4D1064B1B681BB1BDE8F0413B
:10152000FEF75CBFBDE8F081000C0040E011002038
:101530009C02002082680168531C83604368013B61
:101540001340C85C7047F8B504460F46164615466A
:101550001DB1A268E3689A4201D1701BF8BD204614
:10156000FFF7E8FF013D07F8010BF1E7C2684368A8
:1015700030B58468121B9A4208D0C2680468013BE7
:101580001340551CC560E154002030BD4FF0FF30C2
:10159000FBE770474FF47A63584300B9704700BFC8
:1015A0000138FAE708B50A480A4D094C0121FFF74E
:1015B000BAFA286880B2FFF7EDFF2046FFF717FB65
:1015C000286880B2FFF7E6FF2046FFF71BFBF0E735
:1015D0000500024024020020FFF708BC70B5044655
:1015E0000D46FFF783F8236806463BB94FF0FF33FB
:1015F0002360FFF783F80125284670BDC5B10E4B67
:101600001D6802212846FEF73BFE236801330AD1FC
:1016100005F1080323600023AB603046FFF76EF846
:10162000FEF7DCFEE7E729462046FFF753FCF4E728
:10163000FFF764F8E0E700BF9802002070B50446A9
:10164000FFF754F8256806461DB9BDE87040FFF75E
:1016500055B86B1C02D100232360F6E728460B2106
:1016600050F808392360FEF70BFE236813B94FF0DA
:10167000FF33236015F8034C3046FFF73FF8204650
:10168000BDE87040FEF73CBE70B50D4D0D4C641BBF
:10169000A4100026A64209D10B4D0C4CFEF77CFD90
:1016A000641BA4100026A64205D170BD55F8043B6A
:1016B00098470136EEE755F8043B98470136F2E7C4
:1016C0005C2B00085C2B00085C2B00085C2B0008DE
:1016D0000FB40A4B13B51C6824B1A36913B9204693
:1016E00000F05EFA05AB049AA1680193204600F071
:1016F0006FFC02B0BDE8104004B070472802002023
:1017000070B50E46054618B183690BB900F048FA6A
:10171000AB69AC6813B9284600F042FA2C4B9C42E6
:1017200020D16C68636EDB0705D4A389980502D4C9
:10173000A06D00F0D3FAA38919071DD52369DBB189
:10174000013EA36816F8011F013BA36039BB002BC3
:1017500038DA22460A21284600F048F8013011D034
:101760000A2511E01B4B9C4201D1AC68DAE71A4B09
:101770009C4208BFEC68D5E72146284600F088F86F
:101780000028DDD04FF0FF35636EDA0705D4A3895A
:101790009B0502D4A06D00F0A2FA284670BD002B74
:1017A00004DAA2699A4206DC0A2904D023685A1C8A
:1017B00022601970C5E72246284600F017F801306C
:1017C000BFD1DFE723680A255A1C22601D70DBE7C2
:1017D000E82A0008082B0008C82A0008024B014626
:1017E0001868FFF78DBF00BF28020020F8B50E462D
:1017F0001446054618B183690BB900F0D1F9214BA5
:101800009C422BD16C68A369A360A3891A072FD5CA
:1018100023696BB323692068C01A6369F6B28342F7
:10182000374604DC2146284600F026F930BBA36881
:10183000013BA36023685A1C22601E70636901305B
:10184000834204D0A389DB0706D50A2E04D12146A2
:10185000284600F011F988B93846F8BD0A4B9C4279
:1018600001D1AC68CFE7094B9C4208BFEC68CAE7DE
:101870002146284600F00CF80028CBD04FF0FF3767
:10188000EAE700BFE82A0008082B0008C82A000879
:10189000324B70B51D6806460C4625B1AB6913B9CD
:1018A000284600F07DF92E4B9C420FD16C68A3892D
:1018B000B4F90C2019072CD4DD0611D409233360A8
:1018C00042F04003A3814FF0FF303EE0254B9C42A5
:1018D00001D1AC68EBE7244B9C4208BFEC68E6E71B
:1018E000580712D5616B41B104F14403994202D00B
:1018F000304600F063FA00236363A38923F02403D6
:10190000A3810023636023692360A38943F0080354
:10191000A38123694BB9A38903F42073B3F5007F36
:1019200003D02146304600F001FAA089B4F90C201A
:1019300010F001030AD00023A36063695B42A36136
:10194000236943B910F08000BAD170BD810758BF38
:101950006369A360F4E70020F7E700BF28020020D6
:10196000E82A0008082B0008C82A00088A892DE9FF
:10197000F041054610070C4658D44B68002B05DC97
:101980000B6C002B02DC0020BDE8F081E66A002E23
:10199000F9D0002312F480522F682B6032D0606D92
:1019A000A3895A0705D56368C01A636B0BB1236C12
:1019B000C01A00230246E66A216A2846B047431C43
:1019C000A38906D129681D292CD82A4ACA40D607DE
:1019D00028D500226260D9042269226004D5421C05
:1019E00001D12B6803B96065616B2F600029CAD0F3
:1019F00004F14403994202D0284600F0DFF90020A8
:101A00006063C1E7216A01232846B047411CC7D162
:101A10002B68002BC4D01D2B01D0162B01D12F60B9
:101A2000B1E7A38943F04003A381ADE70F69002F1D
:101A3000A9D093070E6808BF4B690F6018BF002339
:101A4000A6EB07088B60B8F1000F9CDD216AA66A3F
:101A500043463A462846B047002806DCA38943F0AF
:101A60004003A3814FF0FF308EE70744A8EB000846
:101A7000E9E700BF0100402038B50B6905460C4678
:101A800013B90025284638BD18B183690BB900F099
:101A900087F8144B9C421BD16C68B4F90C30002BB6
:101AA000EFD0626ED00704D4990502D4A06D00F087
:101AB00015F928462146FFF759FF636EDA070546F8
:101AC000E0D4A3899B05DDD4A06D00F008F9D9E727
:101AD000054B9C4201D1AC68DFE7044B9C4208BF38
:101AE000EC68DAE7E82A0008082B0008C82A000892
:101AF000002310B50446C0E90033C0E90433836015
:101B000081814366C2818361194608225C3000F0FE
:101B10004DF9054B6362054BA362054BE362054B30
:101B20002462236310BD00BF592500087B250008EF
:101B3000B3250008D7250008014900F0AFB800BF61
:101B4000791A000870B568224D1E55430E4605F1FE
:101B5000740100F09FF9044640B10021C0E900166D
:101B60000C30A06005F1680200F020F9204670BD3D
:101B7000014800F0B3B800BFE9110020014800F0AF
:101B8000AEB800BFE9110020014800F0A7B800BFBF
:101B9000EA110020014800F0A2B800BFEA110020BD
:101BA00010B50446FFF7F0FFA3691BB1BDE8104074
:101BB000FFF7F0BFC4E912332365134B134A1B68C8
:101BC000A262A34204BF0123A361204600F020F8D3
:101BD0006060204600F01CF8A060204600F018F875
:101BE0000022E06004216068FFF782FFA068012204
:101BF0000921FFF77DFFE06802221221FFF778FF3D
:101C00000123A361D2E700BFC42A0008391B0008E2
:101C1000F8B50746FFF7ACFF1E4B1E68B36913B952
:101C20003046FFF7BDFF4836D6E90134013B03D506
:101C300033680BB33668F7E7B4F90C50D5B9164BD7
:101C4000E36004F15800656600F047F8FFF796FF7F
:101C5000C4E90155C4E904552560A5610822294657
:101C600004F15C0000F0A2F8C4E90D55C4E9125576
:101C70002046F8BD6834D9E704213846FFF762FFF3
:101C8000044630600028D5D1FFF778FF0C233B6075
:101C9000EEE700BFC42A00080100FFFF2DE9F8436A
:101CA0000646884600F148040027D4E90195B9F1B9
:101CB000010905D52468002CF7D13846BDE8F88322
:101CC000AB89012B07D9B5F90E30013303D0294672
:101CD0003046C04707436835E9E7704770477047AB
:101CE00070B50E46B1F90E10002996B014461D4687
:101CF00008DAB6F90C3000222A601A0610D44FF424
:101D000080630EE06A46FEF77BFA0028F1DB019A59
:101D100002F47042A2F500535A425A412A60EEE79B
:101D200040230020236016B070BD00008B8973B57E
:101D30009D0706460C4607D504F14703236023613F
:101D40000123636102B070BD01AB6A46FFF7C8FFB3
:101D500000990546304600F09DF848B9B4F90C30BA
:101D60009A05EFD423F0030343F00203A381E3E7D2
:101D70000D4BB362A389206043F08003A381009BD5
:101D80006361019B20615BB1B4F90E103046FEF730
:101D90003CFA28B1A38923F0030343F00103A38194
:101DA000A0890543A581CDE7391B000802440346FD
:101DB000934200D1704703F8011BF9E737B50029BA
:101DC00044D051F8043C0190002BA1F10404B8BFA9
:101DD000E41800F055FC1E4A0198136833B963609B
:101DE000146003B0BDE8304000F050BCA34208D9F5
:101DF000256861198B4201BF19685B684919216028
:101E0000EDE71A465B680BB1A342FAD91168551881
:101E1000A5420BD1246821445418A3421160E0D19B
:101E20001C685B68536021441160DAE702D90C2317
:101E30000360D6E7256861198B4204BF19685B68A7
:101E4000636004BF491921605460CAE703B030BD24
:101E5000EC11002070B50E4E0C463168054611B9E4
:101E6000FEF79EF9306021462846FEF799F9431C9B
:101E70000AD0C41C24F00304A04207D0211A28462B
:101E8000FEF78EF9013001D14FF0FF34204670BDCE
:101E9000F01100202DE9F041CD1C25F00305083597
:101EA0000C2D38BF0C25002D074601DBA94205D9B2
:101EB0000C233B6000263046BDE8F0812E4E00F03A
:101EC000DFFB33681C4634BB29463846FFF7C2FFA8
:101ED000431C04464DD134682646002E40D1236869
:101EE0003146384604EB0308FEF75AF980453AD1EB
:101EF000216803356D1A25F0030508350C2D38BF10
:101F00000C2529463846FFF7A5FF01302BD0236862
:101F10002B4423600EE02268521B1ED40B2A16D9D4
:101F20006119A342256018BF5960636808BF31601A
:101F300062514B60384604F10B0600F0A7FB26F017
:101F40000706231DF21AB6D09B1BA350B3E76268A5
:101F5000A3420CBF32605A60ECE723466468B2E7E4
:101F600034467668B9E70C233B60384600F08EFBB8
:101F7000A1E72560DEE700BFEC1100209368013B7C
:101F8000002B10B4936008DA9469A34201DB0A299C
:101F900003D15DF8044BFFF729BC1368581C10608F
:101FA000197008465DF8044B7047F8B506460F46B1
:101FB0001446D518AC4201D1002007E014F8011BEB
:101FC0003A463046FFF7DAFF431CF3D1F8BD000074
:101FD0002DE9F04F0D469DB014469846064618B1BF
:101FE00083690BB9FFF7DCFD894B9D421BD17568F6
:101FF0006B6ED90705D4AB899A0502D4A86DFFF79B
:102000006DFEAB891B0701D52B69EBB9294630461C
:10201000FFF73EFCC0B16B6EDC070ED54FF0FF3012
:102020001DB0BDE8F08F7B4B9D4201D1B568DFE765
:10203000794B9D4208BFF568DAE7AB899805EDD486
:10204000A86DFFF74CFEE9E70023099320238DF8E4
:102050002930CDF80C803023DFF8C0818DF82A308C
:102060004FF0010923469A4613F8012B0AB1252A9D
:10207000F9D1BAEB040B0BD05B4622462946304619
:10208000FFF793FF013000F0AA80099A5A440992A1
:102090009AF80030002B00F0A28000234FF0FF32AE
:1020A000CDE905230AF1010A049307938DF8533013
:1020B0001A935446052214F8011B584800F090FA70
:1020C000049AD8B9D10644BF20238DF853301307A2
:1020D00044BF2B238DF853309AF800302A2B15D0AB
:1020E000079A544600204FF00A0C214611F8013B94
:1020F000303B092B4ED9B0B1079214E0A0EB080396
:1021000009FA03F313430493A246D2E7039B191D74
:102110001B680391002BBBBF5B4242F00202079396
:102120000793B8BF049223782E2B0CD163782A2B07
:1021300035D1039B1A1D1B680392002BB8BF4FF0CB
:10214000FF3302340593DFF8E4A0217803225046E0
:1021500000F046FA40B14023A0EB0A0003FA00F079
:10216000049B03430134049314F8011B2C488DF89D
:102170002810062200F034FA00283FD0294B1BBB60
:10218000039B073323F0070308330393099B3B4466
:10219000099367E70CFB02320C460120A5E70023F8
:1021A0000134059319464FF00A0C204610F8012B14
:1021B000303A092A03D9002BC5D00591C3E70CFB9F
:1021C000012104460123F0E703AB00932A46164B96
:1021D00004A93046AFF300800746781CD6D16B6E59
:1021E000D90705D4AB899A0502D4A86DFFF777FD0E
:1021F000AB895B063FF512AF099811E703AB00937B
:102200002A46094B04A9304600F080F8E4E700BFF5
:10221000E82A0008082B0008C82A0008282B000814
:10222000322B000800000000AB1F00082E2B000816
:102230002DE9F047164699468A680B69DDF820803B
:102240009342B8BF1346336091F8432007460C46CB
:102250000AB1013333602368990642BF3368023301
:102260003360256815F0060506D104F1190AE36804
:1022700032689B1AAB4226DC94F84320131E226876
:1022800018BF012392062BD404F143024946384675
:10229000C04701301ED02368E568326803F00603AA
:1022A000042B08BFAD1AA36822690CBF25EAE575A7
:1022B00000259342C4BF9B1AED1800261A34B5427C
:1022C0001AD1002008E00123524649463846C0474B
:1022D000013003D14FF0FF30BDE8F0870135C6E78C
:1022E000E1185A1C302081F84300224494F845102C
:1022F00082F843100233C7E7012322464946384695
:10230000C0470130E6D00136D9E700002DE9FF478C
:102310000F7E0C9D782F914680460C469A4601F11F
:10232000430207D8622F0AD8002F00F0D880582F18
:1023300000F0A38004F1420584F842703AE0A7F16E
:102340006303152BF6D801A151F823F0A52300084B
:10235000B923000835230008352300083523000879
:1023600035230008B9230008352300083523000869
:102370003523000835230008C5240008E923000898
:10238000A72400083523000835230008E7240008A7
:1023900035230008E9230008352300083523000809
:1023A000AF2400082B681A1D1B682A6004F142053F
:1023B00084F842300123A3E020682968060601F171
:1023C00004030AD50E682B60002E03DA2D23764213
:1023D00084F843305E480A2319E00E682B6010F041
:1023E000400F18BF36B2EFE72B682068191D29602F
:1023F000010601D51E6802E04606FBD51E8854483A
:102400006F2F0CBF08230A23002184F8431065684E
:10241000A560002DA2BF216821F0040121600EB942
:10242000002D4DD01546B6FBF3F103FB1167C75DD8
:1024300005F8017D3746BB420E46F4D9082B0BD177
:102440002368DE0708D5236961689942DEBF30231F
:1024500005F8013C05F1FF35521B2261CDF800A0C3
:102460004B4603AA21464046FFF7E2FE01304CD11D
:102470004FF0FF3004B0BDE8F087354881F8457073
:102480002968236851F8046B29601D0614D5DF07FD
:1024900044BF43F0200323601EB9236823F02003C8
:1024A00023601023B0E7236843F0200323607823E0
:1024B000284884F84530E3E7590648BFB6B2E6E756
:1024C0001546BBE72B6826686169181D286035062C
:1024D0001B6801D5196002E07006FBD51980002346
:1024E00023611546BAE72B681A1D2A601D686268C9
:1024F0000021284600F074F808B1401B6060636852
:102500002361002384F84330A8E723692A4649461B
:102510004046D0470130ABD023689B0713D4E06816
:10252000039B9842B8BF1846A4E7012332464946A8
:102530004046D04701309BD00135E36803995B1AD0
:10254000AB42F2DCEBE7002504F11906F5E700BF2A
:10255000392B00084A2B000810B50C46B1F90E10B3
:10256000FDF73CFE0028ABBF636DA3891B1823F465
:102570008053ACBF6365A38110BD2DE9F0411F46B8
:102580008B89DB0505460C46164605D5B1F90E10BC
:1025900002230022FDF72FFEA389B4F90E1023F4C5
:1025A0008053A38132463B462846BDE8F041FDF703
:1025B00019BE10B50C46B1F90E10FDF71CFE431CF8
:1025C000A38915BF606523F4805343F48053A3812E
:1025D00018BFA38110BDB1F90E10FDF707BE0000B2
:1025E00001F0FF01102A2BDB10F0070F08D010F8C4
:1025F000013B013A8B422DD010F0070F42B3F6D1C8
:10260000F0B441EA012141EA014122F007047FF0E0
:1026100000070023F0E80256083C85EA010586EA37
:10262000010685FA47F5A3FA87F586FA47F6A5FA73
:1026300087F68EB9EED1F0BC01F0FF0102F007027F
:1026400032B110F8013B013A83EA010313B1F8D12A
:102650000020704701387047002D06BF354603380B
:10266000073815F0010F07D1013015F4807F02BF44
:10267000013015F4C03F0130F0BC0138704700BF95
:102680000148FFF72BBB00BFE81100200148FFF70E
:1026900026BB00BFE81100204E4D492048414E4462
:1026A0004C4552004D454D204D414E414745204837
:1026B000414E444C455200425553204641554C54DE
:1026C0002048414E444C4552005553414745204611
:1026D00041554C542048414E444C455200444542DB
:1026E0005547204D4F4E2048414E444C45520044E2
:1026F000554D4D592048414E444C4552000A4953CE
:102700005220737461636B206F766572666C6F77AD
:10271000656400537461636B20706F696E746572D9
:1027200020636F727275707465642C2072657365B6
:102730007420746F20746F70206F662073746163EF
:102740006B000A436F6E74657874206265666F7201
:102750006520686172646661756C743A002020209F
:1027600072303A2030782530386C780A2020207278
:10277000313A2030782530386C780A2020207232A7
:102780003A2030782530386C780A20202072333A8D
:102790002030782530386C780A0020207231323AA7
:1027A0002030782530386C780A2020206C723A204E
:1027B00030782530386C780A20202070633A203039
:1027C000782530386C780A20207073723A2030787F
:1027D0002530386C780A0A004653522F4641523A47
:1027E0000020434653523A2030782530386C780A1E
:1027F0000020484653523A2030782530386C780A09
:102800000020444653523A2030782530386C780AFC
:102810000020414653523A2030782530386C780AEF
:102820000020424641523A2030782530386C780AF0
:10283000004D4D4641523A2030782530386C780AA8
:10284000004D697363004558435F5245543A203048
:10285000782530386C780A00417474656D7074693D
:102860006E6720746F207265636F6E737472756328
:102870007420737461746520666F7220646562757C
:102880006767696E672E2E2E00496E204744423AD4
:102890000A2020736574202470633D3078256C789D
:1028A0000A20206672616D6520300A202062740A59
:1028B000000A49535220737461636B206F7665720E
:1028C000666C6F776564206279206174206C656145
:1028D00073742025642062797465732E0A00484160
:1028E0005244204641554C542048414E444C455298
:1028F00000000000003001400700024006000240D6
:102900000500024004000240050000000010000025
:1029100001000000003800400F0402400E04024095
:102920000D0402400C0402400500000000400000BD
:1029300000000000003C00400C0802400B08024070
:102940000A080240FFFFFFFF0600000000800000B1
:1029500000000000004400400000020003000240AC
:10296000020002400000070700260000001001409E
:10297000100000000A0002400900024000000707A2
:102980000125000000140140200000000C0002405E
:102990000B0002400000080801470000004400400E
:1029A000000002000300024002000240000007078E
:1029B0000026000000100140100000000A00024044
:1029C0000900024000000707012500000014014033
:1029D000200000000C0002400B000240000008082C
:1029E0000147000025700A002A2A2A2052494F5424
:1029F000206B65726E656C2070616E69633A0A25A2
:102A0000730A0A002A2A2A2068616C7465642E0AF7
:102A10000A004641494C45442041535345525449CC
:102A20004F4E2E006D61696E28293A2054686973F3
:102A30002069732052494F542120285665727369CA
:102A40006F6E3A20323031392E30312E554E574488
:102A500053290A0069646C65006D61696E000100AC
:102A60000000000002000000000000000800030059
:102A70000000000000000000000000000600040943
:102A8000000000000000000000000000070000003F
:102A90000000000000000000000000000000000036
:102AA00000000005000000000000000000000A0215
:102AB00001000000000C0040FFFFFFFF08000000C5
:102AC000003200002C020020000000000000000086
:102AD00000000000000000000000000000000000F6
:102AE00000000000000000000000000000000000E6
:102AF00000000000000000000000000000000000D6
:102B000000000000000000000000000000000000C5
:102B100000000000000000000000000000000000B5
:102B20000000000000000000232D302B2000686C06
:102B30004C006566674546470030313233343536E0
:102B40003738394142434445460030313233343519
:0C2B500036373839616263646566000046
:102B5C00F811002068030020400000000000000075
:102B6C000000000000000000542A0008592A000848
:102B7C0001010101C80000002C020020000000002F
:102B8C00E82A0008082B0008C82A000800000000EA
:102B9C000000000000000000000000000000000029
:102BAC000000000000000000000000000000000019
:102BBC000000000000000000000000000000000009
:102BCC0000000000000000000000000000000000F9
:102BDC0000000000000000000000000028210000A0
:04000005080004DD0E
:00000001FF
