:020000040800F2
:100000000002002039050008CD040008890400081A
:10001000DD040008ED040008FD04000800000000F5
:10002000000000000000000000000000650400085F
:100030000D05000800000000410400081D0500082F
:100040009501000895010008950100089501000838
:100050009501000895010008950100089501000828
:100060009501000895010008950100089501000818
:100070009501000895010008950100089501000808
:100080009501000895010008950100080000000096
:1000900000000000000000000000000095010008C2
:1000A00095010008950100089501000895010008D8
:1000B00095010008950100089501000895010008C8
:1000C00095010008950100089501000895010008B8
:1000D00095010008050D0008C50C0008000000008F
:1000E0009501000895010008950100080000000036
:1000F0000000000000000000000000009501000862
:10010000000000009501000869180008950100082A
:1001100000000000000000000000000000000000DF
:100120009501000895010008950100089501000857
:100130009501000800000000000000000000000021
:100140000000000000000000000000009501000811
:10015000950100089501000895010008450D00086B
:100160009501000895010008000000000000000053
:10017000000000000000000000000000000000007F
:1001800000000000950100080000000000000000D1
:100190009501000800F0C2B900F08ABB704700BFAB
:1001A000014608B5024804F00BFC00F0ADFCFEE788
:1001B0005C6C000870B50C46064600F069FB0B4B02
:1001C0000B4A1D682C44944202D80A4A944207D232
:1001D0000C2333604FF0FF3500F062FB284670BD02
:1001E0001C6000F05DFB284670BD00BF00020020CF
:1001F00000800120FC120020014B188800B27047DB
:1002000008040020032303604FF0FF30704700BF55
:100210001946104600F058BB1946104600F05CBB6A
:10022000132303604FF0FF30704700BF13230360B8
:100230004FF0FF30704700BF132303604FF0FF30D3
:10024000704700BF02294FF0000303608CBF0020FD
:1002500001207047144B15481A681549002A92FA74
:10026000A2F3B3FA83F308BF4FF0FF330A6850F8E4
:1002700023301B6830B40F4DA3F1080400209442D2
:1002800028600ED022B110790A2804BF0B2010710B
:10029000094A33F9025C0A2003F8040C0120158096
:1002A0000C6030BC704700BF04040020180400201C
:1002B0000C0400201004002008040020092930B498
:1002C000037919D9092B14D842791D4B53F82250C0
:1002D00000F108044DB32D68856053F822502C605E
:1002E00043F82240174A44790123A340146823436A
:1002F000136030BC01717047092BFAD94279104C58
:1003000054F8223043B11D689D4210D02D681D6005
:1003100054F82230002BECD10A4C012303FA02F2EC
:10032000236823EA02032360E3E78460D8E700231D
:1003300044F82230427954F82230002BD9D1EBE72F
:10034000180400200404002008B5094B1B681A7922
:10035000092A02D95B79834205D900F0A5FA18B1C0
:10036000044B01221A6008BDBDE8084000F060B8E7
:100370000C0400201004002008B500F089FA094B95
:10038000094D1A88094C2B68094812B2002140F81F
:100390002210013B20682B60FFF790FF216000F0E6
:1003A00043F800BF08040020140400200C040020BF
:1003B000580400201A4422F003024FF0773330B47F
:1003C00042F8043C530704465DBF4FF0883042F8C2
:1003D000080CA2F10803131F124D4FF0807243E97D
:1003E0000242002243E904250324022243E90624B1
:1003F000012243E908120B250A2243E90A250924B0
:10040000082243E90C2418460721062243E90E215D
:10041000052404216FF0020243E9101440F8442D32
:1004200030BC70477903000800F036FA01DFFEE7C0
:10043000024A536843F080535360704700ED00E078
:10044000EFF309801EF0100F08BF20ED108A20E99D
:10045000F00F40F804ED02490968086000F002F866
:100460000C040020FFF7F6FE06480068016801C989
:10047000B1E8F00F10F0100F08BFB1EC108A81F353
:10048000098800470C0400200D4B0E4A0E496846AF
:10049000904203D8984201D9002102E009468D46D6
:1004A000012104207246024202D1EFF3088001E0EC
:1004B000EFF309802DE9F00F6B4600F017F900BF4C
:1004C00058010020008001200002002008B50249E8
:1004D000042000F0EFFD00BF786C000808B5024969
:1004E000062000F0E7FD00BF846C000808B5024953
:1004F000072000F0DFFD00BF986C000808B5024936
:10050000082000F0D7FD00BFAC6C000808B5024918
:10051000092000F0CFFD00BFC06C000808B50249FB
:100520000A2000F0C7FD00BFD46C0008704700BF70
:10053000704700BF0000000038B5FFF7F7FF6C46BA
:10054000634B9C423DD9DA432244172A4FEA92007A
:10055000C3F380011AD9002900F0A1801A465D4D2D
:1005600042F8045B03EB8103C1F1010101449FEDFB
:10057000547B480803EBC000A3EC027B8342FBD111
:1005800021F00100814202EB80031AD01946514A42
:1005900041F8042B8C4214D903F108018C425A60B3
:1005A0000FD903F10C018C429A600AD903F11001B2
:1005B0008C42DA6005D903F114018C421A6188BFBC
:1005C0005A61454C454B9C421FD2454840EA0401C4
:1005D000013B49072246A3EB040364D12B2B62D9CC
:1005E0009B08591C4FEA510C034600EBCC0CB3ECB2
:1005F000027B6345A2EC027BF9D1CA0721F001031B
:1006000003D550F8232044F82320364B364CA34220
:100610003BD2621ED21A9008172A00F10100C3F3E0
:10062000800117D900293CD01A46002542F8045B06
:10063000401A9FED257B03EB8103410803EBC101C9
:10064000A3EC027B9942FBD120F00101884202EB2E
:1006500081031AD01946002241F8042BA14214D27A
:1006600003F10801A1425A600FD203F10C01A1422B
:100670009A600AD203F11001A142DA6005D203F1B7
:100680001401A1421A6138BF5A61FFF751FF00F00F
:100690000DFD03F007FDBDE8384000F03FBD1A46F0
:1006A00060E71A46C4E723F0030304330C4903440C
:1006B00051F8040B42F8040B9942F9D1A5E700BFA9
:1006C000FEE7FEE7FEE7FEE7000000000000000096
:1006D00000000020FEE7FEE70002002004040020E6
:1006E000DC79000804040020FC1200202DE9F04F02
:1006F0002DED048B514EDFF894B18DB00D46B16BEA
:100700000B9390464E4BDBF800200991716B0A91D8
:10071000B76AD6F82C90316BD6ED0F8A9A4208EE64
:10072000101A044651D1002D54D1E0690490D4E947
:1007300002368005D4E9001254BF04F1200004F110
:1007400024000396266908903E480591CDE90623CA
:1007500009EE106AD4E9056A04F0B8F9039B05991B
:1007600000933948DDE9062304F02AF9049B00933D
:1007700019EE101A35483246534604F021F9344830
:1007800004F0A4F93946334804F01AF949463248CE
:1007900004F016F918EE101A304804F011F918EEAA
:1007A000901A2F4804F00CF93A043CD43B0635D497
:1007B0002C4804F08BF92C48414604F001F985B12E
:1007C00001BE2A49052000F075FC294804F07EF995
:1007D000002DAAD0274804F079F9002308939A46FF
:1007E000CDE7254804F072F95146244804F0E8F8B2
:1007F0006946A1EB0B01B1F5AC7119D4089D0B9EB4
:1008000020468268C36801698C4641698E46AD46C0
:10081000314691E8F00F41680068D1E70A9918481D
:1008200004F0CEF8C4E70999164804F0C9F8BDE70A
:100830004942154804F0C4F8E0E700BF00ED00E0CD
:10084000FEE7FEE72C6D0008486D0008886D000883
:10085000C86D0008D46D0008E46D0008F46D000850
:10086000046E0008346E00083C6E0008DC6E000860
:10087000E46C0008FC6C0008506E0008846E0008F0
:10088000246E0008146E0008AC6E00080000002002
:10089000EFF3108072B6704762B6EFF310807047C6
:1008A00080F31088704700BFEFF30580C0B2704737
:1008B000034B044A4FF4E131002000F069B900BF56
:1008C00004020020CD13000803460A4601481946D9
:1008D00000F088BD0402002010B50C4622460146F7
:1008E000002000F0CBF9204610BD00BF2DE9F84FE5
:1008F000754B01282DED028B187000F0A3800228A3
:1009000040F09A80714A72491368724D724F734E6B
:10091000734CDFF8ECB123F003031360136843F466
:10092000007343F0010313600B6943F004030B6190
:10093000FFF7AEFF08EE100AB146BA46A8462046B9
:1009400000F000FD60B1226848F8042FE2684AF820
:10095000042F626829F8022F04F580645C45EED10B
:10096000604AD36813F4005340F09F80DFF894810D
:1009700088F800305C4AD36813F4005340F08B8051
:100980005A4A88F80130D36813F4005377D188F8B5
:100990000230574C04F1600AA169207F00F0DEFEAE
:1009A000012811D12368E0681B689B074FF0040100
:1009B00058BF082100F0E6F90821606800F0E2F96C
:1009C000A068032100F0DEF920345445E4D1BFF3E0
:1009D0004F8F30BF00F044FD414CDFF824A120468A
:1009E00000F0B0FC60B136F8023F57F8042FE26027
:1009F000636055F8043F236004F580645445EED1EC
:100A000098F8003023B1374AD36843F40053D360D9
:100A100098F8013023B1344AD36843F40053D360CB
:100A200098F8023023B1314AD36843F40053D360BD
:100A300018EE100AFFF734FFBDEC028B4FF0FF30C9
:100A4000BDE8F88F214B22491A6842F00E021A6065
:100A50005A6842F480725A600B6943F004030B61D8
:100A6000FFF716FFBFF34F8F30BFFFF719FF00F0FE
:100A7000F7FCBDEC028B4FF0FF30BDE8F88FD36878
:100A80001C4823F40053D360042100F07BF90123B8
:100A900088F802307DE7D368174823F40053D36009
:100AA000042100F06FF901236AE7D3681348DFF8E7
:100AB000548023F40053D360042100F063F9012330
:100AC00088F8003056E700BF6F0500200070004036
:100AD00000ED00E018050020480500203A05002040
:100AE000000002400044004000100140001401409A
:100AF000F06E00080B0002400900024002000240B4
:100B0000002002406C05002008B5FFF7C1FE024B33
:100B100000221A7008BD00BF6F0500202DE9F041CA
:100B20001A4E00EB400306EBC3080D4698F814700C
:100B30003846DC0000F0A0FDB0FBF5F007281CD91A
:100B40003359DA6822F40052DA600F28DA680BD9D8
:100B500080B222F40042DA609860DA6842F400520F
:100B60000020DA60BDE8F081083840F0100042F45F
:100B70000042C0B2DA609860EFE73846D8F8041057
:100B800000F0C4FD6FF00100ECE700BF506F0008FB
:100B900002282DE9F04764D80546DFF8DC803348A9
:100BA00005EB450C08EBCC0440F82C2000EB8C0046
:100BB000D4F80CA04360FF2303720F465046617CBB
:100BC00091464FEACC0600F0DDF8504600F04AF9B5
:100BD000E17C504600F014F9B9F1000F2BD0D4F8A5
:100BE0000890217C484600F0CDF8A17C484600F0F2
:100BF00007F96168207D00F05DFD58F8066000236C
:100C0000F3603946336128467361FFF787FF94F933
:100C10001530627D002B08DB15485B0902F01F02CE
:100C2000012101FA02F240F8232042F22C03F36082
:100C30000020BDE8F0876168207D00F03BFD58F89A
:100C400006403946C4F80C902846C4F81090C4F801
:100C50001490FFF763FF42F20803E3600020BDE851
:100C6000F0870449032000F025FA00BF700500203A
:100C700000E100E0C86F0008506F0008022810B5BE
:100C800017D80E4B00EB400053F83000C3681C0728
:100C90000ED552B18B184A1E591E12F8014F036827
:100CA0001B06FCD58A424460F7D103685B06FCD57D
:100CB00010BD0349032000F0FDF900BF506F00088C
:100CC000C86F00080C4B10B51C68A20608D50B4A6B
:100CD000596892F808C0D2E900300CEA010198473F
:100CE000230744BF044B5B68054B1B6803B910BD69
:100CF000BDE81040FFF79CBB004400407005002099
:100D0000100400200C4B10B51C68A20608D50B4A35
:100D1000596892F814C0D2E903300CEA01019847EF
:100D2000230744BF044B5B68054B1B6803B910BD28
:100D3000BDE81040FFF77CBB0010014070050020AB
:100D4000100400200C4B10B51C68A20608D50B4AF5
:100D5000596892F820C0D2E906300CEA01019847A0
:100D6000230744BF044B5B68054B1B6803B910BDE8
:100D7000BDE81040FFF75CBB001401407005002087
:100D800010040020421C39D0F8B520F00F060D46A3
:100D90000127C0F3832100F00F0407FA01F10220BC
:100DA00000F088FCFFF774FD326804FA07FE0323A5
:100DB00003FA0EF305F0030122EA030201FA0EF131
:100DC00011433160F168C5F3810221EA030102FA9F
:100DD0000EF20A43F260C5F3001507FA04FC05FAA7
:100DE00004F4756825EA0C0C44EA0C047460B268DB
:100DF0001343B360FFF754FD0020F8BD704700BFF8
:100E0000421C2ED0F8B520F00F0700F00F050E465B
:100E10000446FFF73DFD3A68072D4FF003034FEA04
:100E2000450503FA05F322EA03034FF0020202FA32
:100E300005F242EA03028CBF042300233B4404F082
:100E400007043A60A40006FA04F10F221E6A02FAAF
:100E500004F426EA040421431962BDE8F840FFF7D0
:100E60001FBD7047431C07D020F00F02012300F084
:100E70000F0003FA00F09061704700BFF0B4254FF7
:100E80003E68002E2FD00020234D3346044605E057
:100E90001A681C460120002A2ED013462A68996839
:100EA0009142F5D900B13B60ECB11C4D2B6800229A
:100EB00022601BB359687268914294BF1F4637463F
:100EC0001A683368394612B35BB154685868844273
:100ED0000BD80A6010681B68A8B111460246002BA7
:100EE000F3D10A602F60F0BC70470B60126818687D
:100EF0003AB119460346E7E73A60D6E72E60F0BC00
:100F000070471A46034613602F60F0BC70473A469C
:100F1000F9E700BF9C05002098050020A4050020EB
:100F200001B170472DE9F84F504CDFF84CA1236810
:100F30000122CAF80020002B00F08480084600F04F
:100F40008BFC0546DFF82891DFF82881002723680D
:100F500053B100205E6800F07FFC85421DD88642B8
:100F60001BD9301A132818D9002000F075FC143052
:100F700085424ED8266816B30020766800F06CFCD7
:100F8000063E14308642E2D30023CAF80030DAF875
:100F90000010002950D0BDE8F88F236800205E685B
:100FA00000F05AFCA84201D38642F6D8236819689B
:100FB0002160D3E90320C3E901779047C7E73046B2
:100FC00000F04AFC8542834615D810F1150F4AD926
:100FD000002000F041FC8345FAD9D9F80030D8F858
:100FE000002022600133C9F80030C8F800700025E5
:100FF000FFF744FFABE7D9F800300133C9F8003000
:10100000D8F800302360C8F800603546FFF736FF97
:101010009DE7D9F800300133C9F80030D8F8003026
:101020002360C8F80070FFF729FF002000F014FCCF
:101030008542FAD300258AE732460846BDE8F84FD4
:1010400000F0E8BB0A490A6801320A60094A1168DF
:1010500021601360FFF712FF002000F0FDFB01305C
:10106000FAD000256EE74FF0FF368DE7A40500208B
:1010700098050020A00500209405002008B5002355
:101080000749084A184600F099FB074B196801B157
:1010900008BDBDE808404FF0FF32084600F0BABB7B
:1010A00040420F00210F00089405002000F0ACBA68
:1010B000704700BF08B50D4B1A685AB901220328C2
:1010C0000C461A600CD00A48214603F079FC094806
:1010D00003F076FCFFF7DCFBFFF7EAFFFFF714FDF8
:1010E0007146054803F06CFCEDE700BFA805002041
:1010F0009C6F0008B86F0008986F000808B502F0F0
:1011000003FB034803F05CFC00F03CFC002008BD3E
:10111000DC6F000808B500F079F9FCE700B585B090
:10112000FFF7B6FB0E4B0F49186800910024CDE97C
:1011300001400C230F224FF480710B480B4D00F03F
:1011400035F80B4B0B4819680095CDE901410C238C
:1011500007224FF4406100F029F8FFF765F900BF5E
:101160001802002015110008AC050020FD10000831
:101170001C020020AC06002010B50B79092B0FD8FB
:1011800091F805C001F1080403E010F8033C634541
:1011900003D8024600680028F7D18860146010BDAB
:1011A00001490320FFF786FFC86F00082DE9F04FC3
:1011B0000F2A83B072D81F4610F00303904683466F
:1011C00089464FD10B46303B23F0030339070BEB25
:1011D00003054DD5AB4504D25A4612600432954200
:1011E000FBD80193FFF754FB2E49019B82464FF039
:1011F000010C0A4604E00CF1010CBCF1210F47D0B0
:1012000052F8044F0FFA8CF6002CF4D141F82C5010
:101210005A46DDE90C01EE80FFF7CCF80E9B224A1E
:10122000AB624FF0FF33EB6113682860013313604A
:10123000FB07C5E90244C5E90444C5F824B0C5F874
:101240002C9085F805802C71AC612C6213D501219E
:101250002846FFF733F85046FFF722FB304603B02D
:10126000BDE8F08FC3F10402043B93440B44AAE7AA
:10127000CBF800B0B5E728460B21FFF71FF87A0737
:10128000E9D45046FFF70CFB4046FFF75DF8E5E771
:101290005046FFF705FB6FF08A06DFE76FF0150693
:1012A000DCE700BF5804002014040020012930B5F9
:1012B000234B844631D1996A41F400419962EFF39E
:1012C000138E744671B6596941F4807159611CF8E6
:1012D000011F996A09040AD5194A536923F48073D6
:1012E000536184F31388ACEB000E704630BD59692E
:1012F00021F4807159618EF31388ACEB000E7245B6
:10130000D9D8704630BD5C6924F480745C618EF37A
:101310001388ACEB000E9645E7D29C6A44F4004477
:101320008C449C62EFF3138E744671B65D6945F48C
:1013300080755D619CF800509D6A2D04CCD4E2E775
:1013400000ED00E00C4B9A6A42F400429A62EFF31F
:10135000138171B65A6942F480725A610278986AB0
:101360005A6922F480725A6181F3138880F4004034
:10137000C0F3C030704700BF00ED00E0104A1148D4
:10138000D2F8883010B4102143F470030E4CC2F828
:1013900088309460002382F82210D177C21801337C
:1013A000552B82F80013F9D1054B5DF8044B1A69EF
:1013B00042F010021A615A6942F400725A61704791
:1013C00000ED00E000E100E00000000838B505464F
:1013D00000F09CFA044605F1100002F0C7F920461F
:1013E00038BD00BFF8B504460E46154600F110079B
:1013F00002E0384602F08AF931462A46204600F0DB
:1014000069FA01210028F4D0F8BD00BF70B5134D72
:101410002C68230E1CD114F47F0F1BD114F47F4FC2
:101420001AD1E0B2061E18BF0126FFF731FA2B6869
:101430009C42054604D02846BDE87040FFF730BA0C
:101440003046FFF753FA2846BDE87040FFF728BA48
:101450000426EAE70326E8E70226E6E72002002062
:1014600038B5FFF715FA1D4C0023E360054600F080
:101470003FF84FF48053A360A36813F00C0FFBD127
:10148000174A812340F2027111602360236843F4FC
:101490008033A2F58062236013689903FCD5114B59
:1014A000536013680D4943F0807313600B689B0110
:1014B000FCD58B68094A43F002038B60936803F004
:1014C0000C03082BFAD100F01FF8074B074A1A62E9
:1014D0002846BDE83840FFF7E3B900BF00380240B6
:1014E000003C0240042A4107AC12002000BD010567
:1014F000044A136843F00103136013689B07FCD58B
:10150000704700BF00380240044B9A6812F00C0F7D
:1015100003D01A6822F001021A60704700380240B6
:1015200010B54FF4C0224FF480614FF00050FFF728
:10153000BDFE324C042320604FF400124FF4806152
:101540004FF000602371FFF7B1FE2D4B1B68A060C8
:10155000C3F30B03B3F58B6F46D840F212429342AC
:1015600046D9A3F21343452B42D8DFE803F02341C9
:1015700041414141234141414141414123412341B5
:1015800041414141414141414141414123412323A5
:101590004141414141414141414141412341414159
:1015A000414141414141414141414141414141412B
:1015B000414141234FF48042800BC4E903020423DC
:1015C00023750F4B1B68C3F30B03A3F213430022D5
:1015D000502BA26198BF0B4A4FF0040198BFD25C18
:1015E000217784F8242010BD40F263429342E1D079
:1015F00000230422C4E903332275E2E7AC12002081
:10160000002004E01C70000838B5FFF7B7FE4FF06B
:101610008051002000F04EF8FFF722FF114B4FF6EB
:10162000FF7102201C6B00F045F80F480F4A10496B
:101630006FF0A84505604FF0FF336FF4A0701060A5
:101640000B600C48C2F8003802F5C0520360A1B22A
:101650001360022000F02EF800F06EF9BDE838406B
:10166000FFF75EBF00380240000002400004024065
:101670000008024000100240044B0028186A0CBF0A
:1016800002230123B0FBF3F0704700BFAC1200202F
:10169000064A074B00281B6A105C0CBF022201227D
:1016A000B3FBF2F303FB00F0704700BF707000085B
:1016B000AC120020042808D8DFE800F00311181F3E
:1016C0000A00114A136C19431164BFF34F8F70471E
:1016D0000D4A936B19439163BFF34F8F70470A4ACA
:1016E000536C19435164BFF34F8F7047064A136B15
:1016F00019431163BFF34F8F7047034A536B19436C
:101700005163BFF34F8F704700380240042809D857
:10171000DFE800F0090F151B03000F4A936B23EA63
:101720000101916370470C4A136C23EA01011164B3
:101730007047094A536C23EA010151647047064A15
:10174000136B23EA010111637047034A536B23EAC9
:1017500001015163704700BF00380240042827D8B8
:10176000DFE800F00A11181F0300134B9B6B0B42BC
:1017700014BF0120002070470F4B1B6C0B4214BF9D
:101780000120002070470C4B5B6C0B4214BF012002
:1017900000207047084B1B6B0B4214BF0120002038
:1017A0007047054B5B6B0B4214BF01200020704754
:1017B0004FF0FF30704700BF0038024000BB70B5EB
:1017C000114D0E46C5E900230821104D0446FFF7D0
:1017D00071FF4FF0FF332C6020466C60EB62FFF727
:1017E00057FF0B4BB0FBF6F0012101384FF480227C
:1017F000A86269615A602B680B4320462B6070BD5C
:101800004FF0FF30704700BFD4120020000C0040A2
:1018100000E100E003291ADC0E4B10B4040103EBD5
:1018200000101C59406801F10C0304EB83030240D3
:101830005A602269022303FA01F122EA01022261BD
:10184000E36819430020E1605DF8044B70474FF0F6
:10185000FF307047747000080001024B1B58586A33
:10186000704700BF747000082DE9F041164E174F05
:101870003569F36800241D404FF0020808FA04F3AC
:101880001D42214606D0F268786822EA0303F3601D
:101890003B6898470123A3402B42214604F10104F1
:1018A00006D03369786823F0010333613B689847B9
:1018B000042CE3D1064B1B680BB9BDE8F081BDE8F1
:1018C000F041FEF7B5BD00BF000C0040D41200206F
:1018D00010040020C2B130B494460CE04368846820
:1018E000013B651C234004688560E35C01F8013B13
:1018F000BCF1010C05D08468C3689C42EED1A2EB18
:101900000C02104630BC704710467047C2684368EE
:1019100010B48468121B9A420AD0C2680468013B62
:1019200013400132C260E15400205DF8044B70475F
:101930004FF0FF30F9E700BF704700BF70B5C669D0
:101940000025C0E90E550446A6B10121204601F04C
:101950000FFC218F00F0D8FE4FF0FF31208720468A
:1019600001F006FC218F00F0CFFE208725B1013564
:10197000AE42EAD1002070BD012E6087FAD0012569
:10198000E3E700BF2DE9F04F2DED048BADF6340DEC
:101990000A46059005A90DF15E0001F0ADFE01209B
:1019A00000F08EFE03460220ADF81C3000F088FEE9
:1019B00003460320ADF81E3000F082FE03460420EB
:1019C000ADF8203000F07CFE034605200E9300F0B9
:1019D00077FE002800F049820F90079B002B40F013
:1019E0003682BDF92030002B00F054820F9B00227C
:1019F00003F00104ADF85C20204613F0020218A9A0
:101A000018BF013013F00405099101D0013080B2F4
:101A10004FF4FA61B1FBF0F00D90002C40F06682BB
:101A20002146002A40F02C82002D40F02182002C1B
:101A300040F00081002A40F00981580705D50C9A32
:101A4000BDF91C100D9801F0E9F8DDF83880B8F107
:101A5000000F4AD10123874D0E9300240E9B03EB08
:101A600083035B000E9301F017FE0E9FCDE91588EE
:101A70000026DFB1012107A801F07AFBBDF8541060
:101A800000F042FE4FF0FF31034607A8ADF8543096
:101A900001F06EFBBDF8541000F036FEADF85400B6
:101AA000002E00F0E0800136B742E3D101F0FEFDE8
:101AB00001F006FE01F010FE57EC106B10EE100A5C
:101AC00022462B46394602F0A5FA0028C6D13946EF
:101AD000304602F0C7FA0E9B012838BF01200A21C8
:101AE000B1FBF0F202FB03330E9301F0D5FD07A822
:101AF000FFF724FF01F0DAFD01F0E2FD002181464D
:101B0000BDF91C0000F0EAFF0146BDF91E0000F01F
:101B1000E5FF0146BDF9200000F0E0FF0146BDF9F8
:101B2000340000F0DBFF47F605339842804600F0B2
:101B3000FD8100F2708141F6F203984200F00982C3
:101B400044F6AF63984240F055824B4802F038FFAC
:101B500045F2086346F6792208EE903A4EF2A45B0D
:101B6000194608EE102A0223CDF808B00493434F1B
:101B70003D68002D00F08E80002409EE109ACDF80B
:101B80000C809146A0468A4618E0EA8F029B9A4252
:101B90004DD05B463A48414602F012FFB5F840305E
:101BA00001339BB2A5F840301C4408F101013B68A9
:101BB0001FFA81F89845A5B224B267D207AB08EBAB
:101BC000081603EB86060023A6F84030336AD907CF
:101BD0004FEA08150DD5728F4A450AD018EE103A13
:101BE0002848414602F0ECFEB6F840300133A6F832
:101BF000403007AB05EB080603EB8606336A9A070D
:101C00000ED5B28F52450BD018EE903A1E48414681
:101C100002F0D6FEB6F840300133A6F84030336A01
:101C2000454413F0040F07AB03EB8505ADD1B5F8C0
:101C30004030B9E7BDF91C200A9901F05BFC0F9B0D
:101C4000109003F00202002A3FF4F7AEBDF91E40E7
:101C5000BDF91C200B990D9811AB42EA044200F02B
:101C6000C1FC0F9BE9E6012FADF856003FF41EAF13
:101C70000126FFE60000F03FE0700008240200208B
:101C8000D471000870710008A071000819EE109A54
:101C9000DDF80C8000F0C0FF0D990544B84802F053
:101CA0008FFE4946B74802F08BFE484601F014FD0E
:101CB000B54853EC102B02F083FE484601F00CFDB2
:101CC000002251EC100B0023AEB202F0C1F9A8B112
:101CD0000E9B386803FB00F001F0B0FE0446484656
:101CE0000D4601F0F9FC204653EC102B294602F07A
:101CF00049F802460B46A54802F062FE484601F04C
:101D0000EBFCA34B51EC100B002202F083F90028EE
:101D100040F0F38035B20E9B39689E4803FB01F119
:101D200002F04EFE9C499D4802F04AFE9C499D48A7
:101D300002F046FE9C499D4802F042FE9C48414606
:101D400002F03EFE0F9BD80712D53B6883B1994E37
:101D5000002404EB041307AA02EB830321465A8FE5
:101D6000304602F02DFE01343B68A4B29C42F0D311
:101D70000F9B990714D53A68002A00F0FD808E4E1B
:101D8000002404EB041307AA02EB830321469A8F75
:101D9000304602F015FE01343B68A4B29C42F0D3F9
:101DA0000F9B5A0712D53B681BB3844E002404EBEB
:101DB000041307AA02EB83032146DA8F304602F0B0
:101DC000FFFD01343B68A4B29C42F0D33B6883B171
:101DD0007B4E002404EB041307AA02EB8303214685
:101DE0001A8F304602F0ECFD01343B68A4B29C42ED
:101DF000F0D3002D52D0CCBF7248734802F0E0FD02
:101E00000DF15E0001F07CFC00200DF6340DBDEC00
:101E1000048BBDE8F08F48F60223984273D04EF64B
:101E2000F513984240F0E680684802F0C9FD41F69B
:101E3000D77308EE903A48F63A6B4EF21472194690
:101E4000032308EE102ACDF808B004938FE6012B87
:101E50007FF4CCADBDF92030002B7FF4C7AD5C4AD8
:101E600007926623ADF82030C0E507230F93B4E551
:101E700018AD00FB01510C91002C3FF4DBADD9E60D
:101E800018AE00FB016601310B9689B2002D3FF4BC
:101E9000CEADEDE76623ADF82030A7E54D4802F062
:101EA0008FFD049B032BABD10E9B386803FB00F026
:101EB00001F0C4FD044648460D4601F00DFC2046E5
:101EC00053EC102B294601F05DFF354C0B4632498F
:101ED0000246CDE90014404802F072FD32493F4805
:101EE00002F06EFD3E4802F06BFD89E718A90A91E9
:101EF0000121002A3FF498ADC2E73A48751C02F070
:101F00005FFD2DB207E7384802F05AFD4BF65263E9
:101F100008EE903A45F6476B4DF2B0421946002361
:101F200008EE102ACDF808B0049320E62F4802F0FE
:101F300047FD41F2991308EE903A43F6BF1B4FF468
:101F40004D521946012308EE102ACDF808B004932B
:101F50000DE6274802F034FD40F2477308EE903A50
:101F600048F6845B4EF2C1321946042308EE102A6B
:101F7000CDF808B00493FAE55B077FF527AF38E7A3
:101F8000047200081C720008347200084C720008C9
:101F900000002440A4720008BC720008DC72000833
:101FA000F4720008207300083873000840730008BA
:101FB000587300087473000890730008AC7300082D
:101FC000C87300085474000868740008147100088D
:101FD00015341534E4730008307400084C7400089C
:101FE000C46F00086472000884700008B4700008B0
:101FF000447100084FF0FF33024F04934FF6FF7512
:1020000048E600BF240200202DE9F04F8DB0CDE955
:102010000612BDF9589003938046002800F0BC8258
:102020006FEA09576FEA1757411ECDE904174FF0C1
:10203000000B45001FFA89F6CDF820900992CDF8E3
:1020400008B00195964691464FEA59035B4203F06A
:102050000303DA1C052A049938BF05228A4200F2DC
:102060009982002B76D0B9F80020012B3244A9F8D0
:1020700000206FD0B9F80220032B3244A9F80220C7
:102080006AD1B9F804203244A9F804201F46A8EB0D
:10209000030A5B440EEB43034FEA9A0C03EBCC0CB0
:1020A000D3E90002002135180C4606EB104065F319
:1020B0000F0160F31F411960B11861F30F0406EBC3
:1020C000124262F31F445C6008336345E8D12AF092
:1020D0000302524502EB070333D003EB0B015A1CFA
:1020E0003EF81100904530442EF8110029D95A4489
:1020F000991C3EF81200884530442EF8120020D971
:102100005944DA1C3EF81100904530442EF8110075
:1021100017D95A44191D3EF81200884530442EF84C
:1021200012000ED9594405333EF811209845324427
:102130002EF8112005D95B443EF8132032442EF8C6
:102140001320019B9944029B5C1CA045C34405D00D
:10215000029479E71F469AE7022798E7019D079BBB
:10216000059F01975819069B029FDDF8209008965D
:10217000043BC4EBC47A4FF0000CC4EB847B4FEA01
:102180004A0A4FEA8B0BE6460593984600EB0A068F
:1021900008EB8C01324632F9023B03FB09F3824221
:1021A00041F8043FF7D1BE45A444A6EB0B000EF165
:1021B000010301D09E46E9E7089E0699DDF808E094
:1021C000019FCDE90A654FF0000A01EB8408A300E6
:1021D0000193C146CDF82080504652465346D3461F
:1021E0004FEA840C884608EB8A0105E0AA42C8BF82
:1021F0000130894500B20CD0154651F8042B134428
:10220000BB4200F10A06F1DD894530B24FF0000310
:10221000F2D1DE45E144A2440BF1010101D08B462D
:10222000E1E70021DDE90A65DDF8208000F056FCD9
:10223000079B01990B979A1E039B0892A3F1020B2F
:10224000059B0A93194407EE900A0BEB050E924684
:1022500099468C4609F104095B465146002233F841
:10226000020F31F8027F9E4517FB0022F7D1CC45C3
:10227000C9F80020AA44EDD14FF00009DDF818B0EC
:102280000B9F0B95DDE901CE48464A464B46CA46B0
:1022900002960BEB890105E0AA42C8BF0130414517
:1022A00000B20CD0154651F8042B1344BB4200F188
:1022B0000A06F1DD414530B24FF00003F2D1D645B8
:1022C00001EB0C08A1440AF1010101D08A46E0E7C4
:1022D00017EE901A029E0B9D00F000FC059BDDF8A6
:1022E00020B00297002207EE900A99469246069681
:1022F000DDF80C80CE464FF0000C00210EF1040EEC
:10230000424658460B46168830F8027F01339C42FD
:102310002A4417FB0611F6D80CF1010C6445CEF8DF
:10232000001008F10208E8D8019B0AF1010A54459F
:10233000AB449944DCD80020029F069EDDF814A02F
:102340009846024603468146D446002106E0013104
:102350007245C8BF01308C4200B20ED996465CF877
:10236000042F1344BB4200F10A0BF0DD01318C4213
:102370000FFA8BF04FF00003F0D809F101094C453A
:10238000C244E1D817EE901A00F0A8FB002307EE34
:10239000900ADDF82090DDF814B002979A46059671
:1023A000DDF80C80DE464FF0000C00200EF1040E2C
:1023B00041464E4602460F8836F8023F013213FB73
:1023C00007F3C3F383079442C3F34613294403FB83
:1023D0000700F0D80CF1010C6445CEF8000008F1BC
:1023E0000208E2D8019B0AF1010A5445A9449B4422
:1023F000D6D80020029F059EDDF828809A46024626
:1024000003468146C446002106E001317245C8BF3B
:1024100001308C4200B20ED996465CF8042F13446A
:102420009F4200F10A0BF0DA01318C420FFA8BF077
:102430004FF00003F0D809F101094C45D044E1D830
:1024400017EE901A00F04AFB4FF00009DDF82480E7
:10245000DDF81CE00390CB4602954FEA58035B423F
:1024600003F00303002C03F1030214BFA2464FF054
:10247000010A052A049938BF0522002C08BF002153
:102480008A4200F28580002B7DD0B8F80020012B15
:10249000A2EB0602A8F8002075D0B8F80220032BA2
:1024A000A2EB0602A8F802206FD1B8F8042001932D
:1024B000921BA8F80420AAEB030A4B440EEB43033B
:1024C0004FEA9A0C03EBCC0CD3E900020021871BE6
:1024D0000D46C6EB104067F30F0160F31F41196012
:1024E000911B61F30F05C6EB124262F31F455D605D
:1024F00008339C45E8D12AF00302019B524513445E
:1025000034D003EB09013EF81120921B2EF8112064
:102510005A1C94422AD94A443EF81210891B2EF8BC
:1025200012109A1CA24221D24A443EF81210891B72
:102530002EF81210DA1C944218D94A443EF81210B0
:10254000891B2EF812101A1D94420FD94A440533E4
:102550003EF812109C42A1EB06012EF8121005D98C
:102560004B443EF81320921B2EF81320029B0BF1D4
:10257000010BA3459844A144FFF46FAFBDF90C00D3
:102580000DB0BDE8F08F019395E70222019292E72A
:102590000023B6E70023A0E5014600F09FFA0146BC
:1025A000404600F09BFA0146404600F097FA01468B
:1025B000404600F093FA0390BDF90C000DB0BDE861
:1025C000F08F00BF10B582B01446D0E9012300910E
:1025D000C1680068FFF718FD214602B0BDE8104051
:1025E00000F07CBA2DE9F04F85B0002A029308BFB5
:1025F0000122002855D0054600231846013303FB6D
:1026000003F4B5EBC40FF8D8013900FB00F921F051
:10261000030A4FEA49030AF1040A01930AEB490944
:10262000039070B3431E4FEA400B6FF001074FF069
:1026300000080126009309EB070E0AEB070C34464D
:10264000002504FB02F253429BB292B258BF5A4299
:10265000A3B2991889B201350B44DBB285422EF83A
:10266000021F04F101042CF8023FEAD3009B00286A
:1026700008F1010808BF0023013680451E445F446D
:10268000D9D3019B029A4B44013B23F0030304334B
:10269000C2E90293039BC2F804A0136005B0BDE831
:1026A000F08F4FF0FF33013921F0030903931846EF
:1026B000022309F1040A019309F10609B2E700BFF8
:1026C0000138042813D8DFE800F006090C0F0300D6
:1026D000084B18687047084B18687047074B186814
:1026E0007047074B18687047064B18687047002002
:1026F000704700BFE4120020DC120020E01200202E
:10270000280200202C02002081EA0003DB0746BFDC
:102710004AF2010383EA51034B08C0F3460C83EAF3
:102720000C0C1CF0010FC2B21ABF4AF2010C8CEA69
:1027300053035B0891085940C90746BF4AF201019B
:1027400081EA53035B084FEAD20C83EA0C0C1CF0BD
:10275000010F1ABF4AF2010C8CEA53035B081109FE
:102760005940C90746BF4AF2010181EA53035B0899
:102770004FEA521C83EA0C0C1CF0010F1ABF4AF2FC
:10278000010C8CEA53035B0891095940C90746BF05
:102790004AF2010181EA53035B08D2095A40D20789
:1027A00046BF4AF2010282EA53035B0883EA102C17
:1027B0001CF0010F4FEA10224FEA502116BF4AF2D7
:1027C0000100580880EA530080EA0103DB074ABF92
:1027D0004AF20103400883EA5000910880EA0103AD
:1027E000DB0746BF4AF2010383EA50004008D108E4
:1027F0004140C90746BF4AF2010181EA5000400842
:1028000013094340DB0746BF4AF2010383EA500045
:10281000400851094140C9074ABF4AF20101400836
:1028200081EA500093094340D90746BF4AF20103A9
:1028300083EA50004008D2094240D30746BF4AF21B
:10284000010383EA50004008704700BF81EA00039B
:10285000DB0746BF4AF2010383EA51034B0800B588
:10286000C0F3460E83EA0E0E1EF0010FC2B21ABF6D
:102870004AF2010E8EEA53035B0891085940C907DA
:1028800046BF4AF2010181EA53035B084FEAD20EC8
:1028900083EA0E0E1EF0010F1ABF4AF2010E8EEAF5
:1028A00053035B0811095940C90746BF4AF20101A9
:1028B00081EA53035B084FEA521E83EA0E0E1EF0B4
:1028C000010F1ABF4AF2010E8EEA53035B08910909
:1028D0005940C90746BF4AF2010181EA53035B0828
:1028E000D2095A40D20746BF4AF2010282EA530394
:1028F0005B081FFA80FC4FEA1C224FEA5C2183EA46
:102900001C2C1CF0010F16BF4AF2010C5B088CEA6C
:10291000530383EA010C1CF0010F1ABF4AF2010CA9
:102920008CEA53035B0891085940C90746BF4AF235
:10293000010181EA53035B084FEAD20C83EA0C0CD5
:102940001CF0010F1ABF4AF2010C8CEA53035B081A
:1029500011095940C90746BF4AF2010181EA5303F0
:102960005B084FEA521C83EA0C0C1CF0010F1ABFE3
:102970004AF2010C8CEA53035B0891095940C907DC
:1029800046BF4AF2010181EA53035B08D2095A406B
:10299000D20746BF4AF2010282EA53035B08C0F342
:1029A0000742010CC0F3464C83EA1040C0074ABFFF
:1029B0004AF20100580880EA530080EA0C0C1CF02F
:1029C000010F1ABF4AF2010C8CEA5000400893082C
:1029D0004340DB0746BF4AF2010383EA5000400848
:1029E0004FEAD20C80EA0C0C1CF0010F1ABF4AF21D
:1029F000010C8CEA5000400813094340DB0746BF36
:102A00004AF2010383EA500040084FEA521C80EA70
:102A10000C0C1CF0010F16BF4AF2010C40088CEAA6
:102A2000500093094340DB0746BF4AF2010383EAA3
:102A300050004008D2094240D30746BF4AF2010382
:102A400083EA5000400880EA1122D20746BF4AF2CA
:102A5000010282EA500040080B0A490A4140C907B6
:102A600046BF4AF2010181EA500040089A084240FC
:102A7000D20746BF4AF2010282EA50004008D90854
:102A80004140C90746BF4AF2010181EA50004008AF
:102A90001A094240D20746BF4AF2010282EA5000B8
:102AA000400859094140C9074ABF4AF2010140089C
:102AB00081EA50009A094240D2074ABF4AF2010215
:102AC000400882EA5000DB094340DB0746BF4AF278
:102AD000010383EA500040085DF804FBC3B282B2F0
:102AE000C0F3460C4840C00746BF4AF2010080EAE6
:102AF0005100480880EA0C0C1CF0010F1ABF4AF282
:102B0000010C8CEA5000400899084140C90746BFB3
:102B10004AF2010181EA500040084FEAD30C80EAF2
:102B20000C0C1CF0010F1ABF4AF2010C8CEA500089
:102B3000400819094140C90746BF4AF2010181EA2C
:102B4000500040084FEA531C80EA0C0C1CF0010FA7
:102B50001ABF4AF2010C8CEA500040089909414022
:102B6000C90746BF4AF2010181EA50004008DB096B
:102B70004340DB0746BF4AF2010383EA50004008A6
:102B800080EA1221C90746BF4AF2010181EA5000DA
:102B90004008130A520A4240D2074ABF4AF20102D1
:102BA000400882EA5000990881EA0002D20746BF35
:102BB0004AF2010282EA50004008D9084140C907A0
:102BC00046BF4AF2010181EA500040081A0942401A
:102BD000D20746BF4AF2010282EA50004008590972
:102BE0004140C9074ABF4AF20101400881EA50004A
:102BF0009A094240D2074ABF4AF20102400882EADB
:102C00005000DB094340DB0746BF4AF2010383EA79
:102C100050004008704700BF002070472DE9F04F7A
:102C2000471E012F40F287800131DFF814B1DFF831
:102C300014A1DFF8149189B24FF0000C4FF02C086A
:102C400036E0042B70D8033B012BC4F3C10465D8D4
:102C500059F82430092608256644BE4237D21C782C
:102C600002F80C4002EB0C0493F801E084F801E058
:102C700093F802E084F802E093F803E084F803E0BC
:102C8000042D0FD093F804E084F804E093F805E0F5
:102C900084F805E093F806E084F806E0082D04BF08
:102CA000DB79E3711544013105F80C8089B2B44633
:102CB00001F00703072B0CB2C3D10926C4F3C104EA
:102CC0006644BE425BF824304FF00805C7D3844504
:102CD00022D2A7EB0C07022FA0EB0C050ED902EBBA
:102CE0000C0325F003011944002443F8044B8B42E4
:102CF000FBD125F00303AB429C440DD00CF1010144
:102D00000023884202F80C3006D90CF1020C8445ED
:102D1000535438BF02F80C30BDE8F08F074B05263E
:102D200053F82430042597E7C4F3C10409265AF860
:102D30002430082590E74FF0000CCAE79C75000886
:102D40007C750008AC7500088C75000810B5036828
:102D50008646187800283ED02C2800F0BF80A0F1CD
:102D60003002092A3AD80A6801320A605A78581C97
:102D7000002A6DD02C2A00F0D5802E2AA2F1300333
:102D80000ED0092B3CD84278431C002A00F0D68094
:102D90002C2A00F0D1802E2A1846A2F13003F0D15F
:102DA0000B6901330B61427800F1010C002A00F03D
:102DB000AA802C2A00F0BB8002F0DF03452BA2F191
:102DC000300248D0092A40F28C804A6901320CF165
:102DD00001034A610120CEF8003010BD2B2817D026
:102DE0002D2815D02E2800F08580D1E90020013350
:102DF00001300132C1E900200120CEF8003010BDC1
:102E00000A69431C01320A610120CEF8003010BD6E
:102E10000A6801320A605C1C5B78002B00F090802D
:102E20002C2B00F09080A3F13002092A09D92E2B17
:102E30006CD08A68631C01328A600120CEF80030B1
:102E400010BD8B6801338B606278601C002A91D1C1
:102E500003460420BFE74A6901324A619CF8012019
:102E60000CF10103002A60D02C2A08BF032036D0C1
:102E70002B2A0AD02D2A08D0CA680CF1020301328D
:102E8000CA600120CEF8003010BDCA680132CA60A5
:102E90009CF802200CF102030620002A9BD02C2A69
:102EA00048D0303A092A8A6902F101020CF1030381
:102EB0008A610BD89CF8032072B12C2A30D0303AAA
:102EC000092A05D94A68013201334A60012082E7A4
:102ED0005A780133002AF0D107207CE70020013323
:102EE00079E79CF801200CF101037AB32C2A2FD04A
:102EF0009C4661E70A6801320A605A7803F1010CC6
:102F0000002A7FF456AF6346052064E78B680133DF
:102F10008B60627804F1010C002A7FF44AAFF2E77B
:102F20000720DCE703460420D9E7032053E7634684
:102F30000520D4E70620D2E70420D0E704204AE7A2
:102F40002346022047E723460220C8E7052042E740
:102F50000520C4E72DE9F04F93B099460B78019115
:102F60000C46834600210020CDE90A01CDE902018B
:102F7000CDE90C01CDE90401CDE90E01CDE9060151
:102F8000CDE91001CDE90801BDF97080BDF874707C
:102F90009246002B5CD00AA901AE3046FFF7D6FE60
:102FA00012AB03EB8000019A50F8403C12780133D9
:102FB00040F8403C002AF0D1A344A3452378019473
:102FC00043D9254606E02A70019D45445D4501959B
:102FD00008D22B782C2B83EA0A02F4D145445D45B4
:102FE0000195F6D32378019493B10AA93046FFF7EF
:102FF000ADFE12AB03EB8000019B50F8402C1B7818
:10300000013240F8402C002BF0D15C4501940AD2EB
:1030100023782C2B83EA09021CBF2270019C4444B4
:103020005C450194F4D309AC2546394656F8040FA3
:10303000FFF70CFC014654F8040FFFF707FCAE4203
:103040000746F2D113B0BDE8F08F002BCED1EAE7EE
:10305000A3445C4501AEB4D3E5E700BF2DE9F041E0
:10306000B0F9005014462A0682B00E462ED505F05F
:103070007F07B6F900502B0605D505F07F00381AFA
:1030800002B0BDE8F081C5F3C30115F0070341EAC2
:10309000011138D0012B33D1228F04F12800FFF722
:1030A00091FAA38F0FFA80F803B9A087218FFFF759
:1030B0002BFB25F0FF05208708F07F00054345F036
:1030C0008005381A358002B0BDE8F081C5F3C30130
:1030D00015F00703804641EA011134D0012B27D0B7
:1030E000A8B22F46218FFFF70FFB07F07F0725F0CF
:1030F000FF053D4345F080052087A8F80050B8E75C
:10310000A8B2A846D2E72229B8BF22210091228F77
:10311000B4F902300192D4E90510B4F90020FFF7A8
:1031200019FFE38F0FFA80F8002BBFD1E087BDE7CE
:10313000228F04F12800FFF745FAA38F07B2002B76
:10314000D0D1A087CEE72229B8BF22210091228FBB
:10315000B4F902300192D4E90510B4F90020FFF768
:10316000F9FEE38F07B2002BBCD1E087BAE700BFBE
:103170002DE9F04FB0F90470446A4FF0000A57454A
:1031800085B00246894640F3A281D6460E46D34614
:1031900055465046D0469446002E5FFA8EFAC0F24D
:1031A0001181234614B919E11B6823B15968B1F99B
:1031B0000210B142F8D1002201E022460C462168FB
:1031C00022600029F9D1002B00F00B815968B1F978
:1031D00000100135CA07ADB203D5C1F34021084440
:1031E00080B21A6822B111681960236813602260E6
:1031F000002EC0F29F800EF1010E0FFA8EFE0136F6
:10320000774536B2C8D102966246CBEB8505284495
:1032100083B20193B9F1000F00F308812368D3E969
:10322000006071685960316870601960029B00220B
:1032300093423260C0F24E81002C00F0F2801A46B8
:10324000254603E02D68002D00F0EB806B68B3F994
:1032500002309342F6D101996368B3F90000FFF799
:103260003DFC2D680146002DF6D10190236872685F
:10327000596871605A601A6832604FF0010E1E6022
:103280004FF0000B002C50D0002188460E4601362E
:1032900022460023126801330AB17345FAD125464C
:1032A0007046144643B388B384B3D5F804C0676846
:1032B000BCF90020BCF9029022F0FF0AC2F30722F9
:1032C0004AEA0202ACF80020B7F90020B7F902C0C0
:1032D000A9EB0C0922F0FF0CC2F307224CEA020210
:1032E000B9F1000F3A8011DD22462468013851B14E
:1032F0000A601146002BD6D160B16CB1224601386C
:1033000024680029F4D190461146F3E72A46013B90
:103310002D68ECE7002CBAD1012EC1F800B06CD0BA
:1033200044464FEA4E0E002CAED12460019805B001
:10333000BDE8F08F62460EF1010C0FFA8CFCBC4523
:1033400002963FF462AF5FFA8CFA002C2DD026462D
:1033500001E036681EB173681B785345F9D100212E
:1033600001E021461C4623682160002BF9D1EEB113
:103370007368B3F900300135D907ADB203D5C3F393
:103380004023184480B2316821B10B683360236850
:103390000B6021600CF1010C0FFA8CFCBC45BFF6F0
:1033A00034AF5FFA8CFA002CD1D121684B6893F9C5
:1033B000013003F001030BF1010B18441FFA8BFBE2
:1033C00080B2E7E7234624B908E01B68002B3FF4EE
:1033D000F2AE596809785145F7D1ECE6D8F80020EB
:1033E0000024536893F9013003F001030BF1010B42
:1033F00018441FFA8BFB80B2FAE6D8F80040002C84
:1034000094D00199D8F80430B3F90000FFF766FBB7
:1034100024680146002CF5D10190019805B0BDE863
:10342000F08F2568002D7FF416AF1FE74FF0010BDA
:10343000CDF80CA07CB30026B146B2460AF1010AD1
:10344000234600251B6801350BB15D45FAD1A04626
:103450005F461C4695B157B34CB36168D8F8040079
:103460000092FFF7FBFD0028009A20DD2346013F74
:10347000246816B333601E46002DECD107B3002C30
:10348000F4D10023BAF1010F33601CD04C464FEA4F
:103490004B0B002CCFD1029B2460002B25DA00239C
:1034A00026461D681C46002D7FF4D5AEDEE6434659
:1034B000013DD8F80080002EDCD199461E46DBE79E
:1034C000002CBBD1DDE7DDF80CA04C46A6E6CDE92B
:1034D00001A19FE625461CB909E02D68002DA0D06A
:1034E0006B681B785345F8D1B5E62646BEE63446F0
:1034F000D5E700BF674BA3FB00031B092DE9F04F85
:103500009C1E01EBC40601F110009146002348F215
:10351000800286424E600B6006EB840A41F834203C
:1035200006F1040501F1080240F2AF8006F1080C33
:10353000E24540F2AA80C1E902356FF000430A601B
:1035400073602CB31FFA89FB002567461FFA85FCC0
:103550008CEA0B03DB000CF0070803F0780300F1A2
:10356000080E43EA0803764507F1040C43EA0323F7
:103570000ED9E24509D90260086047603B8047F6F2
:10358000FF7302467B80704667460135AC42DDD151
:103590001568FDB13F4FA7FB0434A70802260120A0
:1035A00007E053682C6858800136013094B12A46F0
:1035B0002546330289EA000403F4E063234387428B
:1035C000C3F30D03EDD852682C68538001300136E7
:1035D000002CECD101274FF0000E002951D000261D
:1035E0003046B4460CF1010C0A4600231268013340
:1035F0000AB1BB42FAD10D463C4611464BB394B3D7
:1036000089B3D5F80490D1F80480B9F9002022F0EC
:10361000FF0AC2F307224AEA0202A9F80020B8F919
:103620000020B9F9029022F0FF0AC2F307224AEA09
:103630000202B8F902A0A8F80020A9EB0A02002AA9
:1036400011DD0A460968013C56B132601646002B6E
:10365000D5D164B169B10A46013C0968002EF4D1A4
:1036600010461646F3E72A46013B2D68ECE7002991
:10367000B8D1BCF1010FC6F800E004D07F000146CC
:10368000ABE709600846BDE8F08F1046AC461A4625
:1036900057E700BFCDCCCCCC08B50020FEF7DCF856
:1036A000014B186008BD00BFE812002008B50020DB
:1036B000FEF7D2F8014B186008BD00BFEC120020E5
:1036C000024A034B10681B68C01A7047EC120020B6
:1036D000E81200200000000008B500F0AFF904A3D4
:1036E000D3E9002300F04EFB41EC100B08BD00BFF6
:1036F0000000000080842E4101230370704700BF4A
:1037000000230370704700BFFDF7B8BC70B50546D5
:103710000C46FDF7BDF82B68FBB1A4B1124B1C6839
:10372000064602212046FCF7C9FD2B6801330ED066
:1037300021462846FDF720FD3046FDF7B1F8FCF79D
:1037400077FE012070BDFDF7ABF8204670BD04F197
:10375000080200232A60A360EEE74FF0FF332B60DE
:10376000FDF79EF8012070BD0C04002070B50446E2
:10377000FDF78EF82568BDB16B1C13D006462846B0
:103780000B2150F808392360FCF798FD23687BB1C2
:1037900015F8034C3046FDF783F82046BDE870402D
:1037A000FCF7D2BD00232360BDE87040FDF778B878
:1037B0004FF0FF332360EBE781F0004102E000BFF0
:1037C00083F0004330B54FEA41044FEA430594EAE1
:1037D000050F08BF90EA020F1FBF54EA000C55EA1C
:1037E000020C7FEA645C7FEA655C00F0E2804FEAED
:1037F0005454D4EB5555B8BF6D420CDD2C4480EACF
:10380000020281EA030382EA000083EA010180EAFE
:10381000020281EA0303362D88BF30BD11F0004F4C
:103820004FEA01314FF4801C4CEA113102D0404282
:1038300061EB410113F0004F4FEA03334CEA1333BD
:1038400002D0524263EB430394EA050F00F0A780D5
:10385000A4F10104D5F1200E0DDB02FA0EFC22FAD0
:1038600005F2801841F1000103FA0EF2801843FAC4
:1038700005F359410EE0A5F120050EF1200E012AB5
:1038800003FA0EFC28BF4CF0020C43FA05F3C018F3
:1038900051EBE37101F0004507D54FF0000EDCF16C
:1038A000000C7EEB00006EEB0101B1F5801F1BD315
:1038B000B1F5001F0CD349085FEA30004FEA3C0C19
:1038C00004F101044FEA445212F5800F80F09A800F
:1038D000BCF1004F08BF5FEA500C50F1000041EB13
:1038E000045141EA050130BD5FEA4C0C404141EB17
:1038F0000101013C28BFB1F5801FE9D291F0000F12
:1039000004BF01460020B1FA81F308BF2033A3F1C0
:103910000B03B3F120020CDA0C3208DD02F1140CB7
:10392000C2F10C0201FA0CF021FA02F10CE002F1F2
:103930001402D8BFC2F1200C01FA02F120FA0CFCEB
:10394000DCBF41EA0C019040E41AA2BF01EB045134
:10395000294330BD6FEA04041F3C1CDA0C340EDC32
:1039600004F11404C4F1200220FA04F001FA02F375
:1039700040EA030021FA04F345EA030130BDC4F133
:103980000C04C4F1200220FA02F001FA04F340EA28
:103990000300294630BD21FA04F0294630BD94F0D9
:1039A000000F83F4801306BF81F480110134013DC0
:1039B0004EE77FEA645C18BF7FEA655C29D094EA31
:1039C000050F08BF90EA020F05D054EA000C04BFAF
:1039D0001946104630BD91EA030F1EBF002100209A
:1039E00030BD5FEA545C05D14000494128BF41F039
:1039F000004130BD14F580043CBF01F5801130BD9D
:103A000001F0004545F0FE4141F470014FF0000027
:103A100030BD7FEA645C1ABF194610467FEA655CD8
:103A20001CBF0B46024650EA013406BF52EA03357A
:103A300091EA030F41F4002130BD00BF90F0000F68
:103A400004BF0021704730B54FF4806404F13204A4
:103A50004FF000054FF0000150E700BF90F0000F5D
:103A600004BF0021704730B54FF4806404F1320484
:103A700010F0004548BF40424FF000013EE700BF54
:103A800042004FEAE2014FEA31014FEA02701FBFE4
:103A900012F07F4393F07F4F81F06051704732F016
:103AA0007F4208BF704793F07F4F04BF41F400216D
:103AB000704730B54FF4607401F0004521F00041CB
:103AC0001CE700BF50EA010208BF704730B54FF055
:103AD00000050AE050EA010208BF704730B511F056
:103AE000004502D5404261EB41014FF4806404F18E
:103AF00032045FEA915C3FF4D8AE4FF003025FEA14
:103B0000DC0C18BF03325FEADC0C18BF033202EB97
:103B1000DC02C2F1200300FA03FC20FA02F001FAF1
:103B200003FE40EA0E0021FA02F11444BDE600BF94
:103B300070B54FF0FF0C4CF4E06C1CEA11541DBF43
:103B40001CEA135594EA0C0F95EA0C0F00F0DEF80E
:103B50002C4481EA030621EA4C5123EA4C5350EAF3
:103B6000013518BF52EA033541F4801143F4801344
:103B700038D0A0FB02CE4FF00005E1FB02E506F0D5
:103B80000042E0FB03E54FF00006E1FB03569CF02A
:103B9000000F18BF4EF0010EA4F1FF04B6F5007F30
:103BA00064F5407404D25FEA4E0E6D4146EB0606A2
:103BB00042EAC62141EA55514FEAC52040EA5E502B
:103BC0004FEACE2EB4F1FD0C88BFBCF5E06F1ED8D5
:103BD000BEF1004F08BF5FEA500E50F1000041EB0C
:103BE000045170BD06F0004646EA010140EA0200B9
:103BF00081EA0301B4EB5C04C2BFD4EB0C0541EADB
:103C0000045170BD41F480114FF0000E013C00F3EF
:103C1000AB8014F1360FDEBF002001F0004170BD13
:103C2000C4F10004203C35DA0C341BDC04F114042C
:103C3000C4F1200500FA05F320FA04F001FA05F2B8
:103C400040EA020001F0004221F0004110EBD37085
:103C500021FA04F642EB06015EEA430E08BF20EAB1
:103C6000D37070BDC4F10C04C4F1200500FA04F354
:103C700020FA05F001FA04F240EA020001F00041E6
:103C800010EBD37041F100015EEA430E08BF20EA59
:103C9000D37070BDC4F1200500FA05F24EEA020EA1
:103CA00020FA04F301FA05F243EA020321FA04F0D0
:103CB00001F0004121FA04F220EA020000EBD37087
:103CC0005EEA430E08BF20EAD37070BD94F0000F87
:103CD0000FD101F00046400041EB010111F4801FBB
:103CE00008BF013CF7D041EA060195F0000F18BF6C
:103CF000704703F00046520043EB030313F4801FA8
:103D000008BF013DF7D043EA0603704794EA0C0F61
:103D10000CEA135518BF95EA0C0F0CD050EA410677
:103D200018BF52EA4306D1D181EA030101F00041F4
:103D30004FF0000070BD50EA410606BF104619461C
:103D400052EA430619D094EA0C0F02D150EA013628
:103D500013D195EA0C0F05D152EA03361CBF104669
:103D600019460AD181EA030101F0004141F0FE4108
:103D700041F470014FF0000070BD41F0FE4141F48C
:103D8000780170BD70B54FF0FF0C4CF4E06C1CEA8C
:103D900011541DBF1CEA135594EA0C0F95EA0C0F41
:103DA00000F0A7F8A4EB050481EA030E52EA0335FC
:103DB0004FEA013100F088804FEA03334FF080551D
:103DC00045EA131343EA12634FEA022245EA11154A
:103DD00045EA10654FEA00260EF000419D4208BFFB
:103DE000964244F1FD0404F5407402D25B084FEAA8
:103DF0003202B61A65EB03055B084FEA32024FF454
:103E000080104FF4002CB6EB020E75EB030E22BFB0
:103E1000B61A754640EA0C005B084FEA3202B6EB70
:103E2000020E75EB030E22BFB61A754640EA5C001F
:103E30005B084FEA3202B6EB020E75EB030E22BFAF
:103E4000B61A754640EA9C005B084FEA3202B6EBB0
:103E5000020E75EB030E22BFB61A754640EADC006F
:103E600055EA060E18D04FEA051545EA16754FEAD1
:103E700006164FEAC30343EA52734FEAC2025FEAEF
:103E80001C1CC0D111F4801F0BD141EA00014FF07E
:103E900000004FF0004CB6E711F4801F04BF01434F
:103EA0000020B4F1FD0C88BFBCF5E06F3FF6AFAE6B
:103EB000B5EB030C04BFB6EB020C5FEA500C50F1FB
:103EC000000041EB045170BD0EF0004E4EEA11317E
:103ED00014EB5C04C2BFD4EB0C0541EA045170BD85
:103EE00041F480114FF0000E013C90E645EA060EC9
:103EF0008DE60CEA135594EA0C0F08BF95EA0C0FF7
:103F00003FF43BAF94EA0C0F0AD150EA01347FF43E
:103F100034AF95EA0C0F7FF425AF104619462CE715
:103F200095EA0C0F06D152EA03353FF4FDAE104678
:103F3000194622E750EA410618BF52EA43067FF4C9
:103F4000C5AE50EA41047FF40DAF52EA43057FF459
:103F5000EBAE12E74FF0FF3C06E000BF4FF0010C64
:103F600002E000BF4FF0010C4DF804CD4FEA410CC8
:103F70007FEA6C5C4FEA430C18BF7FEA6C5C1BD095
:103F800001B050EA410C0CBF52EA430C91EA030F16
:103F900002BF90EA020F0020704710F1000F91EA73
:103FA000030F58BF994208BF90422CBFD8176FEA41
:103FB000E37040F0010070474FEA410C7FEA6C5C0F
:103FC00002D150EA013C07D14FEA430C7FEA6C5C16
:103FD000D6D152EA033CD3D05DF8040B704700BF42
:103FE0008446104662468C461946634600E000BF90
:103FF00001B5FFF7B7FF002848BF10F1000F01BD62
:104000004DF808EDFFF7F4FF0CBF012000205DF82C
:1040100008FB00BF4DF808EDFFF7EAFF34BF0120B1
:1040200000205DF808FB00BF4DF808EDFFF7E0FF4A
:1040300094BF012000205DF808FB00BF4DF808ED9B
:10404000FFF7CEFF94BF012000205DF808FB00BF02
:104050004DF808EDFFF7C4FF34BF012000205DF8E4
:1040600008FB00BF4A0011D212F5001211D20DD583
:104070006FF47873B3EB62520ED44FEAC12343F06E
:10408000004343EA505323FA02F070474FF0000018
:10409000704750EA013002D14FF0FF3070474FF0C7
:1040A0000000704770B50D4D0D4C641BA410002628
:1040B000A64209D10B4D0C4CFCF76EF8641BA41002
:1040C0000026A64205D170BD55F8043B984701363D
:1040D000EEE755F8043B98470136F2E7DC79000833
:1040E000DC790008DC790008DC7900082DE9FF475D
:1040F00055EC104B002D0E4619462B46BBBF05F163
:1041000000431D4600232D230B700D9BDDF830A0CE
:10411000914623F02008BCBF22461446B8F1460F52
:1041200005D0B8F1450F00D10136022100E003218E
:1041300003AB019302AB009345EC104B5346324660
:1041400000F022FEB8F1470F074602D119F0010F27
:1041500022D0B8F1460F07EB060910D13B78302B7F
:104160000AD10022002320462946FFF749FF18B94B
:10417000C6F10106CAF80060DAF80030994400225E
:10418000002320462946FFF73BFF08B1CDF80C90ED
:104190003022039B4B4507D3039B0E9ADB1B38460B
:1041A000136004B0BDE8F087591C03911A70F0E762
:1041B000F7B503460029B8BF494203F8022BB4BF44
:1041C0002D222B22092942702ADD0DF10704A44675
:1041D0000A27A6460A4691FBF7F607FB1615303567
:1041E000632A04F1FF340EF8015C3146F1DC303112
:1041F000AEF1020504F8011C441C294661450AD3AE
:104200000DF10902A2EB0E02654588BF002213449E
:10421000181A03B0F0BD11F8012B04F8012FEDE7D7
:10422000302330318370C170031DF1E72DE9F04F69
:104230002DED028B8DB00C46DDF8608016461F46D2
:10424000054601F047FDD0F800A0504600F046FCBE
:1042500000230A9323680593D8F8003094F818B027
:10426000073323F0070303F10802C8F80020D3E95D
:104270000023C4E91223D4E9128929F000430793EB
:10428000CDF8188008EE100A9F4BDDE906014FF0CB
:10429000FF3202F0A5FC88BBDDE906019A4B4FF026
:1042A000FF32FFF7C1FE48BB0022002340464946CB
:1042B000FFF7B0FE10B12D2384F84330934B9448A0
:1042C000BBF1470F94BF9846804603232361059BAB
:1042D00023F0040222604FF00009009733460BAA36
:1042E0002146284600F0D8F9013040F090804FF088
:1042F000FF300DB0BDEC028BBDE8F08F42464B465F
:104300004046494602F06CFC40B14B46002BBCBF16
:104310002D2384F843307F487F4BD1E763680BF04F
:10432000DF0206925A1C3FD106236360059B616839
:1043300043F48062002303930AABCDE901B309ABD8
:1043400049EC108B009322600DF123032846FFF700
:10435000CDFE069B0999472B804608D1C81C02DB7D
:104360006368994241DDABF1020B5FFA8BFBBBF155
:10437000650F20D801395A4604F150000991FFF722
:1043800017FF0A9A1318012A8146236102DC22686A
:10439000D20701D5013323619DF82330002B9CD037
:1043A0002D2384F8433098E7069A472ABED1002B84
:1043B000BCD10123B9E7BBF1660F18D100296368AE
:1043C0000BDD216113B92268D00702D501330B44FC
:1043D0002361A1654FF00009DEE713B92268D20717
:1043E00001D50233F4E70123F2E74FF0670B0A9B94
:1043F000994205DB23682161D807EAD54B1CE7E722
:104400000029D4BFC1F1020201221344E0E723686E
:104410005A0507D42369424631462846B847013039
:104420002CD164E7BBF1650F40F2E080D4E91201C2
:1044300000220023FFF7E4FD002834D0374A01238F
:1044400031462846B84701303FF451AFDDE9092332
:104450009A4202DB2368D80710D518EE103A52466C
:1044600031462846B84701303FF441AF4FF00008CD
:1044700004F11A090A9B013B434509DC23689B07A9
:1044800000F10581E0680B9B9842B8BF184630E701
:1044900001234A4631462846B84701303FF427AF4A
:1044A00008F10108E6E7099B002B39DC1B4A0123D0
:1044B00031462846B84701303FF419AFDDE90923FA
:1044C000134302D12368D907D8D518EE103A5246C3
:1044D00031462846B84701303FF409AF4FF0000994
:1044E00004F11A0A099B5B424B4501DC0A9B92E7E7
:1044F0000123524631462846B84701303FF4F7AE13
:1045000009F10109EEE700BFFFFFEF7FC07500086A
:10451000C4750008CC750008C8750008D07500087F
:104520000A9AA36D9A42A8BF1A46002A914637DC20
:104530004FF0000B29EAE97904F11A02A36D059303
:10454000A3EB09035B4533DCDDE909239A423BDB3E
:104550002368DA0738D40A9B059A09999A1AA3EBBB
:1045600001099145A8BF9146B9F1000F35DC4FF024
:10457000000829EAE97904F11A0ADDE909239B1AFE
:10458000A3EB090343457FF779AF01235246314638
:104590002846B84701303FF4AAAE08F10108ECE71D
:1045A0001346314642462846B8470130C0D19EE600
:1045B0000123314628460592B84701303FF497AEB3
:1045C000059A0BF1010BB9E718EE103A5246314645
:1045D0002846B8470130BED189E6059A4B46424489
:1045E00031462846B8470130C1D180E60A9A012AEF
:1045F00001DCDB0738D50123424631462846B8475F
:1046000001303FF474AE18EE103A52463146284657
:10461000B84701303FF46BAED4E912010022002309
:10462000FFF7EEFCD8B90A9B08F10102013B3146C5
:104630002846B84701300ED159E60123524631468B
:104640002846B84701303FF452AE08F101080A9BF2
:10465000013B4345F1DC4B4604F15002DCE64FF0F0
:10466000000804F11A0AF2E701234246DFE70123BA
:104670004A4631462846B84701303FF438AE08F183
:104680000108E3680B995B1A4345F0DCFAE64FF04A
:10469000000804F11909F4E72DE9F0471646994698
:1046A0008A680B69DDF820809342B8BF13463360F7
:1046B00091F8432007460C460AB101333360236862
:1046C000990642BF336802333360256815F006054A
:1046D00006D104F1190AE36832689B1AAB4226DC62
:1046E00094F84320131E226818BF012392062BD48E
:1046F00004F1430249463846C04701301ED02368C2
:10470000E568326803F00603042B08BFAD1AA368FE
:1047100022690CBF25EAE57500259342C4BF9B1AA8
:10472000ED1800261A34B5421AD1002008E0012302
:10473000524649463846C047013003D14FF0FF305A
:10474000BDE8F0870135C6E7E1185A1C302081F832
:104750004300224494F8451082F843100233C7E71F
:104760000123224649463846C0470130E6D001368B
:10477000D9E700002DE9FF470F7E0C9D782F914669
:1047800080460C469A4601F1430207D8622F0AD8A8
:10479000002F00F0D880582F00F0A38004F14205CC
:1047A00084F842703AE0A7F16303152BF6D801A113
:1047B00051F823F00D480008214800089D470008E3
:1047C0009D4700089D4700089D47000821480008B4
:1047D0009D4700089D4700089D4700089D47000829
:1047E0002D490008514800080F4900089D4700085E
:1047F0009D4700084F4900089D47000851480008A0
:104800009D4700089D470008174900082B681A1D9E
:104810001B682A6004F1420584F842300123A3E0BA
:1048200020682968060601F104030AD50E682B608A
:10483000002E03DA2D23764284F843305E480A23A3
:1048400019E00E682B6010F0400F18BF36B2EFE78A
:104850002B682068191D2960010601D51E6802E039
:104860004606FBD51E8854486F2F0CBF08230A2329
:10487000002184F843106568A560002DA2BF21685F
:1048800021F0040121600EB9002D4DD01546B6FB74
:10489000F3F103FB1167C75D05F8017D3746BB42A5
:1048A0000E46F4D9082B0BD12368DE0708D52369FF
:1048B00061689942DEBF302305F8013C05F1FF3500
:1048C000521B2261CDF800A04B4603AA2146404668
:1048D000FFF7E2FE01304CD14FF0FF3004B0BDE8ED
:1048E000F087354881F845702968236851F8046BD2
:1048F00029601D0614D5DF0744BF43F02003236061
:104900001EB9236823F0200323601023B0E7236837
:1049100043F0200323607823284884F84530E3E7F8
:10492000590648BFB6B2E6E71546BBE72B682668CE
:104930006169181D286035061B6801D5196002E001
:104940007006FBD51980002323611546BAE72B6852
:104950001A1D2A601D6862680021284601F030FA9D
:1049600008B1401B606063682361002384F8433012
:10497000A8E723692A4649464046D0470130ABD0D4
:1049800023689B0713D4E068039B9842B8BF18467E
:10499000A4E70123324649464046D04701309BD028
:1049A0000135E36803995B1AAB42F2DCEBE70025C3
:1049B00004F11906F5E700BFD2750008E375000899
:1049C0000FB40A4B13B51C6824B1A36913B9204670
:1049D00001F0E2F805AB049AA1680193204601F0CA
:1049E000F9FE02B0BDE8104004B07047300200206C
:1049F00070B50E46054618B183690BB901F0CCF8C5
:104A0000AB69AC6813B9284601F0C6F82C4B9C4240
:104A100020D16C68636EDB0705D4A389980502D4A6
:104A2000A06D01F05CF9A38919071DD52369DBB1DD
:104A3000013EA36816F8011F013BA36039BB002BA0
:104A400038DA22460A21284600F050F8013011D009
:104A50000A2511E01B4B9C4201D1AC68DAE71A4BE6
:104A60009C4208BFEC68D5E72146284600F090F844
:104A70000028DDD04FF0FF35636EDA0705D4A38937
:104A80009B0502D4A06D01F02BF9284670BD002BC8
:104A900004DAA2699A4206DC0A2904D023685A1C67
:104AA00022601970C5E72246284600F01FF8013041
:104AB000BFD1DFE723680A255A1C22601D70DBE79F
:104AC000C8760008E8760008A8760008024B014680
:104AD0001868FFF78DBF00BF30020020034613F8AF
:104AE000012B002AFBD1181A01387047F8B50E4681
:104AF0001446054618B183690BB901F04DF8214BF6
:104B00009C422BD16C68A369A360A3891A072FD597
:104B100023696BB323692068C01A6369F6B28342C4
:104B2000374604DC2146284600F0A2FF30BBA368CC
:104B3000013BA36023685A1C22601E706369013028
:104B4000834204D0A389DB0706D50A2E04D121466F
:104B5000284600F08DFF88B93846F8BD0A4B9C42C4
:104B600001D1AC68CFE7094B9C4208BFEC68CAE7AB
:104B70002146284600F00CF80028CBD04FF0FF3734
:104B8000EAE700BFC8760008E8760008A8760008C3
:104B9000324B70B51D6806460C4625B1AB6913B99A
:104BA000284600F0F9FF2E4B9C420FD16C68A38978
:104BB000B4F90C2019072CD4DD0611D40923336075
:104BC00042F04003A3814FF0FF303EE0254B9C4272
:104BD00001D1AC68EBE7244B9C4208BFEC68E6E7E8
:104BE000580712D5616B41B104F14403994202D0D8
:104BF000304601F0E5FC00236363A38923F024031E
:104C0000A3810023636023692360A38943F0080321
:104C1000A38123694BB9A38903F42073B3F5007F03
:104C200003D02146304601F081F8A089B4F90C2068
:104C300010F001030AD00023A36063695B42A36103
:104C4000236943B910F08000BAD170BD810758BF05
:104C50006369A360F4E70020F7E700BF300200209B
:104C6000C8760008E8760008A87600082DE9F74F16
:104C700003690C69A3420746C0F28180013C01F13F
:104C8000140800F1140505EB8403019358F824304F
:104C900055F8242001339A424FEA840B08EB84092B
:104CA000B2FBF3F631D34FF0000E4046AC46F2466D
:104CB00050F8042B93B206FB03E34FEA134E9BB26A
:104CC000AAEB0303DCF800A0120C13FA8AF306FB2C
:104CD00002E20093009B4FEA124E92B2C2EB1A42DC
:104CE00002EB2342BDF80030814543EA02434CF811
:104CF000043B4FEA224ADBD255F80B302BB9019B1B
:104D0000043B9D421A462ED33C61384601F040FBDD
:104D1000002824DB013628464FF0000C58F8042BFD
:104D2000D0F800E093B2ACEB0303120C13FA8EF34D
:104D3000C2EB1E4202EB23429BB243EA0243C1454F
:104D400040F8043B4FEA224CE8D255F8242005EB0A
:104D5000840322B9043B9D421A460AD33C61304683
:104D600003B0BDE8F08F1268043B002ACCD1013CAF
:104D7000C7E71268043B002AF0D1013CEBE70020B2
:104D8000EEE70000000000002DE9F04F2DED048B50
:104D900057EC106B93B0456ADDF88080069110EEF9
:104DA00010AA044609920C93BB4675B9102000F076
:104DB000FDFF0246606220B9A74BEA21A74801F037
:104DC0007DFEC0E901550560C560636A196851B18F
:104DD0005A684A60012393408B60204601F096F8A0
:104DE000636A00221A603B1EAABF002323F0004B17
:104DF000C8F800309A4BBCBF0122C8F8002033EA43
:104E00000B031BD10C9A42F20F731360CBF3130305
:104E1000334300F09285219B63B9924B22E0924B81
:104E200001930833219A1360019813B0BDEC048BF1
:104E3000BDE8F08F8B4B01930333F3E7002200238F
:104E400050465946FFF7DCF84BEC19AB804658B199
:104E50000C9A01231360219B002B00F06B85834883
:104E60001860431E0193DFE74BEC10AB10AA11A9A9
:104E7000204601F033FBCBF30A5508EE100A002D53
:104E800000F0848019EE903AC3F3130343F07F5788
:104E9000564647F44017A5F2FF35CDF83880744BDD
:104EA000002230463946FEF78BFC65A3D3E9002388
:104EB000FEF73EFE64A3D3E90023FEF783FC06461B
:104EC00028460F46FEF7CAFD61A3D3E90023FEF78B
:104ED0002FFE02460B4630463946FEF773FC064667
:104EE0000F4601F093FE0022009000233046394621
:104EF000FFF790F850B10098FEF7B0FD32463B4600
:104F0000FFF77EF810B9009B013B0093009B162B26
:104F10005AD8009A574B03EBC203D3E9002351EC54
:104F2000190BFFF777F8002850D0009B013B009346
:104F300000230B93109B5D1B6B1E059345BFC5F1B2
:104F400001030493002300234CBF05930493009BAB
:104F5000002B3DDB059B009A0A9213440593002326
:104F60000793069B092B00F28980052BC4BF043BE5
:104F70000693069BA3F10203CCBF00250125032B5A
:104F800000F28780DFE803F02D3A3859DDE910534D
:104F90001D4405F23243202BC1BFC3F1400305F28B
:104FA00012400BFA03F326FA00F0DABFC3F1200334
:104FB00006FA03F01843FEF741FD01230646A1F16E
:104FC000F877013D0E936AE70123B2E70B90B1E752
:104FD000049B009A9B1A04935342079300230A935D
:104FE000BFE700230893099B002B55DC0123CDE983
:104FF00002331A4609920CE00123F3E70023099AD1
:105000000893009B134402930133012B0393B8BF11
:105010000123606A00224260042202F114069E42CB
:1050200041683DD9204600F031FF019000283BD176
:10503000114B02464FF4D571C0E60123DFE700BFF4
:1050400061436F63A787D23FB3C8608B288AC63F8E
:10505000FB799F501344D33F01760008187600086F
:105060000000F07FFD750008F4750008D175000898
:105070000000F83FB077000896760008012500236D
:10508000069308954FF0FF33CDE902330022122337
:10509000B0E701230893F5E7099BCDE90233B8E7B0
:1050A000013141605200B8E7636A019A1A60039BBC
:1050B0000E2B00F29D80002D00F09A80009B002BAB
:1050C00032DDB74A03F00F0302EBC303D3E90089D3
:1050D000009BD8054FEA231716D5B24B51EC190B9C
:1050E000D3E90823FEF74EFE07F00F0782468B46F2
:1050F0000325AC4E57B942464B4650465946FEF73B
:1051000041FE82468B4628E00225F2E7F90708D5E2
:1051100040464946D6E90023FEF70AFD01358046A0
:1051200089467F100836E5E700F09B80009B9D4F85
:105130005E429B4B06F00F0203EBC203D3E9002350
:1051400051EC190BFEF7F4FC361182468B46002316
:105150000225002E7AD1002BD3D10B9B002B00F01F
:105160008280914B002250465946FEF753FF00289B
:1051700079D0039B002B76D0029B002B36DD009B61
:10518000504659465F1E0022884BFEF7D1FC029E16
:1051900082468B4601352846FEF760FC52465B4648
:1051A000FEF7C6FC824B0022FEF70CFBD046D94628
:1051B0008246A1F1507B002E58D17E4B0022404602
:1051C0004946FEF7FDFA52465B4680468946FEF7A1
:1051D0003FFF002840F0958252460BF100434046C5
:1051E0004946FEF717FF002840F089825BEC19ABB7
:1051F000119B002BC0F24881009A0E2A00F34481D3
:10520000674B03EBC203D3E90089099B002B80F2B3
:10521000D580039B002B00F3D18040F06F82654B5B
:10522000002240464946FEF783FC52465B46FEF7A5
:1052300005FF039E3746002840F04582019D31233B
:1052400005F8013B009B0133009340E2F20705D5CE
:10525000D7E90023FEF76CFC0135012376100837EF
:1052600077E7022579E7009F039E94E701994C4B6D
:1052700031440D91089903EBC60353E90223002939
:1052800043D04D490020FEF77DFD52465B46FEF7B8
:1052900097FA019D82468B464946404601F0B6FC8E
:1052A0000646FEF7DBFB02460B4640464946FEF744
:1052B00087FA303605F8016B52465B4680468946D0
:1052C000FEF7A8FE002863D142464B46364900202F
:1052D000FEF776FA52465B46FEF79CFE002840F049
:1052E000B5800D9B9D4281D0304B002250465946DF
:1052F000FEF71EFC2D4B82468B4640464946002257
:10530000FEF716FC80468946C6E750465946FEF72A
:105310000FFC0D9B019D0F9382468B4649464046EC
:1053200001F074FC0646FEF799FB303602460B4648
:1053300040464946FEF744FA05F8016B0D9B9D4235
:10534000804689464FF0000224D11B4B50465946F7
:10535000FEF738FA02460B4640464946FEF778FE0D
:10536000002873D152465B4613490020FEF728FA05
:1053700002460B4640464946FEF74CFE00283FF4E5
:1053800035AF0F9D6B1E0F9315F8013C302BF8D0F5
:10539000009749E0054BFEF7CBFB80468946BDE709
:1053A000B0770008887700080000F03F0000244034
:1053B00000001C40000014400000E03F019D5646E4
:1053C0005F4642464B4630463946FEF7DBFC01F06D
:1053D0001DFC8246FEF742FB42464B46FEF7A8FB09
:1053E00002460B46304639460AF13006FEF7E8F928
:1053F00005F8016B019E039FAE1BB74202460B46A8
:1054000035D1FEF7DFF942464B4606460F46FEF71A
:105410001FFED0B942464B4630463946FEF7F0FDF6
:1054200010B11AF0010F10D1204618EE101A00F03A
:105430006DFD002300982B700C9B01301860219BA0
:10544000002B3FF4F1AC1D60EEE4009F2B461D469F
:1054500013F8012D392A06D1019A9A42F7D1019900
:10546000302201370A701A7801321A7090E7A64B81
:105470000022FEF75DFB0022002306460F46FEF7E2
:10548000BFFD00289DD0CFE7089A002A00F0D78002
:10549000069A012A00F3BA800E9A002A00F0B28020
:1054A00003F23343079E049D049A1A440492059A1A
:1054B00001211A442046059200F0E0FD0746002D28
:1054C0000CDD059B002B09DDAB42049AA8BF2B46DF
:1054D000D21A0492059AED1AD31A0593079B1BB3AF
:1054E000089B002B00F0AF80002E13DD39463246BA
:1054F000204600F083FE18EE102A0146074620469B
:1055000000F0D2FD18EE101A8046204600F0FEFC96
:1055100008EE108A079B9A1B06D018EE101A204638
:1055200000F06CFE08EE100A0121204600F0A6FDF6
:105530000A9B002B064640F388801A460146204607
:1055400000F05CFE069B012B064640F381804FF085
:105550000008336906EB8303186900F03FFDC0F1D2
:105560002000059B184410F01F0000F09280C0F14D
:105570002003042B40F38A80C0F11C00049B0344E9
:105580000493059B034405440593049B002B07DD0E
:1055900018EE101A1A46204600F08AFE08EE100A8D
:1055A000059B002B05DD31461A46204600F080FEA3
:1055B00006460B9B002B6ED018EE100A314600F009
:1055C000E7FE002867DA009B013B18EE101A0093F3
:1055D0000A220023204600F0BBFC089B08EE100ABC
:1055E000002B00F0B181002339460A22204600F04A
:1055F000AFFC029B002B074600F38E80069B022B1C
:1056000051DC89E0109BC3F136034BE7039B5E1E20
:10561000079BB342BFBF079B0796F21A0A9BB6BF10
:105620009B189E1B0A93039BB8BF0026002BB7BF95
:10563000DDE90323DDE903359D1A002334E7079EE6
:10564000049D089F3BE7079A67E7069B012B18DC40
:10565000BAF1000F15D1CBF3130393B92BF000432C
:105660001B0D1B0583B1049B01330493059B013380
:1056700005934FF001080A9B002B7FF46AAF0120CD
:105680006FE74FF00008F6E79846F4E73FF47DAF88
:1056900018461C3072E7039B002B37DC069B022B5D
:1056A00034DD039B0293029B6BB9314605222046F1
:1056B00000F04EFC0146064618EE100A00F068FEA7
:1056C00000283FF7BBAD099B019DDB4300934FF0E2
:1056D00000083146204600F019FC002F3FF4A4AE2C
:1056E000B8F1000F05D0B84503D04146204600F080
:1056F0000DFC3946204600F009FC95E600263746A9
:10570000E1E70097374699E500002440089B002B0D
:1057100000F0CA80039B0293002D05DD39462A461E
:10572000204600F0C5FD0746B8F1000F5BD0796850
:10573000204600F0ABFB054628B9874B024640F2F5
:10574000EA21FFF73BBB3A690232920007F10C01F4
:105750000C3000F085FB01222946204600F0A8FD10
:10576000019B03F10109DDE90123134405930AF0CC
:105770000103B84604930746314618EE100AFFF7B6
:1057800075FA4146029000F1300A18EE100A00F056
:10579000FFFD3A4603903146204600F015FEC268F0
:1057A00009F1FF3B054602BB014618EE100A00F066
:1057B000EFFD024629462046079200F0A7FBDDE9EF
:1057C000063243EA0201049B0B434D460FD1BAF166
:1057D000390F2AD0039B002B02DD029B03F1310A13
:1057E0008BF800A075E73846BAE70122E2E7039B91
:1057F000002B04DB06990B4304990B4322D1002AAA
:10580000EEDD18EE101A0122204600F051FD31465F
:1058100008EE100A00F0BCFD002803DCE0D11AF00D
:10582000010FDDD0BAF1390FD7D139238BF8003011
:105830002B461D46013B15F8012C392A71D0013247
:105840001A7046E7002A07DDBAF1390FEDD00AF1E8
:1058500001038BF800303CE7059B09F801AC994542
:1058600047D018EE101A00230A22204600F070FBE1
:10587000B84508EE100A4FF000034FF00A02414607
:10588000204606D100F064FB8046074609F1010975
:1058900072E700F05DFB3946804600230A2220466D
:1058A00000F056FB0746F1E7039B0293019D18EEBB
:1058B000100A3146FFF7DAF900F1300A019B05F8CA
:1058C00001ABEA1A029B934209DD18EE101A00237D
:1058D0000A22204600F03CFB08EE100AE7E7029B94
:1058E000002BC8BF1D46019BD8BF01251D444FF0AA
:1058F000000818EE101A0122204600F0D9FC3146AB
:1059000008EE100A00F044FD002891DC02D11AF0E4
:10591000010F8DD12B461D4613F8012D302AFAD0E8
:10592000D7E6019A9A4284D1009B01330093312338
:105930001370CEE6094BFFF795BA219B002B7FF43D
:105940006EAA074BFFF78EBA029B002BAEDC069BBC
:10595000022B3FF7A8AEA9E796760008D07500089D
:10596000F47500088A892DE9F041054610070C46B8
:1059700058D44B68002B05DC0B6C002B02DC00209C
:10598000BDE8F081E66A002EF9D0002312F48052BF
:105990002F682B6032D0606DA3895A0705D56368E4
:1059A000C01A636B0BB1236CC01A00230246E66A6F
:1059B000216A2846B047431CA38906D129681D29BE
:1059C0002CD82A4ACA40D60728D500226260D904BA
:1059D0002269226004D5421C01D12B6803B960659D
:1059E000616B2F600029CAD004F14403994202D0B0
:1059F000284600F0E5FD00206063C1E7216A01232D
:105A00002846B047411CC7D12B68002BC4D01D2BA2
:105A100001D0162B01D12F60B1E7A38943F04003D9
:105A2000A381ADE70F69002FA9D093070E6808BFC7
:105A30004B690F6018BF0023A6EB07088B60B8F115
:105A4000000F9CDD216AA66A43463A462846B047C5
:105A5000002806DCA38943F04003A3814FF0FF3008
:105A60008EE70744A8EB0008E9E700BF01004020EB
:105A700038B50B6905460C4613B90025284638BDD4
:105A800018B183690BB900F087F8144B9C421BD105
:105A90006C68B4F90C30002BEFD0626ED00704D4E0
:105AA000990502D4A06D00F01AF928462146FFF7A7
:105AB00059FF636EDA070546E0D4A3899B05DDD460
:105AC000A06D00F00DF9D9E7054B9C4201D1AC68FF
:105AD000DFE7044B9C4208BFEC68DAE7C8760008B1
