:020000040800F2
:100000000002002059040008F5030008B1030008AD
:10001000050400081504000825040008000000007D
:100020000000000000000000000000009503000830
:1000300035040008000000007903000845040008AA
:1000400025010008250100082501000825010008F8
:100050002501000825010008B50D0008B50D0008B0
:10006000B50D0008B50D0008B50D00082501000804
:1000700025010008250100082501000825010008C8
:1000800025010008250100082501000825010008B8
:10009000250100082501000825010008B50D00080C
:1000A000250100084B180008250100084518000824
:1000B0002501000825010008250100082501000888
:1000C0002501000825010008250100082501000878
:1000D00025010008150B00081B0B0008210B000868
:1000E000B50D0008916A00082501000825010008E7
:1000F0002501000800000000250100082501000876
:100100002501000825010008250100082501000837
:100110002501000825010008250100082501000827
:100120002501000800F08EB900F0A0BA7047000069
:1001300070B50C46064600F089FA094B094A1D685D
:100140002C44944202D8084A944207D20C234FF020
:10015000FF35336000F082FA284670BD1C60F9E775
:100160000002002000400120D8230020194610463C
:1001700000F088BA1946104600F08CBA13230360C9
:100180004FF0FF307047132303604FF0FF3070478C
:10019000132303604FF0FF307047002302290360F0
:1001A0008CBF002001207047134A10B5146800204E
:1001B00094FAA4F28442B2FA82F208BF4FF0FF32FE
:1001C0000E4C0F4B54F822200E49126818600B6831
:1001D000A2F108049C420ED023B118790A2804BF6A
:1001E0000B2018710A23012002F8043C32F9022C7A
:1001F000054B0C601A8010BD000300201403002082
:100200000C0300200803002004030020092930B556
:1002100003791AD9092B14D842791A4B00F1080432
:1002200053F822507DB12D68856053F822502C6020
:1002300043F822400123144A4479A340146823431D
:100240001360017130BD8460F2E7092BF9D945795B
:100250000C4C54F825303BB11A6893420BBF002375
:10026000126844F825301A60427954F82230002B85
:10027000E7D10123044C03FA02F2236823EA0203C4
:100280002360DEE7140300200003002008B5094BBB
:100290001B681A79092A02D95B79834205D900F0D3
:1002A000E0F918B10122044B1A6008BDBDE808400E
:1002B00000F05AB8080300200C03002008B500F035
:1002C000C5F90021084B094A1B88094C1BB242F8AA
:1002D0002310084A20681368013B1360FFF796FF5C
:1002E000216000F03DF800BF04030020540300200B
:1002F000080300201003002013444FF0773223F04E
:10030000030310B543F8042C5A0758BF4FF0883246
:10031000044658BF43F8082CA3F1040058BFA3F1CA
:1003200008004FF0807340E902430C4B002240F874
:100330000C3C0323022440E905320123024640E934
:1003400007340B2342F8201D42F8043D013B032BE8
:10035000FAD16FF0020340F8443D10BDBD02000821
:1003600000F078F901DFFEE7024A536843F080535A
:100370005360704700ED00E0EFF3098020E9F00FD3
:1003800040F804ED02490968086000F003F8000035
:1003900008030020FFF708FF04480068016801C94E
:1003A000B1E8F00F81F3098800470000080300203E
:1003B0000D4B0E4A0E496846904203D8984201D927
:1003C000002102E009468D460121042072460242C6
:1003D00002D1EFF3088001E0EFF309802DE9F00F7F
:1003E0006B4600F06FF800BF58010020004001206C
:1003F00000020020042008B5014900F00DFE00BFF6
:10040000C0B30008062008B5014900F005FE00BF92
:10041000CCB30008072008B5014900F0FDFD00BF7E
:10042000DFB30008082008B5014900F0F5FD00BF62
:10043000F1B30008092008B5014900F0EDFD00BF47
:1004400005B400080A2008B5014900F0E5FD00BF29
:1004500017B400087047704708B5FFF7FBFF6A46FE
:10046000114B1249934213D3114B124A12498B423A
:1004700011D30021114B124A934211D3FFF7EBFF26
:1004800000F0BCFD09F0D0FFBDE8084000F0F6BD6B
:1004900043F8041BE6E752F8040B43F8040BE6E7C5
:1004A00043F8041BE8E700BF00000020FEE7FEE77A
:1004B0000002002060C100080003002000030020AB
:1004C000D82300202DE9F04F8FB00A93494B924674
:1004D0009A6B044603925A6B9F6A0492DA6A8946C1
:1004E00005921A6BDB6B06920793434B1A68434BDA
:1004F0009A4202D042480AF057F8B9F1000F4FD0A3
:10050000002540480AF050F82E463F480AF04CF8C3
:1005100039463E4809F0C2FF05993D4809F0BEFF43
:1005200006993C4809F0BAFF07993B4809F0B6FF25
:100530003A0403D50399394809F0B0FF3B0603D5C7
:100540000499374809F0AAFF36480AF02DF85146B9
:10055000354809F0A3FFB9F1000F1CD133480AF068
:1005600023F83146324809F099FF6946314BC91AE0
:1005700003D53148494209F091FF0A9E204682681E
:10058000C36801698C4641698E46AD46314691E8A3
:10059000F00F4168006801BE0520284900F03CFDCD
:1005A0002069D4E906680890606918F4007F099012
:1005B0002348D4E900B2D4E9023108BF04F1200590
:1005C000CDE90C3118BF04F124050B9209F0ECFFC2
:1005D000DDE90B230D991B480091594609F05EFF98
:1005E000DDE908123346CDF80080174809F056FFC0
:1005F0008BE700BF00ED00E000000020FEE7FEE713
:1006000025B400083BB4000800B5000809B500088F
:1006100019B5000829B5000839B5000849B5000822
:1006200059B5000869B500086EB5000880B5000826
:10063000B1B5000858010020D9B5000806B6000879
:100640006AB4000885B40008C2B40008EFF3108053
:1006500072B6704762B6EFF31080704780F310886F
:100660007047EFF30580C0B2704700004FF4E131EE
:100670000020024B024A00F0EBB900BF0402002048
:10068000951200080A460146014800F00EBE00BF60
:100690000402002010B50C460A460146002000F076
:1006A0009FF9204610BD00007D4B01282DE9F74F32
:1006B000187006D0022820D04FF0FF3003B0BDE8FC
:1006C000F08F784B1A6842F00E021A601A6842F4F2
:1006D00000721A605A6842F4E0625A60724A136902
:1006E00043F004031361FFF7B1FFBFF34F8F30BF37
:1006F000FFF7B4FF00F052FEDEE76A4B6B4F1A685B
:10070000DFF8AC9122F002021A601A68DFF8A481C7
:1007100042F004021A601A68674E42F001021A6041
:100720001A68B24642F400721A605F4AC3461369FF
:10073000624C43F004031361FFF788FF4B46054604
:100740003A462046CDE9002300F058FDDDE90023BC
:100750005B49002873D15B4C0023A246DFF868B1E7
:10076000DBF80000818911F400517AD0818900936F
:1007700021F400510904090C81810421DBF80C00EB
:1007800000F0D1F90122009B22700133032B0BF101
:10079000180B04F10104E3D14FF48051012000F063
:1007A0003FFF01280FD1494B1B889A075BD40821D2
:1007B000474800F0B8F90821464800F0B4F9032191
:1007C000454800F0B0F94FF48041002000F028FFC8
:1007D00001280FD1414B1B889B0746D40821404874
:1007E00000F0A1F908213F4800F09DF903213E489F
:1007F00000F099F9BFF34F8F30BF00F0CFFD2F4CC1
:10080000DFF8BCB0204600F0F9FC80BB9AF800305D
:100810002BB1364A93899BB243F4005393819AF8E3
:1008200001302BB1324A93899BB243F40053938138
:100830009AF8023063BB2846FFF710FF3CE72068B8
:1008400042F8040BE06843F8040BA0882BF8020B75
:10085000208D04F580648C422AF8020B7FF471AF7E
:1008600079E7217091E70421A2E70421B7E759F85D
:10087000043BE36038F8023BA38057F8043B236055
:1008800036F8023B238504F580645C45BAD1BDE7A8
:10089000184A93899BB243F400539381CBE700BF7E
:1008A0007B0400200070004000ED00E028040020E0
:1008B00058040020480400201804002000000240D2
:1008C00000200240780400201CB6000800300140DF
:1008D00005000240070002400600024000380040C8
:1008E0000D0402400F0402400E0402400038014093
:1008F000004400400048004008B5FFF7A7FE002272
:10090000014B1A7008BD00BF7B040020182343432D
:100910000D4A70B5D45823889A069DB209D50C2388
:1009200058430A4AA18813181E7A12583140586851
:1009300090472B0748BFA388054B1B681BB1BDE838
:100940007040FFF711BD70BD64B600087C04002044
:100950000C0300202DE9F041182444431F4E0D469E
:1009600006EB040898F81470384600F017FEB0FB48
:10097000F5F0072808D83846D8F8041000F036FEFD
:100980006FF00100BDE8F08133590F289A8922F4F5
:1009900000524FEA02424FEA12429A819989C2B24A
:1009A00011D86FEA41416FEA5141083A89B242F0E9
:1009B00010029981D2B21A819A89002092B242F42F
:1009C00000529A81DEE7C1F30E0199814FF6F07172
:1009D00002F00F0201400A43EDE700BF64B60008D1
:1009E000022810B503D903200C4900F015FB182389
:1009F00058430B4B1B589889000705D50A44914270
:100A000003D11A885206FCD510BD11F8010B1C88C1
:100A10002406FCD580B29880F1E700BFDAB6000862
:100A200064B60008022808B503D90320064900F07F
:100A3000F3FA1822054B02FB0030BDE8084041687C
:100A4000007D00F0BBBD00BFDAB6000864B6000848
:100A500002282DE9F84304460F46164603D9032021
:100A6000284900F0D9FA0C22182562432648DFF8FD
:100A70009C8081184B60FF2305FB0485D5F80C9002
:100A800086500B724846697C00F04DF8484600F0ED
:100A900019F94846E97C00F083F84EB1D5F8089082
:100AA000297C484600F03FF84846A97C00F078F8D9
:100AB0002046FFF7B7FF1823634358F8035008EBAD
:100AC000030900233946AB8120462B82AB82FFF716
:100AD00041FF9EB199F9153099F81520002B07DBDD
:100AE00002F01F0101228A4009495B0941F82320D5
:100AF00042F22C030020AB81BDE8F88342F20803E8
:100B0000F8E700BFDAB600087C04002064B60008ED
:100B100000E100E00020FFF7F9BE0120FFF7F6BE7C
:100B20000220FFF7F3BEF8B5431C0C4637D0012670
:100B300020F00F0500F00F07C0F3832006FA00F144
:100B4000022000F03BFDFFF781FD03232A6807FA2E
:100B500006FC03FA0CF304F0030122EA030201FA93
:100B60000CF111432960E968C4F3810221EA030111
:100B700002FA0CF20A43EA60AA88BE4092B2C4F3B9
:100B8000001422EA0602BC401443A4B2AC80AA6856
:100B9000B6B21343AB602E85FFF760FD0020F8BDB1
:100BA000F8B5431C04460D4624D020F00F0600F093
:100BB0000F07FFF74BFD0323326879008B4022EAD1
:100BC000030202238B401343072F33608CBF04239F
:100BD00000231E440F2304F00704316AA400A3403D
:100BE00021EA030105FA04F40C433462BDE8F8403D
:100BF000FFF734BDF8BD0000431C10B518D0C0F39A
:100C000081020C4B023253F822300F2200F0030114
:100C1000890000F00F048A40C0F383201A40884006
:100C2000824205D10123044AA34011680B4313609B
:100C300010BD00BF0000014000040140431C10B57E
:100C400019D00D4BC0F38101023153F821100F234D
:100C500000F00302920000F00F049340C0F38320E1
:100C60000B409040834206D101220449A2400B6808
:100C700023EA02030B6010BD0000014000040140A4
:100C8000431C10B518D0032320F00F0200F00F0012
:100C9000410014688B402340CB40DBB2012B06D1CE
:100CA000928A92B28340134043FA00F010BD33B9E8
:100CB000138A9AB20123F5E76FF00100F6E74FF0CF
:100CC000FF30F3E7431C07D0012320F00F0200F0B0
:100CD0000F0003FA00F090617047431C08D0012315
:100CE00020F00F0200F00F00103003FA00F09061C6
:100CF000704700002DE9F04188460121054616465F
:100D0000294A00F00F0442F83430069B02EBC4027B
:100D10005360C0F38327084600F050FC4146284644
:100D2000FFF701FF042C214B34DC0122A11D8A4076
:100D30001A6001221E4BA240996805F0030521EAC2
:100D400002019960986806F00101A14001430F205B
:100D50009960D968760821EA0201D960D968A6406D
:100D600004F00C040E4304F18044DE6004F580348A
:100D7000A168AD00A84021EA0001A160A16807FABE
:100D800005F50D43A5605A61196800200A431A60F1
:100D9000BDE8F081092C02DC4FF40002C8E74FF4F3
:100DA00080725A60C5E700BFA004002000E100E0A7
:100DB000000401402DE9F04100244FF001080D4FDF
:100DC0000D4D7E693B681E4008FA04F3334203D0A0
:100DD0007B61D5E9003098470134102C05F10805F6
:100DE000F2D1064B1B681BB1BDE8F041FFF7BCBA5E
:100DF000BDE8F08100040140A00400200C030020A5
:100E0000002000F0C7BC000038B5044C2568FFF78F
:100E1000F7FF2368AB42F9D1184338BD28050020FD
:100E2000034B196819B982B2084600F08FBC7047AD
:100E3000200500202DE9F043294E336803F5803367
:100E4000336033681BB9274A1368013313600020ED
:100E5000254B264D1A6818602B6884461946244F86
:100E6000DFF880E0DFF88C803A6029B1DEF80040DE
:100E7000D1F80890A14517D900B12960BCF1000F45
:100E800010D00021CCF800103AB3C3B154685968AF
:100E90008C4294BF10461846014612681B6882B9FE
:100EA0000B603860BDE8F0834C68D6F8009004EA27
:100EB00008044C45E0D18C4601200968D5E710466E
:100EC000EAE70BB90A60ECE756685D68AE4294BF8A
:100ED00014461C460C602146DFE73B60E2E700BF9A
:100EE0002805002024050020300500202C050020C6
:100EF000340500200000FFFF2DE9F041002965D1F5
:100F00000123334F334D3B602B68CBB9FFF792FF82
:100F10004FF6FF74FFF774FFA042FBD000244FF0A0
:100F200000082B6883B9FFF76BFF1430844228D97F
:100F3000FFF780FFFFF764FF8442FBD30024F0E754
:100F4000FFF75EFF0446EAE75E68FFF759FF844259
:100F500005D8B3B2834202D91B1A132BE3D82B68EE
:100F60005E68FFF74DFF844202D8B6B28642F6D8DB
:100F70002B681A68C3E901882A60D3E903209047E7
:100F8000CFE72B686BB15E68FFF73EFF063E14307B
:100F90008642C6D3002330463B60BDE8F041FFF7F0
:100FA0003FBFFFF72DFF8442064602D9FFF742FFFD
:100FB000C4E700F114039BB2984204D9FFF720FF65
:100FC0008642FBD9F2E74FF6FF76E3E7BDE8F08112
:100FD000200500203405002008B50023054A1846E6
:100FE000054900F0EBFBBDE808404FF0FF30FFF78C
:100FF00017BF00BFF90E000840420F0008B500F00F
:1010000087F9BDE8084001210148FFF78CBD00BF0A
:10101000000402407047000008B50C4B0C461A68EB
:1010200072B9012203281A6003D17146084809F0F9
:1010300035FA2146074809F031FA074809F02EFA37
:10104000FFF704FBFFF7E6FFFFF756FC380500202B
:10105000ACB60008B0B60008CCB6000808B500F081
:10106000D3FD034809F01AFA00F088FC002008BDFF
:10107000ECB6000808B500F02BF9FCE71FB500241A
:10108000FFF7E4FA0D4B0F221B684FF480710293B7
:101090000B4B0C48009301940C2300F033F80A4BDF
:1010A00007221B684FF44061CDE90143074B084814
:1010B00000930C2300F026F8FFF752F918020020E5
:1010C000751000083C0500201C0200205D1000087F
:1010D0003C06002038B50B79092B03D903200849B9
:1010E000FFF79AFF4C7901F108020346006818B136
:1010F00010F8035CA542F8D988601A6038BD00BFBB
:10110000DAB600080F2A2DE9F74F05468A469046C1
:10111000994637D810F003030FBF0B46C3F1040202
:10112000043B5B18A3F1300318BFAD1823F0030391
:1011300019F0080F05EB03041AD12D6003E01260CB
:101140000432A242FBD30193FFF780FA0122074643
:101150002849019B51F822600FFA82FBAEB101329F
:10116000212AF7D13846FFF779FA6FF08A0B3CE075
:101170002A46E6E701212046FFF748F83846FFF700
:101180006DFA32E06FF0150B2FE041F822402A464D
:10119000DDE90C01A4F806B0FFF7AEF80E9B164A85
:1011A000A3624FF0FF33C4E90736136819F0010F4B
:1011B00003F101032060C4E90266C4E904666562C4
:1011C000C4F82CA084F805802671A6611360D1D1E3
:1011D0000B212046FFF71AF819F0040FCED138463C
:1011E000FFF73CFA4046FFF751F8584603B0BDE818
:1011F000F08F00BF54030020100300200C4B9A6AAC
:1012000042F400429A62EFF3138171B65A6942F4D4
:1012100080725A610278986A5A6922F480725A611F
:1012200081F3138880F40040C0F3C030704700BFE2
:1012300000ED00E0F8B505460F46164604463C446E
:101240002046FFF7DBFF631B08B19E42F7D8184624
:10125000F8BD00000C4B0D4A102110B59A60002219
:101260000B4C83F82210D977A0180132392A80F864
:101270000013F9D11A6942F010021A615A6942F456
:1012800000725A6110BD00BF00ED00E000000008D0
:1012900000E100E038B5054600F0F6FA044605F135
:1012A000100000F0E5FF204638BDF8B504460D46B5
:1012B000164600F1100732462946204600F0D1FAC2
:1012C00000B1F8BD0121384600F0A2FFF3E70000AD
:1012D00073B50E4E3368019304230DEB03021D46D4
:1012E000013B995C11B9002BF9D11D46FFF7AEF90E
:1012F0003368019A04469A4202D168B2FFF7D4F9E2
:10130000204602B0BDE87040FFF7A8B920020020D7
:101310002DE9F047FFF79EFF4FF08051002000F0CD
:101320004DF900F03BF81A4BFF210220DE69002541
:1013300000F044F96FF0A8474FF0FF386FF4A07940
:10134000F6B2AC0204F1804404F5003420465FFAA2
:1013500085FAFFF753FF50B12DB1BAF1010F14D048
:10136000C4F8008000E027600135082DE9D1084B62
:101370000220D96921F0FF01314300F01FF900F08C
:1013800096FABDE8F04700F063B9C4F80090EBE7C7
:10139000003802400138FDD170470000774B37B567
:1013A0001A68774D42F480721A609A6822F47F526C
:1013B00022F030029A609A6822F0EE429A609A68AF
:1013C00022F003029A6019686E4A0A4000211A60EE
:1013D000D9602A68022A00F0AF80B2F5003F1A688F
:1013E00042F480321A6040F0AC8064490A682B688D
:1013F0001A42FBD0644B1A6842F004021A601A6861
:1014000042F001021A601A6842F002021A609A69F8
:101410001207FCD54FF08051002000F0CFF85B4B55
:101420001A680092009A22F4C0520092009A42F484
:1014300000620092009A1A605A68D406FCD44F4C9D
:10144000062063680093009B23F460430093009B95
:1014500043F440430093009B6360FFF79BFF2368C6
:1014600043F001032360A36823F47D03A360A36812
:1014700043F40003A360236843F080732360236870
:101480009801FCD51A20FFF785FF236823F08073AD
:1014900023603A4B1A689101FCD49A6822F47D02C9
:1014A0009A602A68B2F5003F9A680CBF42F40502C0
:1014B00042F408029A60314B1A6842F080721A6056
:1014C0001A689201FCD540F201129B6830490093E2
:1014D000009B23F0030300932B68B3F5003F08BF84
:1014E0001146009B43F003030093009A234B9A603C
:1014F0009A6802F00C020C2AFAD11A6822EA010258
:101500001A602449244A11629A680092009A22F0D3
:10151000F0020092009A0092009A22F4E062009297
:10152000009A0092009A22F460520092009A00926F
:10153000009A9A6003B030BD1A6842F001021A6046
:1015400053E74FF4003242F210702A60019119689B
:101550002A6811427FF449AF019A01320192019A3F
:101560008242F4DD1A6842F001021A601A6822F41D
:1015700080321A6002232B6037E700BF0038024038
:101580003C120020FEFFFAEE003C024000700040DA
:10159000000101000048E80140120020014B186AD8
:1015A000704700BF40120020024A034B1B5C106AC8
:1015B000584370474012002026B70008012809D080
:1015C00002280CD018B9084A536A19435162BFF374
:1015D0004F8F7047044A136A19431162F7E7024AB2
:1015E000D3691943D161F2E700380240012808D0DD
:1015F00002280CD080B9094A536A23EA01015162DA
:101600007047064A136A23EA010111627047034AD0
:10161000D36923EA0101D161704700BF003802405D
:10162000012809D002280AD060B9084B5B6A0B4236
:1016300014BF012000207047044B1B6AF7E7034BDF
:10164000DB69F4E74FF0FF30704700BF003802401D
:1016500038B54FF4A0324FF480614FF00050FFF7DF
:10166000E9FD0425144C4FF400224FF48061206002
:101670004FF000602571FFF7DDFD4FF48073A0602F
:10168000000A4FF48042E0604FF400610B48236190
:101690002575FFF7CFFD0A4B25771B68A061C3F3C3
:1016A0000B03A3F21643212B8EBF0023054AD35C04
:1016B00084F8243038BD00BF401200200000080824
:1016C000002004E028B700082DE9F843074600246D
:1016D0001B4A0301D658DFF86C90338AB58909EBB1
:1016E000C008ADB21D40022303FA04F22A420AD018
:1016F000B38921469BB223EA0203B381D8F80400E0
:1017000059F8373098470123A3402B420BD0338A36
:10171000214623F001031B041B0C3382D8F804007C
:1017200059F8373098470134042CDCD1064B1B683C
:101730001BB1BDE8F843FEF717BEBDE8F88300BF54
:101740004CB70008681200200C030020032910B5D4
:101750001ADC0F4B040103EB00101C5943680020F6
:101760001A4001F10C0304EB83035A60238A9AB2F6
:10177000022303FA01F109B222EA01032382A389B9
:10178000194389B2A18110BD4FF0FF30FBE700BFC4
:101790004CB70008024B00011B58586A704700BF45
:1017A0004CB70008044B00011A5813889BB243F051
:1017B00001031380704700BF4CB7000801282DE9D2
:1017C000F84304460F4633D81B4D1C4E45F83020D5
:1017D00005EBC0056B6006EB001595F80C80A96859
:1017E0004FEA00194046FFF7E9FE002356F809606A
:1017F00040463380B3806B68F362FFF7D5FEB0FBE1
:10180000F7F0012295F90D30013880B2002B3085B8
:10181000697BB28206DB01F01F018A4008495B093F
:1018200041F823202046FFF7BDFF0020BDE8F883E4
:101830004FF0FF30FAE700BF681200204CB70008F5
:1018400000E100E00020FFF73FBF0120FFF73CBFB1
:1018500082680168531C83604368013B1340C85C85
:101860007047F8B504460F46164615461DB1A268E6
:10187000E3689A4201D1701BF8BD2046FFF7E8FFEC
:10188000013D07F8010BF1E7C26830B58468436891
:10189000121B9A4208D0C2680468551CC56000201B
:1018A000013B1340E15430BD4FF0FF30FBE7704780
:1018B0002DE9F34729492A4800F0F0F9002849D1D9
:1018C000284808F071FE284D2C6805F09FF82B6819
:1018D0009C42F9D10443DFF88890DFF89080244FD0
:1018E0000194484600F0C6FA0646484600F0F2FB6E
:1018F0000446484600F030FB4FF00A0A05461B48F4
:1019000000F02CFC96FBFAF20121184812B200F00C
:101910002FFCB5FBFAF20221144812B200F05CFC75
:101920003222B4FBF2F20321D2B2104800F03CFCA8
:1019300098F82A300F487B600F4BC7F80080B3F946
:101940000010476000F0E6FD4FF4704101A800F080
:10195000BDFEC6E7002002B0BDE8F08724020020EB
:10196000B41600206CB70008481800207816002034
:10197000A4160020AC160020321800202DE9F043F8
:1019800097B0082106A800F04BFE04217E48FFF71F
:10199000CAF87D48FFF774F9044603217A48FFF737
:1019A000C2F8013C18BF0124784979488C6201F0E3
:1019B000E9FB784B784E1A88784B79493080744827
:1019C0001A8001F08EFC7749714801F08EFC76494F
:1019D0006F4801F08EFC00216D4801F000FD0521EB
:1019E0006B4801F09DFC0021694801F00FFD0021CA
:1019F000674801F009FD0221654801F003FD02215D
:101A0000634801F07AFC694808F0CEFD604D684FEC
:101A1000DFF8A0810021284601F0F0FB04460C28E5
:101A200058D801A353F820F05D1A0008BD1A000829
:101A3000BD1A0008151A0008D51A0008D51A0008A2
:101A4000D51A0008D51A0008D51A0008D51A0008BA
:101A5000BD1A0008BD1A0008BD1A0008564808F053
:101A6000A3FD564B0622029300230193544B4FF4DF
:101A70008061009353480823FFF744FB524F444CC6
:101A800004A800F0C9FDBDF91020B6F90030BDF87A
:101A900012109A4231D00029F2D1059B20461968D4
:101AA0001A7901F0D7FB831E0146092B21D8DFE804
:101AB00003F01A201C2020202020161E014640463C
:101AC00008F0ECFC00214FF4205000F0D3FD002C76
:101AD000A0D1C6E70146384608F0E0FCF7E73B48EE
:101AE00008F062FDCCE73A48FAE73A48F8E73A48A6
:101AF000F6E73A4808F0D2FCC2E743F26243994263
:101B000009D043F26343994210D043F261439942B2
:101B100038D13348E4E70599062901D13148DFE798
:101B2000072901D13048DBE73846E3E794F8401154
:101B3000B4F9443194F8462139B994F8420120B1FE
:101B400019462A4808F0AAFC9AE7009294F8412125
:101B5000274808F0A3FC274808F0A0FC0025DFF880
:101B60009880DFF8989094F84031AB4203DC244829
:101B700008F094FC84E7484618F8011B08F08EFC36
:101B80000135F0E71F48B5E70404024030020020A9
:101B9000E416002004030020301800203218002032
:101BA000EAB90008D2B90008DAB900088DB7000810
:101BB000F7B70008D2B70008A8B7000821B8000896
:101BC000B118000878120020F3B800082DB80008FA
:101BD00045B8000866B800087FB800089FB800083C
:101BE00087B90008C2B80008D1B8000811B90008C8
:101BF00036B900086FB900083217002081B9000813
:101C0000D8B60008A9B9000808B500F0BBFFFFF777
:101C1000E3F9BDE8084000F0DBBE30B5044685B00E
:101C200000680D4605F09CF800232A4621790093B0
:101C300020680DF10F0306F070FC206805F0AEF887
:101C40009DF80F0005B030BD73B5044600680D4621
:101C5000164605F085F800232A460093217933467D
:101C6000206806F08CFC206802B0BDE8704005F0EA
:101C700095B8000038B5084D2C6804F0C7FE2B68F5
:101C80009C42F9D104434FF47A70A4FB0040A40AAB
:101C900044EA805038BD00BF4818002030B50446E3
:101CA00007C9A3B084E8070005F05AF8206804F0DB
:101CB000C5FFD0212046FFF7B0FF602809D0582883
:101CC00007D0206805F06AF84FF0FF35284623B0AA
:101CD00030BD8022002102A808F0D8FB206805F062
:101CE0003FF8602300222179CDE900322068882264
:101CF00002AB06F0ECFB0546206805F04FF845B155
:101D00005B4808F0CBFB206805F048F86FF0010550
:101D1000DCE79DF809209DF8083003EB0223A3813E
:101D20009DF80B209DF80A3003EB0223E3819DF818
:101D30000D209DF80C3003EB022323829DF80F2029
:101D40009DF80E3003EB022363829DF811209DF86D
:101D5000103003EB0223A3829DF813209DF812306C
:101D600003EB0223E3829DF815209DF8143003EB6A
:101D7000022323839DF817209DF8163003EB0223DE
:101D800063839DF819209DF8183003EB0223A38389
:101D90009DF81B209DF81A3003EB0223E3839DF886
:101DA0001D209DF81C3003EB022323849DF81F2087
:101DB0009DF81E309DF8641003EB022363849DF8A8
:101DC00021309DF8622084F824309DF8613020682D
:101DD00003EB0223E3849DF8633084F828309DF8F8
:101DE000653003F00F0202EB011262859DF8662058
:101DF0001B0903EB0213A3859DF8673084F82E308E
:101E000004F0AEFF2B462179F4222068009506F0FD
:101E1000B6FB206804F0C2FFA2796379920002F059
:101E20001C0242EA43122046F52102F0FC02FFF7B1
:101E30000BFFE27A2046F22102F00702FFF704FFCF
:101E4000227A637A02F0030242EA4312A37AF4216F
:101E50009B0003F01C031A432046D2B2FFF7F4FEA6
:101E6000206804F09BFF206804F098FF2EE700BF75
:101E7000F2B9000873B50446F421FFF7CEFE227ACA
:101E800000F0030393421BD000F0FC000243F42156
:101E90002046FFF7D9FEFFF7EDFE064600210A2097
:101EA00000F0E8FBF3212046FFF7B7FE00F008053D
:101EB000FFF7E0FE801BB0F5FA7F16D2002DEDD1C2
:101EC000206804F04DFF082300221E4DCDE90032AA
:101ED00021792B46F722206806F0F9FA0646206899
:101EE00004F05CFF6EB1184803E001D1002DE7D08B
:101EF000164808F0D3FA206804F050FF144802B0E6
:101F000070BD2A79EB78120142EA03326B7942EA1A
:101F10001310A389C3EB121252435B00C3EBD0032F
:101F2000B4F90E0012134343B4F910005043801368
:101F300000EBE320074B186000EB8000803040F39B
:101F40000F20DCE73418002029BA000813BA000873
:101F50000080FFFF3C1800202DE9F04104465B4B58
:101F6000B4F91A5058781E78000140EA06309E787D
:101F7000574B40EA16161A68B4F91C004FEAE27E85
:101F8000B2F5FA324EF1FF3EA2FB02C702FB0EF39E
:101F900007EB430700FB07F3C1170CFB0131A0FB64
:101FA0000C030B4405FB0EF14FEAE57802FB081128
:101FB000A5FB02584144490441EAD5316D04281873
:101FC0000546B4F9140043EB010100FB0EFEB4F921
:101FD000183001EBC301C31702FB03EEB4F916304E
:101FE000A0FB02025F4372444FEAE37E0CFB0E77D4
:101FF000A3FB0C3C1203BC441B0A42EA105243EA06
:102000000C6300031B18608A42EB2C22A3FB003CEC
:1020100002F5004200FB02CC4FEAEC7353EA6C007D
:102020004FEA6C024FD0C6F5801000F0004646EA39
:102030005006C007401B40F6354566EB0106A0FB85
:10204000050105FB061108F033F88446B4F9222097
:102050004F1302FB07F6430B43EAC143D51703FBBB
:102060000566A2FB0325354402FB07F603FB056664
:10207000A2FB03231E44530EB4F9205043EAC613B7
:102080001B1841EB66666943EA1702FB0011A5FBCA
:102090000C5CB4F91E006144ED0C45EA41355D1954
:1020A0004FEAE07446EBE1412D0A240144EA107442
:1020B00045EA01650001401944EB2124000A40EA89
:1020C0000460BDE8F0814FF0FF30FAE734180020DB
:1020D0003C18002010B51F4B90F92E101C681E4BA9
:1020E000A4F59634DB8861435BBA9AB2B0F92A3022
:1020F00089121B05C3EB8233B0F92C2004FB123389
:1021000003F58043DA1390F828306343DB1203F5BC
:1021100000434B43B0F926109B1203F500134B43C9
:1021200003F500539B135343DA13524390F82400F2
:10213000D2115043A3EB201020EAE070B0F1C85F49
:10214000A8BF4FF0C8506423000B5843C0F38F2042
:1021500010BD00BF3C1800203418002010B52A2202
:102160000021044608F092F9002384F82A3010BDBB
:1021700038B590F82A301C1D292C03D903200949B1
:10218000FEF74AFF6725C154591CC9B24554991C32
:102190000333C9B21512DBB2455480F82A40C25449
:1021A00038BD00BFDAB6000838B590F82A30DC1C1C
:1021B000292C03D903200749FEF72EFF6825C154B7
:1021C000591C0233C9B2DBB2455480F82A40C254CC
:1021D00038BD00BFDAB6000838B590F82A301C1DAB
:1021E000292C03D903200949FEF716FF7325C15492
:1021F000591CC9B24554991C0333C9B21512DBB23C
:10220000455480F82A40C25438BD00BFDAB60008F1
:1022100070B504460D46FEF719FA236806463BB929
:102220004FF0FF332360FEF719FA0125284670BDF1
:10223000C5B10E4B02211D682846FDF7E7FF236854
:1022400001330AD105F1080323600023AB60304657
:10225000FEF704FAFEF788F8E7E729462046FEF77E
:1022600039FFF4E7FEF7FAF9E0E700BF08030020C2
:1022700070B50446FEF7EAF9256806461DB9BDE8C3
:102280007040FEF7EBB96B1C02D100232360F6E728
:10229000284650F808390B212360FDF7B7FF236863
:1022A00013B94FF0FF33236015F8034C3046FEF7A7
:1022B000D5F92046BDE87040FDF7E8BFF8B5054602
:1022C0000E46FEF7C3F93B4B3B4A1B8807461BB241
:1022D00052F823301A6A002A66D0D3E90542A24296
:1022E00062D0621C5A61DA69144046B91A6932B97F
:1022F000621C04D13846FEF7B1F92046F8BD002C27
:1023000056DB1A6A02EBC40292E8030085E8030078
:102310001E69002E42D03268002C1A610DDBD3E911
:1023200006255969186A511A8D42B1BF4FF0FF3224
:10233000511C2A40996100EBC205736893E80300C1
:1023400085E8030016F8043C052B25D000230B215B
:102350007360A6F10800FDF759FF16F8034C3846E4
:10236000FEF77CF90E2C12D82046FDF78FFF0EE009
:1023700018460321FDF74AFF3846FEF76FF9FDF7CF
:10238000F3FF0E4B1B681B79032BD8B201D001243D
:10239000B3E70B49FEF740FE0F24E0E7002CE7DB34
:1023A0003846FEF75BF9F2E74FF0FF34002E9DD080
:1023B000DD60ADE704030020540300200803002083
:1023C000DAB6000810B5D0E9063244691C1BA242F7
:1023D00001DA002010BD5C1C13408461F9D4026A4C
:1023E00003C902EBC30383E803000120F2E7000006
:1023F0002DE9F8431D46264B064653F82170254B20
:1024000091461B8803803FB92846FEF727F94FF015
:10241000FF342046BDE8F8833B79032B2ED01E4BBA
:1024200001463846D3F80080FFF7CCFF044650B190
:102430002846FEF713F998F80430052B01D1FDF773
:1024400093FF0124E5E7B9F1000F03D12846FEF719
:1024500005F9DEE798F804304046052B0CBF05214E
:102460000421C8F80C60FDF7D1FE414607F11000C9
:10247000FEF730FE2846FEF7F1F8E0E7FB6803C8F8
:1024800083E803000B213846FDF7C0FEF2E700BFEA
:1024900054030020040300200803002038B504463C
:1024A000FEF7D4F8074B21461B8805462380064BD0
:1024B0001868FFF787FF04462846FEF7CFF8204646
:1024C00038BD00BF040300200803002008B50F4BEF
:1024D00053F82130B3B1212202801A79032A0BD19B
:1024E00003C8DA6882E8030018460B21FDF78EFE68
:1024F0000120074B186008BD01461846BDE808409A
:10250000FFF760BF4FF0FF30F5E700BF5403002036
:102510000C03002070B504460D46FEF7A2F828B162
:1025200029462046BDE87040FFF7D0BF094B1B8805
:102530001BB2AB4204D12046BDE87040FFF7AEBFEE
:10254000FEF784F82946034601222046BDE8704084
:10255000FFF74EBF040300202DE9F041DFF8508063
:102560000646B8F800300C461BB29342154603D11C
:1025700003201049FEF750FDFEF768F80746B8F84B
:1025800000300D4A1BB252F8238005214046FDF76A
:102590003DFE96E80300C8F80C403B4684E8030083
:1025A000012229462046BDE8F041FFF721BF00BFC8
:1025B00004030020DAB600085403002070B5044676
:1025C0000D46FEF743F8B4F90020114B064653F8C8
:1025D00022401CB903200F49FEF71EFD2379052B6D
:1025E00004D0FEF73BF84FF0FF3070BDE36895E88C
:1025F000030083E803000B212046FDF707FE647902
:102600003046FEF72BF82046FDF740FE0120ECE7B0
:1026100054030020DAB600080121FFF74FBE000086
:1026200008B5074B4A1E1B681140186203D00320EF
:102630000449FEF7F1FCC3E90511DA6108BD00BFEA
:1026400008030020DAB60008FFF712BE38B50446CA
:1026500004F0DCF90546C4F30E0404F0D7F9431B7B
:10266000C3F30E039C42F8D838BDB0F90010FFF751
:102670002DBF000030B587B004460D46FDF7F1FFD1
:1026800050B11DB103200F49FEF7C6FC204607B02C
:10269000BDE83040FFF7DABF0B4BCDE902000090F8
:1026A000012168460493CDF814D0FFF7B1FD2A4606
:1026B000214601A800F036FA01216846FFF7A8FD7F
:1026C00007B030BDDAB600084926000800232DE91E
:1026D000D041074687B0046800931F4BDFF87C8029
:1026E0000493CDF814D00C44D8F8006004F08EF9AF
:1026F000D8F800309E42F7D13B680643B3420DD96B
:10270000B44207D9A34205D9A61B052E0AD83046E4
:10271000FFF79CFF3C6007B0BDE8D081A342F3D82F
:10272000B442F0E7092E09D8D8F8004004F06EF959
:10273000D8F800309C42F7D1044334440121684664
:10274000FFF766FD214601A800F04CF9012168461B
:10275000FFF75EFDDEE700BF4926000848180020AD
:1027600030B4034DC0E9035230BC138000F0B9B956
:102770006B26000838B5044C256804F047F9236837
:10278000AB42F9D1184338BD48180020044B1A68F1
:1027900022B90449C0F30E0004F048B9704700BFE5
:1027A000401800209928000810B5094A136843B161
:1027B0009C6881688C4207D303D15C6841688C4275
:1027C00002D90360106010BD1A461B68EFE700BF16
:1027D0004C1800202DE9F043294E336803F50043DF
:1027E000336033681BB9274A136801331360002034
:1027F000254B264D1A6818602B6884461946244FCD
:10280000DFF880E0DFF88C803A6029B1DEF8004024
:10281000D1F80890A14517D900B12960BCF1000F8B
:1028200010D00021CCF800103AB3C3B154685968F5
:102830008C4294BF10461846014612681B6882B944
:102840000B603860BDE8F0834C68D6F8009004EA6D
:1028500008044C45E0D18C4601200968D5E71046B4
:10286000EAE70BB90A60ECE756685D68AE4294BFD0
:1028700014461C460C602146DFE73B60E2E700BFE0
:102880004818002044180020501800204C18002040
:10289000541800200080FFFF2DE9F04104F0B6F845
:1028A0000123324F324D3B602B68044683B14FF019
:1028B00000082B68B3B904F0A9F80330844230D97A
:1028C000FFF788FF04F0A2F88442FBD30024F0E76E
:1028D000FFF780FF47F6FF7404F098F8A042FBD0A2
:1028E0000024E4E75E6804F091F8844206D8C6F359
:1028F0000E03834202D91B1A022BDCD82B685E68B8
:1029000004F084F8844203D8C6F30E068642F5D854
:102910002B681A68C3E901882A60D3E9032090472D
:10292000C7E72B6863B15E68FFF724FF0330864278
:10293000BFD3002330463B60BDE8F041FFF726BF20
:1029400004F064F88442064602D9FFF743FFBDE76E
:10295000C31CC3F30E03984204D904F057F886420F
:10296000FBD9F2E747F6FF76E3E700BF4018002007
:1029700054180020134A136883420FD11B68136058
:1029800013B15868FFF702BF47F6FF70FAE79842A5
:1029900002D10368136070471A461B68002BF6D1FA
:1029A000094A13681BB9094A13682BB97047984242
:1029B000EFD01A461B68F5E79842EAD01A461B6822
:1029C000F3E700BF54180020501800204C180020D6
:1029D00008B503F0C7FFBDE808404FF0FF30FFF730
:1029E000D5BE0000F8B504460D46FFF7C3FE002330
:1029F00023602B1A032B06460ED8C5F30E0504F0F0
:102A000005F88542FBD304F001F88542FBD8D4E9F0
:102A1000033098470020F8BDFDF718FE63680746AD
:102A20000BB9A36813B12046FFF7A4FF47F6FE7366
:102A30001F4AAB4308BF023D1368AE4288BF013353
:102A4000A3601368A26865609A4207D8194B1A6898
:102A500025F4FF4323F07F039A4206D02046FFF778
:102A6000A3FE3846FDF7FAFDD4E7C6F30E06B542DD
:102A70000FD9114B19461A6812B15068854214D209
:102A800022601C600B689C42EBD12846FFF77EFE5B
:102A9000E7E70A4A136813B159688D4202D22360EE
:102AA0001460DEE71A461B68F5E713461268E3E791
:102AB0004418002048180020541800205018002006
:102AC00038B50446FDF7C2FD636805460BB9A36837
:102AD00013B12046FFF74EFF2846BDE83840FDF70A
:102AE000BDBDC36870B504460D46D3B1FFF7E8FF1E
:102AF000022D0ED803F08AFF064603F087FF831BE2
:102B0000C3F30E039D42F8D8D4E90330BDE870400A
:102B10001847FFF72FFE29182046BDE87040FFF741
:102B200061BF70BD2DE9F04704460E4615461AB93F
:102B3000BDE8F047FFF7D5BFFDF788FD636807469E
:102B40000BB9A36813B12046FFF714FFDFF83090EC
:102B5000FFF710FED9F800A08046FFF70BFE804576
:102B6000F6D83618554428BF013520466660A56062
:102B7000FFF71AFE3846BDE8F047FDF76FBD00BF0E
:102B80004418002007B504210DEB010006F08AF877
:102B9000019800F027F803B05DF804FB884270B597
:102BA000064603D303200E49FEF736FA0D1A2846CF
:102BB00005F0EEFD6B1E2B42C3B209D101249C40EF
:102BC000013C00F015F820408542FAD9304470BD30
:102BD0001E2B01D80133F1E74FF0FF34F1E700BFBE
:102BE000DAB600080146014805F030BC581800204C
:102BF000134A70B5D2E90116136881EA0604D06859
:102C000023F00043634083EA430380EA50005840C6
:102C1000146940F300052C4074405460546983EA01
:102C2000802325406B401160936001EB1323916971
:102C3000D060584043F300030B40584070BD00BFC4
:102C4000581800200121FFF7E3BA0000F0B587B063
:102C50000F461546064600F077FB01A904462846B4
:102C600002F092F988B100238DF808300493ADF892
:102C7000143002A88DF8164002F0B4FC0A288EBF6A
:102C800008200F4B185C07B0F0BDB2797379012AA8
:102C9000ADB264B207D18DF808008DF80C300497FE
:102CA000ADF81450E5E701228DF80C30337A8DF839
:102CB00008200497ADF814508DF81730D9E700BFFD
:102CC00058BA0008F0B51021044685B04848FFF70F
:102CD000A7FC43F25647474E6846FFF79DFCBDF8F8
:102CE0000230BB4204D101980368DB689847F3E7E0
:102CF000A3F55153173B0F2BEED801A252F823F046
:102D0000412D0008472D00084B2D0008D92C000844
:102D1000D92C0008D92C0008D92C0008D92C00087F
:102D2000D92C00084F2D0008632D0008872D0008BE
:102D3000B32D0008712D0008A92D00088D2D000865
:102D4000F3689847C8E77368FBE7019BF9E7019BC5
:102D50002046D3E900219047684602A9FFF72EFCE0
:102D6000BAE7019B0393217902A8FFF7D3FBB3E7EE
:102D7000019B1A7A84F848215B7A84F8493101234F
:102D800084F84A31A8E7019B052B08D10022657918
:102D9000114620466271FFF759FF65719CE743F2C7
:102DA0006242ADF80A20DDE743F26543ADF80A3030
:102DB000D9E743F26343019DADF80A302A7BA96845
:102DC00004F14E0007F054FB2B7B84F84031EB7884
:102DD00084F84131AB7C84F84231AB7884F84331DC
:102DE000EB89A4F844312B7984F84631BBE700BF66
:102DF000741800200C1D002007B50A790968FFF738
:102E000025FF43F26243ADF80230054B0190B3F960
:102E100000106846FFF77EFB03B05DF804FB00BFBF
:102E2000F81C002070B5C4B0044603900E2913D8D6
:102E3000DFE801F008121D121412121212121A36D3
:102E4000393C440043F25643ADF80A301F4B02A808
:102E5000B3F90010FFF75EFB44B070BD04F0F8F961
:102E60001B4B1B689847F7E743F25843ECE70368AE
:102E70005D6800231A461946A847051EECDD236845
:102E80002A465E6804A901AB2046B047104B9DF866
:102E900004209C68A9B29DF9053004A8A047DBE78F
:102EA00043F25743D0E70A4B1B69DBE7084B5B69EA
:102EB000002BD1D090F880009847CDE7044B9B6958
:102EC000002BC9D090F88500F6E700BFF81C002061
:102ED0000C1D0020F0B50D7804468BB01DB1012DFE
:102EE00041D00BB0F0BD00F02FFA01270646204676
:102EF000FFF7A8FE02A88DF808708DF80C5002F0BC
:102F00005DF904F10903069304F1110320460793C8
:102F100004F1190308938DF814508DF82460FFF71D
:102F2000A7F905A802F0BEFAB84216D00A2807D0C1
:102F30000028D6D043F261430197ADF8023005E096
:102F400043F26143ADF802300B230193204B6846F6
:102F5000B3F90010FFF7DEFAC3E743F26143ADF8BF
:102F600002300A23F1E7294600F027FA2046FFF74E
:102F700069FE002305A88DF818308DF8145002F072
:102F80001DF904238DF81430D4F8493005A81BBA74
:102F9000069302F013F9052305A88DF8143004F107
:102FA0003903069302F00AF9062305A88DF81430B8
:102FB00004F12903069302F001F905A88DF81450D5
:102FC0008DF8185002F0FAF82046FFF751F988E71B
:102FD000F81C002007B50378042B0BD143F26243A1
:102FE000ADF8023005230193044B6846B3F9001095
:102FF000FFF790FA03B05DF804FB00BFF81C002057
:1030000037B54378044633BB4379174D012B16D1AE
:1030100043F266436846B5F90010ADF80230FFF799
:1030200079FA6379012B0AD143F26243ADF8023099
:1030300005236846B5F900100193FFF76BFA637B2F
:103040005BB143F263430194ADF802306846B5F9D1
:103050000010FFF75FFA03B030BD43F26243ADF8F2
:10306000023006230193F1E7F81C002007B54378EE
:1030700083B903785BB943F26243ADF802300623AB
:103080000193074B6846B3F90010FFF743FA03B00A
:103090005DF804FB43F26243ADF802300723EFE72B
:1030A000F81C002007B5037823B1012B13D003B01F
:1030B0005DF804FB0E4B4278B3F9001043F2614314
:1030C000ADF8023022B901926846FFF723FAEEE725
:1030D00001230193F8E74378002BE8D143F26443DE
:1030E000ADF80230024B0190B3F90010ECE700BFDD
:1030F000F81C002070B50D4616460446FFF7A2FDE9
:103100001B4B32462B601B4B29466B601A4B1B48EE
:10311000AB601B4BEB600A2301F0ECFD002002F0DA
:1031200005FB2046FFF7A4F80021204600F0F8F840
:103130000021204600F01BF90121204600F02AF969
:103140000021204600F0D9F80221204600F05AF96B
:103150000021204600F058F93221204600F058F9AD
:103160000C21204600F066F9002384F84A3170BD36
:103170006D30000801300008A53000080C1D00204B
:10318000D52F000830B5144D85B00446284604F00C
:10319000ADFE284604F0D6FEE0B9104B06222B60A7
:1031A0000F4B4FF480616B600E4B0F48CDE901432C
:1031B0000E4B0F4D00930823FDF7A4FF0028288035
:1031C00004DD20460B4A0C49FFF794FFB5F90000D7
:1031D00005B030BD0020FBE7281D00204CBB0008D7
:1031E000252E00084ABA0008F4180020C52C000853
:1031F000F81C0020F41C0020FC1C002000B5124B21
:1032000089B01B888DF807100371104B06A9029333
:103210000DF10703039343F26043ADF8123002ABA4
:1032200005930B4B04A8B3F90020FFF795F99DF81F
:1032300007303BB906A8FFF7EFF99DF81C0009B06D
:103240005DF804FB0020FAE704030020D52E0008F7
:10325000F81C00200023F0B580F84A318BB00446FA
:103260000E461546FFF7EEFC012307A88DF81C302B
:1032700001F004FF9DF820702046FEF7F9FF1FB310
:10328000134B07A91B8805A82371124B01960393C2
:1032900001AB049343F26043ADF8163003AB0693E1
:1032A0000D4B8DF80850B3F90020FFF755F907A82A
:1032B000FFF7B2F943F26243BDF81E209A4205D1EE
:1032C0009DF820000BB0F0BD0220FBE70820F9E7D5
:1032D00004030020F92D0008F81C00200121FEF74E
:1032E00097BF0822093007F0C3B80822113007F051
:1032F000BFB81022193007F0BBB830B585B00D4605
:103300000446FFF7EBFF002301A88DF804308DF889
:10331000085001F053FF2046FEF7AAFF05B030BD6C
:1033200030B50D4685B00446FFF7D8FF1423E5718C
:1033300001A88DF804308DF8085001F03FFF2046B9
:10334000FEF796FF05B030BD30B585B00446FFF7F7
:10335000C5FF142301A88DF8043001F08FFE9DF8FD
:1033600008502046FEF784FF284605B030BD30B532
:1033700085B00D460446FFF7B1FF022301A88DF882
:1033800004308DF8085001F019FF2046FEF770FF59
:1033900005B030BD30B585B00D460446FFF79EFF41
:1033A000072301A88DF804308DF8085001F006FFBE
:1033B0002046FEF75DFF05B030BD30B585B00D4647
:1033C0000446FFF78BFF032301A88DF80430029514
:1033D00001F0F4FE2046FEF74BFF05B030BD30B5DE
:1033E00085B00D460446FFF779FF162301A88DF836
:1033F00004308DF8085001F0E1FE2046FEF738FF5A
:1034000005B030BD417170478171704701727047DE
:1034100030B585B00D460446FFF760FF1B2301A8B9
:103420008DF80430029501F0C9FE2046FEF720FF1A
:1034300005B030BD30B585B00D460446FFF74EFFF0
:103440001C2301A88DF804308DF8085001F0B6FE59
:103450002046FEF70DFF05B030BD000037B5114B1B
:10346000044693F82C3015468DF8063009238DF864
:1034700004300D4B8DF805101B7813B10A238DF81D
:1034800004300A4B01A9187802F0A5FA621980B23B
:10349000904205D3FF2A8CBF0020012003B030BD2D
:1034A0000020FBE7441F00202E220020B81F002030
:1034B00038B50024224B234A1C70234B1C60234B3D
:1034C0001C60234B1C60234B1C7001231370224A89
:1034D0001370224A1470224A1470224A1380224A1E
:1034E0001470224A1470224A1370224B224A1988FF
:1034F00002F12405118093F8211082F82110D3E9FC
:10350000090185E80300998D9185196B5B6B116347
:1035100053631A4B0221187802F06AFA184B1C7098
:10352000184B1C70184B1C70184B1B6823B9184A99
:103530001370184A137038BD5C629B6AF6E700BFCF
:10354000F91D002060020020E0220020F41D002070
:10355000E01D0020F11D002061020020B41D0020AC
:10356000E8210020E61D00203D210020BE21002092
:10357000620200207C1F0020441F0020B81F002092
:103580002C220020B0220020BF2100202822002071
:10359000F01D0020FB1D002008B50C4805F0FCFBC9
:1035A0000B4B1B783BB101220A4B1A700A4A136875
:1035B00023F004031360094B1B78022B01BF084A58
:1035C000137843F02003137008BD00BFB81D00201E
:1035D0002C220020B41D0020B82000202A1F00202B
:1035E0002B1F0020034B5B6B08B9084618470020CF
:1035F000FCE700BF08C0000870B50126124805F0BE
:10360000CBFB124B124C1B78124D23706B6A214678
:10361000636095F82D30E67423740F4B1B78637448
:103620000E4B1B789A1E53425341A3740C4B0D4A08
:10363000187802F014FA28B1E968A07CFFF7D2FFED
:10364000094B1E7070BD00BF88220020F01D0020B5
:1036500048220020441F00202E2200202A1F002084
:10366000B81F0020042200202F22002008B5FFF7F9
:10367000C3FF0222014B1A7008BD00BF2F22002099
:1036800010B51E4C2378022B02D01D4BDB6A9847E5
:103690001C4B1A781C4B19781C4BF9B912B1032139
:1036A0001B4A517003225A702378022B12D0194BF7
:1036B000186805F083FB184B1B68984207D317481E
:1036C00005F06AFB164A137843F020031370237841
:1036D000022B11D1BDE81040FFF7C8BF12B1042181
:1036E0000B4A517004225A702378022BF2D00C4AF4
:1036F000137843F02003137010BD00BF2A1F002071
:1037000008C000082C2200202F22002018220020B0
:10371000EC210020E81D00205C22002088220020EF
:103720002B1F002008B50A4B1B78022B0DD0094B2C
:10373000DB6A98470223084A5370084A5370084AC4
:10374000137843F02003137008BDFFF78FFFF1E7F4
:103750002A1F002008C00008EC21002018220020A9
:103760002B1F002010B51E4C2378022B02D01D4BBE
:10377000DB6A98471C4B1A781C4B19781C4BF9B91B
:1037800012B105211B4A517005225A702378022B71
:1037900012D0194B186805F011FB184B1B689842A2
:1037A00007D3174805F0F8FA164A137843F02003B8
:1037B00013702378022B11D1BDE81040FFF756BFDC
:1037C00012B106210B4A517006225A702378022B3F
:1037D000F2D00C4A137843F02003137010BD00BFE1
:1037E0002A1F002008C000082C2200202F220020C1
:1037F00018220020EC210020E81D00205C2200207F
:10380000882200202B1F00202DE9F04385B005F011
:10381000D3FADFF8F080054698F80030022B50D03C
:10382000394BDB6A9847394B394F1B78394E3A4C44
:10383000002B59D0394B3A48196805F0B3FA38488B
:1038400005F090FA98F80030DFF8D890022B3BD1C1
:10385000122301A938788DF8043002F0BCF8D9F8A9
:1038600000100144304805F09DFA2F4805F07AFA1F
:1038700023782E4A13F0080318BF2D4B387818BF51
:103880001B7802A91CBFB3FA83F35B091370294BA1
:10389000294A1B78039513708DF80830274B1B7845
:1038A0008DF8093002F09EF8254B1D6033782BB956
:1038B000244A5370244A13780133137005B0BDE8CD
:1038C000F083FFF7D3FEAEE7D9F800101F4805F0EC
:1038D00069FA1E4805F046FA98F80030022BB7D076
:1038E0003378002BB4D1C3E7164A53700422104B2F
:1038F0005A7023780BB901232370237843F02003F7
:103900002370B5E72A1F002008C0000862020020CB
:10391000B81F00202C2200202B1F00204422002052
:10392000602200205C220020B81D0020FC1D002029
:1039300018220020F01D0020FB1D0020F91D002092
:10394000E81D0020EC210020F11D0020882200202D
:1039500038B5144805F020FA0023134A134C1370AD
:10396000134A144D12786382227095F82120124B6D
:10397000E27095F82D201B782274104A022B1278E1
:10398000627402D10E4B1B6B98470E4B0749187897
:103990000D4A02F064F8E968A07CBDE83840FFF702
:1039A00021BE00BF602200202F22002030220020F4
:1039B000F01D0020441F00202A1F00202E2200207E
:1039C00008C00008B81F0020042200202DE9F04F95
:1039D0000446894690468BB0B64FB74D0393C14518
:1039E00002D30BB0BDE8F08F14F8093009F10106DD
:1039F000023BF6B2082BF4D8DFE813F009001800F8
:103A00009500B400FA001E0172019B01D901002348
:103A1000AA4A09F102005370A35DC0B21372235C7D
:103A200009F103095FFA89F95372D8E700238DF889
:103A300011308DF812308DF813308DF81430731E5C
:103A4000234407939E4BA8EB09091B788DF820901F
:103A5000DFF870928DF8223099F82C3038788DF894
:103A6000213099F801300DF111028DF8233099F8C9
:103A7000003007A98DF8243099F820308DF82530D2
:103A800005AB01930DF1130300930DF1120301F047
:103A9000FCFF00F00703072B0BD19DF8113089F8CC
:103AA00001309DF8123089F800309DF8133089F804
:103AB000203005229DF814302978B3FBF2F29346AA
:103AC000814ADFF808921278C2F18002D2B2013A3C
:103AD00002927F4A92F800C0002296465FFA82FA6C
:103AE000D3450BD8BEF1000F03D0794A297082F874
:103AF00000C0013B1E445FFA86F970E7DDF808A0BC
:103B000051450EDA4FF0030E01F1010C5FFA8CFC07
:103B100009F801E009F80C004FF0010CE64602310B
:103B2000C9B20132DAE70121A35D6A4A03F00F034B
:103B30001370694A01FA03F31380634B2A781B78E8
:103B400009F10209C3F18003DBB293425FFA89F9FC
:103B50007FF645AF042053182B705C4B98545C4B98
:103B600019703CE7A35D09F10301C3F3021203F0EE
:103B70000F038DF81D208DF81C3009F1040209F1A6
:103B80000203DBB2D2B2E05CA35C6422C9B2665C21
:103B90001B0443EA062303435343387807A90893D9
:103BA00001F083FF00F0070309F10509072B5FFA15
:103BB00089F90AD1434B9DF81C2083F82820089AE4
:103BC0005A629DF81D2083F821203F4A2B781278F5
:103BD000C2F18002D2B2013A9342BFF600AF052192
:103BE0003A4AD154991C0133DBB22970D05497E082
:103BF0003A4B1B68F3B11B68E3B19847324A2B7804
:103C00001278C2F18002D2B2023A934210DA06214F
:103C10002E4AD154591CC9B25054D91C2970039949
:103C20000233DBB201F03F01D1540122284B1A705C
:103C3000B146D4E6FF20E1E7A35D09F104018DF868
:103C4000183007AB059309F10303DBB2C9B2E05C9E
:103C5000635C09F10201C9B2615C1B0443EA002301
:103C60000B4364214B430793002309F10502D2B2B1
:103C70000893A35C387805A98DF8243001F01CFF67
:103C8000114A2B78127809F10609C2F18002D2B2EA
:103C9000013A93425FFA89F9BFF6A1AE07210B4AB8
:103CA000D154991C0133DBB22970D0540122084B46
:103CB0001A7094E6B81F00203D2100201822002031
:103CC000E41D0020441F0020BE210020BD20002054
:103CD000BF210020E8210020E61D00201C1F00203D
:103CE000A35D4FF47A7203F00F03012B38BF012359
:103CF0005343444A09F10209136103F57A7353618E
:103D0000414B2A781B785FFA89F9C3F18003DBB253
:103D100093427FF664AE0821531C2B703B4B9954A1
:103D200004223B4B1A703B4A137843F01003137084
:103D3000BCE70022A35D8DF81C2013F0200218BF01
:103D400001228DF81D20DA0648BF012203F00F037F
:103D5000387807A948BF8DF81C208DF81E3001F077
:103D6000B2FE09F1020901305FFA89F93FF437AE7A
:103D7000244E9DF81C30284A86F82C309DF81D30C2
:103D800086F82D309DF81E30D05C06F039F91E4BB8
:103D90002A781B783063C3F18003DBB293427FF64D
:103DA0001EAE0921531C2B70184B99547EE7A35D5E
:103DB00009F104028DF81C3009F10203DBB2D2B222
:103DC000E05CA35C642209F10301C9B2665C1B04D8
:103DD00043EA062303435343387807A9089301F0C5
:103DE00079FE094A2B78127809F10509C2F180029F
:103DF000D2B29A425FFA89F97FF6F1AD0A21034AFD
:103E0000EFE600BF441F0020BE210020BD2000209F
:103E1000242200202B1F002063BA00082DE9F04F58
:103E20000F46002189B01E1E9046BDF8482008BFED
:103E30000A460378A74CA84D23700378DFF89CC28C
:103E4000DFF89C92D2B25B09049129808CF80010B3
:103E500089F80020072B00F28D81DFE813F00800BD
:103E60008B014C008B0149008B018B017D010123EB
:103E70002B809C4B082219689B4804F04CFF288833
:103E80009A4B083080B2196808222880204404F038
:103E900042FF2B8808332B80954B5B699847954BE5
:103EA00082B21A802B88120AE054991C01339BB20B
:103EB000E254914A89B212688648298004ABC9B29B
:103EC00001F004FD2B88049A591C100A89B2E254AF
:103ED0006054991C89B2100C6054191D03339BB2B5
:103EE000120E2980E2540022104609B0BDE8F08F7E
:103EF00001238CF80030814B1B78002B00F03C81B3
:103F000001238DF814303B787D49C3F3C0138DF83D
:103F100015300B687B4806937B4B1A8852BAADF874
:103F20001C2093F82C2000918DF81E2000785A1C3C
:103F300005A901F079FD3B7860F386133B70734B64
:103F40001A782AB100221A703B7843F020033B70A4
:103F50006F4BDFF8C0A11B686F491A0A6370A2702B
:103F60001A0C1B0EE27023713B7863716B4B1B685C
:103F7000A3711B0AE3716A4B18786A4B50449B4645
:103F80001A7804F0C6FE664B9BF80020187810449F
:103F9000C0B21870644B002E76D099F80020002A29
:103FA00072D01B78002B6CD00F2865D83B78C3F3F8
:103FB0000302024462F303033B70637100235B4A14
:103FC00087B299B28F4251D800F1080C5FFA8CFC8D
:103FD0000022554BDFF83CA11A7013464E49984217
:103FE0005DD8504B1A7012B101224F4B1A70F6B1C6
:103FF00099F80010D9B1464B484A0CF10107FFB2BD
:104000001B68126889B204F80C80E019B8F1000F3F
:1040100040F09C80DFF808C18CF80080CDE90120D9
:10402000434ACDF80080304601F0D0FBBC46002664
:1040300004AB0293394B99F800101B68009601936A
:10404000334B61441B683A4A2248298001F082FBC5
:10405000049B2A88190AA354144461700432190C71
:104060001B0EA170E3702A8032463DE71AF8011B4F
:10407000013302F8011BA4E74FF00008564689F807
:1040800000004FF0080CA3E70028FAD01B78002BA3
:10409000F7D04FF000081F4E89F80000F1E71AF83A
:1040A00003E0AEF10307072F11D8DFE807F04D104A
:1040B000044A4D4310040133DBB201F802E0571CFF
:1040C0001AF803E0FFB20232D2B201F807E001337E
:1040D000DBB284E7181E0020181F00202C220020CD
:1040E000BC200020001E0020191E0020241F0020DC
:1040F00008C00008281F0020041E0020F91D002011
:10410000E01D0020B81F0020441F0020B022002026
:10411000201F0020BD2000203E210020E0220020A2
:104120003D210020BE210020BF210020201E0020B4
:10413000341F00204FF0080E571C01F802E0FAB2BD
:10414000C5E70233DBB2C2E70133FBE7CDE901206B
:1041500000220092094A66E7002E85D0002A3FF42B
:10416000C3AE3146064804F0D4FD99F8003001335F
:104170002B80B8E60222B7E60722B5E6081E00202B
:10418000191E00202DE9F0410026224C86B06378EC
:10419000214F8DF80930237805468DF80A30236BBE
:1041A000DFF878800393636B8DF8080004931C4854
:1041B0003B880DF10702ADF8143002A943460078A0
:1041C0008DF8076001F054FC0123164A164953701C
:1041D0004B706378154C93709DF807302046D37070
:1041E000D8F8003015614B604FF47A71936004F099
:1041F000D9FD204604F0B6FD0D4B39789B6A0D4879
:10420000984730460C4A136843F00103136006B028
:10421000BDE8F081441F0020181F0020DC22002090
:10422000B81F0020EC21002018220020C02100200F
:1042300008C00008181E0020B820002000232DE927
:10424000F04387B002934E4B07461B78DFF834816A
:104250000BB9C8F800304C4B4C4E1B783278DFF865
:1042600030918DF80F304B4B8DF80C2099F80020D1
:1042700018688DF80E2004F0A1FD474C474D2368C7
:1042800004900593464B28781B7803A98DF80D30D0
:1042900001F02EFC434B22681B88434C013B5343E7
:1042A000C8F8003003936378404A8DF8143099F8C9
:1042B000003028788DF81630337803A98DF8153042
:1042C0003B4B1B68CDF80080049302AB01F016FC59
:1042D00098B10A280ED16FB1029951B1354A3648CA
:1042E000136843F01003136004F05CFD324804F0DF
:1042F00039FD002007B0BDE8F0832F7894F9213014
:10430000384694F9012094F82D1001F00BFCDFF8E9
:10431000AC8041B2CDF800803846294F6368227ADC
:1043200001F090FB00976368227A94F928102878AE
:1043300001F088FB33787BB9D8F80C20A3691344CB
:10434000204A1360E369FA6813441F4A1360174B4D
:104350001878FFF717FFCDE71C4B94F901101A7876
:104360001B4B1878FFF77AF838B1D8F80C2023697E
:104370001344144A13606369E5E70820BAE700BFF5
:10438000E8210020EC1D0020FB1D0020F91D00206D
:10439000F81D00202C1F0020DC220020B81F002068
:1043A000FC1D0020E61D0020441F0020F01D002001
:1043B000E81D0020B8200020B42200203022002078
:1043C00048220020442200205C2200203D210020C1
:1043D000BC20002030B54FF000040D4D85B02D7885
:1043E000009365F3C71413460A4603A98DF80C40E1
:1043F000FFF714FD034638B9064B074A1B68908047
:10440000D360FFF71BFF0346184605B030BD00BF61
:10441000E41D0020E0220020EC21002008B5064821
:1044200004F0BAFC054A0120136823F0100313605E
:10443000BDE80840FFF702BFB4220020B8200020EA
:104440002DE9F341924C934804F0A6FC2378924D59
:1044500013F0200F54D02A68500644BF22F04102C6
:104460002A6013F0090000F09F808C4A51780229DD
:1044700004D08B494978022940F096802968894EFA
:1044800021F00101296000213170874E11713678C9
:10449000916056710122854E317891B98AB980B107
:1044A000190740F183807E49087800287ED14B7837
:1044B0001BB97F4B1A607F4B1A702B6823F00103E6
:1044C0002B6023787C4A13F0020F00F09380764B28
:1044D000724918780B7923B9784B1B78834280F0A6
:1044E0008980002313703370754B1B781BB9704A99
:1044F0001368013313602B68487123F001032B60AC
:104500002B689F0744BF23F002032B602A68002A10
:1045100040F0FA802378DE0707D562F300032370AA
:10452000684B5E481B681B68984723781D0707D5B2
:104530006FF3C3032370634B59481B689B6898470C
:10454000614B1B7833B10422604B1A70237843F01F
:104550001003237023786FF3451323702378980793
:1045600014D56FF341032370594B1B78022B01D1F3
:10457000FFF77CF82378590704D4524B55481B6841
:104580005B68984723786FF3820323702378DA06F9
:1045900007D56FF3041323704A4B4C481B68DB6844
:1045A000984702B0BDE8F081002274E74A49414AC9
:1045B00091F82000117803F00203884207D96BB903
:1045C000227863F345122270FFF728FF79E72BB9B1
:1045D00034490B7041490B6801330B6000231370A1
:1045E000374B1B78002B7FF468AF314A13680133D7
:1045F000136062E71378002B82D02B6813F010034E
:104600007FF47EAF1370284F2C4A3B7812789A4281
:1046100068D9082B66D80133DBB23B70DB0713D5B2
:104620001E23DFF8B4808DF8043098F82C3001A9EF
:104630008DF8063098F801308DF80530284B187841
:1046400001F0C9F988F801000120FFF7F7FD20B952
:10465000237860F34513237052E709220F4B114969
:104660005A7000220A7032701A713A7829685A71A9
:10467000194A21F00101527829609A70104B1B7879
:10468000002B7FF43DAF0A4A13680133136037E70C
:104690002B1F0020C0210020B8200020EC2100208A
:1046A000182200203D210020610200202C22002041
:1046B000E0220020F11D0020B41D00206002002037
:1046C000FA1D0020B41F0020BE210020242200205B
:1046D0002A1F002000220020441F0020E01D00208F
:1046E000B81F00200D4B0121187801F081F92B68CB
:1046F0000B4A23F001032B6000231370094A337027
:1047000013713B785371B9E74FF47A71064804F09E
:1047100049FB054804F026FB20E700BFB81F002036
:104720003D210020EC210020C02100200A4A08B5CC
:10473000136843F040031360084B1B780BB1FEF77E
:104740002BFF074A137823F0220343F02203137050
:10475000BDE80840FFF774BEB82000202C220020DE
:104760002B1F00202DE9F04F0C4600210646A54DD9
:1047700091B0DBB205932B74A34BA4481B78017155
:104780006B74A34B0D91DB6AEA8169806971A96042
:10479000A981A9746961297098479E4804F0FCFAC0
:1047A000337806935B09013B062B00F22982DFE890
:1047B00013F0070027028D0027028D002702160242
:1047C000954F3B7813B101236B70FBE0934DDFF8FD
:1047D0005082611E701CD8F800206B1C89B201F059
:1047E00095F8069B211FD8F800202B7089B20DABDD
:1047F000284601F06BF82A1912F8023C12F8031C43
:104800001B0443EA012312F8041C12F8012C0B4389
:1048100043EA02630D9A834E9A4254D1824B834AF3
:1048200000931288824BD8F80000691C01F08AF8C6
:10483000AB796A791B0443EA02232A79113C1343BA
:104840007C4A8DF83C401360D5F807207A4B1A60FB
:10485000EA7A7A4BC2F3021102F00F0283F82820A1
:104860002A7B83F8211012F00F0208BF01224FF4B7
:104870007A711A611A694A431A610A445A61704B83
:104880000EA90E936F4B187801F0C1F800237370D6
:1048900001233B706C4B1B78002B40F0B6816B4BB7
:1048A0001B78022B02D16A4804F076FA684B1B7918
:1048B00033B9684A137843F020031370FFF7C0FD43
:1048C00011B0BDE8F08F07237370E3E75B4B93F8FB
:1048D0002D308DF832302B798DF8313009238DF859
:1048E00030305D4B1B7813B10A238DF83030554BB7
:1048F0000CA9187801F06FF8A4F10D031BB223EA9C
:10490000E37383423FF65FAF4B4BD6F801801B68E1
:1049100043455CD0514B1F680FB90B2354E73B68EC
:10492000434552D14FF0010B07F114037D6A3A1D44
:10493000079396F80590311909F00F030A9311F8BF
:10494000023C11F8030C1B0443EA002311F8040C89
:10495000B6F806A011F8011C034343EA0163AAEB71
:10496000050A08931FFA8AF309930FFA8AF3211FA5
:10497000002B89B20DA833DB099B0B921D44012348
:10498000CDE9015000933046434600F0E3FE0D9B15
:10499000089A93424FF011038DF83030294B0B9A4F
:1049A00018780CA914BF4FF0000A4FF0010A0892C2
:1049B00001F011F8099B089A9842124B52D80A222A
:1049C0005D615A70FFF7B2FE7AE7BF6AA4E74FF065
:1049D000000B234B5F461D68134B154A0793A8E74E
:1049E00005F5803A9A440123CDE901A000933046B1
:1049F00043460B9200F0AEFE0D9B089A934208BF0F
:104A00005546C7E7002200202F220020EC2100207D
:104A100008C0000888220020F91D0020B91F0020CE
:104A2000041E002018220020081E0020281F00203D
:104A3000341F0020301F0020201F0020441F0020B2
:104A4000C61F0020B81F00202C2200202A1F002093
:104A5000B81D00202B1F00202E220020282200201D
:104A6000F41D0020BAF1000F00F0B7800021DFF83C
:104A7000B4C1C9F30010CCF800105871DFF8A8C118
:104A80006A48597083F802B0996019735D6141708A
:104A90008CF80010BBF1000F48D0022119707B6A1E
:104AA000AB4204D11DB10822614B5A708AE77D6286
:104AB0000378012B5CD119F0200F07D000215D4B4A
:104AC00019705B49C9F3401303718B7409F00F032C
:104AD00003F1080C1F46231FA3EB0C03002BDFF888
:104AE00058A173DD0A9BDFF8489103F1090BA4EB91
:104AF0000B0416F80C30043CE4B289F80330002BA8
:104B00004AD1002F38D10123DFF83091214600939C
:104B100006EB0B004346CDE9015900F0CFFE2246DB
:104B200039464846059BFEF751FF2EE0DDF818E0B8
:104B3000434F0EF0E00EBEF1A00FD7F800C0DFF833
:104B400004E10DD1012165458EF80010197005D1E1
:104B500025B139490B7843F004030B703D60A7E79A
:104B600065458EF800101970F8D1002DF6D09AE73F
:104B70000021304B1970A9E79AF80020037142F028
:104B800004028AF8002089F812309AF8003043F0C5
:104B900002038AF800307DE62FB1624608213046D4
:104BA000059BFEF713FF254F4346CDE9015701252D
:104BB0002146079A009506EB0B0000F07FFEC9F82E
:104BC000087089F80C4089F80D50DEE7002FDCD022
:104BD000624608213046059BA5E70C2265E7174F82
:104BE00022463846711C04F094F80323124A2B80A5
:104BF0001378013C43F00203AF602C73137049E655
:104C000001236B70FFF792FD44E6084B1B79002BE4
:104C10007FF449AE0C4B1A780C4B1B789A427FF606
:104C200045AE40E6E01D0020BE210020EC21002022
:104C3000002200203D2100202B1F0020B91F002052
:104C4000F41D0020B022002061020020600200203C
:104C50001FB5134B134C1B7869468DF80030124B6F
:104C6000ADF80C005A788DF801201A788DF80220E2
:104C70001A6B5B6B019202930C4B187800F04CFF9F
:104C80004FF47A71204604F08DF8204604F06AF85B
:104C90000020074A136843F00103136004B010BDFD
:104CA000F01D0020C0210020441F0020B81F00205C
:104CB000B820002010B50446084611460A4B22468B
:104CC0000A4CDB6B49B298474FF47A71204604F0E6
:104CD00069F8204604F046F8054A0020136843F0BE
:104CE0000103136010BD00BF08C00008C0210020F0
:104CF000B82000202DE9F3410746154698460C469A
:104D0000002900F001810B68002B00F0FD804B684A
:104D1000002B00F0F9808B68002B00F0F580CB6849
:104D2000002B00F0F180404600F050FE002800F01B
:104D3000ED80774B774E1C60774B01A91D600025F5
:104D4000764B40461D70764B86F800801D70754B83
:104D5000754C1D60754B1D70754B1D60754B1D604E
:104D60000B238DF8043000F036FE401B18BF0120E5
:104D7000714B01A91870082330788DF8043000F0C9
:104D80002AFE0523207001A930788DF8043000F048
:104D900022FE0C23607001A930788DF8043000F0F9
:104DA0001AFE0D23E06001A930788DF8043000F080
:104DB00012FE0E23206101A930788DF8043000F036
:104DC0000AFE0F23606101A930788DF8043000F0ED
:104DD00002FE1023A06101A930788DF8043000F0A4
:104DE000FAFD1323E06101A930788DF8043000F05A
:104DF000F2FD142384F8210001A930788DF80430E5
:104E000000F0E9FD1523606201A930788DF80430C7
:104E100000F0E1FD1A2384F8280001A930788DF80C
:104E2000043000F0D8FD1B2384F82C0001A9307851
:104E30008DF8043000F0CFFD1C2384F82D0001A96B
:104E400030788DF8043000F0C6FD1D23206301A9E1
:104E500030788DF8043000F0BEFD2946606330786C
:104E600000F0C6FD062201260A21344B22721A7276
:104E7000E2685960DA60226983F820601A61626929
:104E800061605A61A26984F820609A61E2692C4CE1
:104E9000DA61FEF70DFB2B492B4803F05DFF4FF461
:104EA0007A71294803F07EFF2849294803F054FF0E
:104EB0002849294803F050FF2849294803F04CFFAE
:104EC0002849294803F048FF03F076FF274B186074
:104ED000274B38463B60274BBB60274B3B61274B3A
:104EE0007B60274BFB60236898476369984703F012
:104EF00007FF244B30461E70A36D9847E36A98471E
:104F0000284602B0BDE8F0810320FAE70920F8E75F
:104F1000B41F0020B81F00201C1F00202B1F0020E2
:104F20002A1F0020B82000207C1F00202E220020F5
:104F3000E81D0020EC1D0020F81D0020441F00206B
:104F400008C0000841440008C02100201D4400089A
:104F5000B42200205139000860220020F9350008F1
:104F60008822002099350008B81D00202C1F002041
:104F7000093800086547000865370008253700082C
:104F8000813600082D2200202DE9F047334BDFF851
:104F9000D0805A78334F1B7888B098F800408DF84D
:104FA0000F303B7806461C440D468DF80E20E4B2C7
:104FB000002950D000238DF814302B4B2B4A1B783E
:104FC000DFF8AC908DF815301368DFF8A8A00693D1
:104FD000B9F8003000925BBAADF81C3099F82C306B
:104FE0009AF800008DF81E300DF10E020DF10F033E
:104FF00005A900F019FD99F82C308DF812309DF8B4
:105000000E308DF8113009238DF810301A4B1B78B3
:1050100013B10A238DF8103004A99AF8000000F0AB
:10502000DAFCC3B2A34238BF00246B7026BF1B1B3F
:105030002B702B70224630469DF90E103CBF88F82D
:1050400000403C70FEF70AFA002814BF0020082038
:1050500008B0BDE8F0870320FAE700BF7C1F0020FE
:105060003D210020BE210020E41D0020E01D002085
:10507000441F0020B81F00202E22002013B5044634
:10508000002874D000781E2873D8DFE800F01015CF
:105090001A1C1F212426282A343B403E4246494CF4
:1050A0004F5255585C5A5E606264676A6E00324BBC
:1050B0001B78237102B010BD304B1B782371002088
:1050C000F8E72F4BF9E72F4B1B6802E02E4BFBE76D
:1050D0002E4B6360F3E72E4BFBE72E4BEDE72E4B99
:1050E000EBE719238DF804302C4B01A9187800F058
:1050F00072FC6060E3E72A4B043493E8030084E821
:105100000300DCE7274B0434F7E71723EAE716230D
:10511000E8E7254B93F82030D0E7234BDB68D8E74E
:10512000214B1B69D5E7204B5B69D2E71E4B9B697E
:10513000CFE71D4BDB69CCE71C4B5B78BEE71A4B16
:10514000FBE71A4BB9E7184BB7E7194BBCE7194B0C
:10515000BAE7194BB8E7144B5B68BAE7124B1B7AF6
:10516000ACE7114B5B6B6360A9E7104BFAE70320D8
:10517000A0E702209EE700BF2A1F0020F91D0020A3
:10518000E41D0020301F0020201F0020341F0020BD
:10519000081E00202D2200202E220020B81F0020F3
:1051A000681F0020A01F0020441F00207C1F00203B
:1051B000E0220020F41D0020282200207FB50446B4
:1051C000002800F0C180964B1B68DB0700F161816D
:1051D00005781E2D00F25F81DFE815F01F00410009
:1051E000450048004C004F0057005D0064005D0121
:1051F00067009400B800A900BC00C400C800CC003F
:10520000D000D400D800E8000C01FC001B011E01F6
:105210005D0148014E01540158010479814B1C7015
:1052200024B1022C07D0284604B070BD7E4BDB6A47
:1052300098470025F7E700227C4B1A707A4BDB6A0F
:1052400098477B4B7B497C4800934B680A7A0078EF
:1052500091F9281000F0F6FBFEF708FAE3E702796F
:10526000764B1A70E5E70279754BFAE74268754BA1
:105270001A60DEE74268744BFAE74168002963D0A0
:105280001022724803F045FDD3E7416800295BD046
:1052900010226F48F6E700796E4B1870624B9B6DD9
:1052A0009847C6E702796C4BDBE7037A614D624EA3
:1052B0008DF8083095F82D300622307802A98DF847
:1052C000093000F09BFB00283ED0D4E9010105F134
:1052D000240383E80300534B1B78022BA9D1574BBF
:1052E0001B78002BA5D0504BDB6A9847504B307889
:1052F00000936B682A7A95F9281000F0A3FBFEF75B
:10530000B5F996E7037A06228DF80830494B02A9D1
:1053100093F82D308DF80930474B187800F06EFB6C
:1053200090B1D4E901014D4B83E8030081E7436864
:10533000029301238DF80C303F4B02A9187800F03E
:105340006CFB00287FF475AF03256CE7436802937C
:105350000023EFE703795A1E0E2AF5D8354A82F862
:10536000203066E74268334BDA6062E74268314BCF
:105370001A615EE742682F4B5A615AE742682D4B2B
:105380009A6156E742682B4BDA6152E703790522AE
:105390008DF80830284B02A9187800F02FFB002860
:1053A000D2D09DF808202E4B5A7042E70379214C49
:1053B0008DF8083094F82C3004228DF80A301E4BFA
:1053C00002A9187800F01AFB0028BDD09DF808301B
:1053D00063702EE7082203790DEB02018DF8083087
:1053E000154B187800F00AFB0028ADD09DF8082076
:1053F0001B4B36E7037907228DF808300E4B02A9C4
:10540000187800F0FBFA00289ED09DF80820094B80
:1054100027E74268134B2BE74268134B28E700BF8E
:10542000B82000202A1F002008C000082C220020DD
:1054300048220020441F0020B81F0020F91D002032
:10544000E41D0020301F0020201F0020341F0020FA
:10545000081E00202D2200202E220020A01F002048
:105460007C1F0020E0220020F41D002043680B4A2E
:1054700053600B4A5360DCE60379084A1372084A0A
:105480001372D6E64268064B5A63D2E64268034B73
:10549000FAE70125C7E60225C5E600BF7C1F00200C
:1054A000441F002073B5044610B9032002B070BD3C
:1054B0003F4E316809B10120F8E73E4D0C222846E5
:1054C00003F033FC01236B70207803286ED8DFE8EB
:1054D00000F0023C5560366816F01006EBD16368A8
:1054E000002BE2D0A368002BDFD0E368002BDCD0D8
:1054F000FDF7DEFF304A94F91010137843F00803EB
:105500001370237862682B702C4B1A60A2682C4BA6
:105510001A60E2682B4B1A602B4B187800F0E1FA06
:105520002A4B324658703146334601A88DF8046044
:10553000FEF750FF0028B9D00021254B19701E4BF3
:105540001A7861F3C3021A70B0E701211A4A214C9C
:105550001378297043F0080313701F4B22781B78CF
:10556000C3F18003DBB29342E6D9022053182370C3
:105570001A4B98541A4B0020197097E702230E4AD1
:105580002B701378A08843F008031370FFF760FBBB
:10559000D0E70323084A2B701378A16843F008036F
:1055A0001370A088227BFFF785FBC3E70220C3E7C7
:1055B000B8200020182200202B1F0020241F0020CC
:1055C000001E0020041E0020B81F0020441F0020E1
:1055D0002C2200203D210020BE210020BD200020E3
:1055E000BF2100202DE9F04F0025044687B018B9EF
:1055F000032007B0BDE8F08F434B1F68002F7ED11A
:105600000126DFF808811422294640468DF80C5007
:1056100003F08BFB3E4B88F801601E702378B34289
:1056200016D0032B1BD0002B61D10222394B1E70E8
:105630009DF80C30277962F34713E02F8DF80C307A
:10564000D4F80890A58994F90E30D1D8012613E03A
:10565000E27B304B1A7004229DF80C30EAE72D4BA8
:10566000D4F804901E709DF80C30258943F0E003B7
:105670008DF80C3094F90A300122DFF89CA0DFF895
:105680009CB08DF814209AF82C209BF8000005A9F6
:1056900001938DF8162000F09EF996B3204A1278F7
:1056A000AAB9019B0422984238BF18469AF82C30B8
:1056B0008DF8100004A99BF800008DF8123000F05E
:1056C0009DF9002894D09DF810308AF801302B46BF
:1056D0004A46394603A8FEF77DFE60B92378114A91
:1056E00088F80030137843F00103137081E72E46E9
:1056F0002B462F46C0E700220B4B1A7079E701209A
:1057000077E7022075E700BFB8200020EC210020D9
:105710006102002060020020441F0020B81F00200A
:10572000E41D00202B1F00202C22002013B5074B66
:1057300004468DF804000B22187801A900F05EF9E8
:1057400008B1034B1C7002B010BD00BFB81F002091
:10575000F81D00202DE9F04190460E460746184CF2
:105760009DF81820079D62711A0AA371E2711A0C44
:105770001B0E63722B0AA572E3722B0C2D0E657340
:10578000104D23732272E173284603F06DFC4146ED
:10579000284603F073FC2146102228460A4C03F0E9
:1057A00070FCF2B23946284603F06BFC29462046CD
:1057B00003F0BFFC2268089B1A60BDE8F08100BFBF
:1057C00063020020E4220020302300202DE9F84F5E
:1057D0001C460E460746114635481022354DDDF869
:1057E0002C9002F0F3FF9DF82830AC716B71230A06
:1057F000EB71230C240E6C7200242B724FEA1923D8
:10580000EB724FEA19432B73DFF8AC804FEA196350
:10581000DFF89CB085F80A906B734FEA161AE3B272
:105820004FEA031954455FFA89F924D1C4EB0431D6
:1058300006EB01164FEA0419B6B201345FFA89F992
:10584000A4B2B6B11B491C4A1948EC7303F058F8CE
:105850000C9B194903EB090800234F4417F8012B4F
:1058600011F8010B01339BB242409E4208F8012B14
:10587000F4D1BDE8F88F0133424629465846EB7310
:1058800003F03EF80C9B07EB090C994410230A48DF
:105890001CF8011B10F801EB013B81EA0E019BB2E1
:1058A00009F8011B002BF3D10134A4B2B7E700BF04
:1058B0001C230020730200204023002010B49DF818
:1058C0000440019410BCFFF781BF00002DE9F041B6
:1058D000904606460F461D460A4C204603F0C4FB80
:1058E0004146204603F0CAFB3146074E2046FAB235
:1058F00003F0C7FB2146304603F01BFC33682B60E6
:10590000BDE8F081E42200203023002070B51D4660
:1059100004460E460A481146102202F057FF2A4656
:105920002146074802F0ECFF0F2E08D905F11002BE
:1059300004F110010248BDE8704002F0E1BF70BD03
:105940001C23002070B5204D86B00C46ADF8062013
:105950000146102228461E4602F038FF02A81022F7
:10596000002103F0E2F9012321460DF1090006228E
:105970008DF8083003F0CDF90DF106010DF10F009F
:10598000022203F0C6F93246022602A9284602F096
:10599000B7FF02A81022002103F0C7F921460DF13C
:1059A000090006228DF8086003F0B3F932460DF1C4
:1059B00006010DF10F0003F0ACF928460A9A02A97E
:1059C00002F09EFF06B070BD1C230020A0F10A0368
:1059D0005842584170470A2802D1084600F0C8B81A
:1059E000002070470A2802D1084600F021B970470C
:1059F0000A2802D1084600F02DB9704703460A2B49
:105A00000846114601D100F053B9002070470A281A
:105A100002D1084600F01ABD70470A2802D1084694
:105A200000F060B90020704710B404460A2C084604
:105A300011461A46019B02D110BC00F06DB900203E
:105A400010BC704710B404460A2C084611461A468A
:105A5000019B02D110BC00F09BB910BC70470346FB
:105A60000A2B0846114601D100F0D6B90020704734
:105A700010B404460A2C084611461A4602D110BC3E
:105A800000F040BA002010BC704730B405460A2D23
:105A9000084611461A46DDE9023403D1029430BCAF
:105AA00000F0B6BA002030BC70470A2802D1084680
:105AB00000F050BB002070470A2802D1084600F0D1
:105AC00001BD002070470A2802D1084600F064BBDF
:105AD000002070470A2802D1084600F061BB002070
