:020000040800F2
:100000000002002059040008F5030008B1030008AD
:10001000050400081504000825040008000000007D
:100020000000000000000000000000009503000830
:1000300035040008000000007903000845040008AA
:1000400025010008250100082501000825010008F8
:100050002501000825010008710D0008710D000838
:10006000710D0008710D0008710D000825010008D0
:1000700025010008250100082501000825010008C8
:1000800025010008250100082501000825010008B8
:10009000250100082501000825010008710D000850
:1000A000250100081F1A000825010008191A000878
:1000B0002501000825010008250100082501000888
:1000C0002501000825010008250100082501000878
:1000D00025010008150B00081B0B0008210B000868
:1000E000710D00087129000825010008250100088C
:1000F0002501000800000000250100082501000876
:100100002501000825010008250100082501000837
:100110002501000825010008250100082501000827
:100120002501000800F08EB900F0A0BA7047000069
:1001300070B50C46064600F089FA094B094A1D685D
:100140002C44944202D8084A944207D20C234FF020
:10015000FF35336000F082FA284670BD1C60F9E775
:100160000002002000400120901200201946104695
:1001700000F088BA1946104600F08CBA13230360C9
:100180004FF0FF307047132303604FF0FF3070478C
:10019000132303604FF0FF307047002302290360F0
:1001A0008CBF002001207047134A10B5146800204E
:1001B00094FAA4F28442B2FA82F208BF4FF0FF32FE
:1001C0000E4C0F4B54F822200E49126818600B6831
:1001D000A2F108049C420ED023B118790A2804BF6A
:1001E0000B2018710A23012002F8043C32F9022C7A
:1001F000054B0C601A8010BDA4020020B80200203C
:10020000B0020020AC020020A8020020092930B56D
:1002100003791AD9092B14D842791A4B00F1080432
:1002200053F822507DB12D68856053F822502C6020
:1002300043F822400123144A4479A340146823431D
:100240001360017130BD8460F2E7092BF9D945795B
:100250000C4C54F825303BB11A6893420BBF002375
:10026000126844F825301A60427954F82230002B85
:10027000E7D10123044C03FA02F2236823EA0203C4
:100280002360DEE7B8020020A402002008B5094B75
:100290001B681A79092A02D95B79834205D900F0D3
:1002A000E0F918B10122044B1A6008BDBDE808400E
:1002B00000F05AB8AC020020B002002008B500F0EF
:1002C000C5F90021084B094A1B88094C1BB242F8AA
:1002D0002310084A20681368013B1360FFF796FF5C
:1002E000216000F03DF800BFA8020020F8020020C5
:1002F000AC020020B402002013444FF0773223F008
:10030000030310B543F8042C5A0758BF4FF0883246
:10031000044658BF43F8082CA3F1040058BFA3F1CA
:1003200008004FF0807340E902430C4B002240F874
:100330000C3C0323022440E905320123024640E934
:1003400007340B2342F8201D42F8043D013B032BE8
:10035000FAD16FF0020340F8443D10BDBD02000821
:1003600000F078F901DFFEE7024A536843F080535A
:100370005360704700ED00E0EFF3098020E9F00FD3
:1003800040F804ED02490968086000F003F8000035
:10039000AC020020FFF708FF04480068016801C9AB
:1003A000B1E8F00F81F3098800470000AC0200209B
:1003B0000D4B0E4A0E496846904203D8984201D927
:1003C000002102E009468D460121042072460242C6
:1003D00002D1EFF3088001E0EFF309802DE9F00F7F
:1003E0006B4600F06FF800BF58010020004001206C
:1003F00000020020042008B5014900F0F7FE00BF0C
:10040000C0410008062008B5014900F0EFFE00BF1A
:10041000CC410008072008B5014900F0E7FE00BF05
:10042000DF410008082008B5014900F0DFFE00BFE9
:10043000F1410008092008B5014900F0D7FE00BFCE
:10044000054200080A2008B5014900F0CFFE00BFB0
:10045000174200087047704708B5FFF7FBFF6A4670
:10046000114B1249934213D3114B124A12498B423A
:1004700011D30021114B124A934211D3FFF7EBFF26
:1004800000F0A6FE02F0C4FEBDE8084000F0E0BEA9
:1004900043F8041BE6E752F8040B43F8040BE6E7C5
:1004A00043F8041BE8E700BF00000020FEE7FEE77A
:1004B00000020020E0470008A4020020A40200205F
:1004C000901200202DE9F04F8FB00A93494B9246CD
:1004D0009A6B044603925A6B9F6A0492DA6A8946C1
:1004E00005921A6BDB6B06920793434B1A68434BDA
:1004F0009A4202D0424802F057FFB9F1000F4FD0A4
:100500000025404802F050FF2E463F4802F04CFFC5
:1005100039463E4802F0C2FE05993D4802F0BEFE53
:1005200006993C4802F0BAFE07993B4802F0B6FE35
:100530003A0403D50399394802F0B0FE3B0603D5CF
:100540000499374802F0AAFE364802F02DFF5146C2
:10055000354802F0A3FEB9F1000F1CD1334802F078
:1005600023FF3146324802F099FE6946314BC91AE1
:1005700003D53148494202F091FE0A9E2046826826
:10058000C36801698C4641698E46AD46314691E8A3
:10059000F00F4168006801BE0520284900F026FEE2
:1005A0002069D4E906680890606918F4007F099012
:1005B0002348D4E900B2D4E9023108BF04F1200590
:1005C000CDE90C3118BF04F124050B9202F0ECFECA
:1005D000DDE90B230D991B480091594602F05EFEA0
:1005E000DDE908123346CDF80080174802F056FEC8
:1005F0008BE700BF00ED00E000000020FEE7FEE713
:10060000254200083B420008004300080943000857
:1006100019430008294300083943000849430008EA
:1006200059430008694300086E43000880430008EE
:10063000B143000858010020D943000806440008CF
:100640006A42000885420008C2420008EFF31080A9
:1006500072B6704762B6EFF31080704780F310886F
:100660007047EFF30580C0B2704700004FF4E131EE
:100670000020024B024A00F0EBB900BF0402002048
:10068000691400080A460146014800F0F8BE00BFA0
:100690000402002010B50C460A460146002000F076
:1006A0009FF9204610BD00007D4B01282DE9F74F32
:1006B000187006D0022820D04FF0FF3003B0BDE8FC
:1006C000F08F784B1A6842F00E021A601A6842F4F2
:1006D00000721A605A6842F4E0625A60724A136902
:1006E00043F004031361FFF7B1FFBFF34F8F30BF37
:1006F000FFF7B4FF00F03CFFDEE76A4B6B4F1A6870
:10070000DFF8AC9122F002021A601A68DFF8A481C7
:1007100042F004021A601A68674E42F001021A6041
:100720001A68B24642F400721A605F4AC3461369FF
:10073000624C43F004031361FFF788FF4B46054604
:100740003A462046CDE9002300F042FEDDE90023D1
:100750005B49002873D15B4C0023A246DFF868B1E7
:10076000DBF80000818911F400517AD0818900936F
:1007700021F400510904090C81810421DBF80C00EB
:1007800000F0D1F90122009B22700133032B0BF101
:10079000180B04F10104E3D14FF48051012001F062
:1007A00029F801280FD1494B1B889A075BD40821EF
:1007B000474800F0B8F90821464800F0B4F9032191
:1007C000454800F0B0F94FF48041002001F012F8E4
:1007D00001280FD1414B1B889B0746D40821404874
:1007E00000F0A1F908213F4800F09DF903213E489F
:1007F00000F099F9BFF34F8F30BF00F0B9FE2F4CD6
:10080000DFF8BCB0204600F0E3FD80BB9AF8003072
:100810002BB1364A93899BB243F4005393819AF8E3
:1008200001302BB1324A93899BB243F40053938138
:100830009AF8023063BB2846FFF710FF3CE72068B8
:1008400042F8040BE06843F8040BA0882BF8020B75
:10085000208D04F580648C422AF8020B7FF471AF7E
:1008600079E7217091E70421A2E70421B7E759F85D
:10087000043BE36038F8023BA38057F8043B236055
:1008800036F8023B238504F580645C45BAD1BDE7A8
:10089000184A93899BB243F400539381CBE700BF7E
:1008A0001F0400200070004000ED00E0CC03002099
:1008B000FC030020EC030020BC03002000000240E9
:1008C000002002401C0400201C44000800300140AD
:1008D00005000240070002400600024000380040C8
:1008E0000D0402400F0402400E0402400038014093
:1008F000004400400048004008B5FFF7A7FE002272
:10090000014B1A7008BD00BF1F0400201823434389
:100910000D4A70B5D45823889A069DB209D50C2388
:1009200058430A4AA18813181E7A12583140586851
:1009300090472B0748BFA388054B1B681BB1BDE838
:100940007040FFF711BD70BD644400082004002012
:10095000B00200202DE9F041182444431F4E0D46FB
:1009600006EB040898F81470384600F001FFB0FB5D
:10097000F5F0072808D83846D8F8041000F020FF12
:100980006FF00100BDE8F08133590F289A8922F4F5
:1009900000524FEA02424FEA12429A819989C2B24A
:1009A00011D86FEA41416FEA5141083A89B242F0E9
:1009B00010029981D2B21A819A89002092B242F42F
:1009C00000529A81DEE7C1F30E0199814FF6F07172
:1009D00002F00F0201400A43EDE700BF6444000843
:1009E000022810B503D903200C4900F0FFFB18239F
:1009F00058430B4B1B589889000705D50A44914270
:100A000003D11A885206FCD510BD11F8010B1C88C1
:100A10002406FCD580B29880F1E700BFDA440008D4
:100A200064440008022808B503D90320064900F0F1
:100A3000DDFB1822054B02FB0030BDE80840416891
:100A4000007D00F0A5BE00BFDA4400086444000841
:100A500002282DE9F84304460F46164603D9032021
:100A6000284900F0C3FB0C22182562432648DFF812
:100A70009C8081184B60FF2305FB0485D5F80C9002
:100A800086500B724846697C00F04DF8484600F0ED
:100A9000F7F84846E97C00F083F84EB1D5F80890A5
:100AA000297C484600F03FF84846A97C00F078F8D9
:100AB0002046FFF7B7FF1823634358F8035008EBAD
:100AC000030900233946AB8120462B82AB82FFF716
:100AD00041FF9EB199F9153099F81520002B07DBDD
:100AE00002F01F0101228A4009495B0941F82320D5
:100AF00042F22C030020AB81BDE8F88342F20803E8
:100B0000F8E700BFDA44000820040020644400082D
:100B100000E100E00020FFF7F9BE0120FFF7F6BE7C
:100B20000220FFF7F3BEF8B5431C0C4637D0012670
:100B300020F00F0500F00F07C0F3832006FA00F144
:100B4000022000F025FEFFF781FD03232A6807FA43
:100B500006FC03FA0CF304F0030122EA030201FA93
:100B60000CF111432960E968C4F3810221EA030111
:100B700002FA0CF20A43EA60AA88BE4092B2C4F3B9
:100B8000001422EA0602BC401443A4B2AC80AA6856
:100B9000B6B21343AB602E85FFF760FD0020F8BDB1
:100BA000F8B5431C04460D4624D020F00F0600F093
:100BB0000F07FFF74BFD0323326879008B4022EAD1
:100BC000030202238B401343072F33608CBF04239F
:100BD00000231E440F2304F00704316AA400A3403D
:100BE00021EA030105FA04F40C433462BDE8F8403D
:100BF000FFF734BDF8BD0000431C10B519D00D4BF4
:100C0000C0F38101023153F821100F2300F00302D9
:100C1000920000F00F049340C0F383200B409040FB
:100C2000834206D101220449A2400B6823EA020351
:100C30000B6010BD0000014000040140431C10B5D2
:100C400018D0032320F00F0200F00F0041001468B9
:100C50008B402340CB40DBB2012B06D1928A92B26B
:100C60008340134043FA00F010BD33B9138A9AB29F
:100C70000123F5E76FF00100F6E74FF0FF30F3E7EF
:100C8000431C07D0012320F00F0200F00F0003FAED
:100C900000F090617047431C08D0012320F00F0240
:100CA00000F00F00103003FA00F090617047000070
:100CB0002DE9F0418846012105461646294A00F0F3
:100CC0000F0442F83430069B02EBC4025360C0F3B9
:100CD0008327084600F05CFD41462846FFF723FFC6
:100CE000042C214B34DC0122A11D8A401A60012210
:100CF0001E4BA240996805F0030521EA02019960A4
:100D0000986806F00101A14001430F209960D9685D
:100D1000760821EA0201D960D968A64004F00C04E3
:100D20000E4304F18044DE6004F58034A168AD0018
:100D3000A84021EA0001A160A16807FA05F50D436A
:100D4000A5605A61196800200A431A60BDE8F08165
:100D5000092C02DC4FF40002C8E74FF480725A609D
:100D6000C5E700BF4404002000E100E000040140AA
:100D70002DE9F04100244FF001080D4F0D4D7E6923
:100D80003B681E4008FA04F3334203D07B61D5E987
:100D9000003098470134102C05F10805F2D1064BBC
:100DA0001B681BB1BDE8F041FFF7DEBABDE8F0817A
:100DB0000004014044040020B0020020002000F0A4
:100DC000D3BD000038B5044C2568FFF7F7FF236852
:100DD000AB42F9D1184338BDCC040020034B19684D
:100DE00019B982B2084600F09BBD7047C4040020C8
:100DF00010B5094A136843B19C6881688C4207D3D7
:100E000003D15C6841688C4202D90360106010BD58
:100E10001A461B68EFE700BFD00400202DE9F0431D
:100E2000294E336803F58033336033681BB9274A92
:100E30001368013313600020254B264D1A68186093
:100E40002B6884461946244FDFF880E0DFF88C8059
:100E50003A6029B1DEF80040D1F80890A14517D9D1
:100E600000B12960BCF1000F10D00021CCF80010B7
:100E70003AB3C3B1546859688C4294BF10461846BF
:100E8000014612681B6882B90B603860BDE8F083C8
:100E90004C68D6F8009004EA08044C45E0D18C4632
:100EA00001200968D5E71046EAE70BB90A60ECE7CC
:100EB00056685D68AE4294BF14461C460C602146DD
:100EC000DFE73B60E2E700BFCC040020C80400205D
:100ED000D4040020D0040020D80400200000FFFF2C
:100EE0002DE9F041002965D10123334F334D3B609B
:100EF0002B68CBB9FFF792FF4FF6FF74FFF75EFF49
:100F0000A042FBD000244FF000082B6883B9FFF704
:100F100055FF1430844228D9FFF780FFFFF74EFFBA
:100F20008442FBD30024F0E7FFF748FF0446EAE7DA
:100F30005E68FFF743FF844205D8B3B2834202D90B
:100F40001B1A132BE3D82B685E68FFF737FF844228
:100F500002D8B6B28642F6D82B681A68C3E901886F
:100F60002A60D3E903209047CFE72B686BB15E6816
:100F7000FFF728FF063E14308642C6D300233046D2
:100F80003B60BDE8F041FFF729BFFFF717FF844240
:100F9000064602D9FFF742FFC4E700F114039BB2F3
:100FA000984204D9FFF70AFF8642FBD9F2E74FF6D1
:100FB000FF76E3E7BDE8F081C4040020D8040020F8
:100FC000134A1368834210D11B6813601BB1586821
:100FD0000638FFF703BF4FF6FF70FAE7984202D1D9
:100FE0000368136070471A461B68002BF6D1094A44
:100FF00013681BB9084A13682BB970479842EFD0A1
:101000001A461B68F5E79842EAD01A461B68F3E7D0
:10101000D8040020D4040020D004002008B5002308
:10102000054A1846054900F0B3FCBDE808404FF0FA
:10103000FF30FFF7D3BE00BFE10E000840420F00B3
:10104000F8B504460D46FFF7BDFE002323602B1ABA
:10105000032B06460DD8ADB2FFF7B0FE8542FBD399
:10106000FFF7ACFE8542FBD8D4E903309847002057
:10107000F8BDFFF7EBFA636807460BB9A36813B135
:101080002046FFF79DFF1D4AA81F1368864288BFB0
:101090000133A3601368A26865609A4205D8184BB3
:1010A0001A68030C1B049A4206D02046FFF7A0FEE4
:1010B0003846FFF7D3FADAE7B6B2B0420ED9114B91
:1010C00019461A6812B15668B54213D222601C60E4
:1010D0000B689C42ECD1FFF781FEE9E70A4A1368EE
:1010E00013B159688D4202D223601460E0E71A46BA
:1010F0001B68F5E713461268E4E700BFC804002048
:10110000CC040020D8040020D404002038B50446C4
:10111000FFF79CFA636805460BB9A36813B1204634
:10112000FFF74EFF2846BDE83840FFF797BAC3687F
:1011300070B504460D46CBB1FFF7E8FF022D0DD880
:10114000FFF73CFE0646FFF739FE831B9BB29D422C
:10115000F9D8D4E90330BDE870401847FFF732FEF4
:1011600029182046BDE87040FFF76ABF70BD000037
:101170002DE9F04704460E4615461AB9BDE8F0477A
:10118000FFF7D5BFFFF762FA636807460BB9A3689C
:1011900013B12046FFF714FFDFF83090FFF712FE7F
:1011A000D9F800A08046FFF70DFE8045F6D8361826
:1011B000554428BF013520466660A560FFF718FE3C
:1011C0003846BDE8F047FFF749BA00BFC804002021
:1011D00008B500F087F9BDE8084001210148FFF794
:1011E000A2BC00BF000402407047000008B50C4BD1
:1011F0000C461A6872B9012203281A6003D171469D
:10120000084802F04BF82146074802F047F8074823
:1012100002F044F8FFF71AFAFFF7E6FFFFF76CFB5E
:10122000DC040020AC440008B0440008CC440008B2
:1012300008B500F095FC034802F030F800F022FCFD
:10124000002008BDEC44000808B500F02BF9FCE7CD
:101250001FB50024FFF7FAF90D4B0F221B684FF45E
:10126000807102930B4B0C48009301940C2300F007
:1012700033F80A4B07221B684FF44061CDE9014364
:10128000074B084800930C2300F026F8FFF768F896
:101290001802002049120008E00400201C0200206F
:1012A00031120008E005002038B50B79092B03D96D
:1012B00003200849FFF79AFF4C7901F10802034621
:1012C000006818B110F8035CA542F8D988601A606C
:1012D00038BD00BFDA4400080F2A2DE9F74F054654
:1012E0008A469046994637D810F003030FBF0B4645
:1012F000C3F10402043B5B18A3F1300318BFAD181F
:1013000023F0030319F0080F05EB03041AD12D6035
:1013100003E012600432A242FBD30193FFF796F977
:10132000012207462849019B51F822600FFA82FBEF
:10133000AEB10132212AF7D13846FFF78FF96FF0AD
:101340008A0B3CE02A46E6E701212046FEF75EFFD5
:101350003846FFF783F932E06FF0150B2FE041F8C4
:1013600022402A46DDE90C01A4F806B0FEF7C4FFCE
:101370000E9B164AA3624FF0FF33C4E90736136889
:1013800019F0010F03F101032060C4E90266C4E90A
:1013900004666562C4F82CA084F805802671A661F5
:1013A0001360D1D10B212046FEF730FF19F0040F56
:1013B000CED13846FFF752F94046FEF767FF584650
:1013C00003B0BDE8F08F00BFF8020020B402002097
:1013D0000C4B9A6A42F400429A62EFF3138171B6A1
:1013E0005A6942F480725A610278986A5A6922F402
:1013F00080725A6181F3138880F40040C0F3C030DA
:10140000704700BF00ED00E0F8B505460F461646F0
:1014100004463C442046FFF7DBFF631B08B19E42B5
:10142000F7D81846F8BD00000C4B0D4A102110B536
:101430009A6000220B4C83F82210D977A018013251
:10144000392A80F80013F9D11A6942F010021A61A2
:101450005A6942F400725A6110BD00BF00ED00E00D
:101460000000000800E100E038B5054600F0F6FA9B
:10147000044605F1100000F08DFD204638BDF8B59A
:1014800004460D46164600F110073246294620460E
:1014900000F0D1FA00B1F8BD0121384600F04AFD54
:1014A000F3E7000073B50E4E3368019304230DEB90
:1014B00003021D46013B995C11B9002BF9D11D4671
:1014C000FFF7C4F83368019A04469A4202D168B221
:1014D000FFF7EAF8204602B0BDE87040FFF7BEB85B
:1014E000200200202DE9F047FFF79EFF4FF08051CA
:1014F000002000F04DF900F03BF81A4BFF210220CC
:10150000DE69002500F044F96FF0A8474FF0FF387E
:101510006FF4A079F6B2AC0204F1804404F5003413
:1015200020465FFA85FAFFF753FF50B12DB1BAF1AB
:10153000010F14D0C4F8008000E027600135082DA9
:10154000E9D1084B0220D96921F0FF01314300F0B5
:101550001FF900F096FABDE8F04700F063B9C4F84F
:101560000090EBE7003802400138FDD170470000E1
:10157000774B37B51A68774D42F480721A609A68D3
:1015800022F47F5222F030029A609A6822F0EE42F2
:101590009A609A6822F003029A6019686E4A0A40BB
:1015A00000211A60D9602A68022A00F0AF80B2F5E3
:1015B000003F1A6842F480321A6040F0AC806449FF
:1015C0000A682B681A42FBD0644B1A6842F0040286
:1015D0001A601A6842F001021A601A6842F00202A8
:1015E0001A609A691207FCD54FF08051002000F074
:1015F000CFF85B4B1A680092009A22F4C052009216
:10160000009A42F400620092009A1A605A68D40666
:10161000FCD44F4C062063680093009B23F4604386
:101620000093009B43F440430093009B6360FFF7EB
:101630009BFF236843F001032360A36823F47D0329
:10164000A360A36843F40003A360236843F080739E
:10165000236023689801FCD51A20FFF785FF2368D3
:1016600023F0807323603A4B1A689101FCD49A6886
:1016700022F47D029A602A68B2F5003F9A680CBF96
:1016800042F4050242F408029A60314B1A6842F0B3
:1016900080721A601A689201FCD540F201129B68B0
:1016A00030490093009B23F0030300932B68B3F5AC
:1016B000003F08BF1146009B43F003030093009ACC
:1016C000234B9A609A6802F00C020C2AFAD11A682D
:1016D00022EA01021A602449244A11629A6800929F
:1016E000009A22F0F0020092009A0092009A22F4EE
:1016F000E0620092009A0092009A22F460520092F6
:10170000009A0092009A9A6003B030BD1A6842F0C5
:1017100001021A6053E74FF4003242F210702A605F
:10172000019119682A6811427FF449AF019A013288
:101730000192019A8242F4DD1A6842F001021A60B5
:101740001A6822F480321A6002232B6037E700BF48
:1017500000380240E0110020FEFFFAEE003C02409B
:1017600000700040000101000048E801E411002081
:10177000014B186A704700BFE4110020024A034B76
:101780001B5C106A58437047E4110020264500088E
:10179000012809D002280CD018B9084A536A194305
:1017A0005162BFF34F8F7047044A136A19431162A5
:1017B000F7E7024AD3691943D161F2E700380240E2
:1017C000012808D002280CD080B9094A536A23EABC
:1017D000010151627047064A136A23EA010111624E
:1017E0007047034AD36923EA0101D161704700BF02
:1017F00000380240012809D002280AD060B9084BFD
:101800005B6A0B4214BF012000207047044B1B6A27
:10181000F7E7034BDB69F4E74FF0FF30704700BF99
:101820000038024038B54FF4A0324FF480614FF0D9
:101830000050FFF7E9FD0425144C4FF400224FF44B
:10184000806120604FF000602571FFF7DDFD4FF4EF
:101850008073A060000A4FF48042E0604FF40061A2
:101860000B4823612575FFF7CFFD0A4B25771B68D1
:10187000A061C3F30B03A3F21643212B8EBF0023F9
:10188000054AD35C84F8243038BD00BFE411002041
:1018900000000808002004E0284500082DE9F8436E
:1018A000074600241B4A0301D658DFF86C90338AA0
:1018B000B58909EBC008ADB21D40022303FA04F25A
:1018C0002A420AD0B38921469BB223EA0203B3819C
:1018D000D8F8040059F8373098470123A3402B4229
:1018E0000BD0338A214623F001031B041B0C3382E7
:1018F000D8F8040059F8373098470134042CDCD16B
:10190000064B1B681BB1BDE8F843FEF72DBDBDE8D3
:10191000F88300BF4C4500080C120020B0020020E4
:10192000032910B51ADC0F4B040103EB00101C59FE
:10193000436800201A4001F10C0304EB83035A6052
:10194000238A9AB2022303FA01F109B222EA0103BF
:101950002382A389194389B2A18110BD4FF0FF30C2
:10196000FBE700BF4C450008024B00011B58586ABA
:10197000704700BF4C450008044B00011A581388FB
:101980009BB243F001031380704700BF4C45000831
:1019900001282DE9F84304460F4633D81B4D1C4E51
:1019A00045F8302005EBC0056B6006EB001595F897
:1019B0000C80A9684FEA00194046FFF7E9FE0023B2
:1019C00056F8096040463380B3806B68F362FFF7D6
:1019D000D5FEB0FBF7F0012295F90D30013880B249
:1019E000002B3085697BB28206DB01F01F018A4043
:1019F00008495B0941F823202046FFF7BDFF00207E
:101A0000BDE8F8834FF0FF30FAE700BF0C1200206A
:101A10004C45000800E100E00020FFF73FBF012037
:101A2000FFF73CBF82680168531C83604368013B39
:101A30001340C85C7047F8B504460F461646154675
:101A40001DB1A268E3689A4201D1701BF8BD20461F
:101A5000FFF7E8FF013D07F8010BF1E7C26830B579
:101A600084684368121B9A4208D0C2680468551CF7
:101A7000C5600020013B1340E15430BD4FF0FF3002
:101A8000FBE770472DE9F0432E498FB02E4800F058
:101A9000AFF830B12D4801F087FC01200FB0BDE850
:101AA000F0832B490BA800F005FB80B9264FDFF827
:101AB000A480DFF8A4900DF1120204A90BA800F095
:101AC00049FB044628B1484601F06EFCF3E7234881
:101AD000E1E7384600F078F90646384600F0E6F9C6
:101AE000BDF9101005464FF0FF3205A800F062FC6A
:101AF00000F138030DEB0300BDF9121000F8244C7F
:101B00004FF0FF3208A800F055FC642200F13803C2
:101B100096FBF2F10DEB0300B5FBF2F302FB11664D
:101B200002FB135500F8184C05AACDE901164046F2
:101B300008A9009501F0B2FB21464FF4805000F057
:101B40004DFCB8E7240200201C1200206C45000860
:101B500030020020BC450008A14500089645000859
:101B600008B5FFF75BFABDE8084000F091BD30B55D
:101B7000044685B000680D4601F062F800232A464D
:101B80002179009320680DF10F0301F08BF9206893
:101B900001F074F89DF80F0005B030BD73B5044630
:101BA00000680D46164601F04BF800232A460093C4
:101BB00021793346206801F0A7F9206802B0BDE81A
:101BC000704001F05BB8000038B5084D2C6800F09B
:101BD0008DFE2B689C42F9D104434FF47A70A4FB2C
:101BE0000040A40A44EA805038BD00BF64120020BF
:101BF00030B5044607C9A3B084E8070001F020F817
:101C0000206800F08BFFD0212046FFF7B0FF60284E
:101C100009D0582807D0206801F030F84FF0FF3580
:101C2000284623B030BD8022002102A801F02EFBFF
:101C3000206801F005F8602300222179CDE9003207
:101C40002068882202AB01F007F90546206801F000
:101C500015F845B15B4801F021FB206801F00EF852
:101C60006FF00105DCE79DF809209DF8083003EBD3
:101C70000223A3819DF80B209DF80A3003EB022379
:101C8000E3819DF80D209DF80C3003EB02232382A5
:101C90009DF80F209DF80E3003EB022363829DF820
:101CA00011209DF8103003EB0223A3829DF813202E
:101CB0009DF8123003EB0223E3829DF815209DF876
:101CC000143003EB022323839DF817209DF8163070
:101CD00003EB022363839DF819209DF8183003EB72
:101CE0000223A3839DF81B209DF81A3003EB0223E7
:101CF000E3839DF81D209DF81C3003EB0223238411
:101D00009DF81F209DF81E309DF8641003EB022300
:101D100063849DF821309DF8622084F824309DF87A
:101D20006130206803EB0223E3849DF8633084F87C
:101D300028309DF8653003F00F0202EB0112628536
:101D40009DF866201B0903EB0213A3859DF86730FD
:101D500084F82E3000F074FF2B462179F42220689D
:101D6000009501F0D1F8206800F088FFA27963792E
:101D7000920002F01C0242EA43122046F52102F0D2
:101D8000FC02FFF70BFFE27A2046F22102F0070285
:101D9000FFF704FF227A637A02F0030242EA431259
:101DA000A37AF4219B0003F01C031A432046D2B20D
:101DB000FFF7F4FE206800F061FF206800F05EFF8E
:101DC0002EE700BF2146000873B50446F421FFF753
:101DD000CEFE227A00F0030393421BD000F0FC00F9
:101DE0000243F4212046FFF7D9FEFFF7EDFE064639
:101DF00000210A2000F0F2FAF3212046FFF7B7FE97
:101E000000F00805FFF7E0FE801BB0F5FA7F16D260
:101E1000002DEDD1206800F013FF082300221E4D95
:101E2000CDE9003221792B46F722206801F014F821
:101E30000646206800F022FF6EB1184803E001D189
:101E4000002DE7D0164801F029FA206800F016FFAF
:101E5000144802B070BD2A79EB78120142EA0332CD
:101E60006B7942EA1310A389C3EB121252435B0051
:101E7000C3EBD003B4F90E0012134343B4F91000BE
:101E80005043801300EBE320074B186000EB800009
:101E9000803040F30F20DCE74C1200205846000849
:101EA000424600080080FFFF5412002010B51F4B6F
:101EB00090F92E101C681E4BA4F59634DB88614304
:101EC0005BBA9AB2B0F92A3089121B05C3EB823390
:101ED000B0F92C2004FB123303F58043DA1390F899
:101EE00028306343DB1203F500434B43B0F926105F
:101EF0009B1203F500134B4303F500539B1353430D
:101F0000DA13524390F82400D2115043A3EB20106F
:101F100020EAE070B0F1C85FA8BF4FF0C85064235A
:101F2000000B5843C0F38F2010BD00BF5412002097
:101F30004C12002070B504460D46FEF787FB23685F
:101F400006463BB94FF0FF332360FEF787FB0125C0
:101F5000284670BDC5B10E4B02211D682846FEF70C
:101F600055F9236801330AD105F1080323600023E2
:101F7000AB603046FEF772FBFEF7F6F9E7E729465D
:101F80002046FFF791F9F4E7FEF768FBE0E700BFB2
:101F9000AC02002070B50446FEF758FB25680646E3
:101FA0001DB9BDE87040FEF759BB6B1C02D1002380
:101FB0002360F6E7284650F808390B212360FEF726
:101FC00025F9236813B94FF0FF33236015F8034C4C
:101FD0003046FEF743FB2046BDE87040FEF756B999
:101FE00013B504460548FEF707FE0123684621B2F3
:101FF000ADF8023001F0C4F802B010BD090402408F
:1020000038B5054C00202568FFF7AEFC2368AB42CD
:10201000F8D1184338BD00BFCC04002030B50446C9
:102020000D4685B00421FEF77EFD2046ADB1FEF7DA
:1020300005FE80B901220C4B04211B8820461BB2EF
:1020400000930A4BFEF734FE02A801F0BBF804210E
:102050002046FEF768FD05B030BDFEF7EFFD002815
:10206000F9D00222E7E700BFA8020020E11F000824
:102070002DE9F041002506460F462C460121304649
:10208000FFF7CCFFFFF7BCFF002180463046FFF78B
:10209000C5FFFFF7B5FF6400A0EB08002828A4B235
:1020A00005F1010588BF44F00104AF42E6D12046A6
:1020B000BDE8F08170B51F4E044633680D461BB174
:1020C000DB6AB3F5007F0FDB1B491C4801F0E6F823
:1020D0001B4801F0E3F81CB115B12B79012B07D98E
:1020E00003201849FFF782F8174801F05DF9F2E77D
:1020F00095E8070084E807000121FEF714FD206839
:10210000FEF7BEFD0021114800F07AFE33681BB1D6
:10211000DB6AB3F5007F08DB0749084801F0BEF829
:102120000B4801F0BBF8002070BD074801F03CF9F6
:10213000F9E700BFAC020020DC4600087946000841
:102140007F460008DA4400088946000880841E00A3
:10215000A74600082DE9F0470F469046044608B10F
:1021600001B11AB903203D49FFF740F80068FEF7B6
:1021700092FD002144F6206000F042FE2068FEF748
:102180007FFD0021282000F03BFE61792068FEF7EA
:10219000CAFC01212068FFF741FF00212068FFF7FA
:1021A0003DFF10212068FFF763FF10218146206862
:1021B000FFF75EFF082105462068FFF759FF012160
:1021C0005FFA80FA2068FEF7AEFC2068FEF758FD43
:1021D000C5F30F2605EB0902C9F30F2332441A4455
:1021E000D2B2924502D1BAF1000F15D11C4B1B6837
:1021F0001BB1DB6AB3F5007F0ADB1A491A4801F00C
:102200004DF81A4801F04AF84FF0FF30BDE8F0876A
:10221000174801F0C9F8F7E7227922B1012A11D055
:102220006FF00100F2E706EB860603EB830376000E
:102230005B003E80A8F8003000200E4B18700E4B5B
:102240001870E3E72BB2002BBCBFC5F30E056D423F
:10225000A8F80090B4BF3D803B80EDE7DA44000869
:10226000AC020020D346000879460008BA460008B0
:102270008946000859120020581200200E4A0346D1
:10228000914230B516D80A22012014468A420ED94E
:1022900063B10A250344B1FBF5F405FB1412303297
:1022A00003F8012D0A46092A2146F4D830BD6243BD
:1022B0000130EBE70A20EBE7FFC99A3B002910B594
:1022C0000B464FEAD17404DA10B12D2200F8012B2D
:1022D0005942FFF7D3FF204410BD9142F8B505469F
:1022E00014461E460DD250B1571A0A4601463844CC
:1022F00000F0B2FF3A463146284600F0C7FF2046BC
:10230000F8BD0C46FBE70000D31D2DE9F04704465D
:102310008946154603DA03202449FEF767FF002AA1
:1023200003D1BDE8F047FFF7C9BF0BDDFFF7C6FFDC
:10233000064624B12A463021201800F0A7FF701964
:10234000BDE8F0871A4BC2F1000853F828A091FBB2
:10235000FAF7EFB900291BDA18B32D230126037011
:102360003946A019FFF7AAFF2E230AFB1791304424
:10237000461C235400293444B8BF49422046FFF785
:102380009DFF3023014642462046FFF7A6FF06E0A8
:102390004CB939460020FFF791FF2044461C701BC2
:1023A000CEE70124F5E70026DAE700BFDA440008AB
:1023B000E8460008FFF7A8BFFFF7ECBD38B50446B4
:1023C00000F094FA0546C4F30E0400F08FFA431BA4
:1023D000C3F30E039C42F8D838BD000030B587B077
:1023E00004460D46FEF73DF950B11DB103200F49DB
:1023F000FEF7FCFE204607B0BDE83040FFF7DEBF29
:102400000B4BCDE902000090012168460493CDF802
:1024100014D0FFF78FFD2A46214601A800F0E2F90B
:1024200001216846FFF786FD07B030BDDA44000899
:10243000B923000838B5044C256800F057FA236822
:10244000AB42F9D1184338BD64120020044B1A681E
:1024500022B90449C0F30E0000F058BA704700BF1B
:102460005C1200205925000810B5094A136843B1D1
:102470009C6881688C4207D303D15C6841688C42B8
:1024800002D90360106010BD1A461B68EFE700BF59
:10249000681200202DE9F043294E336803F500430C
:1024A000336033681BB9274A136801331360002077
:1024B000254B264D1A6818602B6884461946244F10
:1024C000DFF880E0DFF88C803A6029B1DEF8004068
:1024D000D1F80890A14517D900B12960BCF1000FCF
:1024E00010D00021CCF800103AB3C3B15468596839
:1024F0008C4294BF10461846014612681B6882B988
:102500000B603860BDE8F0834C68D6F8009004EAB0
:1025100008044C45E0D18C4601200968D5E71046F7
:10252000EAE70BB90A60ECE756685D68AE4294BF13
:1025300014461C460C602146DFE73B60E2E700BF23
:1025400064120020601200206C120020681200202B
:10255000701200200080FFFF2DE9F04100F0C6F965
:102560000123324F324D3B602B68044683B14FF05C
:1025700000082B68B3B900F0B9F90330844230D9B0
:10258000FFF788FF00F0B2F98442FBD30024F0E7A4
:10259000FFF780FF47F6FF7400F0A8F9A042FBD0D8
:1025A0000024E4E75E6800F0A1F9844206D8C6F38F
:1025B0000E03834202D91B1A022BDCD82B685E68FB
:1025C00000F094F9844203D8C6F30E068642F5D88B
:1025D0002B681A68C3E901882A60D3E90320904771
:1025E000C7E72B6863B15E68FFF724FF03308642BC
:1025F000BFD3002330463B60BDE8F041FFF726BF64
:1026000000F074F98442064602D9FFF743FFBDE7A4
:10261000C31CC3F30E03984204D900F067F9864245
:10262000FBD9F2E747F6FF76E3E700BF5C12002034
:1026300070120020134A136883420FD11B68136085
:1026400013B15868FFF702BF47F6FF70FAE79842E8
:1026500002D10368136070471A461B68002BF6D13D
:10266000094A13681BB9094A13682BB97047984285
:10267000EFD01A461B68F5E79842EAD01A461B6865
:10268000F3E700BF701200206C12002068120020D7
:1026900008B500F0D7F8BDE808404FF0FF30FFF76D
:1026A000D5BE0000F8B504460D46FFF7C3FE002373
:1026B00023602B1A032B06460ED8C5F30E0500F037
:1026C00015F98542FBD300F011F98542FBD8D4E916
:1026D000033098470020F8BDFDF7B8FF6368074650
:1026E0000BB9A36813B12046FFF7A4FF47F6FE73AA
:1026F0001F4AAB4308BF023D1368AE4288BF013397
:10270000A3601368A26865609A4207D8194B1A68DB
:1027100025F4FF4323F07F039A4206D02046FFF7BB
:10272000A3FE3846FDF79AFFD4E7C6F30E06B5427E
:102730000FD9114B19461A6812B15068854214D24C
:1027400022601C600B689C42EBD12846FFF77EFE9E
:10275000E7E70A4A136813B159688D4202D2236031
:102760001460DEE71A461B68F5E713461268E3E7D4
:102770006012002064120020701200206C120020F1
:1027800038B50446FDF762FF636805460BB9A368D8
:1027900013B12046FFF74EFF2846BDE83840FDF74D
:1027A0005DBFC36870B504460D46D3B1FFF7E8FFBF
:1027B000022D0ED800F09AF8064600F097F8831B19
:1027C000C3F30E039D42F8D8D4E90330BDE870404E
:1027D0001847FFF72FFE29182046BDE87040FFF785
:1027E00061BF70BD2DE9F04704460E4615461AB983
:1027F000BDE8F047FFF7D5BFFDF728FF6368074640
:102800000BB9A36813B12046FFF714FFDFF830902F
:10281000FFF710FED9F800A08046FFF70BFE8045B9
:10282000F6D83618554428BF013520466660A560A5
:10283000FFF71AFE3846BDE8F047FDF70FBF00BFAF
:102840006012002008B500F0D1FC00F0BFFC224B64
:102850005A6B22F440325A635A6B42F482025A6332
:10286000CA22A3F504335A6253225A62DA6842F04C
:102870008002DA60DA685106FCD500229A60802274
:10288000DA60164A1A619A6822F040029A609A68E1
:1028900022F400629A60DA6822F08002DA60104B5B
:1028A000DA685206FCD4FF225A620E4BDA6822F430
:1028B0000032DA609A6842F400329A601A6842F490
:1028C00000321A605A6942F400325A614FF40072C1
:1028D000054B5A6008BD00BF00380240FF7F1F0053
:1028E000002800400004014000E100E0064BDA68E7
:1028F00022F02002DA60DA689206FCD5986A5B68FA
:10290000C0F5FF407F3070470028004010B5CA2452
:10291000144B5C6253245C629C6824F488549C6071
:10292000DC68E407FCD5C0F5FF40DC697F30C0F30C
:102930000E0040F0706044F08034DC6158649868A8
:1029400040F480709860986840F480509860D8682F
:1029500020F48070D8600448016004490A60FF22B6
:102960005A6210BD00280040781200207412002026
:1029700010B50D4CE368DB050ED50C4B1B6813B18D
:102980000B4A10689847E3680A4A23F48073E360AF
:10299000536943F400335361074B1B681BB1BDE817
:1029A0001040FDF7E1BC10BD002800407812002067
:1029B0007412002000040140B002002002464FF6CD
:1029C000FF70138B9B0705D5431E9BB200B9704760
:1029D0001846F6E7002814BF00206FF07300704718
:1029E00008B5038823F480631B041B0C0380038851
:1029F0009BB243F4007303804FF6FF730288920585
:102A00000AD55A1E92B22BB9FFF7D8FF002805DB72
:102A1000002005E01346F1E7002BF5D16FF07300BD
:102A200008BDF8B500244FF6FF77868A838AB5B2D1
:102A300023F4E0631B041B0C7605838206D5530741
:102A400001D4FFF7CDFF6FF0040006E015F44073EA
:102A500004D0FFF7C5FF6FF00A00F8BD0D4204F186
:102A6000010406D1BC42E0D1FFF7BAFF6FF073005A
:102A7000F3E71846F1E700002DE9F0410F4615464F
:102A80001E46044618B903202349FEF7AFFBD007C2
:102A90003CD4238B02F00802990701D4002A35D1D7
:102AA000A38A23F4E0631B041B0CA3828ABB238844
:102AB00005F0FB089BB243F4A06342460121204687
:102AC0002380FFF7AEFF00281EDBBFB215F0040520
:102AD000278207D18E4205D1218821F48061090423
:102AE000090C2180424602212046FFF79AFF431D30
:102AF00008BF6FF00500238B35B9012E04D1238860
:102B00009BB243F400732380BDE8F0816FF05E0058
:102B1000FAE70020F8E700BFDA44000801282DE9B1
:102B2000F04103D903203E49FEF760FB00223D4EF1
:102B300047013D4BF45943F8202006EB4010002C90
:102B4000F0D00379012B5ED0022B5FD0002B58D13F
:102B500044F62063856906EB0708D8F8141098F846
:102B60001200B5FBF3F5FEF713FE98F91C2098F858
:102B70001C30002A4DDB4FF0100C2C4803F01F03D3
:102B8000811881F800C30121520901FA03F340F8CA
:102B900022303E44D6F8088015214046FDF7C3FF99
:102BA000F76815213846FDF7BEFF4046317CFDF73A
:102BB000F7FF3846717CFDF7F3FF4FF48062B3698D
:102BC00022801B4AADB2B3FBF2F39BB243F4807296
:102BD00001339BB2A280A583238423899BB243F453
:102BE000804323812389C3F30E032381A38A23F423
:102BF000E0631B041B0CA38223889BB243F00103F8
:102C00002380BDE8F08185690A4BA4E785690A4BFA
:102C1000A1E70A4A03F00F031A4410231376B8E71A
:102C2000DA440008084700087C12002000E100E0B8
:102C300040420F00400D030000350C00FCEC00E0AA
:102C4000012810B5044603D903200949FEF7CEFA3E
:102C50000848012100EB8400FFF76CF9064800EBFF
:102C60004414A07C6169FEF793FD002010BD00BFF5
:102C7000DA4400087C12002008470008012810B53B
:102C8000044603D903200849FEF7B0FA074B03EBCB
:102C90004013987C5969FEF793FD054800EB8400CA
:102CA000FFF778F9002010BDDA4400080847000853
:102CB0007C1200202DE9F047012816461D469DF89C
:102CC00020A003D903202349FEF790FA224A4001AD
:102CD0001458490041F0010152462046C9B2FFF79D
:102CE000CBFE002818DB0023771E0AF00409AB4254
:102CF00007D11AF0040F2BD12046BDE8F047FFF7AB
:102D00005DBE03F10108A84508D052464021204687
:102D1000FFF787FE002816DABDE8F087B9F1000F4B
:102D2000F3D1A28A520608D5012D06D1228A204667
:102D3000F254BDE8F047FFF753BE2046FFF750FEC0
:102D40000028E2DAE8E7238A07F8013F4346CEE7A6
:102D50000020E1E7DA44000808470008F8B5012838
:102D600014461F469DF8186003D903201949FEF741
:102D70003DFA194B40011D58002DF6D049000023A3
:102D80003246284601F0FE01FFF776FE00281FDBE1
:102D90002744BC4232464FF0800128460FD1FFF74E
:102DA00040FE002814DB730711D42846FFF718FEF5
:102DB00000280DDB2846BDE8F840FFF7FFBDFFF710
:102DC00030FE002804DB14F8013B2B82E1E70020F1
:102DD000F8BD00BFDA44000808470008FFF7DAB87A
:102DE00038B504460020FEF7BFFD0546A4B200201A
:102DF000FEF7BAFD431B9BB2A342F8D338BD0000D7
:102E000030B587B004460D46FDF72BFC50B11DB11F
:102E100003200F49FEF7EAF9204607B0BDE830402D
:102E2000FFF7DEBF0B4BCDE90200009001216846A1
:102E30000493CDF814D0FFF77DF82A46214601A867
:102E4000FEF796F901216846FFF774F807B030BD28
:102E5000DA440008DD2D0008F0B585B09DF82C405F
:102E6000054614F00C0F0E461F46ADF80E2016D185
:102E700014F0020F44F0040300930DF10E0214BF8E
:102E800002230123FFF76AFF002806DB3A4631469A
:102E900028460A9B0094FFF70DFF05B0F0BD6FF0C8
:102EA0005E00FAE713B59DF81040019401240094E8
:102EB000FFF7D2FF02B010BDF0B585B09DF82C40F1
:102EC000054614F00C0F0E461F46ADF80E2018D123
:102ED00014F0020F44F0040300930DF10E0214BF2E
:102EE00002230123FFF73AFF002808DB44F008041F
:102EF0003A46314628460A9B0094FFF72FFF05B05B
:102F0000F0BD6FF05E00FAE71FB58DF80F309DF849
:102F100018300193012300930DF10F03FFF7CCFF4D
:102F200005B05DF804FB0000F8B505460E46FDF758
:102F30008DFB3B4B3B4A1B8807461BB252F82330A4
:102F40001A6A002A66D0D3E90542A24262D0621C06
:102F50005A61DA69144046B91A6932B9621C04D15F
:102F60003846FDF77BFB2046F8BD002C56DB1A6A7D
:102F700002EBC40292E8030085E803001E69002EFC
:102F800042D03268002C1A610DDBD3E9062559695D
:102F9000186A511A8D42B1BF4FF0FF32511C2A40BE
:102FA000996100EBC205736893E8030085E80300AC
:102FB00016F8043C052B25D000230B217360A6F1E5
:102FC0000800FDF723F916F8034C3846FDF746FBD9
:102FD0000E2C12D82046FDF759F90EE018460321B1
:102FE000FDF714F93846FDF739FBFDF7BDF90E4B37
:102FF0001B681B79032BD8B201D00124B3E70B491E
:10300000FEF7F4F80F24E0E7002CE7DB3846FDF785
:1030100025FBF2E74FF0FF34002E9DD0DD60ADE7D9
:10302000A8020020F8020020AC020020DA440008C8
:1030300010B5D0E9063244691C1BA24201DA002017
:1030400010BD5C1C13408461F9D4026A03C902EB11
:10305000C30383E803000120F2E700002DE9F843F1
:103060001D46264B064653F82170254B91461B887A
:1030700003803FB92846FDF7F1FA4FF0FF342046B0
:10308000BDE8F8833B79032B2ED01E4B0146384612
:10309000D3F80080FFF7CCFF044650B12846FDF777
:1030A000DDFA98F80430052B01D1FDF75DF9012414
:1030B000E5E7B9F1000F03D12846FDF7CFFADEE7C7
:1030C00098F804304046052B0CBF05210421C8F8B0
:1030D0000C60FDF79BF8414607F11000FEF7E4F89D
:1030E0002846FDF7BBFAE0E7FB6803C883E8030066
:1030F0000B213846FDF78AF8F2E700BFF8020020FE
:10310000A8020020AC02002038B50446FDF79EFA64
:10311000074B21461B8805462380064B1868FFF79E
:1031200087FF04462846FDF799FA204638BD00BFC0
:10313000A8020020AC02002008B50F4B53F8213044
:10314000B3B1212202801A79032A0BD103C8DA68AD
:1031500082E8030018460B21FDF758F80120074BC1
:10316000186008BD01461846BDE80840FFF760BF7B
:103170004FF0FF30F5E700BFF8020020B00200205A
:1031800070B504460D46FDF76CFA28B12946204675
:10319000BDE87040FFF7D0BF094B1B881BB2AB42A4
:1031A00004D12046BDE87040FFF7AEBFFDF74EFAF0
:1031B0002946034601222046BDE87040FFF74EBF76
:1031C000A80200200121FFF7AFBE0000024A1368E9
:1031D00043F480731360704700700040024A136824
:1031E00023F48073136070470070004008B5FFF748
:1031F000EDFF064B5A6B42F480725A635A6B92058C
:10320000FCD5BDE80840FFF7E9BF00BF0038024029
:1032100070B500260C4D0D4C641BA410A64209D1BC
:10322000FCF782FF00260A4D0A4C641BA410A6423C
:1032300005D170BD55F8043B98470136EEE755F8C7
:10324000043B98470136F2E7E0470008E0470008F2
:10325000E0470008E0470008884210B501EB02048F
:1032600002D98442234607D8431EA14208D011F850
:10327000012B03F8012FF8E7014602448A4200D1EE
:1032800010BD13F8014D02F8014DF7E70346024463
:10329000934200D1704703F8011BF9E70FB40A4BC2
:1032A00013B51C6824B1A36913B9204600F05AFA7B
:1032B00005AB2046049AA168019300F05DFC02B0C2
:1032C000BDE8104004B070473C02002070B50E46C7
:1032D000054618B183690BB900F044FAAB69AC68D4
:1032E00013B9284600F03EFA2C4B9C4220D16C6862
:1032F000636EDB0705D4A389980502D4A06D00F0A6
:10330000CFFAA38919071DD52369DBB1013EA36854
:1033100016F8011F013BA36039BB002B38DA2246A7
:103320000A21284600F048F8013011D00A2511E0A2
:103330001B4B9C4201D1AC68DAE71A4B9C4208BF98
:10334000EC68D5E72146284600F088F80028DDD053
:103350004FF0FF35636EDA0705D4A3899B0502D4CD
:10336000A06D00F09EFA284670BD002B04DAA26919
:103370009A4206DC0A2904D023685A1C226019707C
:10338000C5E72246284600F017F80130BFD1DFE735
:103390000A2523685A1C22601D70DBE76C47000871
:1033A0008C4700084C470008024B01461868FFF79D
:1033B0008DBF00BF3C020020F8B50E4614460546FE
:1033C00018B183690BB900F0CDF9214B9C422BD188
:1033D0006C68A369A360A3891A072FD523696BB30F
:1033E00023692068F6B2C01A63693746834204DC59
:1033F0002146284600F022F930BBA3680130013B8A
:10340000A36023685A1C22601E706369834204D043
:10341000A389DB0706D50A2E04D12146284600F0F1
:103420000DF988B93846F8BD0A4B9C4201D1AC6809
:10343000CFE7094B9C4208BFEC68CAE72146284603
:1034400000F00CF80028CBD04FF0FF37EAE700BFC0
:103450006C4700088C4700084C470008324B70B599
:103460001D6806460C4625B1AB6913B9284600F025
:1034700079F92E4B9C420FD16C68A389B4F90C20CA
:1034800019072CD4DD0611D40923336042F0400320
:103490004FF0FF30A3813EE0254B9C4201D1AC6848
:1034A000EBE7244B9C4208BFEC68E6E7580712D5CF
:1034B000616B41B104F14403994202D0304600F0FF
:1034C00057FA00236363A38923F02403A381002315
:1034D000636023692360A38943F00803A381236900
:1034E0004BB9A38903F42073B3F5007F03D02146C1
:1034F000304600F0FDF9A089B4F90C2010F001036A
:103500000AD00023A36063695B42A361236943B9C6
:1035100010F08000BAD170BD810758BF6369A36005
:10352000F4E70020F7E700BF3C0200206C470008EA
:103530008C4700084C4700088A89F8B505461007F3
:103540000C4657D44B68002B04DC0B6C002B01DCC1
:103550000020F8BDE66A002EFAD0002312F4805253
:103560002F682B6032D0606DA3895A0705D5636838
:10357000C01A636B0BB1236CC01A00230246E66AC3
:103580002846216AB047431CA38906D129681D2912
:103590002CD8294ACA40D60728D500226260226961
:1035A000D904226004D5421C01D12B6803B960659F
:1035B000616B2F600029CBD004F14403994202D003
:1035C000284600F0D5F900206063C2E7216A012394
:1035D0002846B047411CC7D12B68002BC4D01D2BF7
:1035E00001D0162B01D12F60B2E7A38943F040032D
:1035F000A381AEE70F69002FAAD0930718BF00235D
:103600000E6808BF4B69F61B0F608B60002E9FDDB4
:1036100033463A462846216AD4F828C0E0470028B5
:1036200006DCA3894FF0FF3043F04003A38190E70D
:103630000744361AEAE700BF0100402038B50B699D
:1036400005460C4613B90025284638BD18B18369D4
:103650000BB900F087F8144B9C421BD16C68B4F98D
:103660000C30002BEFD0626ED00704D4990502D441
:10367000A06D00F015F928462146FFF75DFF636E47
:103680000546DA07E0D4A3899B05DDD4A06D00F0E0
:1036900008F9D9E7054B9C4201D1AC68DFE7044B40
:1036A0009C4208BFEC68DAE76C4700088C470008CA
:1036B0004C470008002310B50446C0E90033C0E9B8
:1036C0000433836081814366C28183611946082285
:1036D0005C30FFF7DBFD054B24626362044BA362A1
:1036E000044BE362044B236310BD00BF0541000897
:1036F000274100085F41000883410008014900F0AC
:10370000AFB800BF3D360008682270B54D1E554366
:103710000E4605F1740100F093F9044640B1002112
:10372000C0E900160C30A06005F16802FFF7AEFD9D
:10373000204670BD014800F0B3B800BF85120020DC
:10374000014800F0AEB800BF85120020014800F02B
:10375000A7B800BF86120020014800F0A2B800BF41
:103760008612002010B50446FFF7F0FFA3691BB1D5
:10377000BDE81040FFF7F0BFC4E912332365134BD7
:10378000134A1B68A262A34208BF0123204608BF58
:10379000A36100F01FF86060204600F01BF8A060F5
:1037A000204600F017F800220421E0606068FFF76F
:1037B00081FF01220921A068FFF77CFF022212216C
:1037C000E068FFF777FF0123A361D1E748470008CE
:1037D000FD360008F8B50746FFF7ACFF1E4B1E6824
:1037E000B36913B93046FFF7BDFF4836D6E9013457
:1037F000013B03D533680BB33668F7E7B4F90C50D7
:10380000D5B9164B04F15800E360656600F047F83F
:10381000FFF796FF08222946C4E90155C4E904557B
:103820002560A56104F15C00FFF730FDC4E90D558A
:10383000C4E912552046F8BD6834D9E7042138465A
:10384000FFF762FF044630600028D5D1FFF778FF0C
:103850000C233B60EEE700BF484700080100FFFF74
:103860002DE9F84306468846002700F14804D4E9CC
:103870000195B9F1010905D52468002CF7D1384626
:10388000BDE8F883AB89012B07D9B5F90E300133B8
:1038900003D029463046C04707436835E9E77047FB
:1038A0007047704770B50E46B1F90E1014460029E6
:1038B0001D4696B008DA0022B6F90C302A601A06C6
:1038C00010D44FF480630EE06A46FCF761FC0028D8
:1038D000F1DB019A02F47042A2F500535A425A41B8
:1038E0002A60EEE740230020236016B070BD000080
:1038F0008B8973B59D0706460C4607D504F147032F
:10390000236023610123636102B070BD6A4601AB8D
:10391000FFF7C8FF00990546304600F091F848B916
:10392000B4F90C309A05EFD423F0030343F00203FB
:10393000A381E3E70D4BB362A389206043F08003CA
:10394000A381009B20616361019B5BB13046B4F9A8
:103950000E10FCF722FC28B1A38923F0030343F0E7
:103960000103A381A0890543A581CDE7FD360008A9
:1039700038B50546002940D051F8043C0C1F002BF7
:10398000B8BFE41800F010FC1C4A136833B9636038
:1039900014602846BDE8384000F00CBCA34208D9AA
:1039A000206821188B4201BF19685B6809182160E3
:1039B000EDE71A465B680BB1A342FAD911685018BB
:1039C000A0420BD120680144501883421160E0D11D
:1039D00018685B68014411605360DAE702D90C2370
:1039E0002B60D6E7206821188B4201BF19685B68FD
:1039F0000918216063605460CBE738BD881200204D
:103A000070B50E4E0C463168054611B9FCF790FBB7
:103A1000306021462846FCF78BFB431C0AD0C41CAF
:103A200024F00304A04207D0211A2846FCF780FBAB
:103A3000013001D14FF0FF34204670BD8C120020C0
:103A40002DE9F041CD1C25F0030508350C2D38BFBC
:103A50000C25002D074601DBA94205D90C230026C1
:103A60003B603046BDE8F0812E4E00F09DFB336890
:103A70001C4634BB29463846FFF7C2FF431C0446A8
:103A80004DD134682646002E40D123683146384651
:103A900004EB0308FCF74CFB80453AD12168033561
:103AA0006D1A25F0030508350C2D38BF0C25384656
:103AB0002946FFF7A5FF01302BD023682B44236054
:103AC0000EE02268521B1ED40B2A16D96119A3429C
:103AD000256018BF5960636808BF316062514B6050
:103AE000384604F10B0600F065FB26F00706231D9F
:103AF000F21AB6D09B1BA350B3E76268A3420CBF77
:103B000032605A60ECE723466468B2E73446766870
:103B1000B9E70C2338463B6000F04CFBA1E7256079
:103B2000DEE700BF88120020936810B4013B002B31
:103B3000936007DA9469A34201DB0A2902D110BC21
:103B4000FFF73ABC1368581C10601970084610BC87
:103B50007047F8B506460F461446D518AC4201D159
:103B6000002007E03A46304614F8011BFFF7DCFF5F
:103B7000431CF3D1F8BD00002DE9F04F0D4614466B
:103B8000984606469DB018B183690BB9FFF7EAFD68
:103B9000894B9D421BD175686B6ED90705D4AB89E3
:103BA0009A0502D4A86DFFF77BFEAB891B0701D5F0
:103BB0002B69EBB929463046FFF750FCC0B16B6E5C
:103BC000DC070ED54FF0FF301DB0BDE8F08F7B4B0A
:103BD0009D4201D1B568DFE7794B9D4208BFF5688A
:103BE000DAE7AB899805EDD4A86DFFF75AFEE9E74F
:103BF0000023099320238DF8293030234FF0010949
:103C0000CDF80C80DFF8BC818DF82A3023469A4627
:103C100013F8012B0AB1252AF9D1BAEB040B0BD00A
:103C20005B46224629463046FFF793FF013000F0FD
:103C3000AA80099A5A4409929AF80030002B00F0A1
:103C4000A28000234FF0FF32CDE905230AF1010ADB
:103C5000049307938DF853301A935446052214F8B1
:103C6000011B584800F091FA049AD8B9D10644BF14
:103C700020238DF85330130744BF2B238DF8533086
:103C80009AF800302A2B15D0544600204FF00A0C29
:103C9000079A214611F8013B303B092B4ED9B0B1B0
:103CA000079214E0A0EB080309FA03F31343A246BA
:103CB0000493D2E7039B191D1B680391002BBBBF24
:103CC0005B4242F0020207930793B8BF0492237845
:103CD0002E2B0CD163782A2B35D1039B02341A1D6D
:103CE0001B680392002BB8BF4FF0FF330593DFF83A
:103CF000D8A003225046217800F047FA40B1402373
:103D0000A0EB0A0003FA00F0049B01340343049380
:103D100014F8011B06222D488DF8281000F035FA02
:103D200000283FD02A4B1BBB039B073323F007031C
:103D300008330393099B3B44099367E70C46012032
:103D40000CFB0232A5E700234FF00A0C19460134A0
:103D50000593204610F8012B303A092A03D9002B8D
:103D6000C5D00591C3E7044601230CFB0121F0E710
:103D700003AB00932A463046164B04A9AFF30080EC
:103D80000746781CD6D16B6ED90705D4AB899A0546
:103D900002D4A86DFFF785FDAB895B063FF512AF36
:103DA000099811E703AB00932A463046094B04A952
:103DB00000F082F8E4E700BF6C4700088C47000879
:103DC0004C470008AC470008B2470008B647000857
:103DD00000000000533B00082DE9F04716469946C5
:103DE0008A680B6907469342B8BF1346336091F85F
:103DF00043200C46DDF820800AB10133336023688C
:103E0000990642BF336802333360256815F0060512
:103E100006D104F1190AE36832689B1AAB4228DC28
:103E200094F84320131E226818BF012392062DD454
:103E30004946384604F14302C047013020D0236888
:103E4000E56803F00603042B18BF002532684FF025
:103E50000006A36808BFAD1A226908BF25EAE57508
:103E60009342C4BF9B1AED181A34B5421AD10020F0
:103E700008E00123524649463846C047013003D185
:103E80004FF0FF30BDE8F0870135C4E73020E1187E
:103E900081F843005A1C94F845102244023382F8FA
:103EA0004310C5E70123224649463846C047013042
:103EB000E6D00136D9E700002DE9FF470F7E914695
:103EC000782F80460C469A460C9D01F1430207D894
:103ED000622F0AD8002F00F0D980582F00F0A4805C
:103EE00004F1420584F842703AE0A7F16303152B10
:103EF000F6D801A151F823F0513F0008653F0008B2
:103F0000E13E0008E13E0008E13E0008E13E000815
:103F1000653F0008E13E0008E13E0008E13E000880
:103F2000E13E000873400008953F00085540000836
:103F3000E13E0008E13E000895400008E13E00082F
:103F4000953F0008E13E0008E13E00085D400008A2
:103F50002B681A1D1B682A6004F1420584F8423060
:103F60000123A4E020682968060601F104030AD5AC
:103F70000E682B60002E03DA2D23764284F843303E
:103F80000A235E4819E00E6810F0400F2B6018BF3E
:103F900036B2EFE72B682068191D2960010601D5AC
:103FA0001E6802E04606FBD51E886F2F0CBF082353
:103FB0000A235248002184F843106568002DA8BFE9
:103FC0002168A560A4BF21F0040121600EB9002D75
:103FD0004DD01546B6FBF3F103FB1167C75D05F83D
:103FE000017D3746BB420E46F4D9082B0BD123681E
:103FF000DE0708D5236961689942DEBF302305F8E2
:10400000013C05F1FF35521B22614B4621464046DB
:10401000CDF800A003AAFFF7DFFE01304CD14FF02E
:10402000FF3004B0BDE8F087344881F84570296856
:10403000236851F8046B29601D0614D5DF0744BFBF
:1040400043F0200323601EB9236823F0200323607C
:104050001023AFE7236843F0200323607823284828
:1040600084F84530E3E7590648BFB6B2E6E715469F
:10407000BBE72B682668181D6169286035061B6838
:1040800001D5196002E07006FBD5198000231546A2
:104090002361BAE72B6800211A1D2A601D68626837
:1040A000284600F072F808B1401B60606368236125
:1040B000002384F84330A8E72A464946404623694E
:1040C000D0470130ABD023689B0713D4E068039B33
:1040D0009842B8BF1846A4E70123324649464046F5
:1040E000D04701309BD00135E36803995B1AAB429E
:1040F000F2DCEBE7002504F11906F5E7BD470008FF
:10410000CE47000810B50C46B1F90E10FCF72EF89A
:104110000028ABBF636DA3891B1823F48053ACBF89
:104120006365A38110BD2DE9F0411F468B890546CB
:10413000DB050C46164605D502230022B1F90E1008
:10414000FCF721F8A389324623F48053A381284643
:104150003B46B4F90E10BDE8F041FCF70BB810B5C2
:104160000C46B1F90E10FCF70EF8431CA38915BFDD
:10417000606523F4805343F48053A38118BFA38167
:1041800010BDB1F90E10FBF7F9BF034610B5C9B267
:1041900002449342184601D1002003E00478013321
:1041A0008C42F6D110BD00000148FFF779BB00BF7B
:1041B000841200200148FFF774BB00BF8412002066
:1041C0004E4D492048414E444C4552004D454D20EE
:1041D0004D414E4147452048414E444C45520042D6
:1041E0005553204641554C542048414E444C45526D
:1041F000005553414745204641554C542048414EB7
:10420000444C4552004445425547204D4F4E2048AE
:10421000414E444C45520044554D4D592048414E65
:10422000444C4552000A49535220737461636B2019
:104230006F766572666C6F77656400537461636B4B
:1042400020706F696E74657220636F72727570741E
:1042500065642C20726573657420746F20746F70B0
:10426000206F6620737461636B000A436F6E746520
:104270007874206265666F72652068617264666139
:10428000756C743A0020202072303A203078253046
:10429000386C780A20202072313A20307825303866
:1042A0006C780A20202072323A2030782530386C21
:1042B000780A20202072333A2030782530386C7804
:1042C0000A0020207231323A2030782530386C785C
:1042D0000A2020206C723A2030782530386C780A19
:1042E00020202070633A2030782530386C780A20FE
:1042F000207073723A2030782530386C780A0A00C2
:104300004653522F4641523A0020434653523A20D8
:1043100030782530386C780A0020484653523A20CD
:1043200030782530386C780A0020444653523A20C1
:1043300030782530386C780A0020414653523A20B4
:1043400030782530386C780A0020424641523A20B5
:1043500030782530386C780A004D4D4641523A206D
:1043600030782530386C780A004D69736300455801
:10437000435F5245543A2030782530386C780A0033
:10438000417474656D7074696E6720746F20726516
:10439000636F6E73747275637420737461746520D7
:1043A000666F7220646562756767696E672E2E2E70
:1043B00000496E204744423A0A2020736574202445
:1043C00070633D3078256C780A20206672616D65D7
:1043D00020300A202062740A000A49535220737464
:1043E00061636B206F766572666C6F7765642062BF
:1043F00079206174206C6561737420256420627972
:104400007465732E0A0048415244204641554C546D
:104410002048414E444C4552000000000038014005
:10442000004000000A0002400900024004010707A2
:10443000012500000044004000000200030002408B
:104440000200024004010707002600000048004067
:10445000000004000B0402400A04024004010707A4
:104460000027000000380140004000000A00024020
:104470000900024004010707012500000044004034
:10448000000002000300024002000240040107078E
:104490000026000000480040000004000B04024019
:1044A0000A040240040107070027000025700A00E3
:1044B0002A2A2A2052494F54206B65726E656C205F
:1044C00070616E69633A0A25730A0A002A2A2A2053
:1044D00068616C7465642E0A0A004641494C454483
:1044E00020415353455254494F4E2E006D61696E21
:1044F00028293A20546869732069732052494F541F
:1045000021202856657273696F6E3A203230313936
:104510002E30312E554E574453290A0069646C657C
:10452000006D61696E0001010100000000000000E3
:104530000000000000000000000300020000000076
:104540000000000000000000040500000010014011
:10455000FFFF000010000000011B000000080140E8
:10456000FFFF00000400000001190000424D453229
:10457000383020776173206E6F74207375636365C4
:104580007366756C6C7920696E697469616C6973A6
:104590006564210A0D005B4661696C65645D0A0D06
:1045A000004572726F722072656164696E672044A3
:1045B00048542076616C7565730A0D004448540AAE
:1045C0000D68756D69646974793A20257325252C09
:1045D0002054656D70657261747572653A2025733B
:1045E00020430A0D424D453238300A0D48756D6939
:1045F000646974793A2048203D2025692E25692078
:1046000025252C2054656D70657261747572653A4C
:104610002054203D2025692E256920430A0A0A0DD1
:1046200000556E61626C6520746F20726561642054
:1046300063616C6962726174696F6E206461746138
:104640000A0052656164696E672074696D65206552
:104650007870697265640A00556E61626C652074D9
:104660006F20726561642074656D70657261747528
:10467000726520646174610A002825732909006449
:1046800068745F696E69740A0043616E6E6F7420AE
:1046900064656275672C20737461636B20746F6F3F
:1046A00020736D616C6C006468745F696E69743A44
:1046B00020737563636573730A006572726F723A73
:1046C00020636865636B73756D20696E76616C69D4
:1046D000640A006468745F72656164006468745F92
:1046E000696E697400000000000000000A0000000C
:1046F00064000000E803000010270000A08601000D
:1047000040420F00809698000054004001000000D5
:1047100008040240090402400404000000002000D4
:104720000048E8011F0000000058004001000000A0
:104730000A0402400B040240040400000000400090
:104740000048E801210000004002002000000000B5
:104750000000000000000000000000000000000059
:104760000000000000000000000000000000000049
:104770000000000000000000000000000000000039
:104780000000000000000000000000000000000029
:104790000000000000000000000000000000000019
:1047A000000000000000000000000000232D302B5E
:1047B0002000686C4C006566674546470030313222
:1047C0003334353637383941424344454600303179
:1047D00032333435363738396162636465660000D8
:1047E000941200207C030020400000000000000024
:1047F00000000000000000001C45000821450008E2
:104800000101010101000000760000000101010129
:1048100009040240000000000000000040020020E7
:10482000000000006C4700088C4700084C47000857
:104830000000000000000000000000000000000078
:104840000000000000000000000000000000000068
:104850000000000000000000000000000000000058
:104860000000000000000000000000000000000048
:104870000000000000000000000000000000000038
:0448800028210000EB
:040000050800045992
:00000001FF
