:020000040800F2
:100000000002002059040008F5030008B1030008AD
:10001000050400081504000825040008000000007D
:100020000000000000000000000000009503000830
:1000300035040008000000007903000845040008AA
:1000400025010008250100082501000825010008F8
:100050002501000825010008710D0008710D000838
:10006000710D0008710D0008710D000825010008D0
:1000700025010008250100082501000825010008C8
:1000800025010008250100082501000825010008B8
:10009000250100082501000825010008710D000850
:1000A00025010008071800082501000801180008AC
:1000B0002501000825010008250100082501000888
:1000C0002501000825010008250100082501000878
:1000D00025010008B1080008B7080008BD0800089D
:1000E000710D0008ED310008250100082501000808
:1000F0002501000800000000250100082501000876
:100100002501000825010008250100082501000837
:100110002501000825010008250100082501000827
:100120002501000800F08EB900F0A0BA7047000069
:1001300070B50C46064600F089FA094B094A1D685D
:100140002C44944202D8084A944207D20C234FF020
:10015000FF35336000F082FA284670BD1C60F9E775
:100160000002002000400120C8150020194610465A
:1001700000F088BA1946104600F08CBA13230360C9
:100180004FF0FF307047132303604FF0FF3070478C
:10019000132303604FF0FF307047002302290360F0
:1001A0008CBF002001207047134A10B5146800204E
:1001B00094FAA4F28442B2FA82F208BF4FF0FF32FE
:1001C0000E4C0F4B54F822200E49126818600B6831
:1001D000A2F108049C420ED023B118790A2804BF6A
:1001E0000B2018710A23012002F8043C32F9022C7A
:1001F000054B0C601A8010BDB8020020CC02002014
:10020000C4020020C0020020BC020020092930B531
:1002100003791AD9092B14D842791A4B00F1080432
:1002200053F822507DB12D68856053F822502C6020
:1002300043F822400123144A4479A340146823431D
:100240001360017130BD8460F2E7092BF9D945795B
:100250000C4C54F825303BB11A6893420BBF002375
:10026000126844F825301A60427954F82230002B85
:10027000E7D10123044C03FA02F2236823EA0203C4
:100280002360DEE7CC020020B802002008B5094B4D
:100290001B681A79092A02D95B79834205D900F0D3
:1002A000E0F918B10122044B1A6008BDBDE808400E
:1002B00000F05AB8C0020020C402002008B500F0C7
:1002C000C5F90021084B094A1B88094C1BB242F8AA
:1002D0002310084A20681368013B1360FFF796FF5C
:1002E000216000F03DF800BFBC0200200C0300209C
:1002F000C0020020C802002013444FF0773223F0E0
:10030000030310B543F8042C5A0758BF4FF0883246
:10031000044658BF43F8082CA3F1040058BFA3F1CA
:1003200008004FF0807340E902430C4B002240F874
:100330000C3C0323022440E905320123024640E934
:1003400007340B2342F8201D42F8043D013B032BE8
:10035000FAD16FF0020340F8443D10BDBD02000821
:1003600000F078F901DFFEE7024A536843F080535A
:100370005360704700ED00E0EFF3098020E9F00FD3
:1003800040F804ED02490968086000F003F8000035
:10039000C0020020FFF708FF04480068016801C997
:1003A000B1E8F00F81F3098800470000C002002087
:1003B0000D4B0E4A0E496846904203D8984201D927
:1003C000002102E009468D460121042072460242C6
:1003D00002D1EFF3088001E0EFF309802DE9F00F7F
:1003E0006B4600F06FF800BF58010020004001206C
:1003F00000020020042008B5014900F0EBFD00BF19
:100400008C440008062008B5014900F0E3FD00BF58
:1004100098440008072008B5014900F0DBFD00BF43
:10042000AB440008082008B5014900F0D3FD00BF27
:10043000BD440008092008B5014900F0CBFD00BF0C
:10044000D14400080A2008B5014900F0C3FD00BFEF
:10045000E34400087047704708B5FFF7FBFF6A46A2
:10046000114B1249934213D3114B124A12498B423A
:1004700011D30021114B124A934211D3FFF7EBFF26
:1004800000F09AFD03F036F8BDE8084000F0D4BD56
:1004900043F8041BE6E752F8040B43F8040BE6E7C5
:1004A00043F8041BE8E700BF00000020FEE7FEE77A
:1004B00000020020B0490008B8020020B802002065
:1004C000C81500202DE9F04F8FB00A93494B924692
:1004D0009A6B044603925A6B9F6A0492DA6A8946C1
:1004E00005921A6BDB6B06920793434B1A68434BDA
:1004F0009A4202D0424803F0BDF8B9F1000F4FD044
:100500000025404803F0B6F82E463F4803F0B2F805
:1005100039463E4803F028F805993D4803F024F891
:1005200006993C4803F020F807993B4803F01CF873
:100530003A0403D50399394803F016F83B0603D56E
:100540000499374803F010F8364803F093F8514601
:10055000354803F009F8B9F1000F1CD1334803F016
:1005600089F83146324802F0FFFF6946314BC91A1B
:1005700003D53148494202F0F7FF0A9E20468268BF
:10058000C36801698C4641698E46AD46314691E8A3
:10059000F00F4168006801BE0520284900F01AFDEF
:1005A0002069D4E906680890606918F4007F099012
:1005B0002348D4E900B2D4E9023108BF04F1200590
:1005C000CDE90C3118BF04F124050B9203F052F869
:1005D000DDE90B230D991B480091594602F0C4FF39
:1005E000DDE908123346CDF80080174802F0BCFF61
:1005F0008BE700BF00ED00E000000020FEE7FEE713
:10060000F144000807450008CC450008D54500081E
:10061000E5450008F54500080546000815460008B0
:1006200025460008354600083A4600084C460008B2
:100630007D46000858010020A5460008D246000863
:1006400036450008514500088E450008EFF310803C
:1006500072B6704762B6EFF31080704780F310886F
:100660007047EFF30580C0B2704700004FF4E131EE
:100670000020024B024A00F0B9B800BF040200207B
:10068000511200080A460146014800F0ECBD00BFC7
:100690000402002010B50C460A460146002000F076
:1006A0006DF8204610BD0000182343430D4A70B575
:1006B000D45823889A069DB209D50C2358430A4A78
:1006C000A18813181E7A12583140586890472B079A
:1006D00048BFA388054B1B681BB1BDE87040FFF7FE
:1006E00043BE70BDE8460008D0030020C4020020CD
:1006F0002DE9F041182444431F4E0D4606EB040833
:1007000098F81470384600F027FFB0FBF5F0072882
:1007100008D83846D8F8041000F046FF6FF0010002
:10072000BDE8F08133590F289A8922F400524FEA2C
:1007300002424FEA12429A819989C2B211D86FEAF5
:1007400041416FEA5141083A89B242F01002998161
:10075000D2B21A819A89002092B242F400529A8150
:10076000DEE7C1F30E0199814FF6F07102F00F023E
:1007700001400A43EDE700BFE8460008022810B533
:1007800003D903200C4900F025FC182358430B4BD8
:100790001B589889000705D50A44914203D11A884D
:1007A0005206FCD510BD11F8010B1C882406FCD59F
:1007B00080B29880F1E700BFA6470008E84600082D
:1007C000022808B503D90320064900F003FC1822CB
:1007D000054B02FB0030BDE808404168007D00F099
:1007E000CBBE00BFA6470008E846000802282DE956
:1007F000F84304460F46164603D90320284900F063
:10080000E9FB0C22182562432648DFF89C808118FA
:100810004B60FF2305FB0485D5F80C9086500B72C6
:100820004846697C00F080F9484600F029FA4846BD
:10083000E97C00F0B6F94EB1D5F80890297C48461D
:1008400000F072F94846A97C00F0ABF92046FFF7AA
:10085000B7FF1823634358F8035008EB030900233C
:100860003946AB8120462B82AB82FFF741FF9EB118
:1008700099F9153099F81520002B07DB02F01F01BC
:1008800001228A4009495B0941F8232042F22C03E6
:100890000020AB81BDE8F88342F20803F8E700BF0F
:1008A000A6470008D0030020E846000800E100E069
:1008B0000020FFF7F9BE0120FFF7F6BE0220FFF788
:1008C000F3BE00007D4B01282DE9F74F187006D0CC
:1008D000022820D04FF0FF3003B0BDE8F08F784BF6
:1008E0001A6842F00E021A601A6842F400721A6026
:1008F0005A6842F4E0625A60724A136943F0040392
:100900001361FFF7A3FEBFF34F8F30BFFFF7A6FEC3
:1009100000F022FDDEE76A4B6B4F1A68DFF8AC91FE
:1009200022F002021A601A68DFF8A48142F0040281
:100930001A601A68674E42F001021A601A68B246DD
:1009400042F400721A605F4AC3461369624C43F076
:1009500004031361FFF77AFE4B4605463A462046EC
:10096000CDE9002300F028FCDDE900235B490028E5
:1009700073D15B4C0023A246DFF868B1DBF80000BE
:10098000818911F400517AD08189009321F40051BA
:100990000904090C81810421DBF80C0000F0C4F883
:1009A0000122009B22700133032B0BF1180B04F181
:1009B0000104E3D14FF48051012000F00FFE012823
:1009C0000FD1494B1B889A075BD40821474800F098
:1009D000ABF80821464800F0A7F80321454800F08D
:1009E000A3F84FF48041002000F0F8FD01280FD15A
:1009F000414B1B889B0746D40821404800F094F8DF
:100A000008213F4800F090F803213E4800F08CF8A0
:100A1000BFF34F8F30BF00F09FFC2F4CDFF8BCB00E
:100A2000204600F0C9FB80BB9AF800302BB1364A53
:100A300093899BB243F4005393819AF801302BB110
:100A4000324A93899BB243F4005393819AF802305F
:100A500063BB2846FFF702FE3CE7206842F8040B20
:100A6000E06843F8040BA0882BF8020B208D04F5F6
:100A700080648C422AF8020B7FF471AF79E7217011
:100A800091E70421A2E70421B7E759F8043BE360AA
:100A900038F8023BA38057F8043B236036F8023B4A
:100AA000238504F580645C45BAD1BDE7184A938973
:100AB0009BB243F400539381CBE700BF570400205F
:100AC0000070004000ED00E0040400203404002029
:100AD00024040020F4030020000002400020024013
:100AE0005404002030470008003001400500024057
:100AF0000700024006000240003800400D0402409A
:100B00000F0402400E04024000380140004400403F
:100B10000048004008B5FFF799FD0022014B1A700C
:100B200008BD00BF57040020F8B5431C0C4637D061
:100B3000012620F00F0500F00F07C0F3832006FA0E
:100B400000F1022000F018FDFFF780FD03232A6862
:100B500007FA06FC03FA0CF304F0030122EA03028D
:100B600001FA0CF111432960E968C4F3810221EA1A
:100B7000030102FA0CF20A43EA60AA88BE4092B26C
:100B8000C4F3001422EA0602BC401443A4B2AC80B1
:100B9000AA68B6B21343AB602E85FFF75FFD002055
:100BA000F8BDF8B5431C04460D4624D020F00F06CE
:100BB00000F00F07FFF74AFD0323326879008B40EE
:100BC00022EA030202238B401343072F33608CBFBA
:100BD000042300231E440F2304F00704316AA400F9
:100BE000A34021EA030105FA04F40C433462BDE892
:100BF000F840FFF733BDF8BD431C10B518D0C0F363
:100C000081020C4B023253F822300F2200F0030114
:100C1000890000F00F048A40C0F383201A40884006
:100C2000824205D10123044AA34011680B4313609B
:100C300010BD00BF0000014000040140431C10B57E
:100C400019D00D4BC0F38101023153F821100F234D
:100C500000F00302920000F00F049340C0F38320E1
:100C60000B409040834206D101220449A2400B6808
:100C700023EA02030B6010BD0000014000040140A4
:100C8000431C07D0012320F00F0200F00F0003FAED
:100C900000F090617047431C08D0012320F00F0240
:100CA00000F00F00103003FA00F090617047000070
:100CB0002DE9F0418846012105461646294A00F0F3
:100CC0000F0442F83430069B02EBC4025360C0F3B9
:100CD0008327084600F050FC41462846FFF724FFD2
:100CE000042C214B34DC0122A11D8A401A60012210
:100CF0001E4BA240996805F0030521EA02019960A4
:100D0000986806F00101A14001430F209960D9685D
:100D1000760821EA0201D960D968A64004F00C04E3
:100D20000E4304F18044DE6004F58034A168AD0018
:100D3000A84021EA0001A160A16807FA05F50D436A
:100D4000A5605A61196800200A431A60BDE8F08165
:100D5000092C02DC4FF40002C8E74FF480725A609D
:100D6000C5E700BF5804002000E100E00004014096
:100D70002DE9F04100244FF001080D4F0D4D7E6923
:100D80003B681E4008FA04F3334203D07B61D5E987
:100D9000003098470134102C05F10805F2D1064BBC
:100DA0001B681BB1BDE8F041FFF7DEBABDE8F0817A
:100DB0000004014058040020C4020020002000F07C
:100DC000C7BC000038B5044C2568FFF7F7FF23685F
:100DD000AB42F9D1184338BDE0040020034B196839
:100DE00019B982B2084600F08FBC7047D8040020C1
:100DF0002DE9F043294E336803F5803333603368BF
:100E00001BB9274A1368013313600020254B264D78
:100E10001A6818602B6884461946244FDFF880E072
:100E2000DFF88C803A6029B1DEF80040D1F80890F4
:100E3000A14517D900B12960BCF1000F10D00021E5
:100E4000CCF800103AB3C3B1546859688C4294BFCF
:100E500010461846014612681B6882B90B6038605C
:100E6000BDE8F0834C68D6F8009004EA08044C45CD
:100E7000E0D18C4601200968D5E71046EAE70BB9B6
:100E80000A60ECE756685D68AE4294BF14461C46A3
:100E90000C602146DFE73B60E2E700BFE004002092
:100EA000DC040020E8040020E4040020EC0400201E
:100EB0000000FFFF2DE9F041002965D10123334FE8
:100EC000334D3B602B68CBB9FFF792FF4FF6FF74B1
:100ED000FFF774FFA042FBD000244FF000082B68FE
:100EE00083B9FFF76BFF1430844228D9FFF780FFE6
:100EF000FFF764FF8442FBD30024F0E7FFF75EFFB7
:100F00000446EAE75E68FFF759FF844205D8B3B2AA
:100F1000834202D91B1A132BE3D82B685E68FFF7B4
:100F20004DFF844202D8B6B28642F6D82B681A68C2
:100F3000C3E901882A60D3E903209047CFE72B68F3
:100F40006BB15E68FFF73EFF063E14308642C6D3A3
:100F5000002330463B60BDE8F041FFF73FBFFFF79D
:100F60002DFF8442064602D9FFF742FFC4E700F195
:100F700014039BB2984204D9FFF720FF8642FBD9A5
:100F8000F2E74FF6FF76E3E7BDE8F081D8040020F2
:100F9000EC04002008B50023054A1846054900F076
:100FA000EBFBBDE808404FF0FF30FFF717BF00BF75
:100FB000B50E000840420F0008B500F087F9BDE803
:100FC000084001210148FFF7AFBD00BF0004024007
:100FD0007047000008B50C4B0C461A6872B9012224
:100FE00003281A6003D17146084802F0BDFA214671
:100FF000074802F0B9FA074802F0B6FAFFF726FBF5
:10100000FFF7E6FFFFF786FDF004002078470008B1
:101010007C4700089847000808B500F0ABFC03487F
:1010200002F0A2FA00F022FC002008BDB847000838
:1010300008B500F02BF9FCE71FB50024FFF706FB0D
:101040000D4B0F221B684FF4807102930B4B0C4821
:10105000009301940C2300F033F80A4B07221B681D
:101060004FF44061CDE90143074B084800930C233E
:1010700000F026F8FFF774F918020020311000087C
:10108000F40400201C02002019100008F4050020C0
:1010900038B50B79092B03D903200849FFF79AFFCC
:1010A0004C7901F108020346006818B110F8035C9E
:1010B000A542F8D988601A6038BD00BFA64700086D
:1010C0000F2A2DE9F74F05468A469046994637D8AC
:1010D00010F003030FBF0B46C3F10402043B5B187F
:1010E000A3F1300318BFAD1823F0030319F0080F64
:1010F00005EB03041AD12D6003E012600432A24212
:10110000FBD30193FFF7A2FA012207462849019B6E
:1011100051F822600FFA82FBAEB10132212AF7D1D9
:101120003846FFF79BFA6FF08A0B3CE02A46E6E769
:1011300001212046FFF76AF83846FFF78FFA32E0C0
:101140006FF0150B2FE041F822402A46DDE90C0133
:10115000A4F806B0FFF7D0F80E9B164AA3624FF032
:10116000FF33C4E90736136819F0010F03F10103D7
:101170002060C4E90266C4E904666562C4F82CA074
:1011800084F805802671A6611360D1D10B21204619
:10119000FFF73CF819F0040FCED13846FFF75EFA9E
:1011A0004046FFF773F8584603B0BDE8F08F00BF24
:1011B0000C030020C80200200C4B9A6A42F4004243
:1011C0009A62EFF3138171B65A6942F480725A61E0
:1011D0000278986A5A6922F480725A6181F31388FE
:1011E00080F40040C0F3C030704700BF00ED00E065
:1011F000F8B505460F46164604463C442046FFF720
:10120000DBFF631B08B19E42F7D81846F8BD00000B
:101210000C4B0D4A102110B59A6000220B4C83F83C
:101220002210D977A0180132392A80F80013F9D199
:101230001A6942F010021A615A6942F400725A6146
:1012400010BD00BF00ED00E00000000800E100E07C
:1012500038B5054600F0F6FA044605F1100000F036
:10126000C1FB204638BDF8B504460D46164600F1D0
:10127000100732462946204600F0D1FA00B1F8BDE9
:101280000121384600F07EFBF3E7000073B50E4EF7
:101290003368019304230DEB03021D46013B995C67
:1012A00011B9002BF9D11D46FFF7D0F93368019A27
:1012B00004469A4202D168B2FFF704FB204602B00E
:1012C000BDE87040FFF7CAB9200200202DE9F047C1
:1012D000FFF79EFF4FF08051002000F04DF900F025
:1012E0003BF81A4BFF210220DE69002500F044F98B
:1012F0006FF0A8474FF0FF386FF4A079F6B2AC0258
:1013000004F1804404F5003420465FFA85FAFFF7C3
:1013100053FF50B12DB1BAF1010F14D0C4F80080C1
:1013200000E027600135082DE9D1084B0220D9697A
:1013300021F0FF01314300F01FF900F096FABDE8FB
:10134000F04700F063B9C4F80090EBE700380240C2
:101350000138FDD170470000774B37B51A68774DDB
:1013600042F480721A609A6822F47F5222F03002AE
:101370009A609A6822F0EE429A609A6822F003021C
:101380009A6019686E4A0A4000211A60D9602A687A
:10139000022A00F0AF80B2F5003F1A6842F48032B2
:1013A0001A6040F0AC8064490A682B681A42FBD08E
:1013B000644B1A6842F004021A601A6842F0010293
:1013C0001A601A6842F002021A609A691207FCD584
:1013D0004FF08051002000F0CFF85B4B1A6800926C
:1013E000009A22F4C0520092009A42F400620092E5
:1013F000009A1A605A68D406FCD44F4C06206368E1
:101400000093009B23F460430093009B43F440430C
:101410000093009B6360FFF79BFF236843F0010389
:101420002360A36823F47D03A360A36843F400034F
:10143000A360236843F08073236023689801FCD580
:101440001A20FFF785FF236823F0807323603A4B4F
:101450001A689101FCD49A6822F47D029A602A6885
:10146000B2F5003F9A680CBF42F4050242F408024C
:101470009A60314B1A6842F080721A601A689201C1
:10148000FCD540F201129B6830490093009B23F089
:10149000030300932B68B3F5003F08BF1146009B80
:1014A00043F003030093009A234B9A609A6802F07A
:1014B0000C020C2AFAD11A6822EA01021A602449A5
:1014C000244A11629A680092009A22F0F002009277
:1014D000009A0092009A22F4E0620092009A009230
:1014E000009A22F460520092009A0092009A9A6048
:1014F00003B030BD1A6842F001021A6053E74FF49E
:10150000003242F210702A60019119682A68114273
:101510007FF449AF019A01320192019A8242F4DDCF
:101520001A6842F001021A601A6822F480321A60C6
:1015300002232B6037E700BF00380240F41100207F
:10154000FEFFFAEE003C0240007000400001010086
:101550000048E801F8110020014B186A704700BFED
:10156000F8110020024A034B1B5C106A5843704775
:10157000F8110020F2470008012809D002280CD0F9
:1015800018B9084A536A19435162BFF34F8F704725
:10159000044A136A19431162F7E7024AD3691943EF
:1015A000D161F2E700380240012808D002280CD0AF
:1015B00080B9094A536A23EA010151627047064A19
:1015C000136A23EA010111627047034AD36923EACF
:1015D0000101D161704700BF00380240012809D0E5
:1015E00002280AD060B9084B5B6A0B4214BF012085
:1015F00000207047044B1B6AF7E7034BDB69F4E7F5
:101600004FF0FF30704700BF0038024038B54FF44C
:10161000A0324FF480614FF00050FFF7E9FD042540
:10162000144C4FF400224FF4806120604FF00060B2
:101630002571FFF7DDFD4FF48073A060000A4FF4C1
:101640008042E0604FF400610B4823612575FFF78D
:10165000CFFD0A4B25771B68A061C3F30B03A3F2F0
:101660001643212B8EBF0023054AD35C84F8243017
:1016700038BD00BFF811002000000808002004E079
:10168000F44700082DE9F843074600241B4A0301EC
:10169000D658DFF86C90338AB58909EBC008ADB233
:1016A0001D40022303FA04F22A420AD0B3892146DC
:1016B0009BB223EA0203B381D8F8040059F837300B
:1016C00098470123A3402B420BD0338A214623F0B5
:1016D00001031B041B0C3382D8F8040059F837307F
:1016E00098470134042CDCD1064B1B681BB1BDE8C4
:1016F000F843FEF739BEBDE8F88300BF184800087C
:1017000020120020C4020020032910B51ADC0F4B60
:10171000040103EB00101C59436800201A4001F13A
:101720000C0304EB83035A60238A9AB2022303FA60
:1017300001F109B222EA01032382A389194389B284
:10174000A18110BD4FF0FF30FBE700BF1848000833
:10175000024B00011B58586A704700BF1848000828
:10176000044B00011A5813889BB243F00103138005
:10177000704700BF1848000801282DE9F8430446C7
:101780000F4633D81B4D1C4E45F8302005EBC005E5
:101790006B6006EB001595F80C80A9684FEA0019FC
:1017A0004046FFF7E9FE002356F8096040463380C3
:1017B000B3806B68F362FFF7D5FEB0FBF7F0012250
:1017C00095F90D30013880B2002B3085697BB282EB
:1017D00006DB01F01F018A4008495B0941F823201C
:1017E0002046FFF7BDFF0020BDE8F8834FF0FF3033
:1017F000FAE700BF201200201848000800E100E0CE
:101800000020FFF73FBF0120FFF73CBF826801685F
:10181000531C83604368013B1340C85C7047F8B5B4
:1018200004460F46164615461DB1A268E3689A4263
:1018300001D1701BF8BD2046FFF7E8FF013D07F816
:10184000010BF1E7C26830B584684368121B9A4205
:1018500008D0C2680468551CC5600020013B1340D5
:10186000E15430BD4FF0FF30FBE770472DE9F04108
:101870003149324800F0B8FF10B9314801F0FAFEA2
:101880002E4800F0D7FD2F4D2F4F4FF000040A22B5
:1018900000212E482C703C7001F05EFE274800F0BD
:1018A000B1FD0028F3D13B462946284A234800F0E1
:1018B0008DFE044618B1214800F0BCFDE5E729780B
:1018C000234801F051FE214EDFF888802B78A34297
:1018D0000FD8214E214801F047FE4FF48072314667
:1018E000164800F00DFE01280AD11D4801F0C2FE85
:1018F000CBE7404616F8011B01F036FE0134E5E760
:10190000184801F031FE3188174849BA89B201F010
:101910002BFE0224DFF85480315D4046013401F093
:1019200023FEB4F5807FF7D1114801F01DFE0021A0
:10193000662000F08FF8A8E7240200203013002072
:101940003848000860130020611300206213002053
:101950005A4800086A48000830120020574800081A
:1019600070480008884800088F4800089F48000811
:10197000A447000808B5FFF70DFBBDE8084000F0DC
:10198000C3B9000070B504460D46FEF75FFE23683C
:1019900006463BB94FF0FF332360FEF75FFE01259B
:1019A000284670BDC5B10E4B02211D682846FEF7C2
:1019B0002DFC236801330AD105F1080323600023BD
:1019C000AB603046FEF74AFEFEF7CEFCE7E729465D
:1019D0002046FFF75DFBF4E7FEF740FEE0E700BFBF
:1019E000C002002070B50446FEF730FE25680646AA
:1019F0001DB9BDE87040FEF731BE6B1C02D100235B
:101A00002360F6E7284650F808390B212360FEF7DB
:101A1000FDFB236813B94FF0FF33236015F8034C27
:101A20003046FEF71BFE2046BDE87040FEF72EBC98
:101A3000FFF7D8BF38B5044601F096FB0546C4F35E
:101A40000E0401F091FB431BC3F30E039C42F8D834
:101A500038BD000030B587B004460D46FEF701FEE4
:101A600050B11DB103200F49FFF7B4FA204607B06B
:101A7000BDE83040FFF7DEBF0B4BCDE90200009020
:101A8000012168460493CDF814D0FFF77BFF2A4666
:101A9000214601A800F0E2F901216846FFF772FF34
:101AA00007B030BDA6470008311A000838B5044C0D
:101AB000256801F059FB2368AB42F9D1184338BDC2
:101AC00074130020044B1A6822B90449C0F30E00B5
:101AD00001F05ABB704700BF6C130020D11B0008F7
:101AE00010B5094A136843B19C6881688C4207D3DA
:101AF00003D15C6841688C4202D90360106010BD5C
:101B00001A461B68EFE700BF781300202DE9F04369
:101B1000294E336803F50043336033681BB9274A05
:101B20001368013313600020254B264D1A68186096
:101B30002B6884461946244FDFF880E0DFF88C805C
:101B40003A6029B1DEF80040D1F80890A14517D9D4
:101B500000B12960BCF1000F10D00021CCF80010BA
:101B60003AB3C3B1546859688C4294BF10461846C2
:101B7000014612681B6882B90B603860BDE8F083CB
:101B80004C68D6F8009004EA08044C45E0D18C4635
:101B900001200968D5E71046EAE70BB90A60ECE7CF
:101BA00056685D68AE4294BF14461C460C602146E0
:101BB000DFE73B60E2E700BF7413002070130020F2
:101BC0007C13002078130020801300200080FFFF8A
:101BD0002DE9F04101F0C8FA0123324F324D3B604C
:101BE0002B68044683B14FF000082B68B3B901F0AD
:101BF000BBFA0330844230D9FFF788FF01F0B4FA12
:101C00008442FBD30024F0E7FFF780FF47F6FF7420
:101C100001F0AAFAA042FBD00024E4E75E6801F0DC
:101C2000A3FA844206D8C6F30E03834202D91B1AD4
:101C3000022BDCD82B685E6801F096FA844203D848
:101C4000C6F30E068642F5D82B681A68C3E90188E8
:101C50002A60D3E903209047C7E72B6863B15E6829
:101C6000FFF724FF03308642BFD3002330463B609A
:101C7000BDE8F041FFF726BF01F076FA8442064640
:101C800002D9FFF743FFBDE7C31CC3F30E0398421D
:101C900004D901F069FA8642FBD9F2E747F6FF76EC
:101CA000E3E700BF6C13002080130020134A136881
:101CB00083420FD11B68136013B15868FFF702BF4E
:101CC00047F6FF70FAE7984202D103681360704745
:101CD0001A461B68002BF6D1094A13681BB9094A3A
:101CE00013682BB970479842EFD01A461B68F5E786
:101CF0009842EAD01A461B68F3E700BF8013002021
:101D00007C1300207813002008B501F0D9F9BDE854
:101D100008404FF0FF30FFF7D5BE0000F8B504468D
:101D20000D46FFF7C3FE002323602B1A032B064644
:101D30000ED8C5F30E0501F017FA8542FBD301F06A
:101D400013FA8542FBD8D4E9033098470020F8BD48
:101D5000FEF77CFC636807460BB9A36813B1204605
:101D6000FFF7A4FF47F6FE731F4AAB4308BF023DCF
:101D70001368AE4288BF0133A3601368A268656030
:101D80009A4207D8194B1A6825F4FF4323F07F03C2
:101D90009A4206D02046FFF7A3FE3846FEF75EFCC7
:101DA000D4E7C6F30E06B5420FD9114B19461A688F
:101DB00012B15068854214D222601C600B689C42AC
:101DC000EBD12846FFF77EFEE7E70A4A136813B116
:101DD00059688D4202D223601460DEE71A461B6800
:101DE000F5E713461268E3E7701300207413002030
:101DF000801300207C13002038B50446FEF726FC33
:101E0000636805460BB9A36813B12046FFF74EFF80
:101E10002846BDE83840FEF721BCC36870B50446CB
:101E20000D46D3B1FFF7E8FF022D0ED801F09CF963
:101E3000064601F099F9831BC3F30E039D42F8D8BF
:101E4000D4E90330BDE870401847FFF72FFE29188A
:101E50002046BDE87040FFF761BF70BD2DE9F04737
:101E600004460E4615461AB9BDE8F047FFF7D5BF40
:101E7000FEF7ECFB636807460BB9A36813B1204675
:101E8000FFF714FFDFF83090FFF710FED9F800A03D
:101E90008046FFF70BFE8045F6D83618554428BF1C
:101EA000013520466660A560FFF71AFE3846BDE89A
:101EB000F047FEF7D3BB00BF7013002010B41A4CDC
:101EC0002288B2F5807F07D94FF4807300222380E7
:101ED000164B1A7010BC7047531C9BB22380144CD5
:101EE000A1542278552A09D1104A9178022902D0AA
:101EF00001231370EEE7032BECD1F9E7012BE9D0B6
:101F00000A4A9178022905D1836A002BE2D0C06A7F
:101F100010BC18476178023B8B42DBD10123137060
:101F20009378002BD6D1EFE7841300204C020020D9
:101F3000901300204FF47A7380020021B0FBF3F07D
:101F4000FFF788BD2DE9FF41002504460E461746E0
:101F5000C16898462A460223007A8DF80F5001F096
:101F6000E1F90122E168CDE90052207A0DF10F0379
:101F700001F02AFA33462A46CDE90057E168207A73
:101F800001F022FAB8F1000F02D0207A01F008FA2D
:101F90000025074B3A46294630461D705D7001F01A
:101FA000DBFA6069FEF728FE284604B0BDE8F08140
:101FB0004C0200202DE9FF4717464FF0020A4FF070
:101FC00000091C46DFF8A480054640690E468DF8DE
:101FD0000FA0A8F80090FEF731FEB7F5807F28BF6C
:101FE0004FF480772CB153464A46E968287A01F0CD
:101FF00099F9DFF87CA03A460021304601F0ACFAAE
:102000009AF8013003F0FF046BBB4FF00109E96857
:102010004A46287A0DF10F03CDE9004901F0D4F9C1
:1020200023462246E968287ACDE9006701F0CCF919
:10203000287A01F0B5F93378552B0AD19AF8023095
:10204000A8F80090022B02D10323A8F80030204604
:1020500006E07478A01CA8F80000201B18BF01201F
:1020600004B0BDE8F0870220FAE700BF8413002027
:102070004C02002070B500240D4616464078FEF74D
:102080007DFB094B3246214628461C705C7001F0EE
:1020900063FA4FF480722146044801F05DFA044B64
:1020A00020461C8070BD00BF4C0200209013002011
:1020B000841300200B4B10B55A7802F0FF0072B960
:1020C0009A78022A05D1084A1488022C01D110807E
:1020D00010BD0A780020552A08BF9B78F8E7022037
:1020E000F6E700BF4C02002084130020012370B5E6
:1020F000094D04462B70AB78022B03D1836A0BB1D8
:10210000C06A9847AB782BB9A36A1BB1E06ABDE8F7
:102110007040184770BD00BF4C02002038B504461F
:102120000020FFF715FB05460020FFF711FB431BBE
:102130009BB29C42F8D838BD10B504460069FEF742
:102140009FFD4FF47A70FFF7E9FF2069FEF7A3FDCA
:102150004FF47A70FFF7E2FF2069BDE81040FEF708
:102160008FBD00002DE9F047DFF87080D8F80040FF
:1021700000F0FAFFD8F800309C42F7D100234FF46A
:102180007A76174F0443FA207B7041F28839FFF7C3
:10219000C5FF4FF0010AA4FB0654AD0A45EA845579
:1021A0003B780BB97B780BB1BDE8F087D8F80040DD
:1021B00000F0DAFFD8F800309C42F7D10443A4FBCA
:1021C0000640A30A43EA80535B1B4B454FF0FA00DD
:1021D00088BF87F801A0FFF7A1FFE1E77413002093
:1021E0004C02002030B40025034C2580034C2468A9
:1021F000A44630BC604700BF841300208C1300202D
:10220000072330B40D460F4918240B700E23CC71F0
:102210004B7002240323F8228B704C72A12360249C
:10222000CB704A71002301228C72CC723F248A71D8
:10223000CA730B710B720B734D738C73102230BC0D
:10224000FFF7D0BF9014002010B4024C2468A446BD
:1022500010BC60478813002038B5552304460C494C
:102260000C4D0B7001220023FFF7BCFFFFF77AFF34
:1022700000234FF4807229462046FFF7E5FF28B976
:102280002B78552B0CBF0020022038BD0120FCE725
:10229000901400209013002070B504461A4E0021BF
:1022A000FFF7AEFFFFF75EFF00234FF48072314669
:1022B0002046FFF7C9FF20BBB378022B21D1FC21B8
:1022C0002046FFF79DFFFC25FFF74CFF00234FF44E
:1022D000807231462046FFF7B7FF90B9B378022BE2
:1022E00005D1FC2384F8245084F8253070BD012BDF
:1022F00007D1043DEDB229462046FFF781FF002DAE
:10230000E2D10120F2E700BF9013002070B509264A
:102310000546144C04986170A2702670E37003782F
:102320000429237108BF437801F1020108BF6371DA
:102330000D4CCAB200230B492846FFF753FFFFF7A5
:1023400011FF00234FF4807221462846FFF77CFFDF
:102350002378627813431843C0B2003818BF0120B5
:1023600070BD00BF901400209013002038B5552395
:102370000F4905460B7001230E4C1A46FFF732FF3A
:10238000FFF7F0FE01234FF4807221462846FFF745
:102390005BFF2378552B09D16378852B06D1A37871
:1023A0001843C0B2003818BF012038BD0120FCE737
:1023B00090140020901300201FB5012342EA01125F
:1023C0008DF80D2003AA0092042168228DF80C30AC
:1023D000FFF79CFF003818BF012005B05DF804FB33
:1023E0001FB58DF80C10042103AB00933A22002393
:1023F0008DF80D10FFF78AFF003818BF012005B0D7
:102400005DF804FB38B50124084B094D9C704FF46E
:10241000807223462946FFF717FF20B9A8780238B3
:1024200018BF012038BD2046FCE700BF4C02002049
:1024300090130020F8B5144DAA7822B3072313494E
:1024400018220B700E23CA714B70202202234A728D
:102450008B70602221238A72CB70CA7279233F224B
:1024600000244B718A730123082290F8247090F89D
:102470002560CA730C7110228B710C720F734E732E
:10248000FFF7B0FEAC70F8BD4C02002090140020A5
:1024900038B50446002510460222174B1A705D70AD
:1024A0009A70D1B9D970154D13495A70204600233E
:1024B0000232FFF797FEFFF755FE00234FF48072BC
:1024C00029462046FFF7C0FE2B786A78134318434D
:1024D000C0B2003818BF012038BD042809D10A78DD
:1024E000DA704A781A718A785A71CA789A71052214
:1024F000D9E70120F0E700BF9014002090130020DE
:1025000070B50D461646002101220446FFF7C0FFB4
:10251000012801D1012070BD01220D212046FFF7C5
:102520004BFF0128F6D0324629462046034B00F0E7
:1025300097FC003818BF0120EDE700BF9013002082
:102540002DE9F0479A460423144681461D4E0F4656
:102550003370B01C531C089DBDF82480737000F0CC
:10256000EDFFA21CD2B206F802A0E21C0023314605
:10257000D2B24846FFF736FEFFF7F4FD002342468D
:1025800029464846FFF760FED0B92B78802B09D04A
:10259000902B09D1AB780A2B00D08BB9E87824387E
:1025A00018BF0120BDE8F0873A78502A08D0A02B48
:1025B00006D16A784146044802F5807200F0D4FFE3
:1025C0000120EFE790140020A24800082DE9F7430E
:1025D0001B4D9846AB780446022B0E4617460ED08C
:1025E00000224FF001091146204685F80290FFF7BE
:1025F0004FFF48450AD1012003B0BDE8F083012315
:10260000AB70FFF7B3FE0028EAD0F4E74A460D218D
:102610002046FFF7D1FE0128EDD00525DFF82490F4
:102620003B46324649462046CDF8008000F0FEFC8D
:102630000028E1D0013D15F0FF05F1D1DBE700BF37
:102640004C0200209013002073B506460D46044648
:102650000FCD0FC60FCD0FC695E8030000252B4BFD
:102660002B4A86E803001A602A4B2B4A1521A069E1
:10267000E562A5841A60FEF757FA15212069FEF776
:1026800053FA0121206AFEF74FFA244E206AFEF722
:10269000F7FAA069FEF7F4FA2069FEF7F1FA642070
:1026A000FFF748FC206AFEF7F6FA0A20FFF742FC23
:1026B0002046FFF741FD207A00F0E2FDE168207A34
:1026C00000F000FE10B1012002B070BD33460222BE
:1026D000042160690094FEF7EBFA6069FEF7AEFA38
:1026E0000A20FFF727FC01352046EDB2FFF7B4FDC5
:1026F00010B1052DCAD1E6E7052DE4D02046FFF73D
:10270000CBFD003818BF0120DEE700BF8C1300208E
:10271000451F000888130020B51F0008ED200008A1
:1027200070B506460D4604460FCD0FC60FCD0FC639
:1027300095E803000025274B274A86E803001A6026
:10274000264B274A1521A069E562A5841A60FEF789
:10275000EBF90121206AFEF7E7F9224E15212069E5
:10276000FEF7E2F9206AFEF78BFAA069FEF793FA0A
:102770002069FEF785FA6420FFF7DCFB206AFEF78C
:102780008AFA0A20FFF7D6FB2046FFF7D5FC07217F
:102790002069FEF706FA2346324661686078FEF744
:1027A00025F808B1012070BD0A20FFF7C3FB0135F1
:1027B0002046EDB2FFF750FD10B1052DCED1F1E767
:1027C000052DEFD02046FFF767FD003818BF012028
:1027D000E9E700BF8C130020752000088813002053
:1027E000B5200008BD1E00080322064B9A700B7826
:1027F000022B01D1FFF728BF012B01D1FFF790BFBA
:10280000012070474C020020800903D10422084BAC
:102810009A707047012804D10722054B00209A7056
:102820007047022802D10A22014BF7E701207047C6
:10283000901500207FB50C4649780546022908D935
:10284000A37813F0C00206D1214411F8053C902B67
:1028500005D001200CE0802A0CD1002008E011F8FE
:10286000040C0028F5D1184A137883F00103137083
:1028700004B070BDC02AECD120268DF80C30E3786E
:1028800002228DF80D30CDE90046282303A9FFF779
:1028900057FE0028DDD121462846FFF7CBFF002850
:1028A000E6D0282302222846CDE9004603A9FFF7F7
:1028B00047FE0028CDD121462846FFF7BBFF003850
:1028C00018BF0120D4E700BF4F02002000232DE9EC
:1028D000F047DFF8BCA086B0CDE90233CDE9043380
:1028E0009AF800304FF020088DF8083002234FF09E
:1028F000B009CDE900188DF80D300C4628230622CA
:1029000002A907468DF80A90FFF71AFE054618B18E
:10291000012006B0BDE8F08721463846FFF78AFF60
:102920000128F5D0B4F803309AF80020194E5BBAAC
:10293000A6F80F308DF808208DF80D3006222823D8
:102940003846CDE9004802A98DF809508DF80A9063
:102950008DF80B508DF80C50FFF7F2FD0028D7D101
:1029600021463846FFF766FF0028D1D1A3895BBA1C
:10297000A6F81330E3885BBAA6F8153023895BBA52
:10298000A6F81730E3895BBAA6F81930C1E700BF93
:102990004F02002090150020002330B587B002932D
:1029A000CDE90433154B0C461B7805468DF80830ED
:1029B000A4238DF80A300C238DF80C3002238DF8F7
:1029C0000D300F4BB3F813301A0A8DF80E208DF826
:1029D0000F3008222023CDE9001328230DEB02013C
:1029E000FFF7AEFD40B921462846FFF723FF003828
:1029F00018BF012007B030BD0120FBE74F020020C7
:102A00009015002070B500241C4B05469A88186864
:102A10009B7988B08DF80E30194BCDE904441B78B2
:102A2000ADF80C208DF81030A42307228DF8123059
:102A300004230E46029002A90DF116008DF8133002
:102A40008DF81520CDE9064400F078FD20230E22F4
:102A5000CDE900632846282304A98DF81D40FFF71F
:102A60006FFD40B931462846FFF7E4FE001B18BF52
:102A7000012008B070BD0120FBE700BFC44800087A
:102A80004F020020002330B589B0CDE90433CDE9F1
:102A9000063340F2E133ADF80C30154B02221B78BF
:102AA00004468DF81030A4238DF812300C230D4607
:102AB0000DF116000DEB03018DF814308DF8152083
:102AC00000F03CFD20230822CDE9005320462823B6
:102AD00004A9FFF735FD40B929462046FFF7AAFEB5
:102AE000003818BF012009B030BD0120FBE700BF4E
:102AF0004F02002030B504460846114600221D460C
:102B0000702387B0CDE90222CDE904228DF80800B8
:102B100005220DF10A008DF8093000F00FFD202389
:102B20000722CDE900532046282302A9FFF708FD1C
:102B3000003818BF012007B030BD1FB520238DF825
:102B40000C10CDE900238DF80D300222082303A9D3
:102B5000FFF7F6FC003818BF012005B05DF804FB54
:102B60002DE9F8430A460C4693210646FFF7E5FF98
:102B700010B10120BDE8F88304F101084346A279B1
:102B8000A71C04F1050913F8011F48404B45C0B2CA
:102B9000F9D18242EDD1364DAA78042A17BF03221B
:102BA0003946A118A81808BFE81C00F0C7FC234646
:102BB0003A4693213046FFF79DFF0028D9D1A378EC
:102BC00013F0040029D0224695213046FFF7B5FFC7
:102BD0000028CED14346A27913F8011F48404B4547
:102BE000C0B2F9D18242C4D1AB782248072B15BFBD
:102BF00003220422A118394600F0A0FC23463A46DD
:102C000095213046FFF776FF0028B2D1A37813F064
:102C1000040006D16B70072301E06B700423AB70D6
:102C2000A8E7224697213046FFF787FF0028A0D16A
:102C3000A37918F8012F5040C845C0B2F9D183429A
:102C400097D1AB780A2B04D1072239460A4800F005
:102C500075FC23463A4697213046FFF74BFF002884
:102C600087D1A37813F0040083D16B700A23D6E7D1
:102C70009015002096150020991500207FB5C223DD
:102C800020260C46CDE900168DF80F3001222823AE
:102C90000DF10F010546FFF753FC10B1012004B000
:102CA00070BDA378C22BFAD0282301222846CDE993
:102CB00000460DF10F01FFF743FC0028EED1A0788C
:102CC000C23818BF0120EAE72DE9FF41002506467A
:102CD0000F4690465223144C29460A22E01C8DF8D8
:102CE0000F3025706570A57000F036FC07230122B7
:102CF0003046CDE900780DF10F016573A573E573DA
:102D000025746574A574E57425756575A575E575F7
:102D100025766576A576FFF713FC401B18BF0120CA
:102D200004B0BDE8F08100BF901500201FB550230E
:102D3000CDE90012ADF80C300222282303A9FFF7D9
:102D4000FFFBB0FA80F0400905B05DF804FB00001D
:102D5000074B5A7812F0600002D102221A707047B5
:102D6000920643BF042200201A700120704700BF62
:102D700090150020002337B50422012501930F4B45
:102D80000DEB02019B7B04468DF805308DF8065053
:102D9000FFF77EFBA84202D1012003B030BD2A46D6
:102DA0000D212046FFF708FB0128F5D05F212046C2
:102DB000FFF716FB431E58425841EEE790150020DE
:102DC0007FB5202206460D46FFF77EFF10B1012099
:102DD00004B070BDA878FFF717FD0128F7D0294689
:102DE0003046FFF7BDFE0128F1D01C4C63786BB96B
:102DF0002279E378134462791344A279D34205D14E
:102E0000202229463046FFF791FFE0E7FFF7A0FFB9
:102E10000128DCD0637803F02003002B14BF0123CA
:102E200000236373D3D0E0238DF80C3080238DF81A
:102E30000D3040230222CDE900533046282303A958
:102E4000FFF77EFB0028C2D16B7930461B09A373C4
:102E5000FFF790FF431E58425841B9E790150020F4
:102E60002DE9F04F894689B01946054617461C469C
:102E7000FFF7A6FF012809D1202221462846FFF7A7
:102E800055FF0126304609B0BDE8F08F214628469F
:102E9000FFF7B8FD012804D121462846FFF7EEFED2
:102EA000EAE721462846FFF7EDFD0128F4D0214648
:102EB0002846FFF70BFD0128EED021462846FFF7F4
:102EC0006BFD0128E8D00023DFF85881CDE90433F9
:102ED000CDE90633B8F81930BB42DDD3524B4FF47D
:102EE000807A1B784FF0B00B8DF810300223062249
:102EF0008DF8153028462823CDE9004A04A98DF81D
:102F000012B0FFF71DFB06460028C5D12146284612
:102F1000FFF790FC0128BFD0B4F803305BBA9AB237
:102F20009742A8F81130B7D83F4B8DF811601B7845
:102F30008DF812B08DF81030B8F815308DF8136098
:102F40009F428DF8146023D8282306222846CDE915
:102F5000004A04A98DF81570FFF7F2FA00289BD1FA
:102F600021462846FFF766FC012895D03A46484698
:102F7000E11C00F0E3FA21462846FFF77FFE012816
:102F80003FF47AAF202221462846FFF7CFFE79E7AB
:102F90008DF81530062228232846CDE9004A04A9D9
:102FA000FFF7CEFA039000287FF476AF214628463B
:102FB000FFF740FC01283FF46FAF04F1030B5946C3
:102FC000B8F81520484600F0B9FA174B28461B7888
:102FD00004A98DF81030039BCDE9004A8DF811301B
:102FE000B0238DF81230B8F815301A0ADBB28DF81C
:102FF0001430FB1A8DF813208DF815300622282383
:10300000FFF79EFA00287FF447AF21462846FFF7D6
:1030100011FC00287FF440AFB8F8150059463A1A61
:103020004844A6E7901500204F0200202DE9F04704
:103030009146202207460D469846DDF820A0FFF76E
:1030400043FE012808D1202229463846FFF76EFEAC
:1030500001263046BDE8F087A878FFF7D5FB0128A8
:10306000F1D029463846FFF77BFD06460028EAD115
:10307000114C202229463846FFF758FE63783BB9A9
:103080002379E178194463791944A379D942DAD0D4
:10309000A37889F80030BAF1000F02D063788AF87B
:1030A00000300023054AA1789942D2D912F8011BB9
:1030B00008F803100133F6E790150020931500205F
:1030C00008B500F005FA00F0F3F9224B5A6B22F430
:1030D00040325A635A6B42F482025A63CA22A3F501
:1030E00004335A6253225A62DA6842F08002DA608C
:1030F000DA685106FCD500229A608022DA60164A0E
:103100001A619A6822F040029A609A6822F400627A
:103110009A60DA6822F08002DA60104BDA685206B0
:10312000FCD4FF225A620E4BDA6822F40032DA60D5
:103130009A6842F400329A601A6842F400321A60C7
:103140005A6942F400325A614FF40072054B5A60DA
:1031500008BD00BF00380240FF7F1F00002800406C
:103160000004014000E100E0064BDA6822F0200292
:10317000DA60DA689206FCD5986A5B68C0F5FF40B1
:103180007F3070470028004010B5CA24144B5C62A1
:1031900053245C629C6824F488549C60DC68E407D7
:1031A000FCD5C0F5FF40DC697F30C0F30E0040F075
:1031B000706044F08034DC615864986840F480703A
:1031C0009860986840F480509860D86820F48070C7
:1031D000D8600448016004490A60FF225A6210BDA9
:1031E00000280040B0150020AC15002010B50D4C93
:1031F000E368DB050ED50C4B1B6813B10B4A106856
:103200009847E3680A4A23F48073E360536943F400
:1032100000335361074B1B681BB1BDE81040FDF73D
:10322000A3B810BD00280040B0150020AC15002048
:1032300000040140C4020020F8B5104C012104EB49
:10324000401467683846FDF76FFCA66800213046D9
:10325000FDF76AFCE56801212846FDF765FC247D41
:1032600038462146FDF79DFC21463046FDF799FC86
:1032700021462846BDE8F840FDF793BCCC4800083D
:103280000128F8B5044603D903200B49FDF7A2FE37
:1032900000250A4B0A4E43F82050670106EB441400
:1032A000FFF7CAFFA169207FFEF766F9F3591D8079
:1032B0009D839D80F8BD00BFA6470008B41500207F
:1032C000CC480008012838B50C4623D84A1C24D025
:1032D00021F0FF0313F5807F01D1CBB2EBB914F5D8
:1032E000807F0FD10E4C04EB401425696B1C14D069
:1032F00001212846FDF718FC2846217DFDF751FCE9
:10330000002038BD01212046FDF70EFC2046FDF7C8
:10331000B7FCF5E74FF0FF30F3E76FF00100F0E79F
:10332000CC4800082DE9F04704469846DFF8649041
:10333000194815460F464FEA441A012100EB840054
:1033400009EB4414FEF71EFB267FA1693046FEF709
:1033500013F9124806EB8606064416F8082059F8B9
:103360000A4045EAC20545F0040517F5807F25802F
:1033700015BF2388A3889BB29BB214BF43F440734C
:1033800043F004034FF0000014BF2380A380BDE886
:10339000F08700BFCC480008B41500200C49000895
:1033A000074A4301D25800231380938823F0040373
:1033B0001B041B0C9380034B03EB8000FEF712BB36
:1033C000CC480008B41500202DE9F8430F46DDE98C
:1033D000086891461D4623B91EB903203249FDF7FE
:1033E000F9FD324B40011C5817F5807F23889BB2B2
:1033F00043F04003238004D0791C02D03846FDF707
:103400004AFC002E2FD1A844A84523D123899B072D
:10341000FCD523891E06FCD42389DD0721D423890A
:103420009907FCD523891A06FCD4B9F1000F39D1CC
:103430007B1C37D0238817F5807F23F040034FEAA9
:1034400003434FEA134323802CD03846BDE8F843AA
:10345000FDF716BC23899A07FCD515F8013B2373A9
:10346000D2E7A389D8E7DDB9B044B045D7D02389E6
:103470009807FCD525732389D907FCD5237B06F84B
:10348000013BF2E722899207FCD5EA5C227322898C
:10349000D007FCD5227BF25401339845F2D1BEE728
:1034A0000023FAE7BDE8F883A6470008CC480008E7
:1034B000024A136843F48073136070470070004041
:1034C000024A136823F48073136070470070004051
:1034D00008B5FFF7EDFF064B5A6B42F480725A6352
:1034E0005A6B9205FCD5BDE80840FFF7E9BF00BF65
:1034F0000038024070B500260C4D0D4C641BA41022
:10350000A64209D1FCF710FE00260A4D0A4C641BA6
:10351000A410A64205D170BD55F8043B984701366A
:10352000EEE755F8043B98470136F2E7B04900084A
:10353000B0490008B0490008B04900080A44914267
:1035400000F1FF3300D1704710B511F8014B9142E3
:1035500003F8014FF9D110BD03460244934200D154
:10356000704703F8011BF9E70FB40A4B13B51C6849
:1035700024B1A36913B9204600F05AFA05AB2046DE
:10358000049AA168019300F05DFC02B0BDE8104010
:1035900004B070475002002070B50E46054618B1C1
:1035A00083690BB900F044FAAB69AC6813B92846DB
:1035B00000F03EFA2C4B9C4220D16C68636EDB0716
:1035C00005D4A389980502D4A06D00F0CFFAA38991
:1035D00019071DD52369DBB1013EA36816F8011F49
:1035E000013BA36039BB002B38DA22460A2128466A
:1035F00000F048F8013011D00A2511E01B4B9C4225
:1036000001D1AC68DAE71A4B9C4208BFEC68D5E7F9
:103610002146284600F088F80028DDD04FF0FF351D
:10362000636EDA0705D4A3899B0502D4A06D00F070
:103630009EFA284670BD002B04DAA2699A4206DC85
:103640000A2904D023685A1C22601970C5E7224653
:10365000284600F017F80130BFD1DFE70A252368BC
:103660005A1C22601D70DBE73C4900085C490008D9
:103670001C490008024B01461868FFF78DBF00BFC8
:1036800050020020F8B50E461446054618B183696D
:103690000BB900F0CDF9214B9C422BD16C68A3698A
:1036A000A360A3891A072FD523696BB32369206808
:1036B000F6B2C01A63693746834204DC21462846C5
:1036C00000F022F930BBA3680130013BA3602368FE
:1036D0005A1C22601E706369834204D0A389DB07F1
:1036E00006D50A2E04D12146284600F00DF988B9E6
:1036F0003846F8BD0A4B9C4201D1AC68CFE7094B74
:103700009C4208BFEC68CAE72146284600F00CF846
:103710000028CBD04FF0FF37EAE700BF3C49000854
:103720005C4900081C490008324B70B51D6806460C
:103730000C4625B1AB6913B9284600F079F92E4B38
:103740009C420FD16C68A389B4F90C2019072CD4C2
:10375000DD0611D40923336042F040034FF0FF30FF
:10376000A3813EE0254B9C4201D1AC68EBE7244BA2
:103770009C4208BFEC68E6E7580712D5616B41B17F
:1037800004F14403994202D0304600F057FA002376
:103790006363A38923F02403A38100236360236967
:1037A0002360A38943F00803A38123694BB9A3894C
:1037B00003F42073B3F5007F03D02146304600F0B8
:1037C000FDF9A089B4F90C2010F001030AD0002300
:1037D000A36063695B42A361236943B910F0800071
:1037E000BAD170BD810758BF6369A360F4E70020B8
:1037F000F7E700BF500200203C4900085C49000880
:103800001C4900088A89F8B5054610070C4657D4AC
:103810004B68002B04DC0B6C002B01DC0020F8BD96
:10382000E66A002EFAD0002312F480522F682B6033
:1038300032D0606DA3895A0705D56368C01A636BDF
:103840000BB1236CC01A00230246E66A2846216A9F
:10385000B047431CA38906D129681D292CD8294AC1
:10386000CA40D60728D5002262602269D9042260A6
:1038700004D5421C01D12B6803B96065616B2F60D0
:103880000029CBD004F14403994202D0284600F02D
:10389000D5F900206063C2E7216A01232846B047BA
:1038A000411CC7D12B68002BC4D01D2B01D0162B77
:1038B00001D12F60B2E7A38943F04003A381AEE7B3
:1038C0000F69002FAAD0930718BF00230E6808BF06
:1038D0004B69F61B0F608B60002E9FDD33463A4626
:1038E0002846216AD4F828C0E047002806DCA389CE
:1038F0004FF0FF3043F04003A38190E70744361AAE
:10390000EAE700BF0100402038B50B6905460C46C8
:1039100013B90025284638BD18B183690BB900F0EA
:1039200087F8144B9C421BD16C68B4F90C30002B07
:10393000EFD0626ED00704D4990502D4A06D00F0D8
:1039400015F928462146FFF75DFF636E0546DA0745
:10395000E0D4A3899B05DDD4A06D00F008F9D9E778
:10396000054B9C4201D1AC68DFE7044B9C4208BF89
:10397000EC68DAE73C4900085C4900081C4900088B
:10398000002310B50446C0E90033C0E90433836066
:1039900081814366C2818361194608225C30FFF74A
:1039A000DBFD054B24626362044BA362044BE362BC
:1039B000044B236310BD00BFD1430008F34300084C
:1039C0002B4400084F440008014900F0AFB800BF85
:1039D00009390008682270B54D1E55430E4605F1A1
:1039E000740100F093F9044640B10021C0E90016CB
:1039F0000C30A06005F16802FFF7AEFD204670BDF7
:103A0000014800F0B3B800BFBD150020014800F028
:103A1000AEB800BFBD150020014800F0A7B800BF38
:103A2000BE150020014800F0A2B800BFBE1500205E
:103A300010B50446FFF7F0FFA3691BB1BDE81040C5
:103A4000FFF7F0BFC4E912332365134B134A1B6819
:103A5000A262A34208BF0123204608BFA36100F071
:103A60001FF86060204600F01BF8A060204600F0C0
:103A700017F800220421E0606068FFF781FF01224F
:103A80000921A068FFF77CFF02221221E068FFF7FE
:103A900077FF0123A361D1E718490008C93900085D
:103AA000F8B50746FFF7ACFF1E4B1E68B36913B9A4
:103AB0003046FFF7BDFF4836D6E90134013B03D558
:103AC00033680BB33668F7E7B4F90C50D5B9164B29
:103AD00004F15800E360656600F047F8FFF796FFD1
:103AE00008222946C4E90155C4E904552560A561A9
:103AF00004F15C00FFF730FDC4E90D55C4E912552F
:103B00002046F8BD6834D9E704213846FFF762FF44
:103B1000044630600028D5D1FFF778FF0C233B60C6
:103B2000EEE700BF184900080100FFFF2DE9F84348
:103B300006468846002700F14804D4E90195B9F10A
:103B4000010905D52468002CF7D13846BDE8F88373
:103B5000AB89012B07D9B5F90E30013303D02946C3
:103B60003046C04707436835E9E7704770477047FC
:103B700070B50E46B1F90E10144600291D4696B0D8
:103B800008DA0022B6F90C302A601A0610D44FF475
:103B900080630EE06A46FCF7FBFA0028F1DB019A2D
:103BA00002F47042A2F500535A425A412A60EEE7ED
:103BB00040230020236016B070BD00008B8973B5D0
:103BC0009D0706460C4607D504F147032360236191
:103BD0000123636102B070BD6A4601ABFFF7C8FF05
:103BE00000990546304600F091F848B9B4F90C3018
:103BF0009A05EFD423F0030343F00203A381E3E724
:103C00000D4BB362A389206043F08003A381009B26
:103C100020616361019B5BB13046B4F90E10FCF783
:103C2000BCFA28B1A38923F0030343F00103A38165
:103C3000A0890543A581CDE7C939000838B50546F7
:103C4000002940D051F8043C0C1F002BB8BFE418E9
:103C500000F010FC1C4A136833B9636014602846F6
:103C6000BDE8384000F00CBCA34208D920682118F8
:103C70008B4201BF19685B6809182160EDE71A469D
:103C80005B680BB1A342FAD911685018A0420BD15E
:103C900020680144501883421160E0D118685B68C5
:103CA000014411605360DAE702D90C232B60D6E798
:103CB000206821188B4201BF19685B6809182160D0
:103CC00063605460CBE738BDC015002070B50E4E60
:103CD0000C463168054611B9FCF72AFA30602146D6
:103CE0002846FCF725FA431C0AD0C41C24F0030420
:103CF000A04207D0211A2846FCF71AFA013001D158
:103D00004FF0FF34204670BDC41500202DE9F0416E
:103D1000CD1C25F0030508350C2D38BF0C25002DD2
:103D2000074601DBA94205D90C2300263B6030463B
:103D3000BDE8F0812E4E00F09DFB33681C4634BB7D
:103D400029463846FFF7C2FF431C04464DD134686C
:103D50002646002E40D123683146384604EB03083E
:103D6000FCF7E6F980453AD1216803356D1A25F054
:103D7000030508350C2D38BF0C2538462946FFF7BA
:103D8000A5FF01302BD023682B4423600EE022686E
:103D9000521B1ED40B2A16D96119A342256018BFE5
:103DA0005960636808BF316062514B60384604F166
:103DB0000B0600F065FB26F00706231DF21AB6D0AD
:103DC0009B1BA350B3E76268A3420CBF32605A60EA
:103DD000ECE723466468B2E734467668B9E70C231B
:103DE00038463B6000F04CFBA1E72560DEE700BFF2
:103DF000C0150020936810B4013B002B936007DAD4
:103E00009469A34201DB0A2902D110BCFFF73ABC36
:103E10001368581C10601970084610BC7047F8B53C
:103E200006460F461446D518AC4201D1002007E0E3
:103E30003A46304614F8011BFFF7DCFF431CF3D170
:103E4000F8BD00002DE9F04F0D4614469846064691
:103E50009DB018B183690BB9FFF7EAFD894B9D420C
:103E60001BD175686B6ED90705D4AB899A0502D44E
:103E7000A86DFFF77BFEAB891B0701D52B69EBB95A
:103E800029463046FFF750FCC0B16B6EDC070ED5FB
:103E90004FF0FF301DB0BDE8F08F7B4B9D4201D14C
:103EA000B568DFE7794B9D4208BFF568DAE7AB8973
:103EB0009805EDD4A86DFFF75AFEE9E700230993B2
:103EC00020238DF8293030234FF00109CDF80C80E4
:103ED000DFF8BC818DF82A3023469A4613F8012B6F
:103EE0000AB1252AF9D1BAEB040B0BD05B46224666
:103EF00029463046FFF793FF013000F0AA80099A67
:103F00005A4409929AF80030002B00F0A280002356
:103F10004FF0FF32CDE905230AF1010A049307931C
:103F20008DF853301A935446052214F8011B584853
:103F300000F091FA049AD8B9D10644BF20238DF835
:103F40005330130744BF2B238DF853309AF80030B9
:103F50002A2B15D0544600204FF00A0C079A214610
:103F600011F8013B303B092B4ED9B0B1079214E058
:103F7000A0EB080309FA03F31343A2460493D2E724
:103F8000039B191D1B680391002BBBBF5B4242F0D2
:103F9000020207930793B8BF049223782E2B0CD10B
:103FA00063782A2B35D1039B02341A1D1B680392B8
:103FB000002BB8BF4FF0FF330593DFF8D8A00322E2
:103FC0005046217800F047FA40B14023A0EB0A00A8
:103FD00003FA00F0049B01340343049314F8011B1B
:103FE00006222D488DF8281000F035FA00283FD021
:103FF0002A4B1BBB039B073323F0070308330393B0
:10400000099B3B44099367E70C4601200CFB0232F5
:10401000A5E700234FF00A0C19460134059320460A
:1040200010F8012B303A092A03D9002BC5D005918D
:10403000C3E7044601230CFB0121F0E703AB009327
:104040002A463046164B04A9AFF300800746781C79
:10405000D6D16B6ED90705D4AB899A0502D4A86D69
:10406000FFF785FDAB895B063FF512AF099811E7B5
:1040700003AB00932A463046094B04A900F082F8AE
:10408000E4E700BF3C4900085C4900081C490008FF
:104090007C490008824900088649000800000000A9
:1040A0001F3E00082DE9F047164699468A680B69BD
:1040B00007469342B8BF1346336091F843200C463D
:1040C000DDF820800AB1013333602368990642BFCE
:1040D000336802333360256815F0060506D104F114
:1040E000190AE36832689B1AAB4228DC94F8432033
:1040F000131E226818BF012392062DD44946384664
:1041000004F14302C047013020D02368E56803F082
:104110000603042B18BF002532684FF00006A36881
:1041200008BFAD1A226908BF25EAE5759342C4BFEE
:104130009B1AED181A34B5421AD1002008E0012369
:10414000524649463846C047013003D14FF0FF3050
:10415000BDE8F0870135C4E73020E11881F843005D
:104160005A1C94F845102244023382F84310C5E7E4
:104170000123224649463846C0470130E6D0013681
:10418000D9E700002DE9FF470F7E9146782F804642
:104190000C469A460C9D01F1430207D8622F0AD8BB
:1041A000002F00F0D980582F00F0A48004F14205C0
:1041B00084F842703AE0A7F16303152BF6D801A109
:1041C00051F823F01D42000831420008AD410008BB
:1041D000AD410008AD410008AD4100083142000882
:1041E000AD410008AD410008AD410008AD410008F7
:1041F0003F4300086142000821430008AD41000828
:10420000AD41000861430008AD410008614200086B
:10421000AD410008AD410008294300082B681A1D74
:104220001B682A6004F1420584F842300123A4E0AF
:1042300020682968060601F104030AD50E682B6080
:10424000002E03DA2D23764284F843300A235E4899
:1042500019E00E6810F0400F2B6018BF36B2EFE780
:104260002B682068191D2960010601D51E6802E02F
:104270004606FBD51E886F2F0CBF08230A23524821
:10428000002184F843106568002DA8BF2168A5604F
:10429000A4BF21F0040121600EB9002D4DD01546B8
:1042A000B6FBF3F103FB1167C75D05F8017D3746E7
:1042B000BB420E46F4D9082B0BD12368DE0708D584
:1042C000236961689942DEBF302305F8013C05F19E
:1042D000FF35521B22614B4621464046CDF800A0D7
:1042E00003AAFFF7DFFE01304CD14FF0FF3004B0DE
:1042F000BDE8F087344881F845702968236851F893
:10430000046B29601D0614D5DF0744BF43F020036A
:1043100023601EB9236823F0200323601023AFE736
:10432000236843F0200323607823284884F845302D
:10433000E3E7590648BFB6B2E6E71546BBE72B6888
:104340002668181D6169286035061B6801D519604B
:1043500002E07006FBD51980002315462361BAE7F9
:104360002B6800211A1D2A601D686268284600F02B
:1043700072F808B1401B606063682361002384F811
:104380004330A8E72A46494640462369D0470130D2
:10439000ABD023689B0713D4E068039B9842B8BF57
:1043A0001846A4E70123324649464046D04701302B
:1043B0009BD00135E36803995B1AAB42F2DCEBE773
:1043C000002504F11906F5E78D4900089E4900080B
:1043D00010B50C46B1F90E10FBF7C8FE0028ABBFB4
:1043E000636DA3891B1823F48053ACBF6365A3815D
:1043F00010BD2DE9F0411F468B890546DB050C46B3
:10440000164605D502230022B1F90E10FBF7BBFEBC
:10441000A389324623F48053A38128463B46B4F94E
:104420000E10BDE8F041FBF7A5BE10B50C46B1F982
:104430000E10FBF7A8FE431CA38915BF606523F48B
:10444000805343F48053A38118BFA38110BDB1F9F9
:104450000E10FBF793BE034610B5C9B20244934257
:10446000184601D1002003E0047801338C42F6D1D4
:1044700010BD00000148FFF779BB00BFBC1500204C
:104480000148FFF774BB00BFBC1500204E4D49200A
:1044900048414E444C4552004D454D204D414E4102
:1044A00047452048414E444C455200425553204612
:1044B00041554C542048414E444C455200555341BF
:1044C0004745204641554C542048414E444C4552A6
:1044D000004445425547204D4F4E2048414E444CE4
:1044E00045520044554D4D592048414E444C45528B
:1044F000000A49535220737461636B206F766572B2
:10450000666C6F77656400537461636B20706F69CC
:104510006E74657220636F727275707465642C209E
:10452000726573657420746F20746F70206F6620DD
:10453000737461636B000A436F6E746578742062F4
:1045400065666F726520686172646661756C743A45
:104550000020202072303A2030782530386C780ADC
:1045600020202072313A2030782530386C780A20AB
:10457000202072323A2030782530386C780A20209A
:104580002072333A2030782530386C780A002020A9
:104590007231323A2030782530386C780A20202069
:1045A0006C723A2030782530386C780A20202070E0
:1045B000633A2030782530386C780A202070737286
:1045C0003A2030782530386C780A0A004653522F4A
:1045D0004641523A0020434653523A203078253023
:1045E000386C780A0020484653523A2030782530FB
:1045F000386C780A0020444653523A2030782530EF
:10460000386C780A0020414653523A2030782530E1
:10461000386C780A0020424641523A2030782530E2
:10462000386C780A004D4D4641523A20307825309A
:10463000386C780A004D697363004558435F5245F2
:10464000543A2030782530386C780A00417474650B
:104650006D7074696E6720746F207265636F6E731E
:10466000747275637420737461746520666F722050
:10467000646562756767696E672E2E2E00496E202D
:104680004744423A0A2020736574202470633D3009
:1046900078256C780A20206672616D6520300A20CA
:1046A0002062740A000A49535220737461636B20BC
:1046B0006F766572666C6F776564206279206174CD
:1046C000206C656173742025642062797465732E93
:1046D0000A0048415244204641554C542048414E1E
:1046E000444C4552000000000038014000400000EA
:1046F0000A000240090002400401070701250000EA
:10470000004400400000020003000240020002409A
:1047100004010707002600000048004000000400D4
:104720000B0402400A0402400401070700270000AE
:1047300000380140004000000A0002400900024029
:1047400004010707012500000044004000000200AA
:104750000300024002000240040107070026000097
:1047600000480040000004000B0402400A0402401C
:10477000040107070027000025700A002A2A2A20C2
:1047800052494F54206B65726E656C2070616E6982
:10479000633A0A25730A0A002A2A2A2068616C747F
:1047A00065642E0A0A004641494C45442041535352
:1047B000455254494F4E2E006D61696E28293A20AA
:1047C000546869732069732052494F542120285638
:1047D000657273696F6E3A20323031392E30312E66
:1047E000554E574453290A0069646C65006D616930
:1047F0006E00010101000000000000000000000048
:1048000000000000000300020000000000000000A3
:10481000000000000405000000100140FFFF000040
:1048200010000000011B000000080140FFFF000015
:1048300004000000011900000D0A5354393520739B
:10484000756363657366756C6C7920696E697469EC
:10485000616C69736564210D0A005549443A20254D
:10486000642062797465730D0A0025303258200087
:104870000D0A4572726F72207768696C65207265E7
:104880006164696E670D0A00446174613A20004EEC
:104890004445463A2025642062797465730A0025F0
:1048A0006300547279202564206279746573202D29
:1048B0003E205278206C656E3A202564206279741F
:1048C00065730A00D27600008501010000300140C6
:1048D000070002400600024005000240FFFFFFFF04
:1048E000050000000010000001000000003800403A
:1048F0000F0402400E0402400D040240FFFFFFFFC0
:104900000500000000400000000000000705040250
:10491000010705040201000054020020000000000D
:104920000000000000000000000000000000000087
:104930000000000000000000000000000000000077
:104940000000000000000000000000000000000067
:104950000000000000000000000000000000000057
:104960000000000000000000000000000000000047
:10497000000000000000000000000000232D302B8C
:104980002000686C4C006566674546470030313250
:1049900033343536373839414243444546003031A7
:1049A0003233343536373839616263646566000006
:1049B000CC15002090030020400000000000000003
:1049C0000000000000000000E8470008ED47000874
:1049D000010101010101000000E1000000000000F0
:1049E00004000240020002400300024008040240AA
:1049F000FFFFFFFF01000240000000000000010275
:104A000054020020000000003C4900085C490008F6
:104A10001C49000800000000000000000000000029
:104A20000000000000000000000000000000000086
:104A30000000000000000000000000000000000076
:104A40000000000000000000000000000000000066
:104A50000000000000000000000000000000000056
:084A6000000000002821000005
:040000050800045992
:00000001FF
