:020000040800F2
:1000000000020020D104000869040008250400084B
:100010007904000889040008990400080000000021
:1000200000000000000000000000000009040008BB
:10003000A904000800000000ED030008B90400084E
:1000400025010008250100082501000825010008F8
:1000500025010008250100082501000825010008E8
:1000600025010008250100082501000825010008D8
:1000700025010008250100082501000825010008C8
:1000800025010008250100082501000825010008B8
:1000900025010008250100082501000825010008A8
:1000A00025010008E9190008250100087919000850
:1000B0002501000825010008250100082501000888
:1000C0002501000825010008250100082501000878
:1000D00025010008D90C00081D0D0008610D00085D
:1000E0002501000825010008250100082501000858
:1000F0002501000800000000250100082501000876
:100100002501000825010008250100082501000837
:100110002501000825010008250100082501000827
:100120002501000800F0C8B900F086BB704700BF89
:10013000014608B5024804F00DFD00F0E9FCFEE7B9
:10014000486D000870B50C46064600F065FB0B4B89
:100150000B4A1D682C44944202D80A4A944207D2A2
:100160000C234FF0FF35336000F05EFB284670BD76
:100170001C6000F059FB284670BD00BF0002002043
:10018000004001201C130020014B188800B270476A
:1001900008040020034603224FF0FF301A60704726
:1001A0001046194600F054BB1046194600F058BBE3
:1001B000034613224FF0FF301A60704703461322A4
:1001C0004FF0FF301A607047034613224FF0FF30A4
:1001D0001A6070470346002202298CBF00200120CC
:1001E0001A607047144B00201A6830B492FAA2F3D8
:1001F0008242B3FA83F308BF4FF0FF330F4C10492C
:1002000054F823300A681B680E4DA3F10804944289
:1002100028600FD022B110790A2804BF0B2010717A
:100220004FF00A0C012033F9025C074A03F804CCB2
:1002300015800C6030BC70470404002018040020B6
:100240000C0400201004002008040020092930B408
:10025000037919D9092B14D842791D4B00F10804F0
:1002600053F822504DB32D68856053F822502C600E
:1002700043F822400123174A45791468AB402343D1
:100280001360017130BC7047092BFAD94279104CC8
:1002900054F8223043B11D689D4210D02D681D6076
:1002A00054F82230002BECD101240A4D04FA02F25A
:1002B0002B6823EA02032B60E3E78460D8E700237E
:1002C00044F82230427954F82230002BD9D1EBE7A0
:1002D000180400200404002008B5094B1B681A7993
:1002E000092A02D95B79834205D900F0A1FA18B135
:1002F0000122044B1A6008BDBDE8084000F06EB84A
:100300000C04002010040020002508B500F084FA39
:100310000849094B094C1B880A6809481BB2013A75
:100320000A6040F8235029462068FFF78FFF2560B8
:1003300000F050F814040020080400200C040020F1
:10034000580400201A4422F00302530730B4044634
:100350004FF0773558BF4FF0883042F8045C5ABFF1
:1003600042F8080CA2F10803131F194A43F8084C7D
:1003700043F8201C0B24032143F80C2C00224FF0DF
:10038000807543F8244C43F8141C0224012143F8DF
:10039000102C0A2243E9071443F8045C08210925BC
:1003A00043F8282C0722184643E90D21062443F878
:1003B0002C5C042105256FF0020243F83C5C43F8F5
:1003C000384C43F8401C30BC40F8442D704700BF07
:1003D0000903000800F024FA01DFFEE7024A53682F
:1003E00043F080535360704700ED00E0EFF3098065
:1003F00020E9F00F40F804ED02490968086000F0B8
:1004000003F800000C040020FFF7ECFE044800682D
:10041000016801C9B1E8F00F81F3098800470000C5
:100420000C0400200D4B0E4A0E496846904203D83A
:10043000984201D9002102E009468D46012104209D
:100440007246024202D1EFF3088001E0EFF3098027
:100450002DE9F00F6B4600F011F900BF58010020A4
:100460000040012000020020042008B5014900F0EE
:1004700049FE00BF646D0008062008B5014900F080
:1004800041FE00BF706D0008072008B5014900F06B
:1004900039FE00BF846D0008082008B5014900F04E
:1004A00031FE00BF986D0008092008B5014900F031
:1004B00029FE00BFAC6D00080A2008B5014900F014
:1004C00021FE00BFC06D0008704700BF704700BF2D
:1004D000D0B5FFF7F9FF6C46614B9C423ED9DA4339
:1004E0002244172AC3F380014FEA92001BD9002946
:1004F00000F0A2801A465B4E42F8046B03EB8103C6
:10050000C1F101010144480803EBC00052A7D7E93B
:100510000067E3E802678342FBD121F001008142DA
:1005200002EB80031AD019464E4A41F8042B8C4244
:1005300014D903F108018C425A600FD903F10C0160
:100540008C429A600AD903F110018C42DA6005D915
:1005500003F114018C421A6188BF5A61424C43492D
:100560008C421FD24248013940EA04035E0722460A
:10057000A1EB040164D12B2962D90346890801311A
:100580004FEA510C00EBCC0CF3E802676345E2E85C
:100590000267F9D1CA0721F0010303D550F82320DF
:1005A00044F82320334B344CA3423BD2621ED21A70
:1005B0009008172A00F10100C3F3800117D9002920
:1005C0003CD000261A4642F8046B00260027401A49
:1005D00003EB8103410803EBC101E3E802679942A1
:1005E000FBD120F00101884202EB81031AD01946A9
:1005F000002241F8042BA14214D203F10801A142C8
:100600005A600FD203F10C01A1429A600AD203F1A1
:100610001001A142DA6005D203F11401A1421A616E
:1006200038BF5A61FFF752FF00F05EFD03F00EFE87
:10063000BDE8D04000F09ABD1A465FE71A46C4E70D
:1006400021F0030104310A4B014453F8040B8B429F
:1006500042F8040BF9D1A5E7FEE7FEE7FEE7FEE767
:1006600000000020FEE7FEE7000200200404002056
:100670004C7A0008040400201C1300202DE9F04FE0
:10068000504C8FB0A56B504E0B95656B4F4F0C9532
:10069000A56AD4F82C90D4F830C0E46B0D9333687D
:1006A0000394BB4204468B469246CDF808C050D115
:1006B000BBF1000F53D1D4E90230D4E90012049009
:1006C0002069E76905906069CDE908230690B805BF
:1006D00054BF04F1200004F124000A903C48D4F8EF
:1006E0001880079104F0BCFA049B079900933948DD
:1006F000DDE9082304F02EFADDE905124346364809
:10070000009704F027FA354804F0AAFA294634483D
:1007100004F020FA4946334804F01CFA02993248A2
:1007200004F018FA0399314804F014FA2A043ED46C
:100730002B0637D42E4804F093FA51462D4804F086
:1007400009FABBF1000F11D001BE05202A4900F0C3
:10075000D9FC2A4804F084FABBF1000FABD0002387
:10076000274898460A9304F07BFACCE7254804F022
:1007700077FA4146244804F0EDF969468E1BB6F538
:10078000AC7619D40A9D0D9E20468268C368016923
:100790008C4641698E46AD46314691E8F00F41687E
:1007A0000068D1E70C99194804F0D4F9C2E70B9915
:1007B000174804F0CFF9BBE77142164804F0CAF9B4
:1007C000E0E700BF00ED00E000000020FEE7FEE7EC
:1007D000186E0008346E0008746E0008B46E0008CD
:1007E000C06E0008D06E0008E06E0008F06E0008D1
:1007F000206F0008286F0008C86F0008D06D00083F
:10080000E86D00083C6F0008706F0008106F00086A
:10081000006F0008986F0008EFF3108072B6704701
:1008200062B6EFF31080704780F31088704700BF06
:10083000EFF30580C0B270474FF4E1310020024B66
:10084000024A00F0AFB900BF0402002011140008F2
:1008500003460A460148194600F0E6BD040200209E
:1008600010B50C4601462246002000F00FFA204643
:1008700010BD00BF2DE9F04F8D4B012883B01870DB
:1008800000F0A480022840F09C808A4B8A491A68B4
:10089000DFF8288222F002021A601A68884D42F0BE
:1008A00004021A601A68874F42F001021A601A683F
:1008B000854E42F400721A600B69B34643F004039C
:1008C0000B61FFF7A9FFAA463946C1467F4C01904C
:1008D0002046009100F05EFD009980B1206849F843
:1008E000040FE368A0884AF8043F21F8020F784B10
:1008F000208D04F580649C422BF8020FE8D1754AE4
:10090000938913F4005340F0BD80DFF8CC91734A13
:1009100089F80030938913F4005340F09980704AAD
:1009200089F80130938913F4005340F09D8089F8D1
:1009300002304FF48051012000F050FF012876D0A2
:100940004FF48041002000F049FF01285ED0BFF342
:100950004F8F30BF00F0F0FD5C4CDFF874B12046E3
:1009600000F018FD78B155F8042F37F8023FE26027
:10097000A38058F8042F36F8023F2260238504F53F
:1009800080645C45EBD199F800302BB1514A9389D2
:100990009BB243F40053938199F801302BB14F4A35
:1009A00093899BB243F40053938199F802302BB1A1
:1009B0004B4A93899BB243F4005393810198FFF70C
:1009C00033FF4FF0FF3003B0BDE8F08F394B3A49A9
:1009D0001A6842F00E021A601A6842F400721A6035
:1009E0005A6842F4E0625A600B6943F004030B61F9
:1009F000FFF712FFBFF34F8F30BFFFF715FF00F077
:100A00009BFD4FF0FF3003B0BDE8F08F354B1B88E6
:100A10009B0743D50421344800F0C4F9082133482A
:100A200000F0C0F90321324800F0BCF98FE7314BE8
:100A30001B889A0737D504212F4800F0B3F9082105
:100A40002E4800F0AFF903212D4800F0ABF977E70D
:100A50009389042123F400531B041B0C9381294820
:100A600000F0A0F901235AE79389042123F40053ED
:100A70001B041B0C9381244800F094F9012389F88E
:100A8000023056E79389042123F400531B041B0C06
:100A900093811E4800F086F9012336E708211248A9
:100AA00000F080F9BAE70821134800F07BF9C6E7A7
:100AB0007F0500200070004000ED00E028050020C8
:100AC000580500204A0500201A05002000000240B9
:100AD00000200240003801407C0500200044004016
:100AE00000480040003800400D0402400F0402405E
:100AF0000E040240003001400500024007000240A1
:100B000006000240020002400A04024009000240BE
:100B100008B5FFF781FE0022014B1A7008BD00BF27
:100B20007F0500202DE9F0411D4E00EB400006EB53
:100B3000C00797F81480C40040460D4600F002FE3E
:100B4000B0FBF5F0072824D933590F289A8922F4ED
:100B500000524FEA02424FEA12429A819A890CD916
:100B600080B2C2F30E029A81188100209A8992B253
:100B700042F400529A81BDE8F0816FEA42426FEA86
:100B80005242083840F01000C0B292B29A811881E7
:100B9000EBE74046796800F007FE6FF00100EAE7F6
:100BA000DC6F000802282DE9F04763D89146FF2248
:100BB000324C0546DFF8C88000EB400044F8209036
:100BC00004EB80046360227208EBC004D4F80CA02C
:100BD0000F46C600617C504600F0E4F8504600F035
:100BE00055F95046E17C00F01FF9B9F1000F2BD008
:100BF000D4F80890217C484600F0D4F84846A17CFF
:100C000000F012F96168207D00F0AEFD002358F875
:100C100006603946B38128463382B382FFF782FFEC
:100C200094F91530627D002B08DB0121154802F094
:100C30001F025B0901FA02F240F8232042F22C0362
:100C40000020B381BDE8F0876168207D00F08CFD55
:100C500058F806403946A4F80C902846A4F810909D
:100C6000A4F81490FFF75EFF42F208030020A3816E
:100C7000BDE8F0870320044900F044FA8005002015
:100C8000DC6F000800E100E054700008022808B59D
:100C900019D80F4B00EB400053F8300083891B0735
:100CA00010D562B10A4402F1FF3C013911F8012F5D
:100CB00003881B06FCD593B261458380F6D1038877
:100CC0005B06FCD508BD0320024900F01BFA00BFFB
:100CD000DC6F0008547000080D4A10B5138899069F
:100CE0009CB208D50B4B918893F808C0D3E900203B
:100CF0000CEA01019047230744BF054B9B88064B34
:100D00001B6803B910BDBDE81040FFF767BB00BF0B
:100D10000038014080050020100400200D4A10B565
:100D2000138899069CB208D50B4B918893F814C090
:100D3000D3E903200CEA01019047230744BF054B88
:100D40009B88064B1B6803B910BDBDE81040FFF738
:100D500045BB00BF00440040800500201004002077
:100D60000D4A10B5138899069CB208D50B4B918893
:100D700093F820C0D3E906200CEA0101904723072D
:100D800044BF054B9B88064B1B6803B910BDBDE8EB
:100D90001040FFF723BB00BF004800408005002043
:100DA00010040020F8B5034601303AD001270D4663
:100DB000C3F3832107FA01F1022023F00F0603F0A9
:100DC0000F0400F0D1FCFFF727FD4FF0030E07FAE8
:100DD00004F26300376805EA0E0CC5F381010CFAD2
:100DE00003FC9940C5F300150EFA03F3A54027EA6A
:100DF00003044CEA04043460F46824EA0304214345
:100E0000F160B488A4B224EA02042543ADB2B580EF
:100E1000B16892B20B43B3603285FFF705FD002045
:100E2000F8BD1846F8BD00BF431C2DD070B5044670
:100E30000D46FFF7F1FC24F00F0E04F00F0304F051
:100E40000704A40005FA04F10F2503265A00072B16
:100E50004FF002038CBF4FF0040C4FF0000CA54084
:100E6000DEF80040964024EA0604934023430EEB4C
:100E70000C02CEF80030146A24EA05042143116202
:100E8000BDE87040FFF7D0BC704700BF431C06D0E0
:100E9000012300F00F02934020F00F0083617047A0
:100EA0003A482DE9F043036803F580330360036893
:100EB0001BB9374C2368013323600021354BDFF821
:100EC000D8E0D3F800C0DFF8D480DEF80070C8F8AE
:100ED00000C01960002F3AD03B460D462C4C304ED6
:100EE0000BE05A68D0F8009032404A450AD11A689F
:100EF0001D460121002A37D013462268D3F80890F6
:100F00009145EED909B1CEF8003005B300232B602E
:100F1000BCF1000F1DD0DCF804207B689A4294BF1E
:100F200065463D46DCF8002029463B685AB35BB174
:100F300054685868844210D80A6010681B68E8B189
:100F400011460246002BF3D10A60C8F80050BDE8F4
:100F5000F083C8F80070BDE8F0830B601268186871
:100F600052B119460346E2E70023CEF800202B6079
:100F7000BCF1000FCFD1ECE71A4603461360C8F866
:100F80000050BDE8F0832A46F8E700BFAC0500201A
:100F9000A8050020B4050020B0050020B8050020F9
:100FA0000000FFFF01B1704701222DE9F0473F4DDE
:100FB000DFF8FC902B68C9F80020002B67D00846AA
:100FC00000F0D2FC06464FF000083A4C2B685BB1AB
:100FD00000205F6800F0C8FC864224D8BFB2874278
:100FE00021D93F1A132F1ED9002000F0BDFC143068
:100FF00086423ED8286848B34768063F0020D4F8A8
:1010000000A000F0B1FC23689A45F7D14AEA00003D
:1010100014308742DAD30023C9F80030D9F8001021
:1010200079B3BDE8F0872B6800205F6800F09CFC76
:10103000B042BFB201D38742F5D82B681968C3E923
:101040000188D3E9032029609047BFE700F08CFCBA
:101050008642074609D800F114039BB2984221D971
:10106000002000F081FC8742FAD9FFF719FF002623
:10107000ACE7FFF715FF002000F076FC8642FAD3BC
:10108000F5E7BAB20846BDE8F04700F049BCFFF703
:1010900007FF4FF6FF74002000F066FCA042FAD074
:1010A000002690E74FF6FF77B5E700BFB8050020B0
:1010B000A4050020AC05002008B500230749184608
:1010C000074A00F0E9FB074B196801B108BD4FF66C
:1010D000FF72BDE80840084600F022BC40420F0005
:1010E000A50F0008A405002008B500F0DBF9BDE855
:1010F000084001210148FFF755BE00BF000402402F
:10110000704700BF08B50D4B1A685AB90122032871
:101110000C461A600CD02146094803F01BFD094813
:1011200003F018FDFFF778FBFFF7EAFFFFF7F0FC8D
:101130007146054803F00EFDEDE700BFBC05002039
:1011400028700008447000082470000808B502F0F8
:10115000AFFB034803F0FEFC00F0D6FC002008BD06
:101160006870000808B500F073F9FCE7002400B5CA
:1011700085B0FFF751FB0E4B0E4918680F220C2368
:10118000029000910C484FF48071019400F036F801
:101190000A4B0B4D196807220C23CDE90141094880
:1011A0004FF44061009500F029F8FFF713F900BFF4
:1011B0001802002065110008C00500201C02002054
:1011C0004D110008C006002010B50B79092B0FD86F
:1011D00091F805C001F1080403E010F8033C6345F1
:1011E00003D8024600680028F7D18860146010BD5B
:1011F00003200149FFF786FF547000082DE9F04FE6
:101200000F2A83B072D81F4610F00303904683461E
:1012100089464FD10B46303B23F0030339070BEBD4
:1012200003054DD5AB4504D25A46126004329542AF
:10123000FBD80193FFF7F0FA2E494FF0010C0A4654
:101240008246019B04E00CF1010CBCF1210F47D058
:1012500052F8044F0FFA8CF6002CF4D141F82C50C0
:101260005A46DDE90C01EE80FFF76CF80E9B224A2E
:10127000AB624FF0FF33EB611368286001331360FA
:10128000FB07C5E90244C5E90444C5F824B0C5F824
:101290002C9085F805802C71AC612C6213D501214E
:1012A0002846FEF7D3FF5046FFF7BEFA304603B09C
:1012B000BDE8F08FC3F10402043B93440B44AAE75A
:1012C000CBF800B0B5E728460B21FEF7BFFF7A0741
:1012D000E9D45046FFF7A8FA4046FEF7FDFFE5E7E0
:1012E0005046FFF7A1FA6FF08A06DFE76FF01506A8
:1012F000DCE700BF5804002014040020012930B5A9
:1013000084468646224B2FD1996A41F40041996266
:10131000EFF31380044671B6596941F48071596145
:101320001CF8011F996A090409D5194A536923F465
:101330008073536184F31388ACEB0E0030BD5969A0
:1013400021F48071596180F31388ACEB0E00824266
:10135000DAD830BD586920F48070586185F313885D
:10136000ACEB0E009042E9D2986A8C4440F4004005
:101370009862EFF313852C4671B6586940F480707B
:1013800058619CF80000986A0004CED4E2E700BFE0
:1013900000ED00E00C4B9A6A42F400429A62EFF3CF
:1013A000138171B65A6942F480725A610278986A60
:1013B0005A6922F480725A6181F3138880F40040E4
:1013C000C0F3C030704700BF00ED00E010210023E3
:1013D00010B40C4A0C4C0D48946082F82210D1775E
:1013E000C2180133392B82F80013F9D1054B10BC18
:1013F0001A6942F010021A615A6942F400725A6185
:10140000704700BF00ED00E00000000800E100E0D0
:1014100038B5054600F03EFB044605F1100002F029
:1014200079FA204638BD00BFF8B504460E46154689
:1014300000F1100703E00121384602F03BFA2A468A
:101440003146204600F008FB0028F4D0F8BD00BF6C
:1014500070B5134D2C68230E1CD114F47F0F1BD1D3
:1014600014F47F4F1AD1E0B2061E18BF0126FFF711
:10147000D3F92B6805469C4204D02846BDE870404D
:10148000FFF7D2B93046FFF7F5F92846BDE87040BE
:10149000FFF7CAB90426EAE70326E8E70226E6E7EB
:1014A000200200202DE9F047FFF790FF4FF0805118
:1014B000002000F059F900F03FF81B4BFF21DE69D6
:1014C0000220012500F050F96FF0A8494FF0FF38D5
:1014D0006FF4A077DFF854A0F6B207E0082DCAF841
:1014E000008012D001350AF5806AEDB26C1E5046BC
:1014F000E4B2FFF74FFF40B124B1012CEED1CAF89E
:101500000070EFE7CAF80090ECE7074B0220D969BA
:1015100021F0FF01314300F027F900F0CFFABDE8D8
:10152000F04700F07BB900BF0038024000000240E5
:101530000138FDD1704700BF30B50024784B7949A0
:101540001A68794D42F480721A609A6883B022F466
:101550007F5222F030029A609A6822F0EE429A603E
:101560009A6822F003029A601A6811401960DC60E0
:101570002A68022A00F0AD80B2F5003F40F0AE804C
:101580001A6842F480321A6065490A682B681A4268
:10159000FBD0664A136843F004031360136843F0FA
:1015A00001031360136843F00203136093691B0780
:1015B000FCD54FF08051002000F0D6F85C4A13684B
:1015C0000093009B23F4C0530093009B43F40063FB
:1015D0000093009B13605368DC06FCD4504C06203B
:1015E00063680093009B23F460430093009B43F4E3
:1015F00040430093009B6360FFF79AFF236843F02A
:1016000001032360A36823F47D03A360A36843F46C
:101610000003A360236843F080732360236898016C
:10162000FCD51A20FFF784FF23683D4A23F080731E
:10163000236013689901FCD4936823F47D039360BD
:101640002B68B3F5003F93680CBF43F4050343F4E4
:1016500008039360324A136843F080731360136881
:101660009B01FCD59268334B0092009A324922F0DC
:10167000030200922868009AB0F5003F08BF19469F
:1016800042F003020092009B254A9360936803F0A6
:101690000C030C2BFAD1136828480B401360936895
:1016A00027490093009B016223F0F0030093009B05
:1016B0000093009B23F4E0630093009B0093009B46
:1016C00023F460530093009B0093009B936003B04E
:1016D00030BD1A6842F001021A6055E74FF400313C
:1016E0001A6842F2107042F480321A602960019444
:1016F00005E0019A01320192019A824204DC1968E4
:101700002A681142F5D03FE702211A6842F001022F
:101710001A601A6822F480321A60296034E700BF28
:1017200000380240FEFFFAEEC0120020003C0240EA
:1017300000700040FEFEFFFFFFFEFEFFC41200200F
:101740000048E801014B186A704700BFC41200202E
:10175000034B044A185C126A02FB00F0704700BF9A
:10176000A8700008C4120020012805D0022811D05A
:1017700048B1BFF34F8F70470A4A136A1943116289
:10178000BFF34F8F7047074A536A19435162BFF343
:101790004F8F7047034AD3691943D161BFF34F8F0D
:1017A000704700BF00380240012803D002280DD046
:1017B00030B17047084A136A23EA01011162704789
:1017C000054A536A23EA010151627047024AD3690C
:1017D00023EA0101D161704700380240012805D099
:1017E000022811D048B14FF0FF3070470A4B1B6AF6
:1017F0000B4214BF012000207047074B5B6A0B426D
:1018000014BF012000207047034BDB690B4214BF5B
:1018100001200020704700BF0038024070B54FF42F
:10182000A0324FF480614FF00050FFF767FD0425B0
:101830000346154C4FF400224FF480614FF00060D6
:1018400023602571FFF75AFD03464FF480764FF46D
:101850008042A3604FF400611B0A0C48E3602575C9
:101860002661FFF74BFD0A4B25771B68A061C3F388
:101870000B03A3F21643212B8EBF0023054AD35C32
:1018800084F8243070BD00BFC41200200000080896
:10189000002004E0AC700008012837D82DE9F041A1
:1018A0001C4C1D4D44F8302004EBC004636005EB74
:1018B0000014277B0E464FEA0018A1683846FFF750
:1018C00053FF002355F8085062682B803846AB80E0
:1018D000EA62FFF73DFFB0FBF6F0012294F90D300C
:1018E000013880B2002B2885617BAA8206DB0B4879
:1018F00001F01F015B098A4040F823202B8800205B
:101900009BB243F001032B80BDE8F0814FF0FF3024
:10191000704700BFEC120020D070000800E100E02A
:1019200003291CDC0F4B30B404011C5903EB0010DD
:101930000223456801F10C002A4004EB800042605C
:10194000228A03FA01F109B292B222EA0103238248
:10195000A3890020194389B2A18130BC70474FF0A0
:10196000FF307047D0700008024B00011B58586AC6
:10197000704700BFD07000082DE9F0410024022616
:10198000164FDFF85C803B8ABD89ADB21D4006FA78
:1019900004F22A4208D0BB8921469BB223EA020303
:1019A000BB81D8E9003098470123A3402B4209D0DE
:1019B0003B8A214623F001031B041B0C3B82D8E920
:1019C000003098470134042CE1D1064B1B680BB959
:1019D000BDE8F081BDE8F041FEF700BD0010014018
:1019E000EC120020100400202DE9F0410024022711
:1019F000164EDFF85C80338AB589ADB21D4007FA18
:101A000004F32B4208D0B289214692B222EA0302A3
:101A1000D8E90230B28198470123A3402B4209D074
:101A2000D8E90220338A214623F001031B041B0C52
:101A3000338290470134042CE1D1064B1B680BB96B
:101A4000BDE8F081BDE8F041FEF7C8BC00080140E8
:101A5000EC1200201004002003461046CAB170B5F5
:101A600096460FE09C685A681D68661C02F1FF3CB0
:101A70009E600CEA040C15F80C40BEF1010E01F852
:101A8000014B05D09D68DC68A542EBD1A0EB0E00B0
:101A900070BD7047C26810B484684368121B9A42D4
:101AA00009D0C268013B134001320468C2600020C3
:101AB000E15410BC70474FF0FF30FAE7704700BFA9
:101AC00070B50025C6690446C0E90E55AEB10121C6
:101AD000204601F015FC218F00F0DAFE03464FF09E
:101AE000FF312387204601F00BFC218F00F0D0FE50
:101AF000208725B10135AE42E9D1002070BD012E0D
:101B00006087FAD00125E2E72DE9F04FADF6440DEC
:101B10000A46099009A90DF16E0001F0C1FE0120ED
:101B200000F092FE03460220ADF82C3000F08CFE4F
:101B300003460320ADF82E3000F086FE0346042055
:101B4000ADF8303000F080FE03460520129300F01F
:101B50007BFE002800F0398213900B9B002B40F095
:101B60002682BDF93030002B00F04482139B002206
:101B700003F001042046ADF86C2013F002021CA90A
:101B800018BF013013F004050D9101D0013080B26F
:101B90004FF4FA61B1FBF0F01190002C40F0568246
:101BA0002146002A40F01C82002D40F01182002CBA
:101BB00040F0FA80002A40F00381580705D5109ABA
:101BC000BDF92C10119801F0E9F8DDF84880B8F162
:101BD000000F48D101230024834D1293129B00264D
:101BE00003EB83035B00129301F01AFE129FCDE911
:101BF0001988DFB101210BA801F082FBBDF8641048
:101C000000F046FE03464FF0FF310BA8ADF86430FC
:101C100001F076FBBDF8641000F03AFEADF8640008
:101C2000002E00F0DA800136B742E3D101F00AFE5F
:101C300001F01AFE01F024FE22462B4606460F460E
:101C400002F0BCFA0028C9D13046394602F0DEFA6B
:101C500001284FF00A0238BF0120B2FBF0F2129BBC
:101C600002FB0333129301F0DBFD0BA8FFF728FF03
:101C700001F0E8FD01F0F8FD00218146BDF92C00DE
:101C800000F0ECFF0146BDF92E0000F0E7FF014631
:101C9000BDF9300000F0E2FF0146BDF9440000F05C
:101CA000DDFF47F605339842804600F0ED8100F2F3
:101CB000648141F6F203984200F0F78144F6AF6385
:101CC000984240F00782494802F044FF4EF2A45B7C
:101CD00045F2086346F679220221CDE904230891F2
:101CE000039359461346424F3D68002D00F08A8009
:101CF0000024CDF81890CDF81C809946A0468A465D
:101D000017E0EA8F52454CD05B464146394802F015
:101D100021FFB5F8403001339BB2A5F840301C4498
:101D200008F101013B681FFA81F89845A5B224B279
:101D300066D2002308EB08160BAA02EB8606A6F86B
:101D40004030336A4FEA0815D9070CD5728F4A45DF
:101D500009D0049B4146284802F0FCFEB6F840300A
:101D60000133A6F840300BAB05EB080603EB860603
:101D7000336A9A070ED5B28F03998A420AD0059B1F
:101D800041461E4802F0E6FEB6F840300133A6F8A0
:101D90004030336A454413F0040F0BAB03EB850569
:101DA000AFD1B5F84030BAE7BDF92C200E9901F05B
:101DB00065FC139B149003F00202002A3FF4FDAE71
:101DC000BDF92E40BDF92C2015AB0F99119842EAB0
:101DD000044200F0CDFC139BEFE6012FADF8660046
:101DE0003FF424AF012605E70000F03F4C710008E6
:101DF0002402002040720008DC7100080C72000808
:101E0000DDE9069800F0C8FF11990544B54802F0D5
:101E1000A1FE4946B44802F09DFE484601F030FD5F
:101E200002460B46B14802F095FE484601F028FDF7
:101E300000220023AEB202F0DFF9A8B1129B38688D
:101E400003FB00F001F0CEFE044648460D4601F0CB
:101E500017FD02460B462046294602F067F8024667
:101E60000B46A34802F076FE484601F009FD002229
:101E7000A04B02F0A3F9002840F0EF8035B2129B8E
:101E800039689D4803FB01F102F064FE9B499C48C0
:101E900002F060FE9B499C4802F05CFE9B499C4816
:101EA00002F058FE41469B4802F054FE139BD807AF
:101EB00012D53B6883B10024974E04EB04130BAAA0
:101EC00002EB830321465A8F304602F043FE013471
:101ED0003B68A4B29C42F0D3139B990714D53A688F
:101EE000002A00F0F38000248C4E04EB04130BAAAC
:101EF00002EB830321469A8F304602F02BFE013419
:101F00003B68A4B29C42F0D3139B5A0712D53B689E
:101F10001BB30024824E04EB04130BAA02EB8303D1
:101F20002146DA8F304602F015FE01343B68A4B238
:101F30009C42F0D33B6883B100247A4E04EB041337
:101F40000BAA02EB830321461A8F304602F002FEF1
:101F500001343B68A4B29C42F0D3002D4ED0CCBFDC
:101F60007148724802F0F6FD0DF16E0001F09CFC24
:101F700000200DF6440DBDE8F08F48F6022398428C
:101F800071D04EF6F513984240F0A480684802F0F4
:101F9000E1FD48F63A6B41F6D7734EF21472032115
:101FA000CDE9042308910393594613469BE6012B80
:101FB0007FF4DCADBDF93030002B7FF4D7AD662364
:101FC0005C4AADF830300B92D0E507231393C4E59B
:101FD0001CAD00FB01511091002C3FF4EBADE3E68A
:101FE0001CAE00FB016601310F9689B2002D3FF453
:101FF000DEADEDE76623ADF83030B7E54E4802F0D0
:10200000A9FD089B032BAFD1129B386803FB00F09E
:1020100001F0E8FD044648460D4601F031FC024659
:102020000B462046294601F081FF02460B46354803
:102030003249CDE90010414802F08CFD3349404857
:1020400002F088FD3F4802F085FD8DE71CA90E9146
:102050000121002A3FF4A8ADC2E73B48751C02F0FD
:1020600079FD2DB20BE7394802F074FD45F6476B58
:102070004BF652634DF2B0420021CDE904230891A2
:102080000393594613462EE6314802F063FD43F6AA
:10209000BF1B41F299134FF44D520121CDE90423A6
:1020A00008910393594613461DE62A4802F052FD53
:1020B00048F6845B40F247734EF2C1320421CDE909
:1020C000042308910393594613460CE65B077FF5FA
:1020D00031AF42E74FF0FF334FF6FF751E4F0893C5
:1020E00090E600BF7072000888720008A0720008B5
:1020F000B87200080000244010730008287300081C
:1021000048730008607300088C730008A47300080B
:10211000AC730008C4730008E0730008FC73000887
:102120001874000834740008C0740008D4740008DF
:102130008071000815341534507400089C74000830
:10214000B874000850700008D0720008F0700008E1
:1021500020710008B0710008240200202DE9F04F22
:102160008DB00646CDE90512BDF958A002930028AE
:1021700000F0D8826FEA0A5800236FEA1858CDF8A9
:102180001C8098469646914609924500421E1FFAC9
:102190008AFB039201930495CDF820A04FEA5903DE
:1021A0005B4203F00303DA1C052A38BF05220399BA
:1021B0008A4200F2B582002B7AD0B9F80020012BB8
:1021C0005A44A9F8002073D0B9F80220032B5A44CE
:1021D000A9F802206ED1B9F8042000935A44A9F856
:1021E0000420A6EB030A43440EEB43034FEA9A0C88
:1021F00003EBCC0C0021D3E900020F460BEB0005EA
:102200000BEB020408330BEB10400BEB124265F3AF
:102210000F0164F30F0760F31F4162F31F4763452B
:1022200043F8081C43F8047CE4D12AF00302009B25
:102230005245134433D003EB08013EF811205A44B1
:102240002EF811205A1C964229D942443EF8121009
:1022500059442EF812109A1C964220D942443EF856
:10226000121059442EF81210DA1C964217D9424423
:102270003EF8121059442EF812101A1D96420ED92B
:1022800042443EF81210053359449E422EF8121073
:1022900005D943443EF813205A442EF81320049BDA
:1022A000B0449944019B5C1CA64206D0019475E79A
:1022B000009396E70222009293E70026049D069B76
:1022C000DDF81C805819059BCDF81CB0043B37463F
:1022D0009B46C4EBC47EC4EB8479CDF80080DDF866
:1022E00020A0DDF804804FEA4E0E4FEA89090493DE
:1022F00000EB0E0C62460BEB860132F9023B0AFB47
:1023000003F3824241F8043FF7D147452644ACEB42
:10231000090007F1010301D01F46E9E74FF000096A
:102320000599DDF81CB001EB8406CDF820B0B64667
:1023300048464A464B46CA468B46A700DDF804C0CD
:10234000DDF80080079600970A950BEB890105E000
:10235000AA42C8BF01308E4500B20CD0154651F8D4
:10236000042B00F10A0613444345F1DD8E454FF07E
:10237000000330B2F2D1D445BE44A1440AF10101B8
:1023800001D08A46E1E70021DDE9076B0A9D00F0F4
:1023900065FC069B049AA3F10209029BCDF82C80F0
:1023A000A3F1020A009B964613449846CDF81C9070
:1023B0000A920AEB050C08905346494600220EF19A
:1023C000040E33F9027F31F9020F9C4507FB00220E
:1023D000F7D1F045CEF80020A944EDD1DDE900CADF
:1023E0004FF0000E704672467346F146CDF804B0C9
:1023F000DDF814B0DDF82C800B950BEB8E0105E0B9
:10240000AA42C8BF0130B14200B20CD0154651F803
:10241000042B00F10A0713444345F1DDB1424FF0AC
:10242000000338B2F2D1CA4501EB0C06A64409F10B
:10243000010101D08946E0E70899DDF804B00B9D61
:1024400000F00CFC0023CDF820B09B46DDF8109086
:10245000DDF81CA00190CDF81480CE464FF0000CA2
:10246000DDF808800021424650460B460EF1040E6E
:10247000B2F9007030F9026F01339C4207FB06117C
:102480002A44F5D80CF1010C6445CEF8001008F18F
:102490000208E7D8009B0BF1010B5C45AA44994464
:1024A000DBD800209C46024603468646DDF81480B1
:1024B000DDF820B0DDF810904E46002106E0BA426B
:1024C000C8BF013001318C4200B20ED9174656F810
:1024D000042F00F10A0A13444345F0DD01318C4218
:1024E0004FF000030FFA8AF0F0D80EF1010E744598
:1024F000E144E1D8019900F0B1FB0023CDF814B01C
:102500009B46DDF81C90DDF810A00190CDF81080FE
:10251000D6464FF0000CDDF80880002041464E46BC
:1025200002460EF1040EB1F9007036F9023F013295
:1025300007FB03F39442C3F38307C3F3461303FB80
:1025400007002944EFD80CF1010C6445CEF80000D7
:1025500008F10208E1D8009B0BF1010B5C45A9448E
:102560009A44D5D8DDE9048B0020994602460346FB
:102570008646DDF828C06646002106E0BA42C8BF9C
:10258000013001318C4200B20ED9174656F8042FA3
:1025900000F10A0A13449845F0DA01318C424FF0F9
:1025A00000030FFA8AF0F0D80EF1010E7445CC4406
:1025B000E1D8019900F052FB4FF00009DDF82480CA
:1025C000DDF818E00490CDF8009002954FEA58032A
:1025D0005B4203F00303002C03F1030214BFA24685
:1025E0004FF0010A052A38BF0522002C039908BFC5
:1025F00000218A4200F29280002B00F08A80B8F815
:102600000020012BA2EB0B02A8F8002000F0818033
:10261000B8F80220032BA2EB0B02A8F802207AD113
:10262000B8F804200193A2EB0B02A8F80420AAEB4F
:10263000030A4B440EEB43034FEA9A0C03EBCC0C1A
:102640000021D3E900020F46A0EB0B06A2EB0B051D
:102650000833CBEB1040CBEB124266F30F0165F36E
:102660000F0760F31F4162F31F479C4543F8081CA6
:1026700043F8047CE4D12AF00302019B5245134441
:1026800039D003EB09013EF81120A2EB0B022EF822
:1026900011205A1C94422ED94A443EF81210A1EB44
:1026A0000B012EF812109A1CA24224D24A443EF882
:1026B0001210A1EB0B012EF81210DA1C94421AD959
:1026C0004A443EF81210A1EB0B012EF812101A1D0D
:1026D000944210D94A443EF812100533A1EB0B0185
:1026E0009C422EF8121006D94B443EF81320A2EB60
:1026F0000B022EF81320009B029A0133A342009391
:102700009044A144FFF462AFBDF910000DB0BDE8E4
:10271000F08F01938BE70222019288E70023B0E754
:10272000002388E5014600F099FA0146304600F0A2
:1027300095FA0146304600F091FA0146304600F025
:102740008DFA0490BDF910000DB0BDE8F08F00BF08
:1027500010B5144682B00091C168D0E90123006829
:10276000FFF7FCFC214602B0BDE8104000F076BA4D
:102770002DE9F04F002A85B008BF012202930028FE
:1027800055D0054600231846013303FB03F4B5EB8F
:10279000C40FF8D800FB00F9013921F0030A4FEA11
:1027A00049030AF1040A01930AEB4909039070B343
:1027B00001266FF001074FF00008431E00FA06FBE8
:1027C00000933446002509EB070E0AEB070C04FBC7
:1027D00002F2514289B2A3B292B258BF4A4299184A
:1027E00089B201350B44DBB285422EF8021F04F199
:1027F00001042CF8023FEAD30028009B08BF002305
:1028000008F10108013680455F441E44D9D3019B7D
:10281000029A4B44013B23F003030433C2E90293C1
:10282000039BC2F804A0136005B0BDE8F08F4FF021
:10283000FF300223013921F0030909F1040A039052
:1028400009F106090193B3E70138042813D8DFE83A
:1028500000F006090C0F0300084B18687047084B7E
:1028600018687047074B18687047074B186870471F
:10287000064B186870470020704700BF0413002003
:10288000FC12002000130020280200202C0200204F
:10289000C2B203464840C0074ABF4AF20100490895
:1028A00080EA5101C3F3460C81EA0C0C1CF0010FC5
:1028B00016BF4AF2010C49088CEA510190084840C1
:1028C000C0074ABF4AF20100480880EA51004FEAB7
:1028D000D20C80EA0C0C1CF0010F16BF4AF2010C5E
:1028E00040088CEA500011094140C9074ABF4AF22A
:1028F0000101400881EA50004FEA521C80EA0C0CAA
:102900001CF0010F16BF4AF2010C40088CEA50007F
:1029100091094140C9074ABF4AF20101400881EAD2
:102920005000D2094240D2074ABF4AF20102400891
:1029300082EA500080EA1321C9074ABF4AF2010126
:10294000400881EA50001A0A5B0A4340DB074ABF8D
:102950004AF20103400883EA5000910880EA01032B
:10296000DB074ABF4AF20103400883EA5000D1085E
:102970004140C9074ABF4AF20101400881EA5000BC
:1029800013094340DB074ABF4AF20103400883EAC8
:10299000500051094140C9074ABF4AF201014008AD
:1029A00081EA500093094340D9074ABF4AF2010324
:1029B000400883EA5000D2094240D30746BF4AF29A
:1029C000010383EA50004008704700BFC2B20346CB
:1029D0001FFA80FC00B5C0F3460E4840C0074ABF4E
:1029E0004AF20100480880EA510080EA0E0E1EF00B
:1029F000010F16BF4AF2010E40088EEA50009108FE
:102A00004140C9074ABF4AF20101400881EA50002B
:102A10004FEAD20E80EA0E0E1EF0010F16BF4AF2E8
:102A2000010E40088EEA500011094140C9074ABF13
:102A30004AF20101400881EA50004FEA521E80EA42
:102A40000E0E1EF0010F16BF4AF2010E40088EEA6C
:102A5000500091094140C9074ABF4AF201014008AC
:102A600081EA5000D2094240D2074ABF4AF201022D
:102A7000400882EA50004FEA5C214FEA1C2280EABB
:102A80001C2C1CF0010F16BF4AF2010C40088CEA06
:102A9000500080EA010C1CF0010F16BF4AF2010C35
:102AA00040088CEA500091084140C9074ABF4AF2E9
:102AB0000101400881EA50004FEAD20C80EA0C0C78
:102AC0001CF0010F16BF4AF2010C40088CEA5000BE
:102AD00011094140C9074ABF4AF20101400881EA91
:102AE00050004FEA521C80EA0C0C1CF0010F16BF7C
:102AF0004AF2010C40088CEA500091094140C90794
:102B00004ABF4AF20101400881EA5000D20942401E
:102B1000D2074ABF4AF20102400882EA5000190C6B
:102B2000C3F30742C3F3464C80EA1343DB074ABFB3
:102B30004AF20103400883EA500080EA0C0C1CF0C2
:102B4000010F16BF4AF2010C40088CEA50009308AE
:102B50004340DB074ABF4AF20103400883EA5000C2
:102B60004FEAD20C80EA0C0C1CF0010F16BF4AF29F
:102B7000010C40088CEA500013094340DB074ABFB0
:102B80004AF20103400883EA50004FEA521C80EAEF
:102B90000C0C1CF0010F16BF4AF2010C40088CEA25
:102BA000500093094340DB074ABF4AF20103400843
:102BB00083EA5000D2094240D3074ABF4AF20103D8
:102BC000400883EA500080EA1122D2074ABF4AF245
:102BD0000102400882EA50000B0A490A4140C90735
:102BE0004ABF4AF20101400881EA50009A08424077
:102BF000D2074ABF4AF20102400882EA5000D908CF
:102C00004140C9074ABF4AF20101400881EA500029
:102C10001A094240D2074ABF4AF20102400882EA3A
:102C2000500059094140C9074ABF4AF20101400812
:102C300081EA50009A094240D2074ABF4AF2010293
:102C4000400882EA5000DB094340DB074ABF4AF2F2
:102C50000103400883EA50005DF804FBC3B282B26E
:102C6000C0F3460C4840C0074ABF4AF2010048087A
:102C700080EA510080EA0C0C1CF0010F16BF4AF2EA
:102C8000010C40088CEA500099084140C9074ABF2E
:102C90004AF20101400881EA50004FEAD30C80EA71
:102CA0000C0C1CF0010F16BF4AF2010C40088CEA14
:102CB000500019094140C9074ABF4AF201014008C2
:102CC00081EA50004FEA531C80EA0C0C1CF0010F03
:102CD00016BF4AF2010C40088CEA500099094140A5
:102CE000C9074ABF4AF20101400881EA5000DB09E6
:102CF0004340DB074ABF4AF20103400883EA500021
:102D000080EA1221C9074ABF4AF20101400881EA5C
:102D10005000130A520A4240D2074ABF4AF2010247
:102D2000400882EA5000990881EA0002D2074ABFAF
:102D30004AF20102400882EA5000D9084140C9071E
:102D40004ABF4AF20101400881EA50001A09424094
:102D5000D2074ABF4AF20102400882EA50005909EC
:102D60004140C9074ABF4AF20101400881EA5000C8
:102D70009A094240D2074ABF4AF20102400882EA59
:102D80005000DB094340DB0746BF4AF2010383EAF8
:102D900050004008704700BF002070472DE9F04FF9
:102DA000471E012F40F2878001314FF0000C4FF099
:102DB0002C08DFF808B1DFF808A1DFF8089189B224
:102DC00036E0042B70D8033B012BC4F3C10465D853
:102DD0000926082559F824306644BE4237D21C78AB
:102DE000042D02F80C4093F801E002EB0C0484F887
:102DF00001E093F802E084F802E093F803E084F83D
:102E000003E00FD093F804E0082D84F804E093F871
:102E100005E084F805E093F806E084F806E004BFD6
:102E2000DB79E371154405F80C80B446013189B2B1
:102E300001F00703072B0CB2C3D109266644C4F383
:102E4000C104BE424FF008055BF82430C7D3844567
:102E500022D2A7EB0C07022FA0EB0C050ED9002401
:102E600002EB0C0325F00301194443F8044B8B4299
:102E7000FBD125F00303AB429C440DD000230CF1A1
:102E80000101884202F80C3006D90CF1020C84458D
:102E9000535438BF02F80C30BDE8F08F0A4B0526BA
:102EA000042553F8243097E7C4F3C1040926082504
:102EB0005AF8243090E74FF0000CCAE7E875000894
:102EC00018760008F87500080876000830B5036821
:102ED0008646187800283ED02C2800F0C580A0F146
:102EE0003002092A3AD80A685C1C01320A605A7812
:102EF000002A6DD02C2A00F0DB802E2AA2F13003AC
:102F00000ED0092B3CD86278631C002A00F0DC80CC
:102F10002C2A00F0D7802E2A1C46A2F13003F0D1D3
:102F20000B6904F1010C01330B616278002A00F097
:102F3000B0802C2A00F0C18002F0DF03452BA2F103
:102F4000300248D0092A40F2928001204B690344A4
:102F50004B610CEB0003CEF8003030BD2B2817D0AE
:102F60002D2815D02E2800F08B80D1E900200130CB
:102F70000132C1E9002001200344CEF8003030BD09
:102F800001200B6903440B612318CEF8003030BDDB
:102F90000A685D1C01320A605B78002B00F09680A5
:102FA0002C2B00F09680A3F13002092A09D92E2B90
:102FB00072D001208B6803448B602B18CEF8003050
:102FC00030BD8B686C1C01338B606A78002A91D10C
:102FD00023460420BFE74A690CF1010301324A612C
:102FE0009CF80120002A66D02C2A08BF03203CD080
:102FF0002B2A0AD02D2A08D00120CB680344CB60AD
:103000000CF10203CEF8003030BDCA680620013250
:10301000CA609CF802200CF10203002A9BD02C2AE3
:103020004ED0303A092A06D901208B6903448B61BE
:103030000CF103038FE78A690CF1030301328A6103
:103040009CF8032072B12C2A30D0303A092A05D9D5
:1030500001204A68034402444A607CE75A780133FD
:10306000002AF0D1072076E70020013373E79CF8AF
:1030700001200CF101037AB32C2A2FD09C465BE788
:103080000A6803F1010C01320A605A78002A7FF4C1
:1030900050AF634605205EE78B6805F1010C0133F4
:1030A0008B606A78002A7FF444AFF2E70720DCE700
:1030B00023460420D9E703204DE763460520D4E7E3
:1030C0000620D2E70420D0E7042044E72B46022064
:1030D00041E72B460220C8E705203CE70520C4E76E
:1030E0002DE9F04F92469946002200238346087846
:1030F00093B00C46CDE90A23CDE90223CDE90C2398
:10310000CDE90423CDE90E23CDE90623CDE9102333
:10311000CDE90823BDF97080BDF8747001910028D5
:103120005CD00AA901AE3046FFF7D0FE019B1A78A9
:1031300012AB03EB800050F8403C013340F8403CB8
:10314000002AF0D1A344A3452078019443D9254611
:1031500006E02B70019D45445D45019508D2287815
:103160002C2880EA0A03F4D145445D450195F6D345
:103170002378019493B10AA93046FFF7A7FE12AA5B
:1031800002EB8000019B50F8402C1B78013240F884
:10319000402C002BF0D15C4501940AD223782C2BD3
:1031A00083EA09021CBF2270019C44445C450194DF
:1031B000F4D309AC2546394656F8040FFFF706FC50
:1031C000014654F8040FFFF701FCAE420746F2D166
:1031D00013B0BDE8F08F0028CED1EAE78B44594503
:1031E00001AEB4D3E5E700BF2DE9F041B0F90050DE
:1031F00014462A060E4682B031D505F07F07B6F98F
:1032000000502B0606D505F07F08A7EB080002B09A
:10321000BDE8F081C5F3C30115F0070341EA0111D0
:103220003AD0012B35D1228F04F12800FFF790FA14
:10323000A38F0FFA80F803B9A087218FFFF728FB2F
:1032400008F07F0825F0FF0548EA0505208745F0CE
:103250008005A7EB0800358002B0BDE8F081C5F31A
:10326000C30115F00703804641EA011134D0012B58
:1032700027D02F46A8B2218FFFF70AFB07F07F0760
:1032800025F0FF053D4345F080052087A8F8005054
:10329000B5E7A846A8B2D0E72229B8BF22210091FD
:1032A000228FB4F902300192B4F90020D4E905105C
:1032B000FFF716FFE38F0FFA80F8002BBDD1E087F0
:1032C000BBE7228F04F12800FFF742FAA38F07B271
:1032D000002BD0D1A087CEE72229B8BF22210091B0
:1032E000228FB4F902300192B4F90020D4E905101C
:1032F000FFF7F6FEE38F07B2002BBCD1E087BAE7F9
:103300002DE9F04F4FF0000EB0F9047085B077450D
:1033100082468946446ACDF808E040F39A810E4619
:10332000754670467146F046BB46002E5FFA8EFC2D
:10333000C0F20481234614B919E11B6823B15A680D
:10334000B2F90220B242F8D1002701E02746144624
:1033500022682760002AF9D1002B00F00B815A68FF
:103360000130B2F9002080B2D70703D5C2F3402262
:10337000114489B21A6822B117681F60236813606C
:103380002260002EC0F29F800EF1010E0FFA8EFE19
:103390000136F34536B2C8D1CDE902C6C5EB80008F
:1033A00001448BB20193B9F1000F00F306810022B2
:1033B0002368D3E9006071685960316870601960F2
:1033C000039B32609342C0F24A81002C00F0F080EF
:1033D0001A46254603E02D68002D00F0E9806B6851
:1033E000B3F902309342F6D101996368B3F9000052
:1033F000FFF734FC2D680146002DF6D101902368BB
:10340000726859684FF0010E71605A601A684FF087
:10341000000B32601E60002C50D0002188460E4602
:10342000224600230136126801330AB17345FAD1EE
:1034300025467046144643B388B384B3D5F804C018
:103440006768BCF90020BCF9029022F0FF0AC2F3C1
:1034500007224AEA0202ACF80020B7F90020B7F9C7
:1034600002C0A9EB0C0922F0FF0CC2F307224CEAC0
:103470000202B9F1000F3A8011DD224624680138BA
:1034800051B10A601146002BD6D160B16CB1224611
:10349000013824680029F4D190461146F3E72A4602
:1034A000013B2D68ECE7002CBAD1012EC1F800B029
:1034B0006AD044464FEA4E0E002CAED124600198EB
:1034C00005B0BDE8F08FCDE902C60EF1010C0FFA90
:1034D0008CFCDC455F463FF461AFAE465FFA8CF290
:1034E000002C37D0264601E036681EB173681B7881
:1034F0009342F9D1002501E025461C46236825604A
:10350000002BF9D13EB373680130B3F9003080B2BB
:10351000DD0703D5C3F34023194489B2336823B1CF
:103520001D68356025681D6023600CF1010C0FFAE1
:103530008CFCBC45D2DB754602922FE7234624B9AA
:1035400015E01B68002B3FF4FFAE5A681278624505
:10355000F7D1F9E625686B680EF1010593F90130A2
:103560001FFA85FE03F00103194489B2DDE7002448
:10357000D8F800707B68013593F90130ADB203F0E3
:103580000103194489B2FCE6D8F80040002C96D01B
:103590000199D8F80430B3F90000FFF75FFB246805
:1035A0000146002CF5D10190019805B0BDE8F08FDF
:1035B0002568002D7FF418AF21E74FF0010B84B38D
:1035C0000026B146009623460025009A013200925B
:1035D0001B6801350BB15D45FAD1A0465F461C461C
:1035E0008DB157B34CB352466168D8F80400FFF769
:1035F000FBFD002821DD2346013F24681EB3336014
:103600001E46002DEDD10FB3002CF4D10023336002
:10361000009B4C46012B3FF4CAAE4FEA4B0B002CEB
:10362000CED1039B2460002B17DA00231D682646A9
:103630001C46002D7FF4D8AEE1E64346013DD8F8A4
:103640000080002EDBD199461E46DAE7002CBAD165
:10365000DCE70391CDF804E0A5E62646CFE654B1B9
:103660002546029A02E02D68002DA1D06B681B78D8
:103670009342F8D1B8E63446D7E700BF2DE9F04FC2
:10368000002548F280070B46644C9146A4FB0020BD
:103690000409023C01EBC4060D604E6041F8347031
:1036A00010318E4206EB840A03F1080006F1040291
:1036B00040F2B08006F1080CE24540F2AB80C3E96D
:1036C00002526FF00042186072602CB3002567460A
:1036D0001FFA89FB1FFA85FC8CEA0B02D2000CF062
:1036E000070802F0780201F1080E42EA0802764566
:1036F00007F1040C42EA02220ED9E24509D908601A
:1037000019604F603A8047F6FF7208467A8071462A
:1037100067460135AC42DDD1056805B302263F4F4F
:103720000121A7FB042424FA06F707E042682C686D
:1037300001365180013194B128462546320289EA8A
:10374000010402F4E06222438F42C2F30D02EDD87D
:1037500040682C68013142800136002CECD10127F1
:103760004FF0000E002B51D000263046B4461946CB
:1037700000220CF1010C0968013209B1BA42FAD1F8
:103780001D463C460B464AB394B38BB3D5F8049020
:10379000D3F80480B9F9001021F0FF0AC1F3072122
:1037A0004AEA0101A9F80010B8F90010B9F902902D
:1037B00021F0FF0AC1F307214AEA0101B8F902A08A
:1037C000A8F80010A9EB0A01002911DD19461B68B1
:1037D000013C56B131600E46002AD5D164B16BB1BF
:1037E0001946013C1B68002EF4D108460E46F3E74B
:1037F0002946013A2D68ECE7002BB8D1BCF1010F46
:10380000C6F800E004D003467F00ABE718461B6013
:10381000BDE8F08F01469446284656E7CDCCCCCC87
:1038200038B5064D00202C68FEF79EF82B689C42A8
:10383000F8D1034B2043186038BD00BFAC05002011
:103840000813002038B5064D00202C68FEF78CF8D0
:103850002B689C42F8D1034B2043186038BD00BF51
:10386000AC0500200C130020024A034B10681B68B3
:10387000C01A70470C13002008130020000000003D
:1038800008B500F0AFF904A3D3E9002300F04EFB24
:1038900008BD00BFAFF300800000000080842E410F
:1038A00001230370704700BF00230370704700BFFF
:1038B000FDF702BC70B505460C46FCF7ADFF2B6862
:1038C000FBB1A4B1124B06461C6802212046FCF74E
:1038D000BDFC2B6801330ED021462846FDF774FC51
:1038E0003046FCF7A1FFFCF779FD012070BDFCF725
:1038F0009BFF204670BD002304F108022A60A360EC
:10390000EEE74FF0FF332B60FCF78EFF012070BD18
:103910000C04002070B50446FCF77EFF2568BDB19D
:103920006B1C13D00646284650F808390B2123603B
:10393000FCF78CFC23687BB115F8034C3046FCF790
:1039400073FF2046BDE87040FCF7C6BC002323602F
:10395000BDE87040FCF768BF4FF0FF332360EBE732
:1039600081F0004102E000BF83F0004330B54FEA30
:1039700041044FEA430594EA050F08BF90EA020F9D
:103980001FBF54EA000C55EA020C7FEA645C7FEA30
:10399000655C00F0E2804FEA5454D4EB5555B8BF53
:1039A0006D420CDD2C4480EA020281EA030382EAC4
:1039B000000083EA010180EA020281EA0303362D56
:1039C00088BF30BD11F0004F4FEA01314FF4801C29
:1039D0004CEA113102D0404261EB410113F0004F3B
:1039E0004FEA03334CEA133302D0524263EB4303F2
:1039F00094EA050F00F0A780A4F10104D5F1200E90
:103A00000DDB02FA0EFC22FA05F2801841F10001EA
:103A100003FA0EF2801843FA05F359410EE0A5F1BE
:103A200020050EF1200E012A03FA0EFC28BF4CF0EF
:103A3000020C43FA05F3C01851EBE37101F00045A5
:103A400007D54FF0000EDCF1000C7EEB00006EEBB2
:103A50000101B1F5801F1BD3B1F5001F0CD349083C
:103A60005FEA30004FEA3C0C04F101044FEA445293
:103A700012F5800F80F09A80BCF1004F08BF5FEA1A
:103A8000500C50F1000041EB045141EA050130BDFA
:103A90005FEA4C0C404141EB0101013C28BFB1F50C
:103AA000801FE9D291F0000F04BF01460020B1FA57
:103AB00081F308BF2033A3F10B03B3F120020CDA2A
:103AC0000C3208DD02F1140CC2F10C0201FA0CF008
:103AD00021FA02F10CE002F11402D8BFC2F1200C6D
:103AE00001FA02F120FA0CFCDCBF41EA0C01904023
:103AF000E41AA2BF01EB0451294330BD6FEA04046C
:103B00001F3C1CDA0C340EDC04F11404C4F1200256
:103B100020FA04F001FA02F340EA030021FA04F368
:103B200045EA030130BDC4F10C04C4F1200220FABF
:103B300002F001FA04F340EA0300294630BD21FAFD
:103B400004F0294630BD94F0000F83F4801306BFC3
:103B500081F480110134013D4EE77FEA645C18BFB7
:103B60007FEA655C29D094EA050F08BF90EA020F4E
:103B700005D054EA000C04BF1946104630BD91EA46
:103B8000030F1EBF0021002030BD5FEA545C05D149
:103B90004000494128BF41F0004130BD14F5800488
:103BA0003CBF01F5801130BD01F0004545F0FE41FC
:103BB00041F470014FF0000030BD7FEA645C1ABF31
:103BC000194610467FEA655C1CBF0B46024650EA68
:103BD000013406BF52EA033591EA030F41F4002194
:103BE00030BD00BF90F0000F04BF0021704730B51A
:103BF0004FF4806404F132044FF000054FF00001EF
:103C000050E700BF90F0000F04BF0021704730B5AF
:103C10004FF4806404F1320410F0004548BF404284
:103C20004FF000013EE700BF42004FEAE2014FEAD9
:103C300031014FEA02701FBF12F07F4393F07F4FB4
:103C400081F06051704732F07F4208BF704793F0B7
:103C50007F4F04BF41F40021704730B54FF46074CA
:103C600001F0004521F000411CE700BF50EA0102CD
:103C700008BF704730B54FF000050AE050EA010276
:103C800008BF704730B511F0004502D5404261EBE6
:103C900041014FF4806404F132045FEA915C3FF427
:103CA000D8AE4FF003025FEADC0C18BF03325FEAC4
:103CB000DC0C18BF033202EBDC02C2F1200300FA75
:103CC00003FC20FA02F001FA03FE40EA0E0021FA9A
:103CD00002F11444BDE600BF70B54FF0FF0C4CF488
:103CE000E06C1CEA11541DBF1CEA135594EA0C0F3A
:103CF00095EA0C0F00F0DEF82C4481EA030621EA75
:103D00004C5123EA4C5350EA013518BF52EA0335AF
:103D100041F4801143F4801338D0A0FB02CE4FF061
:103D20000005E1FB02E506F00042E0FB03E54FF091
:103D30000006E1FB03569CF0000F18BF4EF0010E89
:103D4000A4F1FF04B6F5007F64F5407404D25FEA85
:103D50004E0E6D4146EB060642EAC62141EA555138
:103D60004FEAC52040EA5E504FEACE2EB4F1FD0C7A
:103D700088BFBCF5E06F1ED8BEF1004F08BF5FEAF8
:103D8000500E50F1000041EB045170BD06F00046AA
:103D900046EA010140EA020081EA0301B4EB5C0457
:103DA000C2BFD4EB0C0541EA045170BD41F480114F
:103DB0004FF0000E013C00F3AB8014F1360FDEBF74
:103DC000002001F0004170BDC4F10004203C35DA50
:103DD0000C341BDC04F11404C4F1200500FA05F3D3
:103DE00020FA04F001FA05F240EA020001F0004274
:103DF00021F0004110EBD37021FA04F642EB0601EA
:103E00005EEA430E08BF20EAD37070BDC4F10C0413
:103E1000C4F1200500FA04F320FA05F001FA04F2D7
:103E200040EA020001F0004110EBD37041F10001C3
:103E30005EEA430E08BF20EAD37070BDC4F12005CE
:103E400000FA05F24EEA020E20FA04F301FA05F236
:103E500043EA020321FA04F001F0004121FA04F2DE
:103E600020EA020000EBD3705EEA430E08BF20EAAE
:103E7000D37070BD94F0000F0FD101F000464000E8
:103E800041EB010111F4801F08BF013CF7D041EA6A
:103E9000060195F0000F18BF704703F0004652006E
:103EA00043EB030313F4801F08BF013DF7D043EA3F
:103EB0000603704794EA0C0F0CEA135518BF95EAF5
:103EC0000C0F0CD050EA410618BF52EA4306D1D17C
:103ED00081EA030101F000414FF0000070BD50EA9B
:103EE000410606BF1046194652EA430619D094EA25
:103EF0000C0F02D150EA013613D195EA0C0F05D10F
:103F000052EA03361CBF104619460AD181EA030162
:103F100001F0004141F0FE4141F470014FF000001A
:103F200070BD41F0FE4141F4780170BD70B54FF0B5
:103F3000FF0C4CF4E06C1CEA11541DBF1CEA135535
:103F400094EA0C0F95EA0C0F00F0A7F8A4EB050417
:103F500081EA030E52EA03354FEA013100F088800E
:103F60004FEA03334FF0805545EA131343EA1263D7
:103F70004FEA022245EA111545EA10654FEA00268C
:103F80000EF000419D4208BF964244F1FD0404F545
:103F9000407402D25B084FEA3202B61A65EB0305A1
:103FA0005B084FEA32024FF480104FF4002CB6EB5E
:103FB000020E75EB030E22BFB61A754640EA0C00DE
:103FC0005B084FEA3202B6EB020E75EB030E22BF1E
:103FD000B61A754640EA5C005B084FEA3202B6EB5F
:103FE000020E75EB030E22BFB61A754640EA9C001E
:103FF0005B084FEA3202B6EB020E75EB030E22BFEE
:10400000B61A754640EADC0055EA060E18D04FEAAB
:10401000051545EA16754FEA06164FEAC30343EA4B
:1040200052734FEAC2025FEA1C1CC0D111F4801F18
:104030000BD141EA00014FF000004FF0004CB6E711
:1040400011F4801F04BF01430020B4F1FD0C88BFB0
:10405000BCF5E06F3FF6AFAEB5EB030C04BFB6EBBB
:10406000020C5FEA500C50F1000041EB045170BDAE
:104070000EF0004E4EEA113114EB5C04C2BFD4EBDB
:104080000C0541EA045170BD41F480114FF0000E5F
:10409000013C90E645EA060E8DE60CEA135594EADB
:1040A0000C0F08BF95EA0C0F3FF43BAF94EA0C0FDE
:1040B0000AD150EA01347FF434AF95EA0C0F7FF453
:1040C00025AF104619462CE795EA0C0F06D152EAA7
:1040D00003353FF4FDAE1046194622E750EA41068B
:1040E00018BF52EA43067FF4C5AE50EA41047FF49C
:1040F0000DAF52EA43057FF4EBAE12E74FF0FF3C01
:1041000006E000BF4FF0010C02E000BF4FF0010CD1
:104110004DF804CD4FEA410C7FEA6C5C4FEA430C4A
:1041200018BF7FEA6C5C1BD001B050EA410C0CBF99
:1041300052EA430C91EA030F02BF90EA020F0020FB
:10414000704710F1000F91EA030F58BF994208BF62
:1041500090422CBFD8176FEAE37040F0010070471F
:104160004FEA410C7FEA6C5C02D150EA013C07D176
:104170004FEA430C7FEA6C5CD6D152EA033CD3D0C1
:104180005DF8040B704700BF8446104662468C46BB
:104190001946634600E000BF01B5FFF7B7FF0028EE
:1041A00048BF10F1000F01BD4DF808EDFFF7F4FF17
:1041B0000CBF012000205DF808FB00BF4DF808EDA2
:1041C000FFF7EAFF34BF012000205DF808FB00BFC5
:1041D0004DF808EDFFF7E0FF94BF012000205DF8E7
:1041E00008FB00BF4DF808EDFFF7CEFF94BF01209C
:1041F00000205DF808FB00BF4DF808EDFFF7C4FF95
:1042000034BF012000205DF808FB00BF4A0011D236
:1042100012F5001211D20DD56FF47873B3EB625220
:104220000ED44FEAC12343F0004343EA505323FA2C
:1042300002F070474FF00000704750EA013002D1A1
:104240004FF0FF3070474FF00000704770B5002608
:104250000C4D0D4C641BA410A64209D1FBF764FF62
:1042600000260A4D0A4C641BA410A64205D170BD5D
:1042700055F8043B98470136EEE755F8043B98475C
:104280000136F2E74C7A00084C7A00084C7A0008B4
:104290004C7A0008002B2DE9F0471F46BBBF03F105
:1042A00000431F4600232D2388B01446129A109D08
:1042B0001370149BDDF84CA023F02008B8F1460FD2
:1042C00005D0B8F1450F00D10135022300E00323EA
:1042D00007AA049206AACDE902A2CDE9003522463A
:1042E0003B4600F019FEB8F1470F064602D1119B7C
:1042F000DB0722D5B8F1460F06EB050910D133785C
:10430000302B0AD10022002320463946FFF74CFF0C
:1043100018B9C5F10105CAF80050DAF8003099441F
:104320000022002320463946FFF73EFF08B1CDF8B2
:104330001C903022079B4B4507D33046079B159AAC
:104340009B1B136008B0BDE8F087591C07911A70D9
:10435000F0E70346F7B5002903F8022BB6BF2D227C
:104360002B224942092942702BDD0DF10704A44696
:104370000A2791FBF7F60A46A64607FB1615632A9D
:1043800005F13005314604F1FF340EF8015CF0DC34
:104390003031AEF1020504F8011C2946441C614588
:1043A0000AD30DF10902A2EB0E02654588BF002277
:1043B0001344181A03B0F0BD11F8012B04F8012FB3
:1043C000EDE7302330318370C170031DF1E7000049
:1043D0002DE9F04F91B00C46DDF8688016461F4677
:1043E000054601F03BFD03681846099300F040FCC8
:1043F00000230E93D8F800300A90073323F0070308
:1044000003F1080294F81890D4F800B0C8F800201E
:10441000D3E90023C4E91223D4E9128A2AF0004325
:104420000B934FF0FF3240469C4B0B9902F04EFC31
:1044300070BB4FF0FF324046984B0B99FFF7C8FE18
:1044400030BB0022002340465146FFF7B7FE10B1B3
:104450002D2384F84330924B9248B9F1470F94BF13
:104460009846804603234FF0000A23612BF0040393
:10447000236033462146284600970FAA00F0D4F95E
:10448000013040F090804FF0FF3011B0BDE8F08F68
:10449000424653464046514602F018FC48B1BAF134
:1044A000000FB8BF2D238048B8BF84F843307F4B3E
:1044B000D3E7636809F0DF015A1C42D10623636029
:1044C000002206920EAACDE904920DAA4BF4806355
:1044D00003920DF13302CDE9013223606368424655
:1044E0000093284653460B91FFF7D4FE0B99804664
:1044F00047290D9908D1C81C02DB6368994240DD49
:10450000A9F102095FFA89F9B9F1650F1FD84A4686
:10451000013904F150000D91FFF71BFF0E9A8246FE
:104520001318012A236102DC2268D20701D5013366
:1045300023619DF83330002B9BD02D2384F843302A
:1045400097E74729BCD1002BBAD10123B7E7B9F1CE
:10455000660F18D1002963680BDD216113B9226849
:10456000D00702D501330B4423614FF0000AA16547
:10457000DFE713B92268D20701D50233F4E701233C
:10458000F2E74FF067090E9B994205DB2368216132
:10459000D807EAD54B1CE7E70029CCBF0122C1F1BF
:1045A00002021344E0E723685A0507D42369424610
:1045B00031462846B84701302BD164E7B9F1650F81
:1045C00040F2DD80D4E9120100220023FFF7ECFD68
:1045D000002833D0012331462846354AB8470130F8
:1045E0003FF451AFDDE90D239A4202DB2368D8077F
:1045F0000FD5DDE9092331462846B84701303FF49D
:1046000042AF4FF0000804F11A090E9B013B4345ED
:1046100009DC23689B0700F10281E0680F9B984248
:10462000B8BF184631E701234A4631462846B84705
:1046300001303FF428AF08F10108E6E70D9B002B9D
:1046400038DC012331462846194AB84701303FF487
:104650001AAFDDE90D23134302D12368D907D8D55A
:10466000DDE9092331462846B84701303FF40BAF56
:104670004FF0000904F11A0A0D9B5B424B4501DC27
:104680000E9B94E70123524631462846B847013035
:104690003FF4F9AE09F10109EEE700BFFFFFEF7F3C
:1046A0002C7600083076000838760008347600084A
:1046B0003C7600080E9AA36D9A42A8BF1A46002ABB
:1046C000914637DC4FF0000B29EAE97904F11A0230
:1046D000D4F858A0AAEB09035B4533DCDDE90D23D0
:1046E0009A423BDB2368DA0738D40E9B0D99A3EB83
:1046F0000A02A3EB01099145A8BF9146B9F1000F49
:1047000034DC4FF0000829EAE97904F11A0ADDE9FE
:104710000D239B1AA3EB090343457FF77AAF0123CF
:10472000524631462846B84701303FF4ACAE08F156
:104730000108ECE71346314642462846B8470130A7
:10474000C0D1A0E60123314628460B92B84701307C
:104750003FF499AE0B9A0BF1010BB9E73146DDE955
:1047600009232846B8470130BFD18CE64B46314675
:10477000284608EB0A02B8470130C2D183E60E9AF8
:10478000012A01DCDB0737D50123424631462846A2
:10479000B84701303FF477AEDDE9092331462846BA
:1047A000B84701303FF46FAED4E912010022002374
:1047B000FFF7FAFCD8B90E9B08F10102013B314624
:1047C0002846B84701300ED15DE601234A463146FE
:1047D0002846B84701303FF456AE08F101080E9B59
:1047E000013B4345F1DC534604F15002E0E64FF053
:1047F000000804F11A09F2E701234246DFE701232A
:104800004A4631462846B84701303FF43CAE08F1ED
:104810000108E3680F995B1A4345F0DCFDE64FF0B1
:10482000000804F11909F4E72DE9F0471646994606
:104830008A680B6907469342B8BF1346336091F804
:1048400043200C46DDF820800AB101333360236831
:10485000990642BF336802333360256815F00605B8
:1048600006D104F1190AE36832689B1AAB4228DCCE
:1048700094F84320131E226818BF012392062DD4FA
:104880004946384604F14302C047013020D023682E
:10489000E56803F00603042B18BF002532684FF0CB
:1048A0000006A36808BFAD1A226908BF25EAE575AE
:1048B0009342C4BF9B1AED181A34B5421AD1002096
:1048C00008E00123524649463846C047013003D12B
:1048D0004FF0FF30BDE8F0870135C4E73020E11824
:1048E00081F843005A1C94F845102244023382F8A0
:1048F0004310C5E70123224649463846C0470130E8
:10490000E6D00136D9E700002DE9FF470F7E91463A
:10491000782F80460C469A460C9D01F1430207D839
:10492000622F0AD8002F00F0D980582F00F0A48001
:1049300004F1420584F842703AE0A7F16303152BB5
:10494000F6D801A151F823F0A1490008B5490008A3
:10495000314900083149000831490008314900084F
:10496000B5490008314900083149000831490008BB
:1049700031490008C34A0008E5490008A54A000873
:104980003149000831490008E54A0008314900086A
:10499000E54900083149000831490008AD4A0008DE
:1049A0002B681A1D1B682A6004F1420584F8423006
:1049B0000123A4E020682968060601F104030AD552
:1049C0000E682B60002E03DA2D23764284F84330E4
:1049D0000A235E4819E00E6810F0400F2B6018BFE4
:1049E00036B2EFE72B682068191D2960010601D552
:1049F0001E6802E04606FBD51E886F2F0CBF0823F9
:104A00000A235248002184F843106568002DA8BF8E
:104A10002168A560A4BF21F0040121600EB9002D1A
:104A20004DD01546B6FBF3F103FB1167C75D05F8E2
:104A3000017D3746BB420E46F4D9082B0BD12368C3
:104A4000DE0708D5236961689942DEBF302305F887
:104A5000013C05F1FF35521B22614B462146404681
:104A6000CDF800A003AAFFF7DFFE01304CD14FF0D4
:104A7000FF3004B0BDE8F087344881F845702968FC
:104A8000236851F8046B29601D0614D5DF0744BF65
:104A900043F0200323601EB9236823F02003236022
:104AA0001023AFE7236843F02003236078232848CE
:104AB00084F84530E3E7590648BFB6B2E6E7154645
:104AC000BBE72B682668181D6169286035061B68DE
:104AD00001D5196002E07006FBD519800023154648
:104AE0002361BAE72B6800211A1D2A601D686268DD
:104AF000284601F027FA08B1401B60606368236113
:104B0000002384F84330A8E72A46494640462369F3
:104B1000D0470130ABD023689B0713D4E068039BD8
:104B20009842B8BF1846A4E701233246494640469A
:104B3000D04701309BD00135E36803995B1AAB4243
:104B4000F2DCEBE7002504F11906F5E73E760008F4
:104B50004F7600080FB40A4B13B51C6824B1A36943
:104B600013B9204601F0DCF805AB2046049AA16891
:104B7000019301F0A5FE02B0BDE8104004B07047FB
:104B80003002002070B50E46054618B183690BB996
:104B900001F0C6F8AB69AC6813B9284601F0C0F85B
:104BA0002C4B9C4220D16C68636EDB0705D4A38933
:104BB000980502D4A06D01F056F9A38919071DD5F7
:104BC0002369DBB1013EA36816F8011F013BA36016
:104BD00039BB002B38DA22460A21284600F050F86B
:104BE000013011D00A2511E01B4B9C4201D1AC6869
:104BF000DAE71A4B9C4208BFEC68D5E72146284605
:104C000000F090F80028DDD04FF0FF35636EDA0732
:104C100005D4A3899B0502D4A06D01F025F928468F
:104C200070BD002B04DAA2699A4206DC0A2904D07E
:104C300023685A1C22601970C5E72246284600F0F6
:104C40001FF80130BFD1DFE70A2523685A1C226014
:104C50001D70DBE7347700085477000814770008EC
:104C6000024B01461868FFF78DBF00BF30020020DD
:104C7000034613F8012B002AFBD1181A013870479C
:104C8000F8B50E461446054618B183690BB901F014
:104C900047F8214B9C422BD16C68A369A360A38980
:104CA0001A072FD523696BB323692068F6B2C01A9F
:104CB00063693746834204DC2146284600F09CFFA6
:104CC00030BBA3680130013BA36023685A1C2260FB
:104CD0001E706369834204D0A389DB0706D50A2EC0
:104CE00004D12146284600F087FF88B93846F8BD30
:104CF0000A4B9C4201D1AC68CFE7094B9C4208BFEC
:104D0000EC68CAE72146284600F00CF80028CBD012
:104D10004FF0FF37EAE700BF347700085477000808
:104D200014770008324B70B51D6806460C4625B155
:104D3000AB6913B9284600F0F3FF2E4B9C420FD10C
:104D40006C68A389B4F90C2019072CD4DD0611D4A2
:104D50000923336042F040034FF0FF30A3813EE06F
:104D6000254B9C4201D1AC68EBE7244B9C4208BF29
:104D7000EC68E6E7580712D5616B41B104F14403D2
:104D8000994202D0304601F097FC00236363A38967
:104D900023F02403A3810023636023692360A38994
:104DA00043F00803A38123694BB9A38903F420735B
:104DB000B3F5007F03D02146304601F07BF8A0898F
:104DC000B4F90C2010F001030AD00023A36063693A
:104DD0005B42A361236943B910F08000BAD170BD72
:104DE000810758BF6369A360F4E70020F7E700BFBD
:104DF0003002002034770008547700081477000848
:104E00002DE9F74F03690C690746A342C0F282807F
:104E1000013C00F1140501F1140805EB8403019332
:104E200058F8243055F8242001339A42B2FBF3F6A7
:104E30004FEA840B08EB840931D34FF0000E404653
:104E4000AC46F24650F8042B93B206FB03E3120C77
:104E50004FEA134E9BB206FB02E2AAEB0303DCF817
:104E600000A04FEA124E1FFA8AFA5344DCF800A061
:104E700092B2C2EB1A4202EB23429BB243EA0243D4
:104E800081454FEA224A4CF8043BDBD255F80B30FF
:104E90002BB9019B043B9D421A462FD33C613846F7
:104EA00001F0F2FA002825DB28464FF0000C01360D
:104EB00058F8041BD0F800E08BB2ACEB03031FFAE8
:104EC0008EF213440A0CC2EB1E4202EB23429BB249
:104ED00043EA0243C1454FEA224C40F8043BE7D283
:104EE00055F8242005EB840322B9043B9D421A4661
:104EF0000AD33C61304603B0BDE8F08F1268043B32
:104F0000002ACBD1013CC6E71268043B002AF0D14D
:104F1000013CEBE70020EEE72DE9F04F16461F4677
:104F2000446A99B00546CDE90467DDF8948074B908
:104F3000102000F0FFFF0246686220B9EA21A84B6A
:104F4000A84801F031FEC0E901440460C4606B6A06
:104F5000196851B15A68012393404A608B60284612
:104F600001F054F800226B6A1A603B1EAFBF0023A9
:104F7000012223F000430593A8BFC8F80030DDF8F4
:104F80001490994BB8BFC8F8002033EA090319D12F
:104F900042F20F73249A1360C9F31303334300F0F2
:104FA0007F85269B53B9914B22E0914B03930833A5
:104FB000269A1360039819B0BDE8F08F8B4B0393CA
:104FC0000333F5E7DDE90434CDE90C34DDE90C0108
:104FD00000220023FFF7E8F8804658B10123249A05
:104FE0001360269B002B00F0588582481860431EF2
:104FF0000393DFE716AB019317AB00932846DDE977
:105000000C2301F0E9FAC9F30A548346002C7FD03F
:10501000DDE90C010D9BA4F2FF34C3F3130343F04D
:105020007F5141F44011CDF84C800022724BFEF7C5
:105030009BFC65A3D3E90023FEF74EFE64A3D3E9EE
:105040000023FEF793FC064620460F46FEF7DAFDE6
:1050500061A3D3E90023FEF73FFE02460B4630462C
:105060003946FEF783FC06460F4601F045FE002256
:105070008246002330463946FFF7A0F848B1504633
:10508000FEF7C0FD32463B46FFF78EF808B90AF13D
:10509000FF3ABAF1160F58D8DDE90C01574B03EB74
:1050A000CA03D3E90023FFF789F800284FD0002373
:1050B0000AF1FF3A0F93169B1C1B631E099349BF0D
:1050C000C4F1010300230693002354BF0693099300
:1050D000BAF1000F3DDB099BCDF838A0534409938A
:1050E00000230A93229B092B00F28C80052BC4BF5E
:1050F000043B2293229BC8BF0024A3F10203D8BF24
:105100000124032B00F28A80DFE803F02D4F4D5B72
:10511000DDE916431C4404F23243202BC3BFC3F124
:10512000400304F2124009FA03F3C3F12003C6BF9F
:1051300026FA00F0184306FA03F0FEF753FD0123A8
:10514000A1F1F871013C13936FE70123B2E70F90CF
:10515000B1E7069BA3EB0A030693CAF100030A9387
:1051600000230E93BEE700230B93239B002B58DCF8
:105170004FF001094B46CDF82090CDF88C900022DD
:10518000686A4260042202F114069E4241684ED9C8
:10519000284600F0FBFE039000284CD102464FF455
:1051A000D571174BCCE60123DEE700230B93239B3D
:1051B0000AEB030909F10103012B0893B8BF01238E
:1051C000DDE70123F2E700BF61436F63A787D23FAA
:1051D000B3C8608B288AC63FFB799F501344D33FE6
:1051E0006D760008847600080000F07F697600087C
:1051F000607600083D7600080000F83F207800083F
:1052000002770008012400230B9422934FF0FF390A
:1052100000221223CDF820902392B0E701230B93B4
:10522000F4E7DDF88C904B46CDF82090A7E70131EC
:1052300041605200A7E76B6A039A1A60089B0E2B25
:1052400000F2A880002C00F0A580BAF1000F34DD38
:105250009A4A0AF00F0302EBC3031AF4807FD3E9E2
:105260000034CDE910344FEA2A1416D0DDE90C01E0
:10527000934B0327D3E90823FEF758FECDE9040139
:1052800004F00F048E4E54B9DDE91023DDE904016A
:10529000FEF74CFECDE9040129E00227F2E7E10721
:1052A00008D5DDE91001D6E90023FEF715FDCDE9AB
:1052B0001001013764100836E5E700F0A580DDE94C
:1052C0000C01CAF100047D4B04F00F0203EBC20392
:1052D000D3E90023FEF700FD02270023CDE90401F6
:1052E000774E2411002C40F08480002BD2D10F9BEC
:1052F000002B00F08B80DDE90434CDE91034DDE9CA
:10530000100100226F4BFEF759FF00287ED0089B4A
:10531000002B7BD0B9F1000F38DDDDE91001002250
:10532000694BFEF7D9FC4C46CDE904010AF1FF3880
:1053300001373846FEF766FCDDE90423FEF7CCFCB6
:105340000022624BFEF712FBA1F15076CDE910016D
:105350001196002C5DD1DDE9040100225C4BFEF7C3
:1053600003FB02460B46CDE904233346109AFEF7B1
:1053700043FF002840F09C82DDE90401109A06F109
:105380000043FEF71BFF002840F09082DDE90C345B
:10539000CDE90434179B002BC0F25281BAF10E0FF5
:1053A00000F34E81454B03EBCA03D3E90034CDE94A
:1053B0000634239B002B80F2DB80089B002B00F33C
:1053C000D78040F07282DDE906010022404BFEF7F3
:1053D00083FCDDE90423FEF705FF089C2646002830
:1053E00040F048823123039F0AF1010A07F8013B8C
:1053F00044E2E20705D5D6E90023FEF76DFC012360
:105400000137641008366DE7022770E7D046089C24
:105410008FE70399294B214412910B9903EBC403A5
:10542000DDE9106753E90223002955D000202949FE
:10543000FEF77CFD3B463246FEF796FACDE91001B9
:10544000039FDDE9040101F057FC0446FEF7DAFB97
:1054500002460B46DDE90401FEF786FA02460B46DA
:105460003034CDE90423DDE9102307F8014BFEF7C2
:10547000A5FE002874D1DDE9042300201149FEF7C0
:1054800073FADDE91023FEF799FE002840F0B7809B
:10549000129B9F423FF47AAFDDE9100100220A4BD4
:1054A000FEF71AFC0022CDE91001DDE90401064BEC
:1054B000FEF712FCCDE90401C3E700BF2078000825
:1054C000F87700080000F03F0000244000001C4076
:1054D000000014400000E03F30463946FEF7FCFB78
:1054E000129BCDE91001039C1493DDE9040101F046
:1054F00003FC1590FEF786FB02460B46DDE904012E
:10550000FEF732FA159B0646303304F8013B129B36
:105510000F469C424FF0000224D1DDE91001B04B50
:10552000FEF724FA02460B4630463946FEF764FE83
:10553000002863D1DDE910230020A949FEF714FA01
:1055400002460B4630463946FEF738FE00283FF447
:105550001DAF149F7B1E149317F8013C302BF8D01D
:10556000C2463BE09F4BFEF7B7FBCDE90401BCE729
:10557000039FDDE90489DDE9062340464946FEF73D
:10558000D5FC01F0B9FB0446FEF73CFBDDE9062340
:10559000FEF7A2FB02460B4640464946FEF7E4F9F9
:1055A00004F1300607F8016B039EDDF820C0BE1B36
:1055B000B44502460B4636D1FEF7D8F9DDE906239D
:1055C00080468946FEF718FE58BBDDE906234046B3
:1055D0004946FEF7E9FD08B1E10722D428465946BD
:1055E00000F014FD00233B70249B0AF101001860B9
:1055F000269B002B3FF4DEAC1F60DBE427463B46D6
:105600001F4613F8012D392A07D1039A9A42F7D180
:105610003022039908F101080A701A7801321A70D1
:105620009EE7D046EBE700226E4BFEF755FB0022CB
:10563000002380468946FEF7B7FD00289BD0CDE7C2
:105640000B9A002A00F0D080229A012A00F3AE8043
:10565000139A002A00F0A68003F233430A9C069FA7
:10566000069A01211A440692099A28461A44099278
:1056700000F082FD0646002F0CDD099B002B09DDA2
:10568000BB42A8BF3B46069AFF1AD21A0692099A55
:10569000D31A09930A9BF3B10B9B002B00F0A8804F
:1056A000002C10DD31462246284600F023FE5A46E3
:1056B00001460646284600F075FD804659462846B4
:1056C00000F0A4FCC3460A9B1A1B04D05946284686
:1056D00000F010FE83460121284600F04DFD0E9B90
:1056E0000446002B40F386801A460146284600F007
:1056F00001FE229B0446012B7FDD4FF00008236949
:1057000004EB8303186900F0E9FCC0F12000099B59
:10571000184410F01F0000F09280C0F12003042B09
:1057200040F38A80C0F11C00069B074403440693A3
:10573000099B03440993069B002B05DD59461A4635
:10574000284600F031FE8346099B002B05DD2146EB
:105750001A46284600F028FE04460F9B002B70D006
:105760002146584600F090FE00286ADA0023594688
:105770000A22284600F06CFC0B9B83460AF1FF3A94
:10578000002B00F09481314600230A22284600F0C5
:105790005FFCB9F1000F064600F39380229B022BB9
:1057A00057DC8EE0169BC3F1360357E7089B5C1E5F
:1057B0000A9BA342B7BF0A9B1C1BE21A0E9BBEBFEB
:1057C0000A949B180E93089BB8BF0024002BBBBF04
:1057D000069B089A069F9F1AACBF089B00233FE7D1
:1057E0000000E03F000024400A9C069F0B9E42E719
:1057F0000A9A6BE7229B012B19DC049BBBB9059B22
:10580000C3F313039BB9059B23F000431B0D1B053A
:1058100083B14FF00108069B01330693099B0133C6
:1058200009930E9B002B7FF46AAF01206FE74FF0C6
:105830000008F6E79846F4E73FF47DAF18461C30C1
:1058400072E7089B002B36DC229B022B33DDDDF850
:105850002090B9F1000F0DD121464B460522284674
:1058600000F0F6FB01460446584600F00DFE002805
:105870003FF7B8AD239B039F6FEA030A4FF0000880
:105880002146284600F0C2FB002E3FF4A7AEB8F137
:10589000000F05D0B04503D04146284600F0B6FBC6
:1058A0003146284600F0B2FB98E600242646E1E7A0
:1058B000C246264696E50B9BDDF82090002B00F0B3
:1058C000FD80002F05DD31463A46284600F06CFD8C
:1058D0000646B8F1000F5CD02846716800F056FB10
:1058E000074628B9024640F2EA217F4BFFF728BB62
:1058F000326906F10C01023292000C3000F030FBEC
:1059000001223946284600F04FFDB0460646039B6B
:1059100001330893039B4B440A93049B03F0010358
:105920000993089B2146013B58460493FFF768FA08
:10593000034641463033069058460B9300F0A4FDD1
:10594000324681462146284600F0BAFDC268074625
:105950000B9B02BB0146584600F096FD02460B9B8E
:1059600039462846CDE90B3200F050FB229B0C9AB9
:10597000089F43EA0201099B0B430B9B0DD1392B76
:1059800029D0B9F1000F01DD069B3133049A137061
:1059900076E73046B9E70122E2E7B9F1000F06DB0E
:1059A000229941EA0909099959EA010120D1002AFD
:1059B000ECDD594601222846089300F0F5FC21460B
:1059C000834600F061FD0028089B02DCDED1DA0787
:1059D000DCD5392BD8D13923049A13703B461F46A6
:1059E00017F8012C013B392A50D001321A7047E7D1
:1059F000002A03DD392BEED00133C7E7089A0A9954
:105A000002F8013C8A422AD0594600230A2228463D
:105A100000F01EFBB04583464FF000034FF00A0232
:105A20004146284607D100F013FB80460646089BF6
:105A30000133089375E700F00BFB314680460023E5
:105A40000A22284600F004FB0646F0E7B9F1000FF1
:105A5000CCBF4F4601274FF00008039A1744594620
:105A600001222846089300F09FFC2146834600F05F
:105A70000BFD0028B2DC02D1089BDB07AED43B460D
:105A80001F4613F8012D302AFAD0F9E6039A9A42FC
:105A9000A5D131230AF1010A79E7144BFFF7A8BA1F
:105AA000269B002B7FF481AA114BFFF7A1BAB9F115
:105AB000000F03DC229B022B3FF7CBAE039F214656
:105AC0005846FFF79DF9039A00F1300307F8013BB0
:105AD000BA1A9145BADD594600230A22284600F039
