:020000040800F2
:100000000002002059040008F5030008B1030008AD
:10001000050400081504000825040008000000007D
:100020000000000000000000000000009503000830
:1000300035040008000000007903000845040008AA
:1000400025010008250100082501000825010008F8
:100050002501000825010008110C0008110C0008FA
:10006000110C0008110C0008110C000825010008F3
:1000700025010008250100082501000825010008C8
:1000800025010008250100082501000825010008B8
:10009000250100082501000825010008110C0008B1
:1000A00025010008A716000825010008A116000870
:1000B0002501000825010008250100082501000888
:1000C0002501000825010008250100082501000878
:1000D00025010008B1080008B7080008BD0800089D
:1000E000110C0008692700082501000825010008F7
:1000F0002501000800000000250100082501000876
:100100002501000825010008250100082501000837
:100110002501000825010008250100082501000827
:100120002501000800F08EB900F0A0BA7047000069
:1001300070B50C46064600F089FA094B094A1D685D
:100140002C44944202D8084A944207D20C234FF020
:10015000FF35336000F082FA284670BD1C60F9E775
:1001600000020020004001202019002019461046FE
:1001700000F088BA1946104600F08CBA13230360C9
:100180004FF0FF307047132303604FF0FF3070478C
:10019000132303604FF0FF307047002302290360F0
:1001A0008CBF002001207047134A10B5146800204E
:1001B00094FAA4F28442B2FA82F208BF4FF0FF32FE
:1001C0000E4C0F4B54F822200E49126818600B6831
:1001D000A2F108049C420ED023B118790A2804BF6A
:1001E0000B2018710A23012002F8043C32F9022C7A
:1001F000054B0C601A8010BD9C020020B00200204C
:10020000A8020020A4020020A0020020092930B585
:1002100003791AD9092B14D842791A4B00F1080432
:1002200053F822507DB12D68856053F822502C6020
:1002300043F822400123144A4479A340146823431D
:100240001360017130BD8460F2E7092BF9D945795B
:100250000C4C54F825303BB11A6893420BBF002375
:10026000126844F825301A60427954F82230002B85
:10027000E7D10123044C03FA02F2236823EA0203C4
:100280002360DEE7B00200209C02002008B5094B85
:100290001B681A79092A02D95B79834205D900F0D3
:1002A000E0F918B10122044B1A6008BDBDE808400E
:1002B00000F05AB8A4020020A802002008B500F0FF
:1002C000C5F90021084B094A1B88094C1BB242F8AA
:1002D0002310084A20681368013B1360FFF796FF5C
:1002E000216000F03DF800BFA0020020F0020020D5
:1002F000A4020020AC02002013444FF0773223F018
:10030000030310B543F8042C5A0758BF4FF0883246
:10031000044658BF43F8082CA3F1040058BFA3F1CA
:1003200008004FF0807340E902430C4B002240F874
:100330000C3C0323022440E905320123024640E934
:1003400007340B2342F8201D42F8043D013B032BE8
:10035000FAD16FF0020340F8443D10BDBD02000821
:1003600000F078F901DFFEE7024A536843F080535A
:100370005360704700ED00E0EFF3098020E9F00FD3
:1003800040F804ED02490968086000F003F8000035
:10039000A4020020FFF708FF04480068016801C9B3
:1003A000B1E8F00F81F3098800470000A4020020A3
:1003B0000D4B0E4A0E496846904203D8984201D927
:1003C000002102E009468D460121042072460242C6
:1003D00002D1EFF3088001E0EFF309802DE9F00F7F
:1003E0006B4600F06FF800BF58010020004001206C
:1003F00000020020042008B5014900F03BFD00BFC9
:10040000DC3F0008062008B5014900F033FD00BFBD
:10041000E83F0008072008B5014900F02BFD00BFA8
:10042000FB3F0008082008B5014900F023FD00BF8C
:100430000D400008092008B5014900F01BFD00BF70
:10044000214000080A2008B5014900F013FD00BF53
:10045000334000087047704708B5FFF7FBFF6A4656
:10046000114B1249934213D3114B124A12498B423A
:1004700011D30021114B124A934211D3FFF7EBFF26
:1004800000F0EAFC02F0ECFDBDE8084000F024BDFD
:1004900043F8041BE6E752F8040B43F8040BE6E7C5
:1004A00043F8041BE8E700BF00000020FEE7FEE77A
:1004B00000020020F44500089C0200209C0200205D
:1004C000201900202DE9F04F8FB00A93494B924636
:1004D0009A6B044603925A6B9F6A0492DA6A8946C1
:1004E00005921A6BDB6B06920793434B1A68434BDA
:1004F0009A4202D0424802F065FEB9F1000F4FD097
:100500000025404802F05EFE2E463F4802F05AFEAB
:1005100039463E4802F0D0FD05993D4802F0CCFD39
:1005200006993C4802F0C8FD07993B4802F0C4FD1B
:100530003A0403D50399394802F0BEFD3B0603D5C2
:100540000499374802F0B8FD364802F03BFE5146A8
:10055000354802F0B1FDB9F1000F1CD1334802F06B
:1005600031FE3146324802F0A7FD6946314BC91AC7
:1005700003D53148494202F09FFD0A9E2046826819
:10058000C36801698C4641698E46AD46314691E8A3
:10059000F00F4168006801BE0520284900F06AFCA0
:1005A0002069D4E906680890606918F4007F099012
:1005B0002348D4E900B2D4E9023108BF04F1200590
:1005C000CDE90C3118BF04F124050B9202F0FAFDBD
:1005D000DDE90B230D991B480091594602F06CFD93
:1005E000DDE908123346CDF80080174802F064FDBB
:1005F0008BE700BF00ED00E000000020FEE7FEE713
:1006000041400008574000081C41000825410008EF
:100610003541000845410008554100086541000882
:1006200075410008854100088A4100089C41000886
:10063000CD41000858010020F54100082242000881
:1006400086400008A1400008DE400008EFF310805B
:1006500072B6704762B6EFF31080704780F310886F
:100660007047EFF30580C0B2704700004FF4E131EE
:100670000020024B024A00F0B9B800BF040200207B
:10068000F11000080A460146014800F03CBD00BFD9
:100690000402002010B50C460A460146002000F076
:1006A0006DF8204610BD0000182343430D4A70B575
:1006B000D45823889A069DB209D50C2358430A4A78
:1006C000A18813181E7A12583140586890472B079A
:1006D00048BFA388054B1B681BB1BDE87040FFF7FE
:1006E00043BE70BD38420008B4030020A8020020B9
:1006F0002DE9F041182444431F4E0D4606EB040833
:1007000098F81470384600F077FEB0FBF5F0072833
:1007100008D83846D8F8041000F096FE6FF00100B3
:10072000BDE8F08133590F289A8922F400524FEA2C
:1007300002424FEA12429A819989C2B211D86FEAF5
:1007400041416FEA5141083A89B242F01002998161
:10075000D2B21A819A89002092B242F400529A8150
:10076000DEE7C1F30E0199814FF6F07102F00F023E
:1007700001400A43EDE700BF38420008022810B5E7
:1007800003D903200C4900F075FB182358430B4B89
:100790001B589889000705D50A44914203D11A884D
:1007A0005206FCD510BD11F8010B1C882406FCD59F
:1007B00080B29880F1E700BFF64200083842000896
:1007C000022808B503D90320064900F053FB18227C
:1007D000054B02FB0030BDE808404168007D00F099
:1007E0001BBE00BFF64200083842000802282DE96F
:1007F000F84304460F46164603D90320284900F063
:1008000039FB0C22182562432648DFF89C808118AA
:100810004B60FF2305FB0485D5F80C9086500B72C6
:100820004846697C00F080F9484600F0E5F9484602
:10083000E97C00F0B6F94EB1D5F80890297C48461D
:1008400000F072F94846A97C00F0ABF92046FFF7AA
:10085000B7FF1823634358F8035008EB030900233C
:100860003946AB8120462B82AB82FFF741FF9EB118
:1008700099F9153099F81520002B07DB02F01F01BC
:1008800001228A4009495B0941F8232042F22C03E6
:100890000020AB81BDE8F88342F20803F8E700BF0F
:1008A000F6420008B40300203842000800E100E0EE
:1008B0000020FFF7F9BE0120FFF7F6BE0220FFF788
:1008C000F3BE00007D4B01282DE9F74F187006D0CC
:1008D000022820D04FF0FF3003B0BDE8F08F784BF6
:1008E0001A6842F00E021A601A6842F400721A6026
:1008F0005A6842F4E0625A60724A136943F0040392
:100900001361FFF7A3FEBFF34F8F30BFFFF7A6FEC3
:1009100000F072FCDEE76A4B6B4F1A68DFF8AC91AF
:1009200022F002021A601A68DFF8A48142F0040281
:100930001A601A68674E42F001021A601A68B246DD
:1009400042F400721A605F4AC3461369624C43F076
:1009500004031361FFF77AFE4B4605463A462046EC
:10096000CDE9002300F078FBDDE900235B49002896
:1009700073D15B4C0023A246DFF868B1DBF80000BE
:10098000818911F400517AD08189009321F40051BA
:100990000904090C81810421DBF80C0000F0C4F883
:1009A0000122009B22700133032B0BF1180B04F181
:1009B0000104E3D14FF48051012000F05FFD0128D4
:1009C0000FD1494B1B889A075BD40821474800F098
:1009D000ABF80821464800F0A7F80321454800F08D
:1009E000A3F84FF48041002000F048FD01280FD10A
:1009F000414B1B889B0746D40821404800F094F8DF
:100A000008213F4800F090F803213E4800F08CF8A0
:100A1000BFF34F8F30BF00F0EFFB2F4CDFF8BCB0BF
:100A2000204600F019FB80BB9AF800302BB1364A03
:100A300093899BB243F4005393819AF801302BB110
:100A4000324A93899BB243F4005393819AF802305F
:100A500063BB2846FFF702FE3CE7206842F8040B20
:100A6000E06843F8040BA0882BF8020B208D04F5F6
:100A700080648C422AF8020B7FF471AF79E7217011
:100A800091E70421A2E70421B7E759F8043BE360AA
:100A900038F8023BA38057F8043B236036F8023B4A
:100AA000238504F580645C45BAD1BDE7184A938973
:100AB0009BB243F400539381CBE700BF3B0400207B
:100AC0000070004000ED00E0E80300201804002062
:100AD00008040020D803002000000240002002404B
:100AE0003804002080420008003001400500024028
:100AF0000700024006000240003800400D0402409A
:100B00000F0402400E04024000380140004400403F
:100B10000048004008B5FFF799FD0022014B1A700C
:100B200008BD00BF3B040020F8B5431C0C4637D07D
:100B3000012620F00F0500F00F07C0F3832006FA0E
:100B400000F1022000F068FCFFF780FD03232A6813
:100B500007FA06FC03FA0CF304F0030122EA03028D
:100B600001FA0CF111432960E968C4F3810221EA1A
:100B7000030102FA0CF20A43EA60AA88BE4092B26C
:100B8000C4F3001422EA0602BC401443A4B2AC80B1
:100B9000AA68B6B21343AB602E85FFF75FFD002055
:100BA000F8BDF8B5431C04460D4624D020F00F06CE
:100BB00000F00F07FFF74AFD0323326879008B40EE
:100BC00022EA030202238B401343072F33608CBFBA
:100BD000042300231E440F2304F00704316AA400F9
:100BE000A34021EA030105FA04F40C433462BDE892
:100BF000F840FFF733BDF8BD431C07D0012320F0B8
:100C00000F0200F00F0003FA00F09061704700003F
:100C10002DE9F04100244FF001080D4F0D4D7E6984
:100C20003B681E4008FA04F3334203D07B61D5E9E8
:100C3000003098470134102C05F10805F2D1064B1D
:100C40001B681BB1BDE8F041FFF78EBBBDE8F0812A
:100C5000000401403C040020A8020020002000F015
:100C6000C7BC000038B5044C2568FFF7F7FF2368C0
:100C7000AB42F9D1184338BDC4040020034B1968B6
:100C800019B982B2084600F08FBC7047BC0400203E
:100C90002DE9F043294E336803F580333360336820
:100CA0001BB9274A1368013313600020254B264DDA
:100CB0001A6818602B6884461946244FDFF880E0D4
:100CC000DFF88C803A6029B1DEF80040D1F8089056
:100CD000A14517D900B12960BCF1000F10D0002147
:100CE000CCF800103AB3C3B1546859688C4294BF31
:100CF00010461846014612681B6882B90B603860BE
:100D0000BDE8F0834C68D6F8009004EA08044C452E
:100D1000E0D18C4601200968D5E71046EAE70BB917
:100D20000A60ECE756685D68AE4294BF14461C4604
:100D30000C602146DFE73B60E2E700BFC40400200F
:100D4000C0040020CC040020C8040020D0040020EF
:100D50000000FFFF2DE9F041002965D10123334F49
:100D6000334D3B602B68CBB9FFF792FF4FF6FF7412
:100D7000FFF774FFA042FBD000244FF000082B685F
:100D800083B9FFF76BFF1430844228D9FFF780FF47
:100D9000FFF764FF8442FBD30024F0E7FFF75EFF18
:100DA0000446EAE75E68FFF759FF844205D8B3B20C
:100DB000834202D91B1A132BE3D82B685E68FFF716
:100DC0004DFF844202D8B6B28642F6D82B681A6824
:100DD000C3E901882A60D3E903209047CFE72B6855
:100DE0006BB15E68FFF73EFF063E14308642C6D305
:100DF000002330463B60BDE8F041FFF73FBFFFF7FF
:100E00002DFF8442064602D9FFF742FFC4E700F1F6
:100E100014039BB2984204D9FFF720FF8642FBD906
:100E2000F2E74FF6FF76E3E7BDE8F081BC0400206F
:100E3000D004002008B50023054A1846054900F0F3
:100E4000EBFBBDE808404FF0FF30FFF717BF00BFD6
:100E5000550D000840420F0008B500F087F9BDE8C5
:100E6000084001210148FFF75FBE00BF00040240B7
:100E70007047000008B50C4B0C461A6872B9012285
:100E800003281A6003D17146084802F015F921467B
:100E9000074802F011F9074802F00EF9FFF7D6FBF8
:100EA000FFF7E6FFFFF736FED4040020C842000833
:100EB000CC420008E842000808B500F01FFD0348D6
:100EC00002F0FAF800F088FC002008BD0843000892
:100ED00008B500F02BF9FCE71FB50024FFF7B6FBBF
:100EE0000D4B0F221B684FF4807102930B4B0C4883
:100EF000009301940C2300F033F80A4B07221B687F
:100F00004FF44061CDE90143074B084800930C239F
:100F100000F026F8FFF724FA18020020D10E00088E
:100F2000D80400201C020020B90E0008D8050020BB
:100F300038B50B79092B03D903200849FFF79AFF2D
:100F40004C7901F108020346006818B110F8035CFF
:100F5000A542F8D988601A6038BD00BFF642000883
:100F60000F2A2DE9F74F05468A469046994637D80D
:100F700010F003030FBF0B46C3F10402043B5B18E0
:100F8000A3F1300318BFAD1823F0030319F0080FC5
:100F900005EB03041AD12D6003E012600432A24273
:100FA000FBD30193FFF752FB012207462849019B1F
:100FB00051F822600FFA82FBAEB10132212AF7D13B
:100FC0003846FFF74BFB6FF08A0B3CE02A46E6E71A
:100FD00001212046FFF71AF93846FFF73FFB32E0C0
:100FE0006FF0150B2FE041F822402A46DDE90C0195
:100FF000A4F806B0FFF780F90E9B164AA3624FF0E3
:10100000FF33C4E90736136819F0010F03F1010338
:101010002060C4E90266C4E904666562C4F82CA0D5
:1010200084F805802671A6611360D1D10B2120467A
:10103000FFF7ECF819F0040FCED13846FFF70EFB9E
:101040004046FFF723F9584603B0BDE8F08F00BFD4
:10105000F0020020AC0200200C4B9A6A42F40042DD
:101060009A62EFF3138171B65A6942F480725A6141
:101070000278986A5A6922F480725A6181F313885F
:1010800080F40040C0F3C030704700BF00ED00E0C6
:10109000F8B505460F46164604463C442046FFF781
:1010A000DBFF631B08B19E42F7D81846F8BD00006D
:1010B0000C4B0D4A102110B59A6000220B4C83F89E
:1010C0002210D977A0180132392A80F80013F9D1FB
:1010D0001A6942F010021A615A6942F400725A61A8
:1010E00010BD00BF00ED00E00000000800E100E0DE
:1010F00038B5054600F0F6FA044605F1100000F098
:10110000D5FE204638BDF8B504460D46164600F11A
:10111000100732462946204600F0D1FA00B1F8BD4A
:101120000121384600F092FEF3E7000073B50E4E41
:101130003368019304230DEB03021D46013B995CC8
:1011400011B9002BF9D11D46FFF780FA3368019AD7
:1011500004469A4202D168B2FFF7B4FB204602B0BF
:10116000BDE87040FFF77ABA200200202DE9F04771
:10117000FFF79EFF4FF08051002000F04DF900F086
:101180003BF81A4BFF210220DE69002500F044F9EC
:101190006FF0A8474FF0FF386FF4A079F6B2AC02B9
:1011A00004F1804404F5003420465FFA85FAFFF725
:1011B00053FF50B12DB1BAF1010F14D0C4F8008023
:1011C00000E027600135082DE9D1084B0220D969DC
:1011D00021F0FF01314300F01FF900F096FABDE85D
:1011E000F04700F063B9C4F80090EBE70038024024
:1011F0000138FDD170470000774B37B51A68774D3D
:1012000042F480721A609A6822F47F5222F030020F
:101210009A609A6822F0EE429A609A6822F003027D
:101220009A6019686E4A0A4000211A60D9602A68DB
:10123000022A00F0AF80B2F5003F1A6842F4803213
:101240001A6040F0AC8064490A682B681A42FBD0EF
:10125000644B1A6842F004021A601A6842F00102F4
:101260001A601A6842F002021A609A691207FCD5E5
:101270004FF08051002000F0CFF85B4B1A680092CD
:10128000009A22F4C0520092009A42F40062009246
:10129000009A1A605A68D406FCD44F4C0620636842
:1012A0000093009B23F460430093009B43F440436E
:1012B0000093009B6360FFF79BFF236843F00103EB
:1012C0002360A36823F47D03A360A36843F40003B1
:1012D000A360236843F08073236023689801FCD5E2
:1012E0001A20FFF785FF236823F0807323603A4BB1
:1012F0001A689101FCD49A6822F47D029A602A68E7
:10130000B2F5003F9A680CBF42F4050242F40802AD
:101310009A60314B1A6842F080721A601A68920122
:10132000FCD540F201129B6830490093009B23F0EA
:10133000030300932B68B3F5003F08BF1146009BE1
:1013400043F003030093009A234B9A609A6802F0DB
:101350000C020C2AFAD11A6822EA01021A60244906
:10136000244A11629A680092009A22F0F0020092D8
:10137000009A0092009A22F4E0620092009A009291
:10138000009A22F460520092009A0092009A9A60A9
:1013900003B030BD1A6842F001021A6053E74FF4FF
:1013A000003242F210702A60019119682A681142D5
:1013B0007FF449AF019A01320192019A8242F4DD31
:1013C0001A6842F001021A601A6822F480321A6028
:1013D00002232B6037E700BF00380240D8110020FD
:1013E000FEFFFAEE003C02400070004000010100E8
:1013F0000048E801DC110020014B186A704700BF6B
:10140000DC110020024A034B1B5C106A58437047F2
:10141000DC11002042430008012809D002280CD02A
:1014200018B9084A536A19435162BFF34F8F704786
:10143000044A136A19431162F7E7024AD369194350
:10144000D161F2E700380240012808D002280CD010
:1014500080B9094A536A23EA010151627047064A7A
:10146000136A23EA010111627047034AD36923EA30
:101470000101D161704700BF00380240012809D046
:1014800002280AD060B9084B5B6A0B4214BF0120E6
:1014900000207047044B1B6AF7E7034BDB69F4E756
:1014A0004FF0FF30704700BF0038024038B54FF4AE
:1014B000A0324FF480614FF00050FFF7E9FD0425A2
:1014C000144C4FF400224FF4806120604FF0006014
:1014D0002571FFF7DDFD4FF48073A060000A4FF423
:1014E0008042E0604FF400610B4823612575FFF7EF
:1014F000CFFD0A4B25771B68A061C3F30B03A3F252
:101500001643212B8EBF0023054AD35C84F8243078
:1015100038BD00BFDC11002000000808002004E0F6
:10152000444300082DE9F843074600241B4A030101
:10153000D658DFF86C90338AB58909EBC008ADB294
:101540001D40022303FA04F22A420AD0B38921463D
:101550009BB223EA0203B381D8F8040059F837306C
:1015600098470123A3402B420BD0338A214623F016
:1015700001031B041B0C3382D8F8040059F83730E0
:1015800098470134042CDCD1064B1B681BB1BDE825
:10159000F843FEF7E9BEBDE8F88300BF68430008E2
:1015A00004120020A8020020032910B51ADC0F4BFA
:1015B000040103EB00101C59436800201A4001F19C
:1015C0000C0304EB83035A60238A9AB2022303FAC2
:1015D00001F109B222EA01032382A389194389B2E6
:1015E000A18110BD4FF0FF30FBE700BF684300084A
:1015F000024B00011B58586A704700BF684300083F
:10160000044B00011A5813889BB243F00103138066
:10161000704700BF6843000801282DE9F8430446DD
:101620000F4633D81B4D1C4E45F8302005EBC00546
:101630006B6006EB001595F80C80A9684FEA00195D
:101640004046FFF7E9FE002356F809604046338024
:10165000B3806B68F362FFF7D5FEB0FBF7F00122B1
:1016600095F90D30013880B2002B3085697BB2824C
:1016700006DB01F01F018A4008495B0941F823207D
:101680002046FFF7BDFF0020BDE8F8834FF0FF3094
:10169000FAE700BF041200206843000800E100E000
:1016A0000020FFF73FBF0120FFF73CBF82680168C1
:1016B000531C83604368013B1340C85C7047F8B516
:1016C00004460F46164615461DB1A268E3689A42C5
:1016D00001D1701BF8BD2046FFF7E8FF013D07F878
:1016E000010BF1E7C26830B584684368121B9A4267
:1016F00008D0C2680468551CC5600020013B134037
:10170000E15430BD4FF0FF30FBE7704713B5094C93
:1017100009482268531C0D2B2360815407D1074BC5
:101720006846B3F9001000F081FC0023236002B08A
:1017300010BD00BF2412002014120020DC12002073
:101740002DE9F347074600266425DFF84880DFF8D7
:101750004890B74202DC02B0BDE8F087404600F096
:1017600001FA8246404600F02DFB0446404600F058
:101770006BFAB4FBF5F39AFBF5F1B0FBF5F005FB62
:101780001344019005FB11A24846009401F094FC1B
:101790000136DEE728120020884300082DE9F041D9
:1017A00005460024094E0A4FDFF82880A54201DCD7
:1017B000BDE8F0813846054900F0F2FE18B9404610
:1017C000316801F079FC0134F0E700BF58120020C5
:1017D00030020020B14300081FB5194801F06CFC2D
:1017E00000234FF4E1311846164AFEF7FFFF044686
:1017F00038B1154801F060FC4FF0FF34204604B0CA
:1018000010BD124800F094FE10B9114801F0DAFC46
:101810001049114800F0BAF810B9104801F0D2FC94
:101820000F4B06220293002301930E4B4FF4C0612D
:1018300000930D480823FFF793FB0C4B1880DDE75E
:10184000C14300080D170008D543000830020020EE
:10185000ED43000824020020281200201044000854
:10186000324400088D180008DE120020DC1200202F
:101870000B230020044A12F8011B013B13F0FF0365
:101880000844F8D1704700BF141200202DE9F3413D
:10189000154801F011FC1021144800F0EFFB144F23
:1018A000DFF85080144E684600F0E4FB0025344613
:1018B000384616F8011B013501F0FEFB0B2DF7D160
:1018C000FFF7D6FF0146404601F0F6FB237A0A2BCC
:1018D00003D1A07AFFF762FFE4E70C2BE2D1A07AF4
:1018E000FFF72EFFDEE700BF424400085C12002035
:1018F00060440008684400081412002008B5FFF78F
:1019000099FABDE8084000F039BD30B5044685B00D
:1019100000680D4601F090F800232A4621790093D3
:1019200020680DF10F0301F07BF9206801F0A2F8A7
:101930009DF80F0005B030BD73B5044600680D4634
:10194000164601F079F800232A46009321793346A0
:10195000206801F097F9206802B0BDE8704001F0FE
:1019600089B8000038B5084D2C6800F0BBFE2B6824
:101970009C42F9D104434FF47A70A4FB0040A40ABE
:1019800044EA805038BD00BFF418002030B504464A
:1019900007C9A3B084E8070001F04EF8206800F002
:1019A000B9FFD0212046FFF7B0FF602809D05828A2
:1019B00007D0206801F05EF84FF0FF35284623B0CD
:1019C00030BD8022002102A801F06EFB206801F0EA
:1019D00033F8602300222179CDE900322068882283
:1019E00002AB01F0F7F80546206801F043F845B175
:1019F0005B4801F061FB206801F03CF86FF00105E5
:101A0000DCE79DF809209DF8083003EB0223A38151
:101A10009DF80B209DF80A3003EB0223E3819DF82B
:101A20000D209DF80C3003EB022323829DF80F203C
:101A30009DF80E3003EB022363829DF811209DF880
:101A4000103003EB0223A3829DF813209DF812307F
:101A500003EB0223E3829DF815209DF8143003EB7D
:101A6000022323839DF817209DF8163003EB0223F1
:101A700063839DF819209DF8183003EB0223A3839C
:101A80009DF81B209DF81A3003EB0223E3839DF899
:101A90001D209DF81C3003EB022323849DF81F209A
:101AA0009DF81E309DF8641003EB022363849DF8BB
:101AB00021309DF8622084F824309DF86130206840
:101AC00003EB0223E3849DF8633084F828309DF80B
:101AD000653003F00F0202EB011262859DF866206B
:101AE0001B0903EB0213A3859DF8673084F82E30A1
:101AF00000F0A2FF2B462179F4222068009501F026
:101B0000C1F8206800F0B6FFA2796379920002F074
:101B10001C0242EA43122046F52102F0FC02FFF7C4
:101B20000BFFE27A2046F22102F00702FFF704FFE2
:101B3000227A637A02F0030242EA4312A37AF42182
:101B40009B0003F01C031A432046D2B2FFF7F4FEB9
:101B5000206800F08FFF206800F08CFF2EE700BFA8
:101B60006F44000873B50446F421FFF7CEFE227AD5
:101B700000F0030393421BD000F0FC000243F42169
:101B80002046FFF7D9FEFFF7EDFE064600210A20AA
:101B900000F09AFAF3212046FFF7B7FE00F008059F
:101BA000FFF7E0FE801BB0F5FA7F16D2002DEDD1D5
:101BB000206800F041FF082300221E4DCDE90032CD
:101BC00021792B46F722206801F004F806462068A8
:101BD00000F050FF6EB1184803E001D1002DE7D0AE
:101BE000164801F069FA206800F044FF144802B07A
:101BF00070BD2A79EB78120142EA03326B7942EA2E
:101C00001310A389C3EB121252435B00C3EBD00342
:101C1000B4F90E0012134343B4F91000504380137B
:101C200000EBE320074B186000EB8000803040F3AE
:101C30000F20DCE7DE180020A644000890440008CE
:101C40000080FFFFE81800202DE9F04104465B4BBF
:101C5000B4F91A5058781E78000140EA06309E7890
:101C6000574B40EA16161A68B4F91C004FEAE27E98
:101C7000B2F5FA324EF1FF3EA2FB02C702FB0EF3B1
:101C800007EB430700FB07F3C1170CFB0131A0FB77
:101C90000C030B4405FB0EF14FEAE57802FB08113B
:101CA000A5FB02584144490441EAD5316D04281886
:101CB0000546B4F9140043EB010100FB0EFEB4F934
:101CC000183001EBC301C31702FB03EEB4F9163061
:101CD000A0FB02025F4372444FEAE37E0CFB0E77E7
:101CE000A3FB0C3C1203BC441B0A42EA105243EA19
:101CF0000C6300031B18608A42EB2C22A3FB003C00
:101D000002F5004200FB02CC4FEAEC7353EA6C0090
:101D10004FEA6C024FD0C6F5801000F0004646EA4C
:101D20005006C007401B40F6354566EB0106A0FB98
:101D3000050105FB061100F0D7FF8446B4F9222007
:101D40004F1302FB07F6430B43EAC143D51703FBCE
:101D50000566A2FB0325354402FB07F603FB056677
:101D6000A2FB03231E44530EB4F9205043EAC613CA
:101D70001B1841EB66666943EA1702FB0011A5FBDD
:101D80000C5CB4F91E006144ED0C45EA41355D1967
:101D90004FEAE07446EBE1412D0A240144EA107455
:101DA00045EA01650001401944EB2124000A40EA9C
:101DB0000460BDE8F0814FF0FF30FAE7DE18002044
:101DC000E818002010B51F4B90F92E101C681E4B10
:101DD000A4F59634DB8861435BBA9AB2B0F92A3035
:101DE00089121B05C3EB8233B0F92C2004FB12339C
:101DF00003F58043DA1390F828306343DB1203F5D0
:101E000000434B43B0F926109B1203F500134B43DC
:101E100003F500539B135343DA13524390F8240005
:101E2000D2115043A3EB201020EAE070B0F1C85F5C
:101E3000A8BF4FF0C8506423000B5843C0F38F2055
:101E400010BD00BFE8180020DE18002070B5044661
:101E50000D46FEF7FBFB236806463BB94FF0FF3308
:101E60002360FEF7FBFB0125284670BDC5B10E4B74
:101E700002211D682846FEF7C9F9236801330AD1FB
:101E800005F1080323600023AB603046FEF7E6FB54
:101E9000FEF76AFAE7E729462046FFF749F8F4E734
:101EA000FEF7DCFBE0E700BFA402002070B50446AB
:101EB000FEF7CCFB256806461DB9BDE87040FEF76D
:101EC000CDBB6B1C02D100232360F6E7284650F8F7
:101ED00008390B212360FEF799F9236813B94FF0F5
:101EE000FF33236015F8034C3046FEF7B7FB20465E
:101EF000BDE87040FEF7CAB9F8B505460E46FEF7D4
:101F0000A5FB3B4B3B4A1B8807461BB252F82330CC
:101F10001A6A002A66D0D3E90542A24262D0621C46
:101F20005A61DA69144046B91A6932B9621C04D19F
:101F30003846FEF793FB2046F8BD002C56DB1A6AA4
:101F400002EBC40292E8030085E803001E69002E3C
:101F500042D03268002C1A610DDBD3E9062559699D
:101F6000186A511A8D42B1BF4FF0FF32511C2A40FE
:101F7000996100EBC205736893E8030085E80300EC
:101F800016F8043C052B25D000230B217360A6F125
:101F90000800FEF73BF916F8034C3846FEF75EFBE7
:101FA0000E2C12D82046FEF771F90EE018460321D8
:101FB000FEF72CF93846FEF751FBFEF7D5F90E4B2C
:101FC0001B681B79032BD8B201D00124B3E70B495E
:101FD000FEF750FF0F24E0E7002CE7DB3846FEF762
:101FE0003DFBF2E74FF0FF34002E9DD0DD60ADE702
:101FF000A0020020F0020020A4020020F642000807
:1020000010B5D0E9063244691C1BA24201DA002057
:1020100010BD5C1C13408461F9D4026A03C902EB51
:10202000C30383E803000120F2E7000008B50F4B6B
:1020300053F82130B3B1212202801A79032A0BD13F
:1020400003C8DA6882E8030018460B21FEF7DEF8C1
:102050000120074B186008BD01461846BDE808403E
:10206000FFF7CEBF4FF0FF30F5E700BFF0020020D2
:10207000A80200200121FFF73FBF000008B5074B71
:102080004A1E1B681140186203D003200449FEF762
:10209000F1FEC3E90511DA6108BD00BFA40200200A
:1020A000F6420008FFF702BF38B5044600F01AFBFD
:1020B0000546C4F30E0400F015FB431BC3F30E03E7
:1020C0009C42F8D838BD000030B587B004460D46B4
:1020D000FEF7C7FA50B11DB103200F49FEF7CAFE43
:1020E000204607B0BDE83040FFF7DEBF0B4BCDE91F
:1020F00002000090012168460493CDF814D0FFF748
:10210000A5FE2A46214601A800F0E2F90121684611
:10211000FFF79CFE07B030BDF6420008A52000087E
:1021200038B5044C256800F0DDFA2368AB42F9D1DC
:10213000184338BDF4180020044B1A6822B904492A
:10214000C0F30E0000F0DEBA704700BFEC180020AC
:102150004522000810B5094A136843B19C6881689C
:102160008C4207D303D15C6841688C4202D903607A
:10217000106010BD1A461B68EFE700BFF81800207A
:102180002DE9F043294E336803F50043336033688B
:102190001BB9274A1368013313600020254B264DD5
:1021A0001A6818602B6884461946244FDFF880E0CF
:1021B000DFF88C803A6029B1DEF80040D1F8089051
:1021C000A14517D900B12960BCF1000F10D0002142
:1021D000CCF800103AB3C3B1546859688C4294BF2C
:1021E00010461846014612681B6882B90B603860B9
:1021F000BDE8F0834C68D6F8009004EA08044C452A
:10220000E0D18C4601200968D5E71046EAE70BB912
:102210000A60ECE756685D68AE4294BF14461C46FF
:102220000C602146DFE73B60E2E700BFF4180020C6
:10223000F0180020FC180020F818002000190020D9
:102240000080FFFF2DE9F04100F04CFA0123324FEE
:10225000324D3B602B68044683B14FF000082B6879
:10226000B3B900F03FFA0330844230D9FFF788FF5A
:1022700000F038FA8442FBD30024F0E7FFF780FF38
:1022800047F6FF7400F02EFAA042FBD00024E4E7EA
:102290005E6800F027FA844206D8C6F30E03834234
:1022A00002D91B1A022BDCD82B685E6800F01AFAE0
:1022B000844203D8C6F30E068642F5D82B681A6806
:1022C000C3E901882A60D3E903209047C7E72B6858
:1022D00063B15E68FFF724FF03308642BFD300235B
:1022E00030463B60BDE8F041FFF726BF00F0FAF949
:1022F0008442064602D9FFF743FFBDE7C31CC3F380
:102300000E03984204D900F0EDF98642FBD9F2E7BA
:1023100047F6FF76E3E700BFEC1800200019002025
:10232000134A136883420FD11B68136013B15868B6
:10233000FFF702BF47F6FF70FAE7984202D1036841
:10234000136070471A461B68002BF6D1094A1368C0
:102350001BB9094A13682BB970479842EFD01A4647
:102360001B68F5E79842EAD01A461B68F3E700BFFE
:1023700000190020FC180020F818002008B500F013
:102380005DF9BDE808404FF0FF30FFF7D5BE000013
:10239000F8B504460D46FFF7C3FE002323602B1A51
:1023A000032B06460ED8C5F30E0500F09BF98542B7
:1023B000FBD300F097F98542FBD8D4E90330984766
:1023C0000020F8BDFEF742F9636807460BB9A36821
:1023D00013B12046FFF7A4FF47F6FE731F4AAB4335
:1023E00008BF023D1368AE4288BF0133A360136883
:1023F000A26865609A4207D8194B1A6825F4FF4312
:1024000023F07F039A4206D02046FFF7A3FE38460A
:10241000FEF724F9D4E7C6F30E06B5420FD9114BE7
:1024200019461A6812B15068854214D222601C60A5
:102430000B689C42EBD12846FFF77EFEE7E70A4A8D
:10244000136813B159688D4202D223601460DEE72D
:102450001A461B68F5E713461268E3E7F0180020F8
:10246000F418002000190020FC18002038B504469C
:10247000FEF7ECF8636805460BB9A36813B1204674
:10248000FFF74EFF2846BDE83840FEF7E7B8C368BF
:1024900070B504460D46D3B1FFF7E8FF022D0ED804
:1024A00000F020F9064600F01DF9831BC3F30E036C
:1024B0009D42F8D8D4E90330BDE870401847FFF7D3
:1024C0002FFE29182046BDE87040FFF761BF70BDA0
:1024D0002DE9F04704460E4615461AB9BDE8F04707
:1024E000FFF7D5BFFEF7B2F8636807460BB9A368DC
:1024F00013B12046FFF714FFDFF83090FFF710FE0E
:10250000D9F800A08046FFF70BFE8045F6D83618B4
:10251000554428BF013520466660A560FFF71AFEC6
:102520003846BDE8F047FEF799B800BFF018002024
:1025300030B5044685B018B903201649FEF79AFC59
:10254000006800F079FA206800F0E4F90025022321
:10255000CDE900357E22442120680DF10E0300F004
:1025600039FBA84209DA0C4800F02CFE206800F084
:1025700081FA4FF0FF3005B030BD44F65413BDF87A
:102580000E209A4201D00548EEE7206800F072FA6A
:102590002846F0E7F6420008C7440008F044000867
:1025A0002DE9FF410E46054618B903202249FEF7E2
:1025B00061FC02274FF00008006800F03DFAC223DA
:1025C000CDE90078ADF80E300122442128680DF1E4
:1025D0000E0300F02FFB642400210A20FFF774FD96
:1025E000CDE900780DF10E0301224421286800F0A6
:1025F000F1FABDF90E30002B09DB013CECD1286863
:1026000000F038FA0020346004B0BDE8F081CDE974
:1026100000780DF10E0300224421286800F0DAFA58
:10262000BDF80E305BBAC3F30B04C3F303339C4015
:102630006423B4FBF3F4E2E7F642000808B500F0C7
:1026400041FB00F02FFB224B5A6B22F440325A63BD
:102650005A6B42F482025A63CA22A3F504335A62C7
:1026600053225A62DA6842F08002DA60DA68510670
:10267000FCD500229A608022DA60164A1A619A68B4
:1026800022F040029A609A6822F400629A60DA6846
:1026900022F08002DA60104BDA685206FCD4FF2286
:1026A0005A620E4BDA6822F40032DA609A6842F419
:1026B00000329A601A6842F400321A605A6942F491
:1026C00000325A614FF40072054B5A6008BD00BFDA
:1026D00000380240FF7F1F00002800400004014036
:1026E00000E100E0064BDA6822F02002DA60DA68E6
:1026F0009206FCD5986A5B68C0F5FF407F30704752
:102700000028004010B5CA24144B5C6253245C625C
:102710009C6824F488549C60DC68E407FCD5C0F510
:10272000FF40DC697F30C0F30E0040F0706044F081
:102730008034DC615864986840F4807098609868D0
:1027400040F480509860D86820F48070D8600448C5
:10275000016004490A60FF225A6210BD002800404F
:10276000081900200419002010B50D4CE368DB05A2
:102770000ED50C4B1B6813B10B4A10689847E368E1
:102780000A4A23F48073E360536943F400335361CE
:10279000074B1B681BB1BDE81040FDF7E5BD10BD40
:1027A00000280040081900200419002000040140FE
:1027B000A802002002464FF6FF70138B9B0705D539
:1027C000431E9BB200B970471846F6E7002814BFB5
:1027D00000206FF07300704708B5038823F480630E
:1027E0001B041B0C038003889BB243F4007303801B
:1027F0004FF6FF73028892050AD55A1E92B22BB982
:10280000FFF7D8FF002805DB002005E01346F1E7BD
:10281000002BF5D16FF0730008BDF8B500244FF61A
:10282000FF77868A838AB5B223F4E0631B041B0C0E
:102830007605838206D5530701D4FFF7CDFF6FF0ED
:10284000040006E015F4407304D0FFF7C5FF6FF0F5
:102850000A00F8BD0D4204F1010406D1BC42E0D1EA
:10286000FFF7BAFF6FF07300F3E71846F1E70000D7
:102870002DE9F0410F4615461E46044618B90320BF
:102880002349FEF7F7FAD0073CD4238B02F0080265
:10289000990701D4002A35D1A38A23F4E0631B04ED
:1028A0001B0CA3828ABB238805F0FB089BB243F470
:1028B000A0634246012120462380FFF7AEFF002897
:1028C0001EDBBFB215F00405278207D18E4205D169
:1028D000218821F480610904090C218042460221EB
:1028E0002046FFF79AFF431D08BF6FF00500238BBA
:1028F00035B9012E04D123889BB243F400732380A1
:10290000BDE8F0816FF05E00FAE70020F8E700BF55
:10291000F642000801282DE9F04103D903203E4981
:10292000FEF7A8FA00223D4E47013D4BF45943F80B
:10293000202006EB4010002CF0D00379012B5ED054
:10294000022B5FD0002B58D144F62063856906EB3B
:102950000708D8F8141098F81200B5FBF3F5FEF745
:102960005BFD98F91C2098F81C30002A4DDB4FF0D5
:10297000100C2C4803F01F03811881F800C30121BB
:10298000520901FA03F340F822303E44D6F8088099
:1029900015214046FEF7C8F8F76815213846FEF7BE
:1029A000C3F84046317CFEF7FCF83846717CFEF7F0
:1029B000F8F84FF48062B36922801B4AADB2B3FBD2
:1029C000F2F39BB243F4807201339BB2A280A583E1
:1029D000238423899BB243F4804323812389C3F357
:1029E0000E032381A38A23F4E0631B041B0CA38240
:1029F00023889BB243F001032380BDE8F081856901
:102A00000A4BA4E785690A4BA1E70A4A03F00F03C2
:102A10001A4410231376B8E7F6420008144500085C
:102A20000C19002000E100E040420F00400D0300BF
:102A300000350C00FCEC00E0012810B5044603D979
:102A400003200949FEF716FA0848012100EB84002B
:102A5000FFF7FCF9064800EB4414A07C6169FEF71F
:102A6000DBFC002010BD00BFF64200080C1900205E
:102A700014450008012810B5044603D9032008496D
:102A8000FEF7F8F9074B03EB4013987C5969FEF702
:102A9000DBFC054800EB8400FFF708FA002010BDBE
:102AA000F6420008144500080C1900202DE9F047F3
:102AB000012816461D469DF820A003D9032023496E
:102AC000FEF7D8F9224A40011458490041F00101AB
:102AD00052462046C9B2FFF7CBFE002818DB002380
:102AE000771E0AF00409AB4207D11AF0040F2BD16C
:102AF0002046BDE8F047FFF75DBE03F10108A84599
:102B000008D0524640212046FFF787FE002816DAFB
:102B1000BDE8F087B9F1000FF3D1A28A520608D5BB
:102B2000012D06D1228A2046F254BDE8F047FFF776
:102B300053BE2046FFF750FE0028E2DAE8E7238A7A
:102B400007F8013F4346CEE70020E1E7F6420008E0
:102B500014450008F8B5012814461F469DF8186072
:102B600003D903201949FEF785F9194B40011D5877
:102B7000002DF6D0490000233246284601F0FE0120
:102B8000FFF776FE00281FDB2744BC4232464FF099
:102B9000800128460FD1FFF740FE002814DB7307A1
:102BA00011D42846FFF718FE00280DDB2846BDE8A3
:102BB000F840FFF7FFBDFFF730FE002804DB14F8F4
:102BC000013B2B82E1E70020F8BD00BFF642000880
:102BD00014450008F0B585B09DF82C40054614F06A
:102BE0000C0F0E461F46ADF80E2016D114F0020F42
:102BF00044F0040300930DF10E0214BF02230123DD
:102C0000FFF7A8FF002806DB3A46314628460A9B14
:102C10000094FFF74BFF05B0F0BD6FF05E00FAE7E0
:102C200013B59DF81040019401240094FFF7D2FFE2
:102C300002B010BDF0B585B09DF82C40054614F0EB
:102C40000C0F0E461F46ADF80E2018D114F0020FDF
:102C500044F0040300930DF10E0214BF022301237C
:102C6000FFF778FF002808DB44F008043A463146B5
:102C700028460A9B0094FFF76DFF05B0F0BD6FF08A
:102C80005E00FAE71FB58DF80F309DF818300193FC
:102C9000012300930DF10F03FFF7CCFF05B05DF8A2
:102CA00004FB0000024A136843F48073136070470A
:102CB00000700040024A136823F480731360704769
:102CC0000070004008B5FFF7EDFF064B5A6B42F469
:102CD00080725A635A6B9205FCD5BDE80840FFF735
:102CE000E9BF00BF003802407BB972B90029BEBFFE
:102CF00000204FF0004106E008BF00281CBF6FF025
:102D000000414FF0FF3000F0A9B9ADF1080C6DE9BA
:102D100004CE002909DB002B1ADB00F035F8DDF8C2
:102D200004E0DDE9022304B07047404261EB410159
:102D3000002B1BDB00F028F8DDF804E0DDE90223BE
:102D400004B0404261EB4101524263EB43037047E0
:102D5000524263EB430300F017F8DDF804E0DDE9CD
:102D6000022304B0404261EB41017047524263EBE1
:102D7000430300F009F8DDF804E0DDE9022304B0C4
:102D8000524263EB430370472DE9F047089E0D461E
:102D900004468846002B4DD18A42944668D9B2FA3F
:102DA00082F252B101FA02F3C2F1200120FA01F1DC
:102DB0000CFA02FC41EA030894404FEA1C41B8FBBC
:102DC000F1F71FFA8CFE01FB178807FB0EF0230CAE
:102DD00043EA084398420AD91CEB030307F1FF3585
:102DE00080F01E81984240F21B81023F63441B1A0F
:102DF000B3FBF1F001FB103300FB0EFEA4B244EA7A
:102E00000344A6450AD91CEB040400F1FF3380F00B
:102E10000981A64540F20681644402380021A4EBF2
:102E20000E0440EA07401EB10023D440C6E9004327
:102E3000BDE8F0878B4208D9002E00F0EE8000211B
:102E4000C6E900050846BDE8F087B3FA83F100291A
:102E50004AD1AB4202D3824200F2FC80841A65EB75
:102E6000030301209846002EE2D0C6E90048DFE7C0
:102E700002B9FFDEB2FA82F2002A40F09180A1EBA3
:102E80000C0001214FEA1C471FFA8CFEB0FBF7F340
:102E900007FB1300250C45EA00450EFB03F0A84292
:102EA00008D91CEB050503F1FF3802D2A84200F255
:102EB000CE8043462D1AB5FBF7F007FB10550EFBED
:102EC00000FEA4B244EA0544A64508D91CEB04045C
:102ED00000F1FF3502D2A64500F2B6802846A4EBE9
:102EE0000E0440EA03409EE7C1F120078B4022FA1E
:102EF00007FC4CEA030C25FA07FA4FEA1C49BAFB17
:102F0000F9F820FA07F309FB18AA8D401FFA8CFE86
:102F10001D4300FA01F308FB0EF02C0C44EA0A44AE
:102F2000A04202FA01F20BD91CEB040408F1FF3AAB
:102F300080F08880A04240F28580A8F102086444B5
:102F4000241AB4FBF9F009FB104400FB0EFEADB2ED
:102F500045EA0444A64508D91CEB040400F1FF35FA
:102F60006CD2A6456AD90238644440EA0840A0FB06
:102F70000295A4EB0E04AC42C846AE4656D353D0DD
:102F8000002E69D0B3EB080264EB0E0422FA01F3C1
:102F900004FA07F71F43CC40C6E90074002147E755
:102FA0000CFA02FCC2F1200125FA01F34FEA1C479A
:102FB00020FA01F195400D43B3FBF7F107FB113304
:102FC0001FFA8CFE280C40EA034001FB0EF38342FB
:102FD00004FA02F408D91CEB000001F1FF382FD2EB
:102FE00083422DD902396044C01AB0FBF7F307FBC6
:102FF0001300ADB245EA004503FB0EF0A84208D924
:103000001CEB050503F1FF3816D2A84214D9023B88
:103010006544281A43EA014138E73146304607E75C
:103020002F46E4E61846F9E64B45A9D2B9EB02086B
:1030300065EB0C0E0138A3E74346EAE7284694E720
:103040004146D1E7D0467BE76444023847E7023B7C
:1030500065442FE7084606E73146E9E6704700BFBA
:1030600070B500260C4D0D4C641BA410A64209D16E
:10307000FDF75AF800260A4D0A4C641BA410A6421C
:1030800005D170BD55F8043B98470136EEE755F879
:10309000043B98470136F2E7EC450008EC45000890
:1030A000EC450008EC45000803460244934200D179
:1030B000704703F8011BF9E70FB40A4B13B51C68FE
:1030C00024B1A36913B9204600F05AFA05AB204693
:1030D000049AA168019300F05DFC02B0BDE81040C5
:1030E00004B070473402002070B50E46054618B192
:1030F00083690BB900F044FAAB69AC6813B9284690
:1031000000F03EFA2C4B9C4220D16C68636EDB07CA
:1031100005D4A389980502D4A06D00F0CFFAA38945
:1031200019071DD52369DBB1013EA36816F8011FFD
:10313000013BA36039BB002B38DA22460A2128461E
:1031400000F048F8013011D00A2511E01B4B9C42D9
:1031500001D1AC68DAE71A4B9C4208BFEC68D5E7AE
:103160002146284600F088F80028DDD04FF0FF35D2
:10317000636EDA0705D4A3899B0502D4A06D00F025
:103180009EFA284670BD002B04DAA2699A4206DC3A
:103190000A2904D023685A1C22601970C5E7224608
:1031A000284600F017F80130BFD1DFE70A25236871
:1031B0005A1C22601D70DBE778450008984500081E
:1031C00058450008024B01461868FFF78DBF00BF45
:1031D00034020020F8B50E461446054618B183693E
:1031E0000BB900F0CDF9214B9C422BD16C68A3693F
:1031F000A360A3891A072FD523696BB323692068BD
:10320000F6B2C01A63693746834204DC2146284679
:1032100000F022F930BBA3680130013BA3602368B2
:103220005A1C22601E706369834204D0A389DB07A5
:1032300006D50A2E04D12146284600F00DF988B99A
:103240003846F8BD0A4B9C4201D1AC68CFE7094B28
:103250009C4208BFEC68CAE72146284600F00CF8FB
:103260000028CBD04FF0FF37EAE700BF78450008D1
:103270009845000858450008324B70B51D68064651
:103280000C4625B1AB6913B9284600F079F92E4BED
:103290009C420FD16C68A389B4F90C2019072CD477
:1032A000DD0611D40923336042F040034FF0FF30B4
:1032B000A3813EE0254B9C4201D1AC68EBE7244B57
:1032C0009C4208BFEC68E6E7580712D5616B41B134
:1032D00004F14403994202D0304600F057FA00232B
:1032E0006363A38923F02403A3810023636023691C
:1032F0002360A38943F00803A38123694BB9A38901
:1033000003F42073B3F5007F03D02146304600F06C
:10331000FDF9A089B4F90C2010F001030AD00023B4
:10332000A36063695B42A361236943B910F0800025
:10333000BAD170BD810758BF6369A360F4E700206C
:10334000F7E700BF340200207845000898450008E0
:10335000584500088A89F8B5054610070C4657D429
:103360004B68002B04DC0B6C002B01DC0020F8BD4B
:10337000E66A002EFAD0002312F480522F682B60E8
:1033800032D0606DA3895A0705D56368C01A636B94
:103390000BB1236CC01A00230246E66A2846216A54
:1033A000B047431CA38906D129681D292CD8294A76
:1033B000CA40D60728D5002262602269D90422605B
:1033C00004D5421C01D12B6803B96065616B2F6085
:1033D0000029CBD004F14403994202D0284600F0E2
:1033E000D5F900206063C2E7216A01232846B0476F
:1033F000411CC7D12B68002BC4D01D2B01D0162B2C
:1034000001D12F60B2E7A38943F04003A381AEE767
:103410000F69002FAAD0930718BF00230E6808BFBA
:103420004B69F61B0F608B60002E9FDD33463A46DA
:103430002846216AD4F828C0E047002806DCA38982
:103440004FF0FF3043F04003A38190E70744361A62
:10345000EAE700BF0100402038B50B6905460C467D
:1034600013B90025284638BD18B183690BB900F09F
:1034700087F8144B9C421BD16C68B4F90C30002BBC
:10348000EFD0626ED00704D4990502D4A06D00F08D
:1034900015F928462146FFF75DFF636E0546DA07FA
:1034A000E0D4A3899B05DDD4A06D00F008F9D9E72D
:1034B000054B9C4201D1AC68DFE7044B9C4208BF3E
:1034C000EC68DAE778450008984500085845000898
:1034D000002310B50446C0E90033C0E9043383601B
:1034E00081814366C2818361194608225C30FFF7FF
:1034F000DBFD054B24626362044BA362044BE36271
:10350000044B236310BD00BF213F0008433F000868
:103510007B3F00089F3F0008014900F0AFB800BFA3
:1035200059340008682270B54D1E55430E4605F10A
:10353000740100F093F9044640B10021C0E900167F
:103540000C30A06005F16802FFF7AEFD204670BDAB
:10355000014800F0B3B800BF15190020014800F081
:10356000AEB800BF15190020014800F0A7B800BF91
:1035700016190020014800F0A2B800BF161900205B
:1035800010B50446FFF7F0FFA3691BB1BDE810407A
:10359000FFF7F0BFC4E912332365134B134A1B68CE
:1035A000A262A34208BF0123204608BFA36100F026
:1035B0001FF86060204600F01BF8A060204600F075
:1035C00017F800220421E0606068FFF781FF012204
:1035D0000921A068FFF77CFF02221221E068FFF7B3
:1035E00077FF0123A361D1E754450008193500088E
:1035F000F8B50746FFF7ACFF1E4B1E68B36913B959
:103600003046FFF7BDFF4836D6E90134013B03D50C
:1036100033680BB33668F7E7B4F90C50D5B9164BDD
:1036200004F15800E360656600F047F8FFF796FF85
:1036300008222946C4E90155C4E904552560A5615D
:1036400004F15C00FFF730FDC4E90D55C4E91255E3
:103650002046F8BD6834D9E704213846FFF762FFF9
:10366000044630600028D5D1FFF778FF0C233B607B
:10367000EEE700BF544500080100FFFF2DE9F843C5
:1036800006468846002700F14804D4E90195B9F1BF
:10369000010905D52468002CF7D13846BDE8F88328
:1036A000AB89012B07D9B5F90E30013303D0294678
:1036B0003046C04707436835E9E7704770477047B1
:1036C00070B50E46B1F90E10144600291D4696B08D
:1036D00008DA0022B6F90C302A601A0610D44FF42A
:1036E00080630EE06A46FCF753FD0028F1DB019A87
:1036F00002F47042A2F500535A425A412A60EEE7A2
:1037000040230020236016B070BD00008B8973B584
:103710009D0706460C4607D504F147032360236145
:103720000123636102B070BD6A4601ABFFF7C8FFB9
:1037300000990546304600F091F848B9B4F90C30CC
:103740009A05EFD423F0030343F00203A381E3E7D8
:103750000D4BB362A389206043F08003A381009BDB
:1037600020616361019B5BB13046B4F90E10FCF738
:1037700014FD28B1A38923F0030343F00103A381BF
:10378000A0890543A581CDE71935000838B5054660
:10379000002940D051F8043C0C1F002BB8BFE4189E
:1037A00000F010FC1C4A136833B9636014602846AB
:1037B000BDE8384000F00CBCA34208D920682118AD
:1037C0008B4201BF19685B6809182160EDE71A4652
:1037D0005B680BB1A342FAD911685018A0420BD113
:1037E00020680144501883421160E0D118685B687A
:1037F000014411605360DAE702D90C232B60D6E74D
:10380000206821188B4201BF19685B680918216084
:1038100063605460CBE738BD1819002070B50E4EB8
:103820000C463168054611B9FCF782FC3060214630
:103830002846FCF77DFC431C0AD0C41C24F003047A
:10384000A04207D0211A2846FCF772FC013001D1B2
:103850004FF0FF34204670BD1C1900202DE9F041C7
:10386000CD1C25F0030508350C2D38BF0C25002D87
:10387000074601DBA94205D90C2300263B603046F0
:10388000BDE8F0812E4E00F09DFB33681C4634BB32
:1038900029463846FFF7C2FF431C04464DD1346821
:1038A0002646002E40D123683146384604EB0308F3
:1038B000FCF73EFC80453AD1216803356D1A25F0AE
:1038C000030508350C2D38BF0C2538462946FFF76F
:1038D000A5FF01302BD023682B4423600EE0226823
:1038E000521B1ED40B2A16D96119A342256018BF9A
:1038F0005960636808BF316062514B60384604F11B
:103900000B0600F065FB26F00706231DF21AB6D061
:103910009B1BA350B3E76268A3420CBF32605A609E
:10392000ECE723466468B2E734467668B9E70C23CF
:1039300038463B6000F04CFBA1E72560DEE700BFA6
:1039400018190020936810B4013B002B936007DA2C
:103950009469A34201DB0A2902D110BCFFF73ABCEB
:103960001368581C10601970084610BC7047F8B5F1
:1039700006460F461446D518AC4201D1002007E098
:103980003A46304614F8011BFFF7DCFF431CF3D125
:10399000F8BD00002DE9F04F0D4614469846064646
:1039A0009DB018B183690BB9FFF7EAFD894B9D42C1
:1039B0001BD175686B6ED90705D4AB899A0502D403
:1039C000A86DFFF77BFEAB891B0701D52B69EBB90F
:1039D00029463046FFF750FCC0B16B6EDC070ED5B0
:1039E0004FF0FF301DB0BDE8F08F7B4B9D4201D101
:1039F000B568DFE7794B9D4208BFF568DAE7AB8928
:103A00009805EDD4A86DFFF75AFEE9E70023099366
:103A100020238DF8293030234FF00109CDF80C8098
:103A2000DFF8BC818DF82A3023469A4613F8012B23
:103A30000AB1252AF9D1BAEB040B0BD05B4622461A
:103A400029463046FFF793FF013000F0AA80099A1B
:103A50005A4409929AF80030002B00F0A28000230B
:103A60004FF0FF32CDE905230AF1010A04930793D1
:103A70008DF853301A935446052214F8011B584808
:103A800000F091FA049AD8B9D10644BF20238DF8EA
:103A90005330130744BF2B238DF853309AF800306E
:103AA0002A2B15D0544600204FF00A0C079A2146C5
:103AB00011F8013B303B092B4ED9B0B1079214E00D
:103AC000A0EB080309FA03F31343A2460493D2E7D9
:103AD000039B191D1B680391002BBBBF5B4242F087
:103AE000020207930793B8BF049223782E2B0CD1C0
:103AF00063782A2B35D1039B02341A1D1B6803926D
:103B0000002BB8BF4FF0FF330593DFF8D8A0032296
:103B10005046217800F047FA40B14023A0EB0A005C
:103B200003FA00F0049B01340343049314F8011BCF
:103B300006222D488DF8281000F035FA00283FD0D5
:103B40002A4B1BBB039B073323F007030833039364
:103B5000099B3B44099367E70C4601200CFB0232AA
:103B6000A5E700234FF00A0C1946013405932046BF
:103B700010F8012B303A092A03D9002BC5D0059142
:103B8000C3E7044601230CFB0121F0E703AB0093DC
:103B90002A463046164B04A9AFF300800746781C2E
:103BA000D6D16B6ED90705D4AB899A0502D4A86D1E
:103BB000FFF785FDAB895B063FF512AF099811E76A
:103BC00003AB00932A463046094B04A900F082F863
:103BD000E4E700BF7845000898450008584500080C
:103BE000B8450008BE450008C245000800000000B6
:103BF0006F3900082DE9F047164699468A680B6927
:103C000007469342B8BF1346336091F843200C46F1
:103C1000DDF820800AB1013333602368990642BF82
:103C2000336802333360256815F0060506D104F1C8
:103C3000190AE36832689B1AAB4228DC94F84320E7
:103C4000131E226818BF012392062DD44946384618
:103C500004F14302C047013020D02368E56803F037
:103C60000603042B18BF002532684FF00006A36836
:103C700008BFAD1A226908BF25EAE5759342C4BFA3
:103C80009B1AED181A34B5421AD1002008E001231E
:103C9000524649463846C047013003D14FF0FF3005
:103CA000BDE8F0870135C4E73020E11881F8430012
:103CB0005A1C94F845102244023382F84310C5E799
:103CC0000123224649463846C0470130E6D0013636
:103CD000D9E700002DE9FF470F7E9146782F8046F7
:103CE0000C469A460C9D01F1430207D8622F0AD870
:103CF000002F00F0D980582F00F0A48004F1420575
:103D000084F842703AE0A7F16303152BF6D801A1BD
:103D100051F823F06D3D0008813D0008FD3C00088E
:103D2000FD3C0008FD3C0008FD3C0008813D00080A
:103D3000FD3C0008FD3C0008FD3C0008FD3C00087F
:103D40008F3E0008B13D0008713E0008FD3C0008B0
:103D5000FD3C0008B13E0008FD3C0008B13D0008F4
:103D6000FD3C0008FD3C0008793E00082B681A1D48
:103D70001B682A6004F1420584F842300123A4E064
:103D800020682968060601F104030AD50E682B6035
:103D9000002E03DA2D23764284F843300A235E484E
:103DA00019E00E6810F0400F2B6018BF36B2EFE735
:103DB0002B682068191D2960010601D51E6802E0E4
:103DC0004606FBD51E886F2F0CBF08230A235248D6
:103DD000002184F843106568002DA8BF2168A56004
:103DE000A4BF21F0040121600EB9002D4DD015466D
:103DF000B6FBF3F103FB1167C75D05F8017D37469C
:103E0000BB420E46F4D9082B0BD12368DE0708D538
:103E1000236961689942DEBF302305F8013C05F152
:103E2000FF35521B22614B4621464046CDF800A08B
:103E300003AAFFF7DFFE01304CD14FF0FF3004B092
:103E4000BDE8F087344881F845702968236851F847
:103E5000046B29601D0614D5DF0744BF43F020031F
:103E600023601EB9236823F0200323601023AFE7EB
:103E7000236843F0200323607823284884F84530E2
:103E8000E3E7590648BFB6B2E6E71546BBE72B683D
:103E90002668181D6169286035061B6801D5196000
:103EA00002E07006FBD51980002315462361BAE7AE
:103EB0002B6800211A1D2A601D686268284600F0E0
:103EC00072F808B1401B606063682361002384F8C6
:103ED0004330A8E72A46494640462369D047013087
:103EE000ABD023689B0713D4E068039B9842B8BF0C
:103EF0001846A4E70123324649464046D0470130E0
:103F00009BD00135E36803995B1AAB42F2DCEBE727
:103F1000002504F11906F5E7C9450008DA4500084F
:103F200010B50C46B1F90E10FCF720F90028ABBF14
:103F3000636DA3891B1823F48053ACBF6365A38111
:103F400010BD2DE9F0411F468B890546DB050C4667
:103F5000164605D502230022B1F90E10FCF713F91D
:103F6000A389324623F48053A38128463B46B4F903
:103F70000E10BDE8F041FCF7FDB810B50C46B1F9E4
:103F80000E10FCF700F9431CA38915BF606523F4EC
:103F9000805343F48053A38118BFA38110BDB1F9AE
:103FA0000E10FCF7EBB8034610B5C9B202449342B9
:103FB000184601D1002003E0047801338C42F6D189
:103FC00010BD00000148FFF779BB00BF14190020A5
:103FD0000148FFF774BB00BF141900204E4D492063
:103FE00048414E444C4552004D454D204D414E41B7
:103FF00047452048414E444C4552004255532046C7
:1040000041554C542048414E444C45520055534173
:104010004745204641554C542048414E444C45525A
:10402000004445425547204D4F4E2048414E444C98
:1040300045520044554D4D592048414E444C45523F
:10404000000A49535220737461636B206F76657266
:10405000666C6F77656400537461636B20706F6981
:104060006E74657220636F727275707465642C2053
:10407000726573657420746F20746F70206F662092
:10408000737461636B000A436F6E746578742062A9
:1040900065666F726520686172646661756C743AFA
:1040A0000020202072303A2030782530386C780A91
:1040B00020202072313A2030782530386C780A2060
:1040C000202072323A2030782530386C780A20204F
:1040D0002072333A2030782530386C780A0020205E
:1040E0007231323A2030782530386C780A2020201E
:1040F0006C723A2030782530386C780A2020207095
:10410000633A2030782530386C780A20207073723A
:104110003A2030782530386C780A0A004653522FFE
:104120004641523A0020434653523A2030782530D7
:10413000386C780A0020484653523A2030782530AF
:10414000386C780A0020444653523A2030782530A3
:10415000386C780A0020414653523A203078253096
:10416000386C780A0020424641523A203078253097
:10417000386C780A004D4D4641523A20307825304F
:10418000386C780A004D697363004558435F5245A7
:10419000543A2030782530386C780A0041747465C0
:1041A0006D7074696E6720746F207265636F6E73D3
:1041B000747275637420737461746520666F722005
:1041C000646562756767696E672E2E2E00496E20E2
:1041D0004744423A0A2020736574202470633D30BE
:1041E00078256C780A20206672616D6520300A207F
:1041F0002062740A000A49535220737461636B2071
:104200006F766572666C6F77656420627920617481
:10421000206C656173742025642062797465732E47
:104220000A0048415244204641554C542048414ED2
:10423000444C45520000000000380140004000009E
:104240000A0002400900024004010707012500009E
:10425000004400400000020003000240020002404F
:104260000401070700260000004800400000040089
:104270000B0402400A040240040107070027000063
:1042800000380140004000000A00024009000240DE
:10429000040107070125000000440040000002005F
:1042A000030002400200024004010707002600004C
:1042B00000480040000004000B0402400A040240D1
:1042C000040107070027000025700A002A2A2A2077
:1042D00052494F54206B65726E656C2070616E6937
:1042E000633A0A25730A0A002A2A2A2068616C7434
:1042F00065642E0A0A004641494C45442041535307
:10430000455254494F4E2E006D61696E28293A205E
:10431000546869732069732052494F5421202856EC
:10432000657273696F6E3A20323031392E30312E1A
:10433000554E574453290A0069646C65006D6169E4
:104340006E000101010000000000000000000000FC
:104350000000000000030002000000000000000058
:10436000000000000405000000100140FFFF0000F5
:1043700010000000011B000000080140FFFF0000CA
:10438000040000000119000054203D2025692E255D
:104390006920432C2048203D2025692E25692025B1
:1043A000252C2050203D202569206D6261720D0A68
:1043B000006C756D203D20256C75206C75780D0A9C
:1043C00000756172742072656164206578616D703A
:1043D0006C650A0D007561727420696E697469619B
:1043E0006C697A65206572726F720A0D004F5054C5
:1043F000333030312073756363657366756C6C7927
:1044000020696E697469616C69736564210D0A00C5
:10441000424D453238302073756363657366756C41
:104420006C7920696E697469616C69736564210DCA
:104430000A007265636569766572207468726561E9
:10444000640072656365697665722074687265617F
:1044500064206973207374617274696E670A0D0059
:1044600025303268583A3A000A0D25640A0D005585
:104470006E61626C6520746F207265616420636197
:104480006C6962726174696F6E20646174610A00A4
:1044900052656164696E672074696D652065787026
:1044A000697265640A00556E61626C6520746F20E4
:1044B000726561642074656D706572617475726592
:1044C00020646174610A005B6F7074333030312096
:1044D0006472697665725D204572726F723A2073FC
:1044E000656E736F72206E6F7420666F756E6400F8
:1044F0005B6F707433303031206472697665725D41
:10450000204572726F723A204944206D69736D6163
:104510007463680000540040010000000804024079
:104520000904024004040000000020000048E801E3
:104530001F00000000580040010000000A04024073
:104540000B04024004040000000040000048E801A1
:1045500021000000380200200000000000000000E0
:10456000000000000000000000000000000000004B
:10457000000000000000000000000000000000003B
:10458000000000000000000000000000000000002B
:10459000000000000000000000000000000000001B
:1045A000000000000000000000000000000000000B
:1045B0000000000000000000232D302B2000686C5C
:1045C0004C00656667454647003031323334353636
:1045D000373839414243444546003031323334356F
:0C45E0003637383961626364656600009C
:0845EC009CE7FF7F01000000C5
:1045F4002419002074030020400000000000000083
:104604000000000000000000384300083D4300089B
:104614000101010101000000760000000101010117
:104624000100000038020020000000007845000866
:1046340098450008584500080000000000000000EC
:104644000000000000000000000000000000000066
:104654000000000000000000000000000000000056
:104664000000000000000000000000000000000046
:104674000000000000000000000000000000000036
:0C468400000000000000000028210000E1
:040000050800045992
:00000001FF
